{
	"data": {
		"bytecode": {
			"linkReferences": {},
			"object": "610160604052348015610010575f80fd5b506040518060400160405280600581526020017f4d794170700000000000000000000000000000000000000000000000000000008152506040518060400160405280600581526020017f312e302e300000000000000000000000000000000000000000000000000000008152506100905f8361012b60201b90919060201c565b61012081815250506100ac60018261012b60201b90919060201c565b6101408181525050818051906020012060e08181525050808051906020012061010081815250504660a081815250506100e961017860201b60201c565b608081815250503073ffffffffffffffffffffffffffffffffffffffff1660c08173ffffffffffffffffffffffffffffffffffffffff16815250505050610719565b5f60208351101561014c57610145836101d260201b60201c565b9050610172565b8261015c8361023760201b60201c565b5f01908161016a919061047a565b5060ff5f1b90505b92915050565b5f7f8b73c3c69bb8fe3d512ecc4cf759cc79239f7b179b0ffacaa9a75d522b39400f60e0516101005146306040516020016101b79594939291906105af565b60405160208183030381529060405280519060200120905090565b5f80829050601f8151111561021e57826040517f305a27a90000000000000000000000000000000000000000000000000000000081526004016102159190610666565b60405180910390fd5b80518161022a906106b3565b5f1c175f1b915050919050565b5f819050919050565b5f81519050919050565b7f4e487b71000000000000000000000000000000000000000000000000000000005f52604160045260245ffd5b7f4e487b71000000000000000000000000000000000000000000000000000000005f52602260045260245ffd5b5f60028204905060018216806102bb57607f821691505b6020821081036102ce576102cd610277565b5b50919050565b5f819050815f5260205f209050919050565b5f6020601f8301049050919050565b5f82821b905092915050565b5f600883026103307fffffffffffffffffffffffffffffffffffffffffffffffffffffffffffffffff826102f5565b61033a86836102f5565b95508019841693508086168417925050509392505050565b5f819050919050565b5f819050919050565b5f61037e61037961037484610352565b61035b565b610352565b9050919050565b5f819050919050565b61039783610364565b6103ab6103a382610385565b848454610301565b825550505050565b5f90565b6103bf6103b3565b6103ca81848461038e565b505050565b5b818110156103ed576103e25f826103b7565b6001810190506103d0565b5050565b601f82111561043257610403816102d4565b61040c846102e6565b8101602085101561041b578190505b61042f610427856102e6565b8301826103cf565b50505b505050565b5f82821c905092915050565b5f6104525f1984600802610437565b1980831691505092915050565b5f61046a8383610443565b9150826002028217905092915050565b61048382610240565b67ffffffffffffffff81111561049c5761049b61024a565b5b6104a682546102a4565b6104b18282856103f1565b5f60209050601f8311600181146104e2575f84156104d0578287015190505b6104da858261045f565b865550610541565b601f1984166104f0866102d4565b5f5b82811015610517578489015182556001820191506020850194506020810190506104f2565b868310156105345784890151610530601f891682610443565b8355505b6001600288020188555050505b505050505050565b5f819050919050565b61055b81610549565b82525050565b61056a81610352565b82525050565b5f73ffffffffffffffffffffffffffffffffffffffff82169050919050565b5f61059982610570565b9050919050565b6105a98161058f565b82525050565b5f60a0820190506105c25f830188610552565b6105cf6020830187610552565b6105dc6040830186610552565b6105e96060830185610561565b6105f660808301846105a0565b9695505050505050565b5f82825260208201905092915050565b8281835e5f83830152505050565b5f601f19601f8301169050919050565b5f61063882610240565b6106428185610600565b9350610652818560208601610610565b61065b8161061e565b840191505092915050565b5f6020820190508181035f83015261067e818461062e565b905092915050565b5f81519050919050565b5f819050602082019050919050565b5f6106aa8251610549565b80915050919050565b5f6106bd82610686565b826106c784610690565b90506106d28161069f565b925060208210156107125761070d7fffffffffffffffffffffffffffffffffffffffffffffffffffffffffffffffff836020036008026102f5565b831692505b5050919050565b60805160a05160c05160e0516101005161012051610140516112fa61076a5f395f61042201525f6103e701525f610a2701525f610a0601525f61048501525f6104db01525f61050401526112fa5ff3fe608060405234801561000f575f80fd5b5060043610610049575f3560e01c8062bf26f41461004d57806340ff0cd91461006b57806384b0196e1461009b578063a3230b4b146100bf575b5f80fd5b6100556100ef565b6040516100629190610b4f565b60405180910390f35b61008560048036038101906100809190610c5e565b610113565b6040516100929190610cfc565b60405180910390f35b6100a36101cb565b6040516100b69796959493929190610e94565b60405180910390f35b6100d960048036038101906100d49190610f76565b610270565b6040516100e69190610cfc565b60405180910390f35b7f22c9c571f8d7e6c74c09d4b09c57f62ea5bf8a94cd88c1f00594f032dc00cbc981565b5f807f22c9c571f8d7e6c74c09d4b09c57f62ea5bf8a94cd88c1f00594f032dc00cbc987878760405160200161014c9493929190610fff565b6040516020818303038152906040528051906020012090505f61016e8261031a565b90506101be888287878080601f0160208091040260200160405190810160405280939291908181526020018383808284375f81840152601f19601f82011690508083019250505050505050610333565b9250505095945050505050565b5f6060805f805f60606101dc6103df565b6101e4610419565b46305f801b5f67ffffffffffffffff81111561020357610202611042565b5b6040519080825280602002602001820160405280156102315781602001602082028036833780820191505090505b507f0f00000000000000000000000000000000000000000000000000000000000000959493929190965096509650965096509650965090919293949596565b5f807f22c9c571f8d7e6c74c09d4b09c57f62ea5bf8a94cd88c1f00594f032dc00cbc98888886040516020016102a99493929190610fff565b6040516020818303038152906040528051906020012090505f6102cb8261031a565b90505f6102da82888888610454565b90508973ffffffffffffffffffffffffffffffffffffffff168173ffffffffffffffffffffffffffffffffffffffff161493505050509695505050505050565b5f61032c610326610482565b83610538565b9050919050565b5f808473ffffffffffffffffffffffffffffffffffffffff163b036103ca575f8061035e8585610578565b50915091505f60038111156103765761037561106f565b5b8160038111156103895761038861106f565b5b1480156103c157508573ffffffffffffffffffffffffffffffffffffffff168273ffffffffffffffffffffffffffffffffffffffff16145b925050506103d8565b6103d58484846105cd565b90505b9392505050565b60606104145f7f00000000000000000000000000000000000000000000000000000000000000006106ec90919063ffffffff16565b905090565b606061044f60017f00000000000000000000000000000000000000000000000000000000000000006106ec90919063ffffffff16565b905090565b5f805f8061046488888888610799565b9250925092506104748282610880565b829350505050949350505050565b5f7f000000000000000000000000000000000000000000000000000000000000000073ffffffffffffffffffffffffffffffffffffffff163073ffffffffffffffffffffffffffffffffffffffff161480156104fd57507f000000000000000000000000000000000000000000000000000000000000000046145b1561052a577f00000000000000000000000000000000000000000000000000000000000000009050610535565b6105326109e2565b90505b90565b5f6040517f190100000000000000000000000000000000000000000000000000000000000081528360028201528260228201526042812091505092915050565b5f805f60418451036105b8575f805f602087015192506040870151915060608701515f1a90506105aa88828585610799565b9550955095505050506105c6565b5f600285515f1b9250925092505b9250925092565b5f805f8573ffffffffffffffffffffffffffffffffffffffff1685856040516024016105fa9291906110ee565b604051602081830303815290604052631626ba7e60e01b6020820180517bffffffffffffffffffffffffffffffffffffffffffffffffffffffff838183161783525050505060405161064c9190611156565b5f60405180830381855afa9150503d805f8114610684576040519150601f19603f3d011682016040523d82523d5f602084013e610689565b606091505b509150915081801561069d57506020815110155b80156106e15750631626ba7e60e01b7bffffffffffffffffffffffffffffffffffffffffffffffffffffffff1916818060200190518101906106df9190611180565b145b925050509392505050565b606060ff5f1b83146107085761070183610a77565b9050610793565b818054610714906111d8565b80601f0160208091040260200160405190810160405280929190818152602001828054610740906111d8565b801561078b5780601f106107625761010080835404028352916020019161078b565b820191905f5260205f20905b81548152906001019060200180831161076e57829003601f168201915b505050505090505b92915050565b5f805f7f7fffffffffffffffffffffffffffffff5d576e7357a4501ddfe92f46681b20a0845f1c11156107d5575f600385925092509250610876565b5f6001888888886040515f81526020016040526040516107f89493929190611217565b6020604051602081039080840390855afa158015610818573d5f803e3d5ffd5b5050506020604051035190505f73ffffffffffffffffffffffffffffffffffffffff168173ffffffffffffffffffffffffffffffffffffffff1603610869575f60015f801b93509350935050610876565b805f805f1b935093509350505b9450945094915050565b5f60038111156108935761089261106f565b5b8260038111156108a6576108a561106f565b5b03156109de57600160038111156108c0576108bf61106f565b5b8260038111156108d3576108d261106f565b5b0361090a576040517ff645eedf00000000000000000000000000000000000000000000000000000000815260040160405180910390fd5b6002600381111561091e5761091d61106f565b5b8260038111156109315761093061106f565b5b0361097557805f1c6040517ffce698f700000000000000000000000000000000000000000000000000000000815260040161096c919061125a565b60405180910390fd5b6003808111156109885761098761106f565b5b82600381111561099b5761099a61106f565b5b036109dd57806040517fd78bce0c0000000000000000000000000000000000000000000000000000000081526004016109d49190610b4f565b60405180910390fd5b5b5050565b5f7f8b73c3c69bb8fe3d512ecc4cf759cc79239f7b179b0ffacaa9a75d522b39400f7f00000000000000000000000000000000000000000000000000000000000000007f00000000000000000000000000000000000000000000000000000000000000004630604051602001610a5c959493929190611273565b60405160208183030381529060405280519060200120905090565b60605f610a8383610ae9565b90505f602067ffffffffffffffff811115610aa157610aa0611042565b5b6040519080825280601f01601f191660200182016040528015610ad35781602001600182028036833780820191505090505b5090508181528360208201528092505050919050565b5f8060ff835f1c169050601f811115610b2e576040517fb3512b0c00000000000000000000000000000000000000000000000000000000815260040160405180910390fd5b80915050919050565b5f819050919050565b610b4981610b37565b82525050565b5f602082019050610b625f830184610b40565b92915050565b5f80fd5b5f80fd5b5f73ffffffffffffffffffffffffffffffffffffffff82169050919050565b5f610b9982610b70565b9050919050565b610ba981610b8f565b8114610bb3575f80fd5b50565b5f81359050610bc481610ba0565b92915050565b5f819050919050565b610bdc81610bca565b8114610be6575f80fd5b50565b5f81359050610bf781610bd3565b92915050565b5f80fd5b5f80fd5b5f80fd5b5f8083601f840112610c1e57610c1d610bfd565b5b8235905067ffffffffffffffff811115610c3b57610c3a610c01565b5b602083019150836001820283011115610c5757610c56610c05565b5b9250929050565b5f805f805f60808688031215610c7757610c76610b68565b5b5f610c8488828901610bb6565b9550506020610c9588828901610bb6565b9450506040610ca688828901610be9565b935050606086013567ffffffffffffffff811115610cc757610cc6610b6c565b5b610cd388828901610c09565b92509250509295509295909350565b5f8115159050919050565b610cf681610ce2565b82525050565b5f602082019050610d0f5f830184610ced565b92915050565b5f7fff0000000000000000000000000000000000000000000000000000000000000082169050919050565b610d4981610d15565b82525050565b5f81519050919050565b5f82825260208201905092915050565b8281835e5f83830152505050565b5f601f19601f8301169050919050565b5f610d9182610d4f565b610d9b8185610d59565b9350610dab818560208601610d69565b610db481610d77565b840191505092915050565b610dc881610bca565b82525050565b610dd781610b8f565b82525050565b5f81519050919050565b5f82825260208201905092915050565b5f819050602082019050919050565b610e0f81610bca565b82525050565b5f610e208383610e06565b60208301905092915050565b5f602082019050919050565b5f610e4282610ddd565b610e4c8185610de7565b9350610e5783610df7565b805f5b83811015610e87578151610e6e8882610e15565b9750610e7983610e2c565b925050600181019050610e5a565b5085935050505092915050565b5f60e082019050610ea75f83018a610d40565b8181036020830152610eb98189610d87565b90508181036040830152610ecd8188610d87565b9050610edc6060830187610dbf565b610ee96080830186610dce565b610ef660a0830185610b40565b81810360c0830152610f088184610e38565b905098975050505050505050565b5f60ff82169050919050565b610f2b81610f16565b8114610f35575f80fd5b50565b5f81359050610f4681610f22565b92915050565b610f5581610b37565b8114610f5f575f80fd5b50565b5f81359050610f7081610f4c565b92915050565b5f805f805f8060c08789031215610f9057610f8f610b68565b5b5f610f9d89828a01610bb6565b9650506020610fae89828a01610bb6565b9550506040610fbf89828a01610be9565b9450506060610fd089828a01610f38565b9350506080610fe189828a01610f62565b92505060a0610ff289828a01610f62565b9150509295509295509295565b5f6080820190506110125f830187610b40565b61101f6020830186610dce565b61102c6040830185610dce565b6110396060830184610dbf565b95945050505050565b7f4e487b71000000000000000000000000000000000000000000000000000000005f52604160045260245ffd5b7f4e487b71000000000000000000000000000000000000000000000000000000005f52602160045260245ffd5b5f81519050919050565b5f82825260208201905092915050565b5f6110c08261109c565b6110ca81856110a6565b93506110da818560208601610d69565b6110e381610d77565b840191505092915050565b5f6040820190506111015f830185610b40565b818103602083015261111381846110b6565b90509392505050565b5f81905092915050565b5f6111308261109c565b61113a818561111c565b935061114a818560208601610d69565b80840191505092915050565b5f6111618284611126565b915081905092915050565b5f8151905061117a81610f4c565b92915050565b5f6020828403121561119557611194610b68565b5b5f6111a28482850161116c565b91505092915050565b7f4e487b71000000000000000000000000000000000000000000000000000000005f52602260045260245ffd5b5f60028204905060018216806111ef57607f821691505b602082108103611202576112016111ab565b5b50919050565b61121181610f16565b82525050565b5f60808201905061122a5f830187610b40565b6112376020830186611208565b6112446040830185610b40565b6112516060830184610b40565b95945050505050565b5f60208201905061126d5f830184610dbf565b92915050565b5f60a0820190506112865f830188610b40565b6112936020830187610b40565b6112a06040830186610b40565b6112ad6060830185610dbf565b6112ba6080830184610dce565b969550505050505056fea26469706673582212203d09f5a504b9ba2d094d82f48526091a006b8df69f3a982916f8ca211be8fb3d64736f6c634300081a0033",
			"opcodes": "PUSH2 0x160 PUSH1 0x40 MSTORE CALLVALUE DUP1 ISZERO PUSH2 0x10 JUMPI PUSH0 DUP1 REVERT JUMPDEST POP PUSH1 0x40 MLOAD DUP1 PUSH1 0x40 ADD PUSH1 0x40 MSTORE DUP1 PUSH1 0x5 DUP2 MSTORE PUSH1 0x20 ADD PUSH32 0x4D79417070000000000000000000000000000000000000000000000000000000 DUP2 MSTORE POP PUSH1 0x40 MLOAD DUP1 PUSH1 0x40 ADD PUSH1 0x40 MSTORE DUP1 PUSH1 0x5 DUP2 MSTORE PUSH1 0x20 ADD PUSH32 0x312E302E30000000000000000000000000000000000000000000000000000000 DUP2 MSTORE POP PUSH2 0x90 PUSH0 DUP4 PUSH2 0x12B PUSH1 0x20 SHL SWAP1 SWAP2 SWAP1 PUSH1 0x20 SHR JUMP JUMPDEST PUSH2 0x120 DUP2 DUP2 MSTORE POP POP PUSH2 0xAC PUSH1 0x1 DUP3 PUSH2 0x12B PUSH1 0x20 SHL SWAP1 SWAP2 SWAP1 PUSH1 0x20 SHR JUMP JUMPDEST PUSH2 0x140 DUP2 DUP2 MSTORE POP POP DUP2 DUP1 MLOAD SWAP1 PUSH1 0x20 ADD KECCAK256 PUSH1 0xE0 DUP2 DUP2 MSTORE POP POP DUP1 DUP1 MLOAD SWAP1 PUSH1 0x20 ADD KECCAK256 PUSH2 0x100 DUP2 DUP2 MSTORE POP POP CHAINID PUSH1 0xA0 DUP2 DUP2 MSTORE POP POP PUSH2 0xE9 PUSH2 0x178 PUSH1 0x20 SHL PUSH1 0x20 SHR JUMP JUMPDEST PUSH1 0x80 DUP2 DUP2 MSTORE POP POP ADDRESS PUSH20 0xFFFFFFFFFFFFFFFFFFFFFFFFFFFFFFFFFFFFFFFF AND PUSH1 0xC0 DUP2 PUSH20 0xFFFFFFFFFFFFFFFFFFFFFFFFFFFFFFFFFFFFFFFF AND DUP2 MSTORE POP POP POP POP PUSH2 0x719 JUMP JUMPDEST PUSH0 PUSH1 0x20 DUP4 MLOAD LT ISZERO PUSH2 0x14C JUMPI PUSH2 0x145 DUP4 PUSH2 0x1D2 PUSH1 0x20 SHL PUSH1 0x20 SHR JUMP JUMPDEST SWAP1 POP PUSH2 0x172 JUMP JUMPDEST DUP3 PUSH2 0x15C DUP4 PUSH2 0x237 PUSH1 0x20 SHL PUSH1 0x20 SHR JUMP JUMPDEST PUSH0 ADD SWAP1 DUP2 PUSH2 0x16A SWAP2 SWAP1 PUSH2 0x47A JUMP JUMPDEST POP PUSH1 0xFF PUSH0 SHL SWAP1 POP JUMPDEST SWAP3 SWAP2 POP POP JUMP JUMPDEST PUSH0 PUSH32 0x8B73C3C69BB8FE3D512ECC4CF759CC79239F7B179B0FFACAA9A75D522B39400F PUSH1 0xE0 MLOAD PUSH2 0x100 MLOAD CHAINID ADDRESS PUSH1 0x40 MLOAD PUSH1 0x20 ADD PUSH2 0x1B7 SWAP6 SWAP5 SWAP4 SWAP3 SWAP2 SWAP1 PUSH2 0x5AF JUMP JUMPDEST PUSH1 0x40 MLOAD PUSH1 0x20 DUP2 DUP4 SUB SUB DUP2 MSTORE SWAP1 PUSH1 0x40 MSTORE DUP1 MLOAD SWAP1 PUSH1 0x20 ADD KECCAK256 SWAP1 POP SWAP1 JUMP JUMPDEST PUSH0 DUP1 DUP3 SWAP1 POP PUSH1 0x1F DUP2 MLOAD GT ISZERO PUSH2 0x21E JUMPI DUP3 PUSH1 0x40 MLOAD PUSH32 0x305A27A900000000000000000000000000000000000000000000000000000000 DUP2 MSTORE PUSH1 0x4 ADD PUSH2 0x215 SWAP2 SWAP1 PUSH2 0x666 JUMP JUMPDEST PUSH1 0x40 MLOAD DUP1 SWAP2 SUB SWAP1 REVERT JUMPDEST DUP1 MLOAD DUP2 PUSH2 0x22A SWAP1 PUSH2 0x6B3 JUMP JUMPDEST PUSH0 SHR OR PUSH0 SHL SWAP2 POP POP SWAP2 SWAP1 POP JUMP JUMPDEST PUSH0 DUP2 SWAP1 POP SWAP2 SWAP1 POP JUMP JUMPDEST PUSH0 DUP2 MLOAD SWAP1 POP SWAP2 SWAP1 POP JUMP JUMPDEST PUSH32 0x4E487B7100000000000000000000000000000000000000000000000000000000 PUSH0 MSTORE PUSH1 0x41 PUSH1 0x4 MSTORE PUSH1 0x24 PUSH0 REVERT JUMPDEST PUSH32 0x4E487B7100000000000000000000000000000000000000000000000000000000 PUSH0 MSTORE PUSH1 0x22 PUSH1 0x4 MSTORE PUSH1 0x24 PUSH0 REVERT JUMPDEST PUSH0 PUSH1 0x2 DUP3 DIV SWAP1 POP PUSH1 0x1 DUP3 AND DUP1 PUSH2 0x2BB JUMPI PUSH1 0x7F DUP3 AND SWAP2 POP JUMPDEST PUSH1 0x20 DUP3 LT DUP2 SUB PUSH2 0x2CE JUMPI PUSH2 0x2CD PUSH2 0x277 JUMP JUMPDEST JUMPDEST POP SWAP2 SWAP1 POP JUMP JUMPDEST PUSH0 DUP2 SWAP1 POP DUP2 PUSH0 MSTORE PUSH1 0x20 PUSH0 KECCAK256 SWAP1 POP SWAP2 SWAP1 POP JUMP JUMPDEST PUSH0 PUSH1 0x20 PUSH1 0x1F DUP4 ADD DIV SWAP1 POP SWAP2 SWAP1 POP JUMP JUMPDEST PUSH0 DUP3 DUP3 SHL SWAP1 POP SWAP3 SWAP2 POP POP JUMP JUMPDEST PUSH0 PUSH1 0x8 DUP4 MUL PUSH2 0x330 PUSH32 0xFFFFFFFFFFFFFFFFFFFFFFFFFFFFFFFFFFFFFFFFFFFFFFFFFFFFFFFFFFFFFFFF DUP3 PUSH2 0x2F5 JUMP JUMPDEST PUSH2 0x33A DUP7 DUP4 PUSH2 0x2F5 JUMP JUMPDEST SWAP6 POP DUP1 NOT DUP5 AND SWAP4 POP DUP1 DUP7 AND DUP5 OR SWAP3 POP POP POP SWAP4 SWAP3 POP POP POP JUMP JUMPDEST PUSH0 DUP2 SWAP1 POP SWAP2 SWAP1 POP JUMP JUMPDEST PUSH0 DUP2 SWAP1 POP SWAP2 SWAP1 POP JUMP JUMPDEST PUSH0 PUSH2 0x37E PUSH2 0x379 PUSH2 0x374 DUP5 PUSH2 0x352 JUMP JUMPDEST PUSH2 0x35B JUMP JUMPDEST PUSH2 0x352 JUMP JUMPDEST SWAP1 POP SWAP2 SWAP1 POP JUMP JUMPDEST PUSH0 DUP2 SWAP1 POP SWAP2 SWAP1 POP JUMP JUMPDEST PUSH2 0x397 DUP4 PUSH2 0x364 JUMP JUMPDEST PUSH2 0x3AB PUSH2 0x3A3 DUP3 PUSH2 0x385 JUMP JUMPDEST DUP5 DUP5 SLOAD PUSH2 0x301 JUMP JUMPDEST DUP3 SSTORE POP POP POP POP JUMP JUMPDEST PUSH0 SWAP1 JUMP JUMPDEST PUSH2 0x3BF PUSH2 0x3B3 JUMP JUMPDEST PUSH2 0x3CA DUP2 DUP5 DUP5 PUSH2 0x38E JUMP JUMPDEST POP POP POP JUMP JUMPDEST JUMPDEST DUP2 DUP2 LT ISZERO PUSH2 0x3ED JUMPI PUSH2 0x3E2 PUSH0 DUP3 PUSH2 0x3B7 JUMP JUMPDEST PUSH1 0x1 DUP2 ADD SWAP1 POP PUSH2 0x3D0 JUMP JUMPDEST POP POP JUMP JUMPDEST PUSH1 0x1F DUP3 GT ISZERO PUSH2 0x432 JUMPI PUSH2 0x403 DUP2 PUSH2 0x2D4 JUMP JUMPDEST PUSH2 0x40C DUP5 PUSH2 0x2E6 JUMP JUMPDEST DUP2 ADD PUSH1 0x20 DUP6 LT ISZERO PUSH2 0x41B JUMPI DUP2 SWAP1 POP JUMPDEST PUSH2 0x42F PUSH2 0x427 DUP6 PUSH2 0x2E6 JUMP JUMPDEST DUP4 ADD DUP3 PUSH2 0x3CF JUMP JUMPDEST POP POP JUMPDEST POP POP POP JUMP JUMPDEST PUSH0 DUP3 DUP3 SHR SWAP1 POP SWAP3 SWAP2 POP POP JUMP JUMPDEST PUSH0 PUSH2 0x452 PUSH0 NOT DUP5 PUSH1 0x8 MUL PUSH2 0x437 JUMP JUMPDEST NOT DUP1 DUP4 AND SWAP2 POP POP SWAP3 SWAP2 POP POP JUMP JUMPDEST PUSH0 PUSH2 0x46A DUP4 DUP4 PUSH2 0x443 JUMP JUMPDEST SWAP2 POP DUP3 PUSH1 0x2 MUL DUP3 OR SWAP1 POP SWAP3 SWAP2 POP POP JUMP JUMPDEST PUSH2 0x483 DUP3 PUSH2 0x240 JUMP JUMPDEST PUSH8 0xFFFFFFFFFFFFFFFF DUP2 GT ISZERO PUSH2 0x49C JUMPI PUSH2 0x49B PUSH2 0x24A JUMP JUMPDEST JUMPDEST PUSH2 0x4A6 DUP3 SLOAD PUSH2 0x2A4 JUMP JUMPDEST PUSH2 0x4B1 DUP3 DUP3 DUP6 PUSH2 0x3F1 JUMP JUMPDEST PUSH0 PUSH1 0x20 SWAP1 POP PUSH1 0x1F DUP4 GT PUSH1 0x1 DUP2 EQ PUSH2 0x4E2 JUMPI PUSH0 DUP5 ISZERO PUSH2 0x4D0 JUMPI DUP3 DUP8 ADD MLOAD SWAP1 POP JUMPDEST PUSH2 0x4DA DUP6 DUP3 PUSH2 0x45F JUMP JUMPDEST DUP7 SSTORE POP PUSH2 0x541 JUMP JUMPDEST PUSH1 0x1F NOT DUP5 AND PUSH2 0x4F0 DUP7 PUSH2 0x2D4 JUMP JUMPDEST PUSH0 JUMPDEST DUP3 DUP2 LT ISZERO PUSH2 0x517 JUMPI DUP5 DUP10 ADD MLOAD DUP3 SSTORE PUSH1 0x1 DUP3 ADD SWAP2 POP PUSH1 0x20 DUP6 ADD SWAP5 POP PUSH1 0x20 DUP2 ADD SWAP1 POP PUSH2 0x4F2 JUMP JUMPDEST DUP7 DUP4 LT ISZERO PUSH2 0x534 JUMPI DUP5 DUP10 ADD MLOAD PUSH2 0x530 PUSH1 0x1F DUP10 AND DUP3 PUSH2 0x443 JUMP JUMPDEST DUP4 SSTORE POP JUMPDEST PUSH1 0x1 PUSH1 0x2 DUP9 MUL ADD DUP9 SSTORE POP POP POP JUMPDEST POP POP POP POP POP POP JUMP JUMPDEST PUSH0 DUP2 SWAP1 POP SWAP2 SWAP1 POP JUMP JUMPDEST PUSH2 0x55B DUP2 PUSH2 0x549 JUMP JUMPDEST DUP3 MSTORE POP POP JUMP JUMPDEST PUSH2 0x56A DUP2 PUSH2 0x352 JUMP JUMPDEST DUP3 MSTORE POP POP JUMP JUMPDEST PUSH0 PUSH20 0xFFFFFFFFFFFFFFFFFFFFFFFFFFFFFFFFFFFFFFFF DUP3 AND SWAP1 POP SWAP2 SWAP1 POP JUMP JUMPDEST PUSH0 PUSH2 0x599 DUP3 PUSH2 0x570 JUMP JUMPDEST SWAP1 POP SWAP2 SWAP1 POP JUMP JUMPDEST PUSH2 0x5A9 DUP2 PUSH2 0x58F JUMP JUMPDEST DUP3 MSTORE POP POP JUMP JUMPDEST PUSH0 PUSH1 0xA0 DUP3 ADD SWAP1 POP PUSH2 0x5C2 PUSH0 DUP4 ADD DUP9 PUSH2 0x552 JUMP JUMPDEST PUSH2 0x5CF PUSH1 0x20 DUP4 ADD DUP8 PUSH2 0x552 JUMP JUMPDEST PUSH2 0x5DC PUSH1 0x40 DUP4 ADD DUP7 PUSH2 0x552 JUMP JUMPDEST PUSH2 0x5E9 PUSH1 0x60 DUP4 ADD DUP6 PUSH2 0x561 JUMP JUMPDEST PUSH2 0x5F6 PUSH1 0x80 DUP4 ADD DUP5 PUSH2 0x5A0 JUMP JUMPDEST SWAP7 SWAP6 POP POP POP POP POP POP JUMP JUMPDEST PUSH0 DUP3 DUP3 MSTORE PUSH1 0x20 DUP3 ADD SWAP1 POP SWAP3 SWAP2 POP POP JUMP JUMPDEST DUP3 DUP2 DUP4 MCOPY PUSH0 DUP4 DUP4 ADD MSTORE POP POP POP JUMP JUMPDEST PUSH0 PUSH1 0x1F NOT PUSH1 0x1F DUP4 ADD AND SWAP1 POP SWAP2 SWAP1 POP JUMP JUMPDEST PUSH0 PUSH2 0x638 DUP3 PUSH2 0x240 JUMP JUMPDEST PUSH2 0x642 DUP2 DUP6 PUSH2 0x600 JUMP JUMPDEST SWAP4 POP PUSH2 0x652 DUP2 DUP6 PUSH1 0x20 DUP7 ADD PUSH2 0x610 JUMP JUMPDEST PUSH2 0x65B DUP2 PUSH2 0x61E JUMP JUMPDEST DUP5 ADD SWAP2 POP POP SWAP3 SWAP2 POP POP JUMP JUMPDEST PUSH0 PUSH1 0x20 DUP3 ADD SWAP1 POP DUP2 DUP2 SUB PUSH0 DUP4 ADD MSTORE PUSH2 0x67E DUP2 DUP5 PUSH2 0x62E JUMP JUMPDEST SWAP1 POP SWAP3 SWAP2 POP POP JUMP JUMPDEST PUSH0 DUP2 MLOAD SWAP1 POP SWAP2 SWAP1 POP JUMP JUMPDEST PUSH0 DUP2 SWAP1 POP PUSH1 0x20 DUP3 ADD SWAP1 POP SWAP2 SWAP1 POP JUMP JUMPDEST PUSH0 PUSH2 0x6AA DUP3 MLOAD PUSH2 0x549 JUMP JUMPDEST DUP1 SWAP2 POP POP SWAP2 SWAP1 POP JUMP JUMPDEST PUSH0 PUSH2 0x6BD DUP3 PUSH2 0x686 JUMP JUMPDEST DUP3 PUSH2 0x6C7 DUP5 PUSH2 0x690 JUMP JUMPDEST SWAP1 POP PUSH2 0x6D2 DUP2 PUSH2 0x69F JUMP JUMPDEST SWAP3 POP PUSH1 0x20 DUP3 LT ISZERO PUSH2 0x712 JUMPI PUSH2 0x70D PUSH32 0xFFFFFFFFFFFFFFFFFFFFFFFFFFFFFFFFFFFFFFFFFFFFFFFFFFFFFFFFFFFFFFFF DUP4 PUSH1 0x20 SUB PUSH1 0x8 MUL PUSH2 0x2F5 JUMP JUMPDEST DUP4 AND SWAP3 POP JUMPDEST POP POP SWAP2 SWAP1 POP JUMP JUMPDEST PUSH1 0x80 MLOAD PUSH1 0xA0 MLOAD PUSH1 0xC0 MLOAD PUSH1 0xE0 MLOAD PUSH2 0x100 MLOAD PUSH2 0x120 MLOAD PUSH2 0x140 MLOAD PUSH2 0x12FA PUSH2 0x76A PUSH0 CODECOPY PUSH0 PUSH2 0x422 ADD MSTORE PUSH0 PUSH2 0x3E7 ADD MSTORE PUSH0 PUSH2 0xA27 ADD MSTORE PUSH0 PUSH2 0xA06 ADD MSTORE PUSH0 PUSH2 0x485 ADD MSTORE PUSH0 PUSH2 0x4DB ADD MSTORE PUSH0 PUSH2 0x504 ADD MSTORE PUSH2 0x12FA PUSH0 RETURN INVALID PUSH1 0x80 PUSH1 0x40 MSTORE CALLVALUE DUP1 ISZERO PUSH2 0xF JUMPI PUSH0 DUP1 REVERT JUMPDEST POP PUSH1 0x4 CALLDATASIZE LT PUSH2 0x49 JUMPI PUSH0 CALLDATALOAD PUSH1 0xE0 SHR DUP1 PUSH3 0xBF26F4 EQ PUSH2 0x4D JUMPI DUP1 PUSH4 0x40FF0CD9 EQ PUSH2 0x6B JUMPI DUP1 PUSH4 0x84B0196E EQ PUSH2 0x9B JUMPI DUP1 PUSH4 0xA3230B4B EQ PUSH2 0xBF JUMPI JUMPDEST PUSH0 DUP1 REVERT JUMPDEST PUSH2 0x55 PUSH2 0xEF JUMP JUMPDEST PUSH1 0x40 MLOAD PUSH2 0x62 SWAP2 SWAP1 PUSH2 0xB4F JUMP JUMPDEST PUSH1 0x40 MLOAD DUP1 SWAP2 SUB SWAP1 RETURN JUMPDEST PUSH2 0x85 PUSH1 0x4 DUP1 CALLDATASIZE SUB DUP2 ADD SWAP1 PUSH2 0x80 SWAP2 SWAP1 PUSH2 0xC5E JUMP JUMPDEST PUSH2 0x113 JUMP JUMPDEST PUSH1 0x40 MLOAD PUSH2 0x92 SWAP2 SWAP1 PUSH2 0xCFC JUMP JUMPDEST PUSH1 0x40 MLOAD DUP1 SWAP2 SUB SWAP1 RETURN JUMPDEST PUSH2 0xA3 PUSH2 0x1CB JUMP JUMPDEST PUSH1 0x40 MLOAD PUSH2 0xB6 SWAP8 SWAP7 SWAP6 SWAP5 SWAP4 SWAP3 SWAP2 SWAP1 PUSH2 0xE94 JUMP JUMPDEST PUSH1 0x40 MLOAD DUP1 SWAP2 SUB SWAP1 RETURN JUMPDEST PUSH2 0xD9 PUSH1 0x4 DUP1 CALLDATASIZE SUB DUP2 ADD SWAP1 PUSH2 0xD4 SWAP2 SWAP1 PUSH2 0xF76 JUMP JUMPDEST PUSH2 0x270 JUMP JUMPDEST PUSH1 0x40 MLOAD PUSH2 0xE6 SWAP2 SWAP1 PUSH2 0xCFC JUMP JUMPDEST PUSH1 0x40 MLOAD DUP1 SWAP2 SUB SWAP1 RETURN JUMPDEST PUSH32 0x22C9C571F8D7E6C74C09D4B09C57F62EA5BF8A94CD88C1F00594F032DC00CBC9 DUP2 JUMP JUMPDEST PUSH0 DUP1 PUSH32 0x22C9C571F8D7E6C74C09D4B09C57F62EA5BF8A94CD88C1F00594F032DC00CBC9 DUP8 DUP8 DUP8 PUSH1 0x40 MLOAD PUSH1 0x20 ADD PUSH2 0x14C SWAP5 SWAP4 SWAP3 SWAP2 SWAP1 PUSH2 0xFFF JUMP JUMPDEST PUSH1 0x40 MLOAD PUSH1 0x20 DUP2 DUP4 SUB SUB DUP2 MSTORE SWAP1 PUSH1 0x40 MSTORE DUP1 MLOAD SWAP1 PUSH1 0x20 ADD KECCAK256 SWAP1 POP PUSH0 PUSH2 0x16E DUP3 PUSH2 0x31A JUMP JUMPDEST SWAP1 POP PUSH2 0x1BE DUP9 DUP3 DUP8 DUP8 DUP1 DUP1 PUSH1 0x1F ADD PUSH1 0x20 DUP1 SWAP2 DIV MUL PUSH1 0x20 ADD PUSH1 0x40 MLOAD SWAP1 DUP2 ADD PUSH1 0x40 MSTORE DUP1 SWAP4 SWAP3 SWAP2 SWAP1 DUP2 DUP2 MSTORE PUSH1 0x20 ADD DUP4 DUP4 DUP1 DUP3 DUP5 CALLDATACOPY PUSH0 DUP2 DUP5 ADD MSTORE PUSH1 0x1F NOT PUSH1 0x1F DUP3 ADD AND SWAP1 POP DUP1 DUP4 ADD SWAP3 POP POP POP POP POP POP POP PUSH2 0x333 JUMP JUMPDEST SWAP3 POP POP POP SWAP6 SWAP5 POP POP POP POP POP JUMP JUMPDEST PUSH0 PUSH1 0x60 DUP1 PUSH0 DUP1 PUSH0 PUSH1 0x60 PUSH2 0x1DC PUSH2 0x3DF JUMP JUMPDEST PUSH2 0x1E4 PUSH2 0x419 JUMP JUMPDEST CHAINID ADDRESS PUSH0 DUP1 SHL PUSH0 PUSH8 0xFFFFFFFFFFFFFFFF DUP2 GT ISZERO PUSH2 0x203 JUMPI PUSH2 0x202 PUSH2 0x1042 JUMP JUMPDEST JUMPDEST PUSH1 0x40 MLOAD SWAP1 DUP1 DUP3 MSTORE DUP1 PUSH1 0x20 MUL PUSH1 0x20 ADD DUP3 ADD PUSH1 0x40 MSTORE DUP1 ISZERO PUSH2 0x231 JUMPI DUP2 PUSH1 0x20 ADD PUSH1 0x20 DUP3 MUL DUP1 CALLDATASIZE DUP4 CALLDATACOPY DUP1 DUP3 ADD SWAP2 POP POP SWAP1 POP JUMPDEST POP PUSH32 0xF00000000000000000000000000000000000000000000000000000000000000 SWAP6 SWAP5 SWAP4 SWAP3 SWAP2 SWAP1 SWAP7 POP SWAP7 POP SWAP7 POP SWAP7 POP SWAP7 POP SWAP7 POP SWAP7 POP SWAP1 SWAP2 SWAP3 SWAP4 SWAP5 SWAP6 SWAP7 JUMP JUMPDEST PUSH0 DUP1 PUSH32 0x22C9C571F8D7E6C74C09D4B09C57F62EA5BF8A94CD88C1F00594F032DC00CBC9 DUP9 DUP9 DUP9 PUSH1 0x40 MLOAD PUSH1 0x20 ADD PUSH2 0x2A9 SWAP5 SWAP4 SWAP3 SWAP2 SWAP1 PUSH2 0xFFF JUMP JUMPDEST PUSH1 0x40 MLOAD PUSH1 0x20 DUP2 DUP4 SUB SUB DUP2 MSTORE SWAP1 PUSH1 0x40 MSTORE DUP1 MLOAD SWAP1 PUSH1 0x20 ADD KECCAK256 SWAP1 POP PUSH0 PUSH2 0x2CB DUP3 PUSH2 0x31A JUMP JUMPDEST SWAP1 POP PUSH0 PUSH2 0x2DA DUP3 DUP9 DUP9 DUP9 PUSH2 0x454 JUMP JUMPDEST SWAP1 POP DUP10 PUSH20 0xFFFFFFFFFFFFFFFFFFFFFFFFFFFFFFFFFFFFFFFF AND DUP2 PUSH20 0xFFFFFFFFFFFFFFFFFFFFFFFFFFFFFFFFFFFFFFFF AND EQ SWAP4 POP POP POP POP SWAP7 SWAP6 POP POP POP POP POP POP JUMP JUMPDEST PUSH0 PUSH2 0x32C PUSH2 0x326 PUSH2 0x482 JUMP JUMPDEST DUP4 PUSH2 0x538 JUMP JUMPDEST SWAP1 POP SWAP2 SWAP1 POP JUMP JUMPDEST PUSH0 DUP1 DUP5 PUSH20 0xFFFFFFFFFFFFFFFFFFFFFFFFFFFFFFFFFFFFFFFF AND EXTCODESIZE SUB PUSH2 0x3CA JUMPI PUSH0 DUP1 PUSH2 0x35E DUP6 DUP6 PUSH2 0x578 JUMP JUMPDEST POP SWAP2 POP SWAP2 POP PUSH0 PUSH1 0x3 DUP2 GT ISZERO PUSH2 0x376 JUMPI PUSH2 0x375 PUSH2 0x106F JUMP JUMPDEST JUMPDEST DUP2 PUSH1 0x3 DUP2 GT ISZERO PUSH2 0x389 JUMPI PUSH2 0x388 PUSH2 0x106F JUMP JUMPDEST JUMPDEST EQ DUP1 ISZERO PUSH2 0x3C1 JUMPI POP DUP6 PUSH20 0xFFFFFFFFFFFFFFFFFFFFFFFFFFFFFFFFFFFFFFFF AND DUP3 PUSH20 0xFFFFFFFFFFFFFFFFFFFFFFFFFFFFFFFFFFFFFFFF AND EQ JUMPDEST SWAP3 POP POP POP PUSH2 0x3D8 JUMP JUMPDEST PUSH2 0x3D5 DUP5 DUP5 DUP5 PUSH2 0x5CD JUMP JUMPDEST SWAP1 POP JUMPDEST SWAP4 SWAP3 POP POP POP JUMP JUMPDEST PUSH1 0x60 PUSH2 0x414 PUSH0 PUSH32 0x0 PUSH2 0x6EC SWAP1 SWAP2 SWAP1 PUSH4 0xFFFFFFFF AND JUMP JUMPDEST SWAP1 POP SWAP1 JUMP JUMPDEST PUSH1 0x60 PUSH2 0x44F PUSH1 0x1 PUSH32 0x0 PUSH2 0x6EC SWAP1 SWAP2 SWAP1 PUSH4 0xFFFFFFFF AND JUMP JUMPDEST SWAP1 POP SWAP1 JUMP JUMPDEST PUSH0 DUP1 PUSH0 DUP1 PUSH2 0x464 DUP9 DUP9 DUP9 DUP9 PUSH2 0x799 JUMP JUMPDEST SWAP3 POP SWAP3 POP SWAP3 POP PUSH2 0x474 DUP3 DUP3 PUSH2 0x880 JUMP JUMPDEST DUP3 SWAP4 POP POP POP POP SWAP5 SWAP4 POP POP POP POP JUMP JUMPDEST PUSH0 PUSH32 0x0 PUSH20 0xFFFFFFFFFFFFFFFFFFFFFFFFFFFFFFFFFFFFFFFF AND ADDRESS PUSH20 0xFFFFFFFFFFFFFFFFFFFFFFFFFFFFFFFFFFFFFFFF AND EQ DUP1 ISZERO PUSH2 0x4FD JUMPI POP PUSH32 0x0 CHAINID EQ JUMPDEST ISZERO PUSH2 0x52A JUMPI PUSH32 0x0 SWAP1 POP PUSH2 0x535 JUMP JUMPDEST PUSH2 0x532 PUSH2 0x9E2 JUMP JUMPDEST SWAP1 POP JUMPDEST SWAP1 JUMP JUMPDEST PUSH0 PUSH1 0x40 MLOAD PUSH32 0x1901000000000000000000000000000000000000000000000000000000000000 DUP2 MSTORE DUP4 PUSH1 0x2 DUP3 ADD MSTORE DUP3 PUSH1 0x22 DUP3 ADD MSTORE PUSH1 0x42 DUP2 KECCAK256 SWAP2 POP POP SWAP3 SWAP2 POP POP JUMP JUMPDEST PUSH0 DUP1 PUSH0 PUSH1 0x41 DUP5 MLOAD SUB PUSH2 0x5B8 JUMPI PUSH0 DUP1 PUSH0 PUSH1 0x20 DUP8 ADD MLOAD SWAP3 POP PUSH1 0x40 DUP8 ADD MLOAD SWAP2 POP PUSH1 0x60 DUP8 ADD MLOAD PUSH0 BYTE SWAP1 POP PUSH2 0x5AA DUP9 DUP3 DUP6 DUP6 PUSH2 0x799 JUMP JUMPDEST SWAP6 POP SWAP6 POP SWAP6 POP POP POP POP PUSH2 0x5C6 JUMP JUMPDEST PUSH0 PUSH1 0x2 DUP6 MLOAD PUSH0 SHL SWAP3 POP SWAP3 POP SWAP3 POP JUMPDEST SWAP3 POP SWAP3 POP SWAP3 JUMP JUMPDEST PUSH0 DUP1 PUSH0 DUP6 PUSH20 0xFFFFFFFFFFFFFFFFFFFFFFFFFFFFFFFFFFFFFFFF AND DUP6 DUP6 PUSH1 0x40 MLOAD PUSH1 0x24 ADD PUSH2 0x5FA SWAP3 SWAP2 SWAP1 PUSH2 0x10EE JUMP JUMPDEST PUSH1 0x40 MLOAD PUSH1 0x20 DUP2 DUP4 SUB SUB DUP2 MSTORE SWAP1 PUSH1 0x40 MSTORE PUSH4 0x1626BA7E PUSH1 0xE0 SHL PUSH1 0x20 DUP3 ADD DUP1 MLOAD PUSH28 0xFFFFFFFFFFFFFFFFFFFFFFFFFFFFFFFFFFFFFFFFFFFFFFFFFFFFFFFF DUP4 DUP2 DUP4 AND OR DUP4 MSTORE POP POP POP POP PUSH1 0x40 MLOAD PUSH2 0x64C SWAP2 SWAP1 PUSH2 0x1156 JUMP JUMPDEST PUSH0 PUSH1 0x40 MLOAD DUP1 DUP4 SUB DUP2 DUP6 GAS STATICCALL SWAP2 POP POP RETURNDATASIZE DUP1 PUSH0 DUP2 EQ PUSH2 0x684 JUMPI PUSH1 0x40 MLOAD SWAP2 POP PUSH1 0x1F NOT PUSH1 0x3F RETURNDATASIZE ADD AND DUP3 ADD PUSH1 0x40 MSTORE RETURNDATASIZE DUP3 MSTORE RETURNDATASIZE PUSH0 PUSH1 0x20 DUP5 ADD RETURNDATACOPY PUSH2 0x689 JUMP JUMPDEST PUSH1 0x60 SWAP2 POP JUMPDEST POP SWAP2 POP SWAP2 POP DUP2 DUP1 ISZERO PUSH2 0x69D JUMPI POP PUSH1 0x20 DUP2 MLOAD LT ISZERO JUMPDEST DUP1 ISZERO PUSH2 0x6E1 JUMPI POP PUSH4 0x1626BA7E PUSH1 0xE0 SHL PUSH28 0xFFFFFFFFFFFFFFFFFFFFFFFFFFFFFFFFFFFFFFFFFFFFFFFFFFFFFFFF NOT AND DUP2 DUP1 PUSH1 0x20 ADD SWAP1 MLOAD DUP2 ADD SWAP1 PUSH2 0x6DF SWAP2 SWAP1 PUSH2 0x1180 JUMP JUMPDEST EQ JUMPDEST SWAP3 POP POP POP SWAP4 SWAP3 POP POP POP JUMP JUMPDEST PUSH1 0x60 PUSH1 0xFF PUSH0 SHL DUP4 EQ PUSH2 0x708 JUMPI PUSH2 0x701 DUP4 PUSH2 0xA77 JUMP JUMPDEST SWAP1 POP PUSH2 0x793 JUMP JUMPDEST DUP2 DUP1 SLOAD PUSH2 0x714 SWAP1 PUSH2 0x11D8 JUMP JUMPDEST DUP1 PUSH1 0x1F ADD PUSH1 0x20 DUP1 SWAP2 DIV MUL PUSH1 0x20 ADD PUSH1 0x40 MLOAD SWAP1 DUP2 ADD PUSH1 0x40 MSTORE DUP1 SWAP3 SWAP2 SWAP1 DUP2 DUP2 MSTORE PUSH1 0x20 ADD DUP3 DUP1 SLOAD PUSH2 0x740 SWAP1 PUSH2 0x11D8 JUMP JUMPDEST DUP1 ISZERO PUSH2 0x78B JUMPI DUP1 PUSH1 0x1F LT PUSH2 0x762 JUMPI PUSH2 0x100 DUP1 DUP4 SLOAD DIV MUL DUP4 MSTORE SWAP2 PUSH1 0x20 ADD SWAP2 PUSH2 0x78B JUMP JUMPDEST DUP3 ADD SWAP2 SWAP1 PUSH0 MSTORE PUSH1 0x20 PUSH0 KECCAK256 SWAP1 JUMPDEST DUP2 SLOAD DUP2 MSTORE SWAP1 PUSH1 0x1 ADD SWAP1 PUSH1 0x20 ADD DUP1 DUP4 GT PUSH2 0x76E JUMPI DUP3 SWAP1 SUB PUSH1 0x1F AND DUP3 ADD SWAP2 JUMPDEST POP POP POP POP POP SWAP1 POP JUMPDEST SWAP3 SWAP2 POP POP JUMP JUMPDEST PUSH0 DUP1 PUSH0 PUSH32 0x7FFFFFFFFFFFFFFFFFFFFFFFFFFFFFFF5D576E7357A4501DDFE92F46681B20A0 DUP5 PUSH0 SHR GT ISZERO PUSH2 0x7D5 JUMPI PUSH0 PUSH1 0x3 DUP6 SWAP3 POP SWAP3 POP SWAP3 POP PUSH2 0x876 JUMP JUMPDEST PUSH0 PUSH1 0x1 DUP9 DUP9 DUP9 DUP9 PUSH1 0x40 MLOAD PUSH0 DUP2 MSTORE PUSH1 0x20 ADD PUSH1 0x40 MSTORE PUSH1 0x40 MLOAD PUSH2 0x7F8 SWAP5 SWAP4 SWAP3 SWAP2 SWAP1 PUSH2 0x1217 JUMP JUMPDEST PUSH1 0x20 PUSH1 0x40 MLOAD PUSH1 0x20 DUP2 SUB SWAP1 DUP1 DUP5 SUB SWAP1 DUP6 GAS STATICCALL ISZERO DUP1 ISZERO PUSH2 0x818 JUMPI RETURNDATASIZE PUSH0 DUP1 RETURNDATACOPY RETURNDATASIZE PUSH0 REVERT JUMPDEST POP POP POP PUSH1 0x20 PUSH1 0x40 MLOAD SUB MLOAD SWAP1 POP PUSH0 PUSH20 0xFFFFFFFFFFFFFFFFFFFFFFFFFFFFFFFFFFFFFFFF AND DUP2 PUSH20 0xFFFFFFFFFFFFFFFFFFFFFFFFFFFFFFFFFFFFFFFF AND SUB PUSH2 0x869 JUMPI PUSH0 PUSH1 0x1 PUSH0 DUP1 SHL SWAP4 POP SWAP4 POP SWAP4 POP POP PUSH2 0x876 JUMP JUMPDEST DUP1 PUSH0 DUP1 PUSH0 SHL SWAP4 POP SWAP4 POP SWAP4 POP POP JUMPDEST SWAP5 POP SWAP5 POP SWAP5 SWAP2 POP POP JUMP JUMPDEST PUSH0 PUSH1 0x3 DUP2 GT ISZERO PUSH2 0x893 JUMPI PUSH2 0x892 PUSH2 0x106F JUMP JUMPDEST JUMPDEST DUP3 PUSH1 0x3 DUP2 GT ISZERO PUSH2 0x8A6 JUMPI PUSH2 0x8A5 PUSH2 0x106F JUMP JUMPDEST JUMPDEST SUB ISZERO PUSH2 0x9DE JUMPI PUSH1 0x1 PUSH1 0x3 DUP2 GT ISZERO PUSH2 0x8C0 JUMPI PUSH2 0x8BF PUSH2 0x106F JUMP JUMPDEST JUMPDEST DUP3 PUSH1 0x3 DUP2 GT ISZERO PUSH2 0x8D3 JUMPI PUSH2 0x8D2 PUSH2 0x106F JUMP JUMPDEST JUMPDEST SUB PUSH2 0x90A JUMPI PUSH1 0x40 MLOAD PUSH32 0xF645EEDF00000000000000000000000000000000000000000000000000000000 DUP2 MSTORE PUSH1 0x4 ADD PUSH1 0x40 MLOAD DUP1 SWAP2 SUB SWAP1 REVERT JUMPDEST PUSH1 0x2 PUSH1 0x3 DUP2 GT ISZERO PUSH2 0x91E JUMPI PUSH2 0x91D PUSH2 0x106F JUMP JUMPDEST JUMPDEST DUP3 PUSH1 0x3 DUP2 GT ISZERO PUSH2 0x931 JUMPI PUSH2 0x930 PUSH2 0x106F JUMP JUMPDEST JUMPDEST SUB PUSH2 0x975 JUMPI DUP1 PUSH0 SHR PUSH1 0x40 MLOAD PUSH32 0xFCE698F700000000000000000000000000000000000000000000000000000000 DUP2 MSTORE PUSH1 0x4 ADD PUSH2 0x96C SWAP2 SWAP1 PUSH2 0x125A JUMP JUMPDEST PUSH1 0x40 MLOAD DUP1 SWAP2 SUB SWAP1 REVERT JUMPDEST PUSH1 0x3 DUP1 DUP2 GT ISZERO PUSH2 0x988 JUMPI PUSH2 0x987 PUSH2 0x106F JUMP JUMPDEST JUMPDEST DUP3 PUSH1 0x3 DUP2 GT ISZERO PUSH2 0x99B JUMPI PUSH2 0x99A PUSH2 0x106F JUMP JUMPDEST JUMPDEST SUB PUSH2 0x9DD JUMPI DUP1 PUSH1 0x40 MLOAD PUSH32 0xD78BCE0C00000000000000000000000000000000000000000000000000000000 DUP2 MSTORE PUSH1 0x4 ADD PUSH2 0x9D4 SWAP2 SWAP1 PUSH2 0xB4F JUMP JUMPDEST PUSH1 0x40 MLOAD DUP1 SWAP2 SUB SWAP1 REVERT JUMPDEST JUMPDEST POP POP JUMP JUMPDEST PUSH0 PUSH32 0x8B73C3C69BB8FE3D512ECC4CF759CC79239F7B179B0FFACAA9A75D522B39400F PUSH32 0x0 PUSH32 0x0 CHAINID ADDRESS PUSH1 0x40 MLOAD PUSH1 0x20 ADD PUSH2 0xA5C SWAP6 SWAP5 SWAP4 SWAP3 SWAP2 SWAP1 PUSH2 0x1273 JUMP JUMPDEST PUSH1 0x40 MLOAD PUSH1 0x20 DUP2 DUP4 SUB SUB DUP2 MSTORE SWAP1 PUSH1 0x40 MSTORE DUP1 MLOAD SWAP1 PUSH1 0x20 ADD KECCAK256 SWAP1 POP SWAP1 JUMP JUMPDEST PUSH1 0x60 PUSH0 PUSH2 0xA83 DUP4 PUSH2 0xAE9 JUMP JUMPDEST SWAP1 POP PUSH0 PUSH1 0x20 PUSH8 0xFFFFFFFFFFFFFFFF DUP2 GT ISZERO PUSH2 0xAA1 JUMPI PUSH2 0xAA0 PUSH2 0x1042 JUMP JUMPDEST JUMPDEST PUSH1 0x40 MLOAD SWAP1 DUP1 DUP3 MSTORE DUP1 PUSH1 0x1F ADD PUSH1 0x1F NOT AND PUSH1 0x20 ADD DUP3 ADD PUSH1 0x40 MSTORE DUP1 ISZERO PUSH2 0xAD3 JUMPI DUP2 PUSH1 0x20 ADD PUSH1 0x1 DUP3 MUL DUP1 CALLDATASIZE DUP4 CALLDATACOPY DUP1 DUP3 ADD SWAP2 POP POP SWAP1 POP JUMPDEST POP SWAP1 POP DUP2 DUP2 MSTORE DUP4 PUSH1 0x20 DUP3 ADD MSTORE DUP1 SWAP3 POP POP POP SWAP2 SWAP1 POP JUMP JUMPDEST PUSH0 DUP1 PUSH1 0xFF DUP4 PUSH0 SHR AND SWAP1 POP PUSH1 0x1F DUP2 GT ISZERO PUSH2 0xB2E JUMPI PUSH1 0x40 MLOAD PUSH32 0xB3512B0C00000000000000000000000000000000000000000000000000000000 DUP2 MSTORE PUSH1 0x4 ADD PUSH1 0x40 MLOAD DUP1 SWAP2 SUB SWAP1 REVERT JUMPDEST DUP1 SWAP2 POP POP SWAP2 SWAP1 POP JUMP JUMPDEST PUSH0 DUP2 SWAP1 POP SWAP2 SWAP1 POP JUMP JUMPDEST PUSH2 0xB49 DUP2 PUSH2 0xB37 JUMP JUMPDEST DUP3 MSTORE POP POP JUMP JUMPDEST PUSH0 PUSH1 0x20 DUP3 ADD SWAP1 POP PUSH2 0xB62 PUSH0 DUP4 ADD DUP5 PUSH2 0xB40 JUMP JUMPDEST SWAP3 SWAP2 POP POP JUMP JUMPDEST PUSH0 DUP1 REVERT JUMPDEST PUSH0 DUP1 REVERT JUMPDEST PUSH0 PUSH20 0xFFFFFFFFFFFFFFFFFFFFFFFFFFFFFFFFFFFFFFFF DUP3 AND SWAP1 POP SWAP2 SWAP1 POP JUMP JUMPDEST PUSH0 PUSH2 0xB99 DUP3 PUSH2 0xB70 JUMP JUMPDEST SWAP1 POP SWAP2 SWAP1 POP JUMP JUMPDEST PUSH2 0xBA9 DUP2 PUSH2 0xB8F JUMP JUMPDEST DUP2 EQ PUSH2 0xBB3 JUMPI PUSH0 DUP1 REVERT JUMPDEST POP JUMP JUMPDEST PUSH0 DUP2 CALLDATALOAD SWAP1 POP PUSH2 0xBC4 DUP2 PUSH2 0xBA0 JUMP JUMPDEST SWAP3 SWAP2 POP POP JUMP JUMPDEST PUSH0 DUP2 SWAP1 POP SWAP2 SWAP1 POP JUMP JUMPDEST PUSH2 0xBDC DUP2 PUSH2 0xBCA JUMP JUMPDEST DUP2 EQ PUSH2 0xBE6 JUMPI PUSH0 DUP1 REVERT JUMPDEST POP JUMP JUMPDEST PUSH0 DUP2 CALLDATALOAD SWAP1 POP PUSH2 0xBF7 DUP2 PUSH2 0xBD3 JUMP JUMPDEST SWAP3 SWAP2 POP POP JUMP JUMPDEST PUSH0 DUP1 REVERT JUMPDEST PUSH0 DUP1 REVERT JUMPDEST PUSH0 DUP1 REVERT JUMPDEST PUSH0 DUP1 DUP4 PUSH1 0x1F DUP5 ADD SLT PUSH2 0xC1E JUMPI PUSH2 0xC1D PUSH2 0xBFD JUMP JUMPDEST JUMPDEST DUP3 CALLDATALOAD SWAP1 POP PUSH8 0xFFFFFFFFFFFFFFFF DUP2 GT ISZERO PUSH2 0xC3B JUMPI PUSH2 0xC3A PUSH2 0xC01 JUMP JUMPDEST JUMPDEST PUSH1 0x20 DUP4 ADD SWAP2 POP DUP4 PUSH1 0x1 DUP3 MUL DUP4 ADD GT ISZERO PUSH2 0xC57 JUMPI PUSH2 0xC56 PUSH2 0xC05 JUMP JUMPDEST JUMPDEST SWAP3 POP SWAP3 SWAP1 POP JUMP JUMPDEST PUSH0 DUP1 PUSH0 DUP1 PUSH0 PUSH1 0x80 DUP7 DUP9 SUB SLT ISZERO PUSH2 0xC77 JUMPI PUSH2 0xC76 PUSH2 0xB68 JUMP JUMPDEST JUMPDEST PUSH0 PUSH2 0xC84 DUP9 DUP3 DUP10 ADD PUSH2 0xBB6 JUMP JUMPDEST SWAP6 POP POP PUSH1 0x20 PUSH2 0xC95 DUP9 DUP3 DUP10 ADD PUSH2 0xBB6 JUMP JUMPDEST SWAP5 POP POP PUSH1 0x40 PUSH2 0xCA6 DUP9 DUP3 DUP10 ADD PUSH2 0xBE9 JUMP JUMPDEST SWAP4 POP POP PUSH1 0x60 DUP7 ADD CALLDATALOAD PUSH8 0xFFFFFFFFFFFFFFFF DUP2 GT ISZERO PUSH2 0xCC7 JUMPI PUSH2 0xCC6 PUSH2 0xB6C JUMP JUMPDEST JUMPDEST PUSH2 0xCD3 DUP9 DUP3 DUP10 ADD PUSH2 0xC09 JUMP JUMPDEST SWAP3 POP SWAP3 POP POP SWAP3 SWAP6 POP SWAP3 SWAP6 SWAP1 SWAP4 POP JUMP JUMPDEST PUSH0 DUP2 ISZERO ISZERO SWAP1 POP SWAP2 SWAP1 POP JUMP JUMPDEST PUSH2 0xCF6 DUP2 PUSH2 0xCE2 JUMP JUMPDEST DUP3 MSTORE POP POP JUMP JUMPDEST PUSH0 PUSH1 0x20 DUP3 ADD SWAP1 POP PUSH2 0xD0F PUSH0 DUP4 ADD DUP5 PUSH2 0xCED JUMP JUMPDEST SWAP3 SWAP2 POP POP JUMP JUMPDEST PUSH0 PUSH32 0xFF00000000000000000000000000000000000000000000000000000000000000 DUP3 AND SWAP1 POP SWAP2 SWAP1 POP JUMP JUMPDEST PUSH2 0xD49 DUP2 PUSH2 0xD15 JUMP JUMPDEST DUP3 MSTORE POP POP JUMP JUMPDEST PUSH0 DUP2 MLOAD SWAP1 POP SWAP2 SWAP1 POP JUMP JUMPDEST PUSH0 DUP3 DUP3 MSTORE PUSH1 0x20 DUP3 ADD SWAP1 POP SWAP3 SWAP2 POP POP JUMP JUMPDEST DUP3 DUP2 DUP4 MCOPY PUSH0 DUP4 DUP4 ADD MSTORE POP POP POP JUMP JUMPDEST PUSH0 PUSH1 0x1F NOT PUSH1 0x1F DUP4 ADD AND SWAP1 POP SWAP2 SWAP1 POP JUMP JUMPDEST PUSH0 PUSH2 0xD91 DUP3 PUSH2 0xD4F JUMP JUMPDEST PUSH2 0xD9B DUP2 DUP6 PUSH2 0xD59 JUMP JUMPDEST SWAP4 POP PUSH2 0xDAB DUP2 DUP6 PUSH1 0x20 DUP7 ADD PUSH2 0xD69 JUMP JUMPDEST PUSH2 0xDB4 DUP2 PUSH2 0xD77 JUMP JUMPDEST DUP5 ADD SWAP2 POP POP SWAP3 SWAP2 POP POP JUMP JUMPDEST PUSH2 0xDC8 DUP2 PUSH2 0xBCA JUMP JUMPDEST DUP3 MSTORE POP POP JUMP JUMPDEST PUSH2 0xDD7 DUP2 PUSH2 0xB8F JUMP JUMPDEST DUP3 MSTORE POP POP JUMP JUMPDEST PUSH0 DUP2 MLOAD SWAP1 POP SWAP2 SWAP1 POP JUMP JUMPDEST PUSH0 DUP3 DUP3 MSTORE PUSH1 0x20 DUP3 ADD SWAP1 POP SWAP3 SWAP2 POP POP JUMP JUMPDEST PUSH0 DUP2 SWAP1 POP PUSH1 0x20 DUP3 ADD SWAP1 POP SWAP2 SWAP1 POP JUMP JUMPDEST PUSH2 0xE0F DUP2 PUSH2 0xBCA JUMP JUMPDEST DUP3 MSTORE POP POP JUMP JUMPDEST PUSH0 PUSH2 0xE20 DUP4 DUP4 PUSH2 0xE06 JUMP JUMPDEST PUSH1 0x20 DUP4 ADD SWAP1 POP SWAP3 SWAP2 POP POP JUMP JUMPDEST PUSH0 PUSH1 0x20 DUP3 ADD SWAP1 POP SWAP2 SWAP1 POP JUMP JUMPDEST PUSH0 PUSH2 0xE42 DUP3 PUSH2 0xDDD JUMP JUMPDEST PUSH2 0xE4C DUP2 DUP6 PUSH2 0xDE7 JUMP JUMPDEST SWAP4 POP PUSH2 0xE57 DUP4 PUSH2 0xDF7 JUMP JUMPDEST DUP1 PUSH0 JUMPDEST DUP4 DUP2 LT ISZERO PUSH2 0xE87 JUMPI DUP2 MLOAD PUSH2 0xE6E DUP9 DUP3 PUSH2 0xE15 JUMP JUMPDEST SWAP8 POP PUSH2 0xE79 DUP4 PUSH2 0xE2C JUMP JUMPDEST SWAP3 POP POP PUSH1 0x1 DUP2 ADD SWAP1 POP PUSH2 0xE5A JUMP JUMPDEST POP DUP6 SWAP4 POP POP POP POP SWAP3 SWAP2 POP POP JUMP JUMPDEST PUSH0 PUSH1 0xE0 DUP3 ADD SWAP1 POP PUSH2 0xEA7 PUSH0 DUP4 ADD DUP11 PUSH2 0xD40 JUMP JUMPDEST DUP2 DUP2 SUB PUSH1 0x20 DUP4 ADD MSTORE PUSH2 0xEB9 DUP2 DUP10 PUSH2 0xD87 JUMP JUMPDEST SWAP1 POP DUP2 DUP2 SUB PUSH1 0x40 DUP4 ADD MSTORE PUSH2 0xECD DUP2 DUP9 PUSH2 0xD87 JUMP JUMPDEST SWAP1 POP PUSH2 0xEDC PUSH1 0x60 DUP4 ADD DUP8 PUSH2 0xDBF JUMP JUMPDEST PUSH2 0xEE9 PUSH1 0x80 DUP4 ADD DUP7 PUSH2 0xDCE JUMP JUMPDEST PUSH2 0xEF6 PUSH1 0xA0 DUP4 ADD DUP6 PUSH2 0xB40 JUMP JUMPDEST DUP2 DUP2 SUB PUSH1 0xC0 DUP4 ADD MSTORE PUSH2 0xF08 DUP2 DUP5 PUSH2 0xE38 JUMP JUMPDEST SWAP1 POP SWAP9 SWAP8 POP POP POP POP POP POP POP POP JUMP JUMPDEST PUSH0 PUSH1 0xFF DUP3 AND SWAP1 POP SWAP2 SWAP1 POP JUMP JUMPDEST PUSH2 0xF2B DUP2 PUSH2 0xF16 JUMP JUMPDEST DUP2 EQ PUSH2 0xF35 JUMPI PUSH0 DUP1 REVERT JUMPDEST POP JUMP JUMPDEST PUSH0 DUP2 CALLDATALOAD SWAP1 POP PUSH2 0xF46 DUP2 PUSH2 0xF22 JUMP JUMPDEST SWAP3 SWAP2 POP POP JUMP JUMPDEST PUSH2 0xF55 DUP2 PUSH2 0xB37 JUMP JUMPDEST DUP2 EQ PUSH2 0xF5F JUMPI PUSH0 DUP1 REVERT JUMPDEST POP JUMP JUMPDEST PUSH0 DUP2 CALLDATALOAD SWAP1 POP PUSH2 0xF70 DUP2 PUSH2 0xF4C JUMP JUMPDEST SWAP3 SWAP2 POP POP JUMP JUMPDEST PUSH0 DUP1 PUSH0 DUP1 PUSH0 DUP1 PUSH1 0xC0 DUP8 DUP10 SUB SLT ISZERO PUSH2 0xF90 JUMPI PUSH2 0xF8F PUSH2 0xB68 JUMP JUMPDEST JUMPDEST PUSH0 PUSH2 0xF9D DUP10 DUP3 DUP11 ADD PUSH2 0xBB6 JUMP JUMPDEST SWAP7 POP POP PUSH1 0x20 PUSH2 0xFAE DUP10 DUP3 DUP11 ADD PUSH2 0xBB6 JUMP JUMPDEST SWAP6 POP POP PUSH1 0x40 PUSH2 0xFBF DUP10 DUP3 DUP11 ADD PUSH2 0xBE9 JUMP JUMPDEST SWAP5 POP POP PUSH1 0x60 PUSH2 0xFD0 DUP10 DUP3 DUP11 ADD PUSH2 0xF38 JUMP JUMPDEST SWAP4 POP POP PUSH1 0x80 PUSH2 0xFE1 DUP10 DUP3 DUP11 ADD PUSH2 0xF62 JUMP JUMPDEST SWAP3 POP POP PUSH1 0xA0 PUSH2 0xFF2 DUP10 DUP3 DUP11 ADD PUSH2 0xF62 JUMP JUMPDEST SWAP2 POP POP SWAP3 SWAP6 POP SWAP3 SWAP6 POP SWAP3 SWAP6 JUMP JUMPDEST PUSH0 PUSH1 0x80 DUP3 ADD SWAP1 POP PUSH2 0x1012 PUSH0 DUP4 ADD DUP8 PUSH2 0xB40 JUMP JUMPDEST PUSH2 0x101F PUSH1 0x20 DUP4 ADD DUP7 PUSH2 0xDCE JUMP JUMPDEST PUSH2 0x102C PUSH1 0x40 DUP4 ADD DUP6 PUSH2 0xDCE JUMP JUMPDEST PUSH2 0x1039 PUSH1 0x60 DUP4 ADD DUP5 PUSH2 0xDBF JUMP JUMPDEST SWAP6 SWAP5 POP POP POP POP POP JUMP JUMPDEST PUSH32 0x4E487B7100000000000000000000000000000000000000000000000000000000 PUSH0 MSTORE PUSH1 0x41 PUSH1 0x4 MSTORE PUSH1 0x24 PUSH0 REVERT JUMPDEST PUSH32 0x4E487B7100000000000000000000000000000000000000000000000000000000 PUSH0 MSTORE PUSH1 0x21 PUSH1 0x4 MSTORE PUSH1 0x24 PUSH0 REVERT JUMPDEST PUSH0 DUP2 MLOAD SWAP1 POP SWAP2 SWAP1 POP JUMP JUMPDEST PUSH0 DUP3 DUP3 MSTORE PUSH1 0x20 DUP3 ADD SWAP1 POP SWAP3 SWAP2 POP POP JUMP JUMPDEST PUSH0 PUSH2 0x10C0 DUP3 PUSH2 0x109C JUMP JUMPDEST PUSH2 0x10CA DUP2 DUP6 PUSH2 0x10A6 JUMP JUMPDEST SWAP4 POP PUSH2 0x10DA DUP2 DUP6 PUSH1 0x20 DUP7 ADD PUSH2 0xD69 JUMP JUMPDEST PUSH2 0x10E3 DUP2 PUSH2 0xD77 JUMP JUMPDEST DUP5 ADD SWAP2 POP POP SWAP3 SWAP2 POP POP JUMP JUMPDEST PUSH0 PUSH1 0x40 DUP3 ADD SWAP1 POP PUSH2 0x1101 PUSH0 DUP4 ADD DUP6 PUSH2 0xB40 JUMP JUMPDEST DUP2 DUP2 SUB PUSH1 0x20 DUP4 ADD MSTORE PUSH2 0x1113 DUP2 DUP5 PUSH2 0x10B6 JUMP JUMPDEST SWAP1 POP SWAP4 SWAP3 POP POP POP JUMP JUMPDEST PUSH0 DUP2 SWAP1 POP SWAP3 SWAP2 POP POP JUMP JUMPDEST PUSH0 PUSH2 0x1130 DUP3 PUSH2 0x109C JUMP JUMPDEST PUSH2 0x113A DUP2 DUP6 PUSH2 0x111C JUMP JUMPDEST SWAP4 POP PUSH2 0x114A DUP2 DUP6 PUSH1 0x20 DUP7 ADD PUSH2 0xD69 JUMP JUMPDEST DUP1 DUP5 ADD SWAP2 POP POP SWAP3 SWAP2 POP POP JUMP JUMPDEST PUSH0 PUSH2 0x1161 DUP3 DUP5 PUSH2 0x1126 JUMP JUMPDEST SWAP2 POP DUP2 SWAP1 POP SWAP3 SWAP2 POP POP JUMP JUMPDEST PUSH0 DUP2 MLOAD SWAP1 POP PUSH2 0x117A DUP2 PUSH2 0xF4C JUMP JUMPDEST SWAP3 SWAP2 POP POP JUMP JUMPDEST PUSH0 PUSH1 0x20 DUP3 DUP5 SUB SLT ISZERO PUSH2 0x1195 JUMPI PUSH2 0x1194 PUSH2 0xB68 JUMP JUMPDEST JUMPDEST PUSH0 PUSH2 0x11A2 DUP5 DUP3 DUP6 ADD PUSH2 0x116C JUMP JUMPDEST SWAP2 POP POP SWAP3 SWAP2 POP POP JUMP JUMPDEST PUSH32 0x4E487B7100000000000000000000000000000000000000000000000000000000 PUSH0 MSTORE PUSH1 0x22 PUSH1 0x4 MSTORE PUSH1 0x24 PUSH0 REVERT JUMPDEST PUSH0 PUSH1 0x2 DUP3 DIV SWAP1 POP PUSH1 0x1 DUP3 AND DUP1 PUSH2 0x11EF JUMPI PUSH1 0x7F DUP3 AND SWAP2 POP JUMPDEST PUSH1 0x20 DUP3 LT DUP2 SUB PUSH2 0x1202 JUMPI PUSH2 0x1201 PUSH2 0x11AB JUMP JUMPDEST JUMPDEST POP SWAP2 SWAP1 POP JUMP JUMPDEST PUSH2 0x1211 DUP2 PUSH2 0xF16 JUMP JUMPDEST DUP3 MSTORE POP POP JUMP JUMPDEST PUSH0 PUSH1 0x80 DUP3 ADD SWAP1 POP PUSH2 0x122A PUSH0 DUP4 ADD DUP8 PUSH2 0xB40 JUMP JUMPDEST PUSH2 0x1237 PUSH1 0x20 DUP4 ADD DUP7 PUSH2 0x1208 JUMP JUMPDEST PUSH2 0x1244 PUSH1 0x40 DUP4 ADD DUP6 PUSH2 0xB40 JUMP JUMPDEST PUSH2 0x1251 PUSH1 0x60 DUP4 ADD DUP5 PUSH2 0xB40 JUMP JUMPDEST SWAP6 SWAP5 POP POP POP POP POP JUMP JUMPDEST PUSH0 PUSH1 0x20 DUP3 ADD SWAP1 POP PUSH2 0x126D PUSH0 DUP4 ADD DUP5 PUSH2 0xDBF JUMP JUMPDEST SWAP3 SWAP2 POP POP JUMP JUMPDEST PUSH0 PUSH1 0xA0 DUP3 ADD SWAP1 POP PUSH2 0x1286 PUSH0 DUP4 ADD DUP9 PUSH2 0xB40 JUMP JUMPDEST PUSH2 0x1293 PUSH1 0x20 DUP4 ADD DUP8 PUSH2 0xB40 JUMP JUMPDEST PUSH2 0x12A0 PUSH1 0x40 DUP4 ADD DUP7 PUSH2 0xB40 JUMP JUMPDEST PUSH2 0x12AD PUSH1 0x60 DUP4 ADD DUP6 PUSH2 0xDBF JUMP JUMPDEST PUSH2 0x12BA PUSH1 0x80 DUP4 ADD DUP5 PUSH2 0xDCE JUMP JUMPDEST SWAP7 SWAP6 POP POP POP POP POP POP JUMP INVALID LOG2 PUSH5 0x6970667358 0x22 SLT KECCAK256 RETURNDATASIZE MULMOD CREATE2 0xA5 DIV 0xB9 0xBA 0x2D MULMOD 0x4D DUP3 DELEGATECALL DUP6 0x26 MULMOD BYTE STOP PUSH12 0x8DF69F3A982916F8CA211BE8 0xFB RETURNDATASIZE PUSH5 0x736F6C6343 STOP ADDMOD BYTE STOP CALLER "
		},
		"gasEstimates": {
			"creation": {
				"codeDepositCost": "971600",
				"executionCost": "infinite",
				"totalCost": "infinite"
			},
			"external": {
				"TRANSFER_TYPEHASH()": "303",
				"eip712Domain()": "infinite",
				"verifyTransfer(address,address,uint256,uint8,bytes32,bytes32)": "infinite",
				"verifyTransferWithSignature(address,address,uint256,bytes)": "infinite"
			}
		},
		"methodIdentifiers": {
			"TRANSFER_TYPEHASH()": "00bf26f4",
			"eip712Domain()": "84b0196e",
			"verifyTransfer(address,address,uint256,uint8,bytes32,bytes32)": "a3230b4b",
			"verifyTransferWithSignature(address,address,uint256,bytes)": "40ff0cd9"
		}
	},
	"abi": [
		{
			"inputs": [],
			"stateMutability": "nonpayable",
			"type": "constructor"
		},
		{
			"inputs": [],
			"name": "ECDSAInvalidSignature",
			"type": "error"
		},
		{
			"inputs": [
				{
					"internalType": "uint256",
					"name": "length",
					"type": "uint256"
				}
			],
			"name": "ECDSAInvalidSignatureLength",
			"type": "error"
		},
		{
			"inputs": [
				{
					"internalType": "bytes32",
					"name": "s",
					"type": "bytes32"
				}
			],
			"name": "ECDSAInvalidSignatureS",
			"type": "error"
		},
		{
			"inputs": [],
			"name": "InvalidShortString",
			"type": "error"
		},
		{
			"inputs": [
				{
					"internalType": "string",
					"name": "str",
					"type": "string"
				}
			],
			"name": "StringTooLong",
			"type": "error"
		},
		{
			"anonymous": false,
			"inputs": [],
			"name": "EIP712DomainChanged",
			"type": "event"
		},
		{
			"inputs": [],
			"name": "TRANSFER_TYPEHASH",
			"outputs": [
				{
					"internalType": "bytes32",
					"name": "",
					"type": "bytes32"
				}
			],
			"stateMutability": "view",
			"type": "function"
		},
		{
			"inputs": [],
			"name": "eip712Domain",
			"outputs": [
				{
					"internalType": "bytes1",
					"name": "fields",
					"type": "bytes1"
				},
				{
					"internalType": "string",
					"name": "name",
					"type": "string"
				},
				{
					"internalType": "string",
					"name": "version",
					"type": "string"
				},
				{
					"internalType": "uint256",
					"name": "chainId",
					"type": "uint256"
				},
				{
					"internalType": "address",
					"name": "verifyingContract",
					"type": "address"
				},
				{
					"internalType": "bytes32",
					"name": "salt",
					"type": "bytes32"
				},
				{
					"internalType": "uint256[]",
					"name": "extensions",
					"type": "uint256[]"
				}
			],
			"stateMutability": "view",
			"type": "function"
		},
		{
			"inputs": [
				{
					"internalType": "address",
					"name": "from",
					"type": "address"
				},
				{
					"internalType": "address",
					"name": "to",
					"type": "address"
				},
				{
					"internalType": "uint256",
					"name": "value",
					"type": "uint256"
				},
				{
					"internalType": "uint8",
					"name": "v",
					"type": "uint8"
				},
				{
					"internalType": "bytes32",
					"name": "r",
					"type": "bytes32"
				},
				{
					"internalType": "bytes32",
					"name": "s",
					"type": "bytes32"
				}
			],
			"name": "verifyTransfer",
			"outputs": [
				{
					"internalType": "bool",
					"name": "",
					"type": "bool"
				}
			],
			"stateMutability": "view",
			"type": "function"
		},
		{
			"inputs": [
				{
					"internalType": "address",
					"name": "from",
					"type": "address"
				},
				{
					"internalType": "address",
					"name": "to",
					"type": "address"
				},
				{
					"internalType": "uint256",
					"name": "value",
					"type": "uint256"
				},
				{
					"internalType": "bytes",
					"name": "signature",
					"type": "bytes"
				}
			],
			"name": "verifyTransferWithSignature",
			"outputs": [
				{
					"internalType": "bool",
					"name": "",
					"type": "bool"
				}
			],
			"stateMutability": "view",
			"type": "function"
		}
	]
}