{
	"data": {
		"bytecode": {
			"linkReferences": {},
			"object": "6080604052348015600e575f80fd5b506102398061001c5f395ff3fe608060405260043610610021575f3560e01c8063b69ef8a81461003557610031565b366100315761002f3061005f565b005b5f80fd5b348015610040575f80fd5b506100496100f8565b6040516100569190610165565b60405180910390f35b6100f58160405160240161007391906101bd565b6040516020818303038152906040527f2c2ecbc2000000000000000000000000000000000000000000000000000000007bffffffffffffffffffffffffffffffffffffffffffffffffffffffff19166020820180517bffffffffffffffffffffffffffffffffffffffffffffffffffffffff83818316178352505050506100ff565b50565b5f47905090565b6101168161010e610119610138565b63ffffffff16565b50565b5f6a636f6e736f6c652e6c6f6790505f80835160208501845afa505050565b610143819050919050565b61014b6101d6565b565b5f819050919050565b61015f8161014d565b82525050565b5f6020820190506101785f830184610156565b92915050565b5f73ffffffffffffffffffffffffffffffffffffffff82169050919050565b5f6101a78261017e565b9050919050565b6101b78161019d565b82525050565b5f6020820190506101d05f8301846101ae565b92915050565b7f4e487b71000000000000000000000000000000000000000000000000000000005f52605160045260245ffdfea26469706673582212209b7545718c57a02063b0151f23991e61c9696635e10f2d9cd8ab38ef2095ab0564736f6c634300081a0033",
			"opcodes": "PUSH1 0x80 PUSH1 0x40 MSTORE CALLVALUE DUP1 ISZERO PUSH1 0xE JUMPI PUSH0 DUP1 REVERT JUMPDEST POP PUSH2 0x239 DUP1 PUSH2 0x1C PUSH0 CODECOPY PUSH0 RETURN INVALID PUSH1 0x80 PUSH1 0x40 MSTORE PUSH1 0x4 CALLDATASIZE LT PUSH2 0x21 JUMPI PUSH0 CALLDATALOAD PUSH1 0xE0 SHR DUP1 PUSH4 0xB69EF8A8 EQ PUSH2 0x35 JUMPI PUSH2 0x31 JUMP JUMPDEST CALLDATASIZE PUSH2 0x31 JUMPI PUSH2 0x2F ADDRESS PUSH2 0x5F JUMP JUMPDEST STOP JUMPDEST PUSH0 DUP1 REVERT JUMPDEST CALLVALUE DUP1 ISZERO PUSH2 0x40 JUMPI PUSH0 DUP1 REVERT JUMPDEST POP PUSH2 0x49 PUSH2 0xF8 JUMP JUMPDEST PUSH1 0x40 MLOAD PUSH2 0x56 SWAP2 SWAP1 PUSH2 0x165 JUMP JUMPDEST PUSH1 0x40 MLOAD DUP1 SWAP2 SUB SWAP1 RETURN JUMPDEST PUSH2 0xF5 DUP2 PUSH1 0x40 MLOAD PUSH1 0x24 ADD PUSH2 0x73 SWAP2 SWAP1 PUSH2 0x1BD JUMP JUMPDEST PUSH1 0x40 MLOAD PUSH1 0x20 DUP2 DUP4 SUB SUB DUP2 MSTORE SWAP1 PUSH1 0x40 MSTORE PUSH32 0x2C2ECBC200000000000000000000000000000000000000000000000000000000 PUSH28 0xFFFFFFFFFFFFFFFFFFFFFFFFFFFFFFFFFFFFFFFFFFFFFFFFFFFFFFFF NOT AND PUSH1 0x20 DUP3 ADD DUP1 MLOAD PUSH28 0xFFFFFFFFFFFFFFFFFFFFFFFFFFFFFFFFFFFFFFFFFFFFFFFFFFFFFFFF DUP4 DUP2 DUP4 AND OR DUP4 MSTORE POP POP POP POP PUSH2 0xFF JUMP JUMPDEST POP JUMP JUMPDEST PUSH0 SELFBALANCE SWAP1 POP SWAP1 JUMP JUMPDEST PUSH2 0x116 DUP2 PUSH2 0x10E PUSH2 0x119 PUSH2 0x138 JUMP JUMPDEST PUSH4 0xFFFFFFFF AND JUMP JUMPDEST POP JUMP JUMPDEST PUSH0 PUSH11 0x636F6E736F6C652E6C6F67 SWAP1 POP PUSH0 DUP1 DUP4 MLOAD PUSH1 0x20 DUP6 ADD DUP5 GAS STATICCALL POP POP POP JUMP JUMPDEST PUSH2 0x143 DUP2 SWAP1 POP SWAP2 SWAP1 POP JUMP JUMPDEST PUSH2 0x14B PUSH2 0x1D6 JUMP JUMPDEST JUMP JUMPDEST PUSH0 DUP2 SWAP1 POP SWAP2 SWAP1 POP JUMP JUMPDEST PUSH2 0x15F DUP2 PUSH2 0x14D JUMP JUMPDEST DUP3 MSTORE POP POP JUMP JUMPDEST PUSH0 PUSH1 0x20 DUP3 ADD SWAP1 POP PUSH2 0x178 PUSH0 DUP4 ADD DUP5 PUSH2 0x156 JUMP JUMPDEST SWAP3 SWAP2 POP POP JUMP JUMPDEST PUSH0 PUSH20 0xFFFFFFFFFFFFFFFFFFFFFFFFFFFFFFFFFFFFFFFF DUP3 AND SWAP1 POP SWAP2 SWAP1 POP JUMP JUMPDEST PUSH0 PUSH2 0x1A7 DUP3 PUSH2 0x17E JUMP JUMPDEST SWAP1 POP SWAP2 SWAP1 POP JUMP JUMPDEST PUSH2 0x1B7 DUP2 PUSH2 0x19D JUMP JUMPDEST DUP3 MSTORE POP POP JUMP JUMPDEST PUSH0 PUSH1 0x20 DUP3 ADD SWAP1 POP PUSH2 0x1D0 PUSH0 DUP4 ADD DUP5 PUSH2 0x1AE JUMP JUMPDEST SWAP3 SWAP2 POP POP JUMP JUMPDEST PUSH32 0x4E487B7100000000000000000000000000000000000000000000000000000000 PUSH0 MSTORE PUSH1 0x51 PUSH1 0x4 MSTORE PUSH1 0x24 PUSH0 REVERT INVALID LOG2 PUSH5 0x6970667358 0x22 SLT KECCAK256 SWAP12 PUSH22 0x45718C57A02063B0151F23991E61C9696635E10F2D9C 0xD8 0xAB CODESIZE 0xEF KECCAK256 SWAP6 0xAB SDIV PUSH5 0x736F6C6343 STOP ADDMOD BYTE STOP CALLER "
		},
		"gasEstimates": {
			"creation": {
				"codeDepositCost": "113800",
				"executionCost": "157",
				"totalCost": "113957"
			},
			"external": {
				"balance()": "312"
			}
		},
		"methodIdentifiers": {
			"balance()": "b69ef8a8"
		}
	},
	"abi": [
		{
			"inputs": [],
			"name": "balance",
			"outputs": [
				{
					"internalType": "uint256",
					"name": "",
					"type": "uint256"
				}
			],
			"stateMutability": "view",
			"type": "function"
		},
		{
			"stateMutability": "payable",
			"type": "receive"
		}
	]
}