{
	"contracts/质押代币/StakingReward.sol": {
		"StakingRewards": {
			"abi": [
				{
					"inputs": [
						{
							"internalType": "address",
							"name": "_stakingToken",
							"type": "address"
						},
						{
							"internalType": "address",
							"name": "_rewardsToken",
							"type": "address"
						}
					],
					"stateMutability": "nonpayable",
					"type": "constructor"
				},
				{
					"inputs": [
						{
							"internalType": "address",
							"name": "",
							"type": "address"
						}
					],
					"name": "balanceOf",
					"outputs": [
						{
							"internalType": "uint256",
							"name": "",
							"type": "uint256"
						}
					],
					"stateMutability": "view",
					"type": "function"
				},
				{
					"inputs": [],
					"name": "duration",
					"outputs": [
						{
							"internalType": "uint256",
							"name": "",
							"type": "uint256"
						}
					],
					"stateMutability": "view",
					"type": "function"
				},
				{
					"inputs": [
						{
							"internalType": "address",
							"name": "_account",
							"type": "address"
						}
					],
					"name": "earned",
					"outputs": [
						{
							"internalType": "uint256",
							"name": "",
							"type": "uint256"
						}
					],
					"stateMutability": "view",
					"type": "function"
				},
				{
					"inputs": [],
					"name": "finishAt",
					"outputs": [
						{
							"internalType": "uint256",
							"name": "",
							"type": "uint256"
						}
					],
					"stateMutability": "view",
					"type": "function"
				},
				{
					"inputs": [],
					"name": "getReward",
					"outputs": [],
					"stateMutability": "nonpayable",
					"type": "function"
				},
				{
					"inputs": [],
					"name": "lastTimeRewardApplicable",
					"outputs": [
						{
							"internalType": "uint256",
							"name": "",
							"type": "uint256"
						}
					],
					"stateMutability": "view",
					"type": "function"
				},
				{
					"inputs": [
						{
							"internalType": "uint256",
							"name": "_amount",
							"type": "uint256"
						}
					],
					"name": "notifyRewardAmount",
					"outputs": [],
					"stateMutability": "nonpayable",
					"type": "function"
				},
				{
					"inputs": [],
					"name": "owner",
					"outputs": [
						{
							"internalType": "address",
							"name": "",
							"type": "address"
						}
					],
					"stateMutability": "view",
					"type": "function"
				},
				{
					"inputs": [],
					"name": "rewardPerToken",
					"outputs": [
						{
							"internalType": "uint256",
							"name": "",
							"type": "uint256"
						}
					],
					"stateMutability": "view",
					"type": "function"
				},
				{
					"inputs": [],
					"name": "rewardPerTokenStored",
					"outputs": [
						{
							"internalType": "uint256",
							"name": "",
							"type": "uint256"
						}
					],
					"stateMutability": "view",
					"type": "function"
				},
				{
					"inputs": [],
					"name": "rewardRate",
					"outputs": [
						{
							"internalType": "uint256",
							"name": "",
							"type": "uint256"
						}
					],
					"stateMutability": "view",
					"type": "function"
				},
				{
					"inputs": [
						{
							"internalType": "address",
							"name": "",
							"type": "address"
						}
					],
					"name": "rewards",
					"outputs": [
						{
							"internalType": "uint256",
							"name": "",
							"type": "uint256"
						}
					],
					"stateMutability": "view",
					"type": "function"
				},
				{
					"inputs": [],
					"name": "rewardsToken",
					"outputs": [
						{
							"internalType": "contract IERC20",
							"name": "",
							"type": "address"
						}
					],
					"stateMutability": "view",
					"type": "function"
				},
				{
					"inputs": [
						{
							"internalType": "uint256",
							"name": "_duration",
							"type": "uint256"
						}
					],
					"name": "setRewardDuration",
					"outputs": [],
					"stateMutability": "nonpayable",
					"type": "function"
				},
				{
					"inputs": [
						{
							"internalType": "uint256",
							"name": "_amount",
							"type": "uint256"
						}
					],
					"name": "stake",
					"outputs": [],
					"stateMutability": "nonpayable",
					"type": "function"
				},
				{
					"inputs": [],
					"name": "stakingToken",
					"outputs": [
						{
							"internalType": "contract IERC20",
							"name": "",
							"type": "address"
						}
					],
					"stateMutability": "view",
					"type": "function"
				},
				{
					"inputs": [],
					"name": "totalSupply",
					"outputs": [
						{
							"internalType": "uint256",
							"name": "",
							"type": "uint256"
						}
					],
					"stateMutability": "view",
					"type": "function"
				},
				{
					"inputs": [],
					"name": "updatedAt",
					"outputs": [
						{
							"internalType": "uint256",
							"name": "",
							"type": "uint256"
						}
					],
					"stateMutability": "view",
					"type": "function"
				},
				{
					"inputs": [
						{
							"internalType": "address",
							"name": "",
							"type": "address"
						}
					],
					"name": "userRewardPerTokenPaid",
					"outputs": [
						{
							"internalType": "uint256",
							"name": "",
							"type": "uint256"
						}
					],
					"stateMutability": "view",
					"type": "function"
				},
				{
					"inputs": [
						{
							"internalType": "uint256",
							"name": "_amount",
							"type": "uint256"
						}
					],
					"name": "withdraw",
					"outputs": [],
					"stateMutability": "nonpayable",
					"type": "function"
				}
			],
			"devdoc": {
				"kind": "dev",
				"methods": {},
				"version": 1
			},
			"evm": {
				"assembly": "    /* \"contracts/\\xe8\\xb4\\xa8\\xe6\\x8a\\xbc\\xe4\\xbb\\xa3\\xe5\\xb8\\x81/StakingReward.sol\":137:6726  contract StakingRewards {... */\n  mstore(0x40, 0xc0)\n    /* \"contracts/\\xe8\\xb4\\xa8\\xe6\\x8a\\xbc\\xe4\\xbb\\xa3\\xe5\\xb8\\x81/StakingReward.sol\":1098:1461  constructor(address _stakingToken, address _rewardsToken) {... */\n  callvalue\n  dup1\n  iszero\n  tag_1\n  jumpi\n  0x00\n  dup1\n  revert\ntag_1:\n  pop\n  mload(0x40)\n  sub(codesize, bytecodeSize)\n  dup1\n  bytecodeSize\n  dup4\n  codecopy\n  dup2\n  dup2\n  add\n  0x40\n  mstore\n  dup2\n  add\n  swap1\n  tag_2\n  swap2\n  swap1\n  tag_3\n  jump\t// in\ntag_2:\n    /* \"contracts/\\xe8\\xb4\\xa8\\xe6\\x8a\\xbc\\xe4\\xbb\\xa3\\xe5\\xb8\\x81/StakingReward.sol\":1352:1362  msg.sender */\n  caller\n    /* \"contracts/\\xe8\\xb4\\xa8\\xe6\\x8a\\xbc\\xe4\\xbb\\xa3\\xe5\\xb8\\x81/StakingReward.sol\":1344:1349  owner */\n  0x00\n  dup1\n    /* \"contracts/\\xe8\\xb4\\xa8\\xe6\\x8a\\xbc\\xe4\\xbb\\xa3\\xe5\\xb8\\x81/StakingReward.sol\":1344:1362  owner = msg.sender */\n  0x0100\n  exp\n  dup2\n  sload\n  dup2\n  0xffffffffffffffffffffffffffffffffffffffff\n  mul\n  not\n  and\n  swap1\n  dup4\n  0xffffffffffffffffffffffffffffffffffffffff\n  and\n  mul\n  or\n  swap1\n  sstore\n  pop\n    /* \"contracts/\\xe8\\xb4\\xa8\\xe6\\x8a\\xbc\\xe4\\xbb\\xa3\\xe5\\xb8\\x81/StakingReward.sol\":1394:1407  _stakingToken */\n  dup2\n    /* \"contracts/\\xe8\\xb4\\xa8\\xe6\\x8a\\xbc\\xe4\\xbb\\xa3\\xe5\\xb8\\x81/StakingReward.sol\":1372:1408  stakingToken = IERC20(_stakingToken) */\n  0xffffffffffffffffffffffffffffffffffffffff\n  and\n  0x80\n  dup2\n  0xffffffffffffffffffffffffffffffffffffffff\n  and\n  dup2\n  mstore\n  pop\n  pop\n    /* \"contracts/\\xe8\\xb4\\xa8\\xe6\\x8a\\xbc\\xe4\\xbb\\xa3\\xe5\\xb8\\x81/StakingReward.sol\":1440:1453  _rewardsToken */\n  dup1\n    /* \"contracts/\\xe8\\xb4\\xa8\\xe6\\x8a\\xbc\\xe4\\xbb\\xa3\\xe5\\xb8\\x81/StakingReward.sol\":1418:1454  rewardsToken = IERC20(_rewardsToken) */\n  0xffffffffffffffffffffffffffffffffffffffff\n  and\n  0xa0\n  dup2\n  0xffffffffffffffffffffffffffffffffffffffff\n  and\n  dup2\n  mstore\n  pop\n  pop\n    /* \"contracts/\\xe8\\xb4\\xa8\\xe6\\x8a\\xbc\\xe4\\xbb\\xa3\\xe5\\xb8\\x81/StakingReward.sol\":1098:1461  constructor(address _stakingToken, address _rewardsToken) {... */\n  pop\n  pop\n    /* \"contracts/\\xe8\\xb4\\xa8\\xe6\\x8a\\xbc\\xe4\\xbb\\xa3\\xe5\\xb8\\x81/StakingReward.sol\":137:6726  contract StakingRewards {... */\n  jump(tag_6)\n    /* \"#utility.yul\":88:205   */\ntag_8:\n    /* \"#utility.yul\":197:198   */\n  0x00\n    /* \"#utility.yul\":194:195   */\n  dup1\n    /* \"#utility.yul\":187:199   */\n  revert\n    /* \"#utility.yul\":334:460   */\ntag_10:\n    /* \"#utility.yul\":371:378   */\n  0x00\n    /* \"#utility.yul\":411:453   */\n  0xffffffffffffffffffffffffffffffffffffffff\n    /* \"#utility.yul\":404:409   */\n  dup3\n    /* \"#utility.yul\":400:454   */\n  and\n    /* \"#utility.yul\":389:454   */\n  swap1\n  pop\n    /* \"#utility.yul\":334:460   */\n  swap2\n  swap1\n  pop\n  jump\t// out\n    /* \"#utility.yul\":466:562   */\ntag_11:\n    /* \"#utility.yul\":503:510   */\n  0x00\n    /* \"#utility.yul\":532:556   */\n  tag_20\n    /* \"#utility.yul\":550:555   */\n  dup3\n    /* \"#utility.yul\":532:556   */\n  tag_10\n  jump\t// in\ntag_20:\n    /* \"#utility.yul\":521:556   */\n  swap1\n  pop\n    /* \"#utility.yul\":466:562   */\n  swap2\n  swap1\n  pop\n  jump\t// out\n    /* \"#utility.yul\":568:690   */\ntag_12:\n    /* \"#utility.yul\":641:665   */\n  tag_22\n    /* \"#utility.yul\":659:664   */\n  dup2\n    /* \"#utility.yul\":641:665   */\n  tag_11\n  jump\t// in\ntag_22:\n    /* \"#utility.yul\":634:639   */\n  dup2\n    /* \"#utility.yul\":631:666   */\n  eq\n    /* \"#utility.yul\":621:684   */\n  tag_23\n  jumpi\n    /* \"#utility.yul\":680:681   */\n  0x00\n    /* \"#utility.yul\":677:678   */\n  dup1\n    /* \"#utility.yul\":670:682   */\n  revert\n    /* \"#utility.yul\":621:684   */\ntag_23:\n    /* \"#utility.yul\":568:690   */\n  pop\n  jump\t// out\n    /* \"#utility.yul\":696:839   */\ntag_13:\n    /* \"#utility.yul\":753:758   */\n  0x00\n    /* \"#utility.yul\":784:790   */\n  dup2\n    /* \"#utility.yul\":778:791   */\n  mload\n    /* \"#utility.yul\":769:791   */\n  swap1\n  pop\n    /* \"#utility.yul\":800:833   */\n  tag_25\n    /* \"#utility.yul\":827:832   */\n  dup2\n    /* \"#utility.yul\":800:833   */\n  tag_12\n  jump\t// in\ntag_25:\n    /* \"#utility.yul\":696:839   */\n  swap3\n  swap2\n  pop\n  pop\n  jump\t// out\n    /* \"#utility.yul\":845:1352   */\ntag_3:\n    /* \"#utility.yul\":924:930   */\n  0x00\n    /* \"#utility.yul\":932:938   */\n  dup1\n    /* \"#utility.yul\":981:983   */\n  0x40\n    /* \"#utility.yul\":969:978   */\n  dup4\n    /* \"#utility.yul\":960:967   */\n  dup6\n    /* \"#utility.yul\":956:979   */\n  sub\n    /* \"#utility.yul\":952:984   */\n  slt\n    /* \"#utility.yul\":949:1068   */\n  iszero\n  tag_27\n  jumpi\n    /* \"#utility.yul\":987:1066   */\n  tag_28\n  tag_8\n  jump\t// in\ntag_28:\n    /* \"#utility.yul\":949:1068   */\ntag_27:\n    /* \"#utility.yul\":1107:1108   */\n  0x00\n    /* \"#utility.yul\":1132:1196   */\n  tag_29\n    /* \"#utility.yul\":1188:1195   */\n  dup6\n    /* \"#utility.yul\":1179:1185   */\n  dup3\n    /* \"#utility.yul\":1168:1177   */\n  dup7\n    /* \"#utility.yul\":1164:1186   */\n  add\n    /* \"#utility.yul\":1132:1196   */\n  tag_13\n  jump\t// in\ntag_29:\n    /* \"#utility.yul\":1122:1196   */\n  swap3\n  pop\n    /* \"#utility.yul\":1078:1206   */\n  pop\n    /* \"#utility.yul\":1245:1247   */\n  0x20\n    /* \"#utility.yul\":1271:1335   */\n  tag_30\n    /* \"#utility.yul\":1327:1334   */\n  dup6\n    /* \"#utility.yul\":1318:1324   */\n  dup3\n    /* \"#utility.yul\":1307:1316   */\n  dup7\n    /* \"#utility.yul\":1303:1325   */\n  add\n    /* \"#utility.yul\":1271:1335   */\n  tag_13\n  jump\t// in\ntag_30:\n    /* \"#utility.yul\":1261:1335   */\n  swap2\n  pop\n    /* \"#utility.yul\":1216:1345   */\n  pop\n    /* \"#utility.yul\":845:1352   */\n  swap3\n  pop\n  swap3\n  swap1\n  pop\n  jump\t// out\n    /* \"contracts/\\xe8\\xb4\\xa8\\xe6\\x8a\\xbc\\xe4\\xbb\\xa3\\xe5\\xb8\\x81/StakingReward.sol\":137:6726  contract StakingRewards {... */\ntag_6:\n  mload(0x80)\n  mload(0xa0)\n  codecopy(0x00, dataOffset(sub_0), dataSize(sub_0))\n  0x00\n  assignImmutable(\"0x04e57633024368235fc5219bfb9802814291d3a7b9a68d0aeb7bd3d297ac474e\")\n  0x00\n  assignImmutable(\"0x845e9c18ca148a712f01bf14c91c3e2fe352eabe86c44817e3f33b63f585a343\")\n  return(0x00, dataSize(sub_0))\nstop\n\nsub_0: assembly {\n        /* \"contracts/\\xe8\\xb4\\xa8\\xe6\\x8a\\xbc\\xe4\\xbb\\xa3\\xe5\\xb8\\x81/StakingReward.sol\":137:6726  contract StakingRewards {... */\n      mstore(0x40, 0x80)\n      callvalue\n      dup1\n      iszero\n      tag_1\n      jumpi\n      0x00\n      dup1\n      revert\n    tag_1:\n      pop\n      jumpi(tag_2, lt(calldatasize, 0x04))\n      shr(0xe0, calldataload(0x00))\n      dup1\n      0x7519ab50\n      gt\n      tag_23\n      jumpi\n      dup1\n      0xa694fc3a\n      gt\n      tag_24\n      jumpi\n      dup1\n      0xa694fc3a\n      eq\n      tag_18\n      jumpi\n      dup1\n      0xc0ed00c9\n      eq\n      tag_19\n      jumpi\n      dup1\n      0xcd3daf9d\n      eq\n      tag_20\n      jumpi\n      dup1\n      0xd1af0c7d\n      eq\n      tag_21\n      jumpi\n      dup1\n      0xdf136d65\n      eq\n      tag_22\n      jumpi\n      jump(tag_2)\n    tag_24:\n      dup1\n      0x7519ab50\n      eq\n      tag_13\n      jumpi\n      dup1\n      0x7b0a47ee\n      eq\n      tag_14\n      jumpi\n      dup1\n      0x80faa57d\n      eq\n      tag_15\n      jumpi\n      dup1\n      0x8b876347\n      eq\n      tag_16\n      jumpi\n      dup1\n      0x8da5cb5b\n      eq\n      tag_17\n      jumpi\n      jump(tag_2)\n    tag_23:\n      dup1\n      0x3c6b16ab\n      gt\n      tag_25\n      jumpi\n      dup1\n      0x3c6b16ab\n      eq\n      tag_8\n      jumpi\n      dup1\n      0x3d18b912\n      eq\n      tag_9\n      jumpi\n      dup1\n      0x67d3b488\n      eq\n      tag_10\n      jumpi\n      dup1\n      0x70a08231\n      eq\n      tag_11\n      jumpi\n      dup1\n      0x72f702f3\n      eq\n      tag_12\n      jumpi\n      jump(tag_2)\n    tag_25:\n      dup1\n      0x8cc262\n      eq\n      tag_3\n      jumpi\n      dup1\n      0x0700037d\n      eq\n      tag_4\n      jumpi\n      dup1\n      0x0fb5a6b4\n      eq\n      tag_5\n      jumpi\n      dup1\n      0x18160ddd\n      eq\n      tag_6\n      jumpi\n      dup1\n      0x2e1a7d4d\n      eq\n      tag_7\n      jumpi\n    tag_2:\n      0x00\n      dup1\n      revert\n        /* \"contracts/\\xe8\\xb4\\xa8\\xe6\\x8a\\xbc\\xe4\\xbb\\xa3\\xe5\\xb8\\x81/StakingReward.sol\":3357:3601  function earned(address _account) public view returns (uint256) {... */\n    tag_3:\n      tag_26\n      0x04\n      dup1\n      calldatasize\n      sub\n      dup2\n      add\n      swap1\n      tag_27\n      swap2\n      swap1\n      tag_28\n      jump\t// in\n    tag_27:\n      tag_29\n      jump\t// in\n    tag_26:\n      mload(0x40)\n      tag_30\n      swap2\n      swap1\n      tag_31\n      jump\t// in\n    tag_30:\n      mload(0x40)\n      dup1\n      swap2\n      sub\n      swap1\n      return\n        /* \"contracts/\\xe8\\xb4\\xa8\\xe6\\x8a\\xbc\\xe4\\xbb\\xa3\\xe5\\xb8\\x81/StakingReward.sol\":845:887  mapping(address => uint256) public rewards */\n    tag_4:\n      tag_32\n      0x04\n      dup1\n      calldatasize\n      sub\n      dup2\n      add\n      swap1\n      tag_33\n      swap2\n      swap1\n      tag_28\n      jump\t// in\n    tag_33:\n      tag_34\n      jump\t// in\n    tag_32:\n      mload(0x40)\n      tag_35\n      swap2\n      swap1\n      tag_31\n      jump\t// in\n    tag_35:\n      mload(0x40)\n      dup1\n      swap2\n      sub\n      swap1\n      return\n        /* \"contracts/\\xe8\\xb4\\xa8\\xe6\\x8a\\xbc\\xe4\\xbb\\xa3\\xe5\\xb8\\x81/StakingReward.sol\":387:410  uint256 public duration */\n    tag_5:\n      tag_36\n      tag_37\n      jump\t// in\n    tag_36:\n      mload(0x40)\n      tag_38\n      swap2\n      swap1\n      tag_31\n      jump\t// in\n    tag_38:\n      mload(0x40)\n      dup1\n      swap2\n      sub\n      swap1\n      return\n        /* \"contracts/\\xe8\\xb4\\xa8\\xe6\\x8a\\xbc\\xe4\\xbb\\xa3\\xe5\\xb8\\x81/StakingReward.sol\":1005:1031  uint256 public totalSupply */\n    tag_6:\n      tag_39\n      tag_40\n      jump\t// in\n    tag_39:\n      mload(0x40)\n      tag_41\n      swap2\n      swap1\n      tag_31\n      jump\t// in\n    tag_41:\n      mload(0x40)\n      dup1\n      swap2\n      sub\n      swap1\n      return\n        /* \"contracts/\\xe8\\xb4\\xa8\\xe6\\x8a\\xbc\\xe4\\xbb\\xa3\\xe5\\xb8\\x81/StakingReward.sol\":6013:6370  function withdraw(uint256 _amount) external updateReward(msg.sender) {... */\n    tag_7:\n      tag_42\n      0x04\n      dup1\n      calldatasize\n      sub\n      dup2\n      add\n      swap1\n      tag_43\n      swap2\n      swap1\n      tag_44\n      jump\t// in\n    tag_43:\n      tag_45\n      jump\t// in\n    tag_42:\n      stop\n        /* \"contracts/\\xe8\\xb4\\xa8\\xe6\\x8a\\xbc\\xe4\\xbb\\xa3\\xe5\\xb8\\x81/StakingReward.sol\":4040:5435  function notifyRewardAmount(uint256 _amount)... */\n    tag_8:\n      tag_46\n      0x04\n      dup1\n      calldatasize\n      sub\n      dup2\n      add\n      swap1\n      tag_47\n      swap2\n      swap1\n      tag_44\n      jump\t// in\n    tag_47:\n      tag_48\n      jump\t// in\n    tag_46:\n      stop\n        /* \"contracts/\\xe8\\xb4\\xa8\\xe6\\x8a\\xbc\\xe4\\xbb\\xa3\\xe5\\xb8\\x81/StakingReward.sol\":6405:6724  function getReward() external updateReward(msg.sender) {... */\n    tag_9:\n      tag_49\n      tag_50\n      jump\t// in\n    tag_49:\n      stop\n        /* \"contracts/\\xe8\\xb4\\xa8\\xe6\\x8a\\xbc\\xe4\\xbb\\xa3\\xe5\\xb8\\x81/StakingReward.sol\":458:481  uint256 public finishAt */\n    tag_10:\n      tag_51\n      tag_52\n      jump\t// in\n    tag_51:\n      mload(0x40)\n      tag_53\n      swap2\n      swap1\n      tag_31\n      jump\t// in\n    tag_53:\n      mload(0x40)\n      dup1\n      swap2\n      sub\n      swap1\n      return\n        /* \"contracts/\\xe8\\xb4\\xa8\\xe6\\x8a\\xbc\\xe4\\xbb\\xa3\\xe5\\xb8\\x81/StakingReward.sol\":928:972  mapping(address => uint256) public balanceOf */\n    tag_11:\n      tag_54\n      0x04\n      dup1\n      calldatasize\n      sub\n      dup2\n      add\n      swap1\n      tag_55\n      swap2\n      swap1\n      tag_28\n      jump\t// in\n    tag_55:\n      tag_56\n      jump\t// in\n    tag_54:\n      mload(0x40)\n      tag_57\n      swap2\n      swap1\n      tag_31\n      jump\t// in\n    tag_57:\n      mload(0x40)\n      dup1\n      swap2\n      sub\n      swap1\n      return\n        /* \"contracts/\\xe8\\xb4\\xa8\\xe6\\x8a\\xbc\\xe4\\xbb\\xa3\\xe5\\xb8\\x81/StakingReward.sol\":219:255  IERC20 public immutable stakingToken */\n    tag_12:\n      tag_58\n      tag_59\n      jump\t// in\n    tag_58:\n      mload(0x40)\n      tag_60\n      swap2\n      swap1\n      tag_61\n      jump\t// in\n    tag_60:\n      mload(0x40)\n      dup1\n      swap2\n      sub\n      swap1\n      return\n        /* \"contracts/\\xe8\\xb4\\xa8\\xe6\\x8a\\xbc\\xe4\\xbb\\xa3\\xe5\\xb8\\x81/StakingReward.sol\":488:512  uint256 public updatedAt */\n    tag_13:\n      tag_62\n      tag_63\n      jump\t// in\n    tag_62:\n      mload(0x40)\n      tag_64\n      swap2\n      swap1\n      tag_31\n      jump\t// in\n    tag_64:\n      mload(0x40)\n      dup1\n      swap2\n      sub\n      swap1\n      return\n        /* \"contracts/\\xe8\\xb4\\xa8\\xe6\\x8a\\xbc\\xe4\\xbb\\xa3\\xe5\\xb8\\x81/StakingReward.sol\":538:563  uint256 public rewardRate */\n    tag_14:\n      tag_65\n      tag_66\n      jump\t// in\n    tag_65:\n      mload(0x40)\n      tag_67\n      swap2\n      swap1\n      tag_31\n      jump\t// in\n    tag_67:\n      mload(0x40)\n      dup1\n      swap2\n      sub\n      swap1\n      return\n        /* \"contracts/\\xe8\\xb4\\xa8\\xe6\\x8a\\xbc\\xe4\\xbb\\xa3\\xe5\\xb8\\x81/StakingReward.sol\":3204:3325  function lastTimeRewardApplicable() public view returns (uint256) {... */\n    tag_15:\n      tag_68\n      tag_69\n      jump\t// in\n    tag_68:\n      mload(0x40)\n      tag_70\n      swap2\n      swap1\n      tag_31\n      jump\t// in\n    tag_70:\n      mload(0x40)\n      dup1\n      swap2\n      sub\n      swap1\n      return\n        /* \"contracts/\\xe8\\xb4\\xa8\\xe6\\x8a\\xbc\\xe4\\xbb\\xa3\\xe5\\xb8\\x81/StakingReward.sol\":750:807  mapping(address => uint256) public userRewardPerTokenPaid */\n    tag_16:\n      tag_71\n      0x04\n      dup1\n      calldatasize\n      sub\n      dup2\n      add\n      swap1\n      tag_72\n      swap2\n      swap1\n      tag_28\n      jump\t// in\n    tag_72:\n      tag_73\n      jump\t// in\n    tag_71:\n      mload(0x40)\n      tag_74\n      swap2\n      swap1\n      tag_31\n      jump\t// in\n    tag_74:\n      mload(0x40)\n      dup1\n      swap2\n      sub\n      swap1\n      return\n        /* \"contracts/\\xe8\\xb4\\xa8\\xe6\\x8a\\xbc\\xe4\\xbb\\xa3\\xe5\\xb8\\x81/StakingReward.sol\":340:360  address public owner */\n    tag_17:\n      tag_75\n      tag_76\n      jump\t// in\n    tag_75:\n      mload(0x40)\n      tag_77\n      swap2\n      swap1\n      tag_78\n      jump\t// in\n    tag_77:\n      mload(0x40)\n      dup1\n      swap2\n      sub\n      swap1\n      return\n        /* \"contracts/\\xe8\\xb4\\xa8\\xe6\\x8a\\xbc\\xe4\\xbb\\xa3\\xe5\\xb8\\x81/StakingReward.sol\":5567:5987  function stake(uint256 _amount) external updateReward(msg.sender) {... */\n    tag_18:\n      tag_79\n      0x04\n      dup1\n      calldatasize\n      sub\n      dup2\n      add\n      swap1\n      tag_80\n      swap2\n      swap1\n      tag_44\n      jump\t// in\n    tag_80:\n      tag_81\n      jump\t// in\n    tag_79:\n      stop\n        /* \"contracts/\\xe8\\xb4\\xa8\\xe6\\x8a\\xbc\\xe4\\xbb\\xa3\\xe5\\xb8\\x81/StakingReward.sol\":3649:3958  function setRewardDuration(uint256 _duration) external onlyOwner {... */\n    tag_19:\n      tag_82\n      0x04\n      dup1\n      calldatasize\n      sub\n      dup2\n      add\n      swap1\n      tag_83\n      swap2\n      swap1\n      tag_44\n      jump\t// in\n    tag_83:\n      tag_84\n      jump\t// in\n    tag_82:\n      stop\n        /* \"contracts/\\xe8\\xb4\\xa8\\xe6\\x8a\\xbc\\xe4\\xbb\\xa3\\xe5\\xb8\\x81/StakingReward.sol\":2809:3086  function rewardPerToken() public view returns (uint256) {... */\n    tag_20:\n      tag_85\n      tag_86\n      jump\t// in\n    tag_85:\n      mload(0x40)\n      tag_87\n      swap2\n      swap1\n      tag_31\n      jump\t// in\n    tag_87:\n      mload(0x40)\n      dup1\n      swap2\n      sub\n      swap1\n      return\n        /* \"contracts/\\xe8\\xb4\\xa8\\xe6\\x8a\\xbc\\xe4\\xbb\\xa3\\xe5\\xb8\\x81/StakingReward.sol\":280:316  IERC20 public immutable rewardsToken */\n    tag_21:\n      tag_88\n      tag_89\n      jump\t// in\n    tag_88:\n      mload(0x40)\n      tag_90\n      swap2\n      swap1\n      tag_61\n      jump\t// in\n    tag_90:\n      mload(0x40)\n      dup1\n      swap2\n      sub\n      swap1\n      return\n        /* \"contracts/\\xe8\\xb4\\xa8\\xe6\\x8a\\xbc\\xe4\\xbb\\xa3\\xe5\\xb8\\x81/StakingReward.sol\":570:605  uint256 public rewardPerTokenStored */\n    tag_22:\n      tag_91\n      tag_92\n      jump\t// in\n    tag_91:\n      mload(0x40)\n      tag_93\n      swap2\n      swap1\n      tag_31\n      jump\t// in\n    tag_93:\n      mload(0x40)\n      dup1\n      swap2\n      sub\n      swap1\n      return\n        /* \"contracts/\\xe8\\xb4\\xa8\\xe6\\x8a\\xbc\\xe4\\xbb\\xa3\\xe5\\xb8\\x81/StakingReward.sol\":3357:3601  function earned(address _account) public view returns (uint256) {... */\n    tag_29:\n        /* \"contracts/\\xe8\\xb4\\xa8\\xe6\\x8a\\xbc\\xe4\\xbb\\xa3\\xe5\\xb8\\x81/StakingReward.sol\":3412:3419  uint256 */\n      0x00\n        /* \"contracts/\\xe8\\xb4\\xa8\\xe6\\x8a\\xbc\\xe4\\xbb\\xa3\\xe5\\xb8\\x81/StakingReward.sol\":3577:3584  rewards */\n      0x07\n        /* \"contracts/\\xe8\\xb4\\xa8\\xe6\\x8a\\xbc\\xe4\\xbb\\xa3\\xe5\\xb8\\x81/StakingReward.sol\":3577:3594  rewards[_account] */\n      0x00\n        /* \"contracts/\\xe8\\xb4\\xa8\\xe6\\x8a\\xbc\\xe4\\xbb\\xa3\\xe5\\xb8\\x81/StakingReward.sol\":3585:3593  _account */\n      dup4\n        /* \"contracts/\\xe8\\xb4\\xa8\\xe6\\x8a\\xbc\\xe4\\xbb\\xa3\\xe5\\xb8\\x81/StakingReward.sol\":3577:3594  rewards[_account] */\n      0xffffffffffffffffffffffffffffffffffffffff\n      and\n      0xffffffffffffffffffffffffffffffffffffffff\n      and\n      dup2\n      mstore\n      0x20\n      add\n      swap1\n      dup2\n      mstore\n      0x20\n      add\n      0x00\n      keccak256\n      sload\n        /* \"contracts/\\xe8\\xb4\\xa8\\xe6\\x8a\\xbc\\xe4\\xbb\\xa3\\xe5\\xb8\\x81/StakingReward.sol\":3558:3562  1e18 */\n      0x0de0b6b3a7640000\n        /* \"contracts/\\xe8\\xb4\\xa8\\xe6\\x8a\\xbc\\xe4\\xbb\\xa3\\xe5\\xb8\\x81/StakingReward.sol\":3509:3531  userRewardPerTokenPaid */\n      0x06\n        /* \"contracts/\\xe8\\xb4\\xa8\\xe6\\x8a\\xbc\\xe4\\xbb\\xa3\\xe5\\xb8\\x81/StakingReward.sol\":3509:3541  userRewardPerTokenPaid[_account] */\n      0x00\n        /* \"contracts/\\xe8\\xb4\\xa8\\xe6\\x8a\\xbc\\xe4\\xbb\\xa3\\xe5\\xb8\\x81/StakingReward.sol\":3532:3540  _account */\n      dup6\n        /* \"contracts/\\xe8\\xb4\\xa8\\xe6\\x8a\\xbc\\xe4\\xbb\\xa3\\xe5\\xb8\\x81/StakingReward.sol\":3509:3541  userRewardPerTokenPaid[_account] */\n      0xffffffffffffffffffffffffffffffffffffffff\n      and\n      0xffffffffffffffffffffffffffffffffffffffff\n      and\n      dup2\n      mstore\n      0x20\n      add\n      swap1\n      dup2\n      mstore\n      0x20\n      add\n      0x00\n      keccak256\n      sload\n        /* \"contracts/\\xe8\\xb4\\xa8\\xe6\\x8a\\xbc\\xe4\\xbb\\xa3\\xe5\\xb8\\x81/StakingReward.sol\":3490:3506  rewardPerToken() */\n      tag_95\n        /* \"contracts/\\xe8\\xb4\\xa8\\xe6\\x8a\\xbc\\xe4\\xbb\\xa3\\xe5\\xb8\\x81/StakingReward.sol\":3490:3504  rewardPerToken */\n      tag_86\n        /* \"contracts/\\xe8\\xb4\\xa8\\xe6\\x8a\\xbc\\xe4\\xbb\\xa3\\xe5\\xb8\\x81/StakingReward.sol\":3490:3506  rewardPerToken() */\n      jump\t// in\n    tag_95:\n        /* \"contracts/\\xe8\\xb4\\xa8\\xe6\\x8a\\xbc\\xe4\\xbb\\xa3\\xe5\\xb8\\x81/StakingReward.sol\":3490:3541  rewardPerToken() - userRewardPerTokenPaid[_account] */\n      tag_96\n      swap2\n      swap1\n      tag_97\n      jump\t// in\n    tag_96:\n        /* \"contracts/\\xe8\\xb4\\xa8\\xe6\\x8a\\xbc\\xe4\\xbb\\xa3\\xe5\\xb8\\x81/StakingReward.sol\":3451:3460  balanceOf */\n      0x08\n        /* \"contracts/\\xe8\\xb4\\xa8\\xe6\\x8a\\xbc\\xe4\\xbb\\xa3\\xe5\\xb8\\x81/StakingReward.sol\":3451:3470  balanceOf[_account] */\n      0x00\n        /* \"contracts/\\xe8\\xb4\\xa8\\xe6\\x8a\\xbc\\xe4\\xbb\\xa3\\xe5\\xb8\\x81/StakingReward.sol\":3461:3469  _account */\n      dup7\n        /* \"contracts/\\xe8\\xb4\\xa8\\xe6\\x8a\\xbc\\xe4\\xbb\\xa3\\xe5\\xb8\\x81/StakingReward.sol\":3451:3470  balanceOf[_account] */\n      0xffffffffffffffffffffffffffffffffffffffff\n      and\n      0xffffffffffffffffffffffffffffffffffffffff\n      and\n      dup2\n      mstore\n      0x20\n      add\n      swap1\n      dup2\n      mstore\n      0x20\n      add\n      0x00\n      keccak256\n      sload\n        /* \"contracts/\\xe8\\xb4\\xa8\\xe6\\x8a\\xbc\\xe4\\xbb\\xa3\\xe5\\xb8\\x81/StakingReward.sol\":3451:3542  balanceOf[_account] *... */\n      tag_98\n      swap2\n      swap1\n      tag_99\n      jump\t// in\n    tag_98:\n        /* \"contracts/\\xe8\\xb4\\xa8\\xe6\\x8a\\xbc\\xe4\\xbb\\xa3\\xe5\\xb8\\x81/StakingReward.sol\":3450:3562  (balanceOf[_account] *... */\n      tag_100\n      swap2\n      swap1\n      tag_101\n      jump\t// in\n    tag_100:\n        /* \"contracts/\\xe8\\xb4\\xa8\\xe6\\x8a\\xbc\\xe4\\xbb\\xa3\\xe5\\xb8\\x81/StakingReward.sol\":3450:3594  (balanceOf[_account] *... */\n      tag_102\n      swap2\n      swap1\n      tag_103\n      jump\t// in\n    tag_102:\n        /* \"contracts/\\xe8\\xb4\\xa8\\xe6\\x8a\\xbc\\xe4\\xbb\\xa3\\xe5\\xb8\\x81/StakingReward.sol\":3431:3594  return... */\n      swap1\n      pop\n        /* \"contracts/\\xe8\\xb4\\xa8\\xe6\\x8a\\xbc\\xe4\\xbb\\xa3\\xe5\\xb8\\x81/StakingReward.sol\":3357:3601  function earned(address _account) public view returns (uint256) {... */\n      swap2\n      swap1\n      pop\n      jump\t// out\n        /* \"contracts/\\xe8\\xb4\\xa8\\xe6\\x8a\\xbc\\xe4\\xbb\\xa3\\xe5\\xb8\\x81/StakingReward.sol\":845:887  mapping(address => uint256) public rewards */\n    tag_34:\n      mstore(0x20, 0x07)\n      dup1\n      0x00\n      mstore\n      keccak256(0x00, 0x40)\n      0x00\n      swap2\n      pop\n      swap1\n      pop\n      sload\n      dup2\n      jump\t// out\n        /* \"contracts/\\xe8\\xb4\\xa8\\xe6\\x8a\\xbc\\xe4\\xbb\\xa3\\xe5\\xb8\\x81/StakingReward.sol\":387:410  uint256 public duration */\n    tag_37:\n      sload(0x01)\n      dup2\n      jump\t// out\n        /* \"contracts/\\xe8\\xb4\\xa8\\xe6\\x8a\\xbc\\xe4\\xbb\\xa3\\xe5\\xb8\\x81/StakingReward.sol\":1005:1031  uint256 public totalSupply */\n    tag_40:\n      sload(0x09)\n      dup2\n      jump\t// out\n        /* \"contracts/\\xe8\\xb4\\xa8\\xe6\\x8a\\xbc\\xe4\\xbb\\xa3\\xe5\\xb8\\x81/StakingReward.sol\":6013:6370  function withdraw(uint256 _amount) external updateReward(msg.sender) {... */\n    tag_45:\n        /* \"contracts/\\xe8\\xb4\\xa8\\xe6\\x8a\\xbc\\xe4\\xbb\\xa3\\xe5\\xb8\\x81/StakingReward.sol\":6070:6080  msg.sender */\n      caller\n        /* \"contracts/\\xe8\\xb4\\xa8\\xe6\\x8a\\xbc\\xe4\\xbb\\xa3\\xe5\\xb8\\x81/StakingReward.sol\":2330:2346  rewardPerToken() */\n      tag_105\n        /* \"contracts/\\xe8\\xb4\\xa8\\xe6\\x8a\\xbc\\xe4\\xbb\\xa3\\xe5\\xb8\\x81/StakingReward.sol\":2330:2344  rewardPerToken */\n      tag_86\n        /* \"contracts/\\xe8\\xb4\\xa8\\xe6\\x8a\\xbc\\xe4\\xbb\\xa3\\xe5\\xb8\\x81/StakingReward.sol\":2330:2346  rewardPerToken() */\n      jump\t// in\n    tag_105:\n        /* \"contracts/\\xe8\\xb4\\xa8\\xe6\\x8a\\xbc\\xe4\\xbb\\xa3\\xe5\\xb8\\x81/StakingReward.sol\":2307:2327  rewardPerTokenStored */\n      0x05\n        /* \"contracts/\\xe8\\xb4\\xa8\\xe6\\x8a\\xbc\\xe4\\xbb\\xa3\\xe5\\xb8\\x81/StakingReward.sol\":2307:2346  rewardPerTokenStored = rewardPerToken() */\n      dup2\n      swap1\n      sstore\n      pop\n        /* \"contracts/\\xe8\\xb4\\xa8\\xe6\\x8a\\xbc\\xe4\\xbb\\xa3\\xe5\\xb8\\x81/StakingReward.sol\":2368:2394  lastTimeRewardApplicable() */\n      tag_106\n        /* \"contracts/\\xe8\\xb4\\xa8\\xe6\\x8a\\xbc\\xe4\\xbb\\xa3\\xe5\\xb8\\x81/StakingReward.sol\":2368:2392  lastTimeRewardApplicable */\n      tag_69\n        /* \"contracts/\\xe8\\xb4\\xa8\\xe6\\x8a\\xbc\\xe4\\xbb\\xa3\\xe5\\xb8\\x81/StakingReward.sol\":2368:2394  lastTimeRewardApplicable() */\n      jump\t// in\n    tag_106:\n        /* \"contracts/\\xe8\\xb4\\xa8\\xe6\\x8a\\xbc\\xe4\\xbb\\xa3\\xe5\\xb8\\x81/StakingReward.sol\":2356:2365  updatedAt */\n      0x03\n        /* \"contracts/\\xe8\\xb4\\xa8\\xe6\\x8a\\xbc\\xe4\\xbb\\xa3\\xe5\\xb8\\x81/StakingReward.sol\":2356:2394  updatedAt = lastTimeRewardApplicable() */\n      dup2\n      swap1\n      sstore\n      pop\n        /* \"contracts/\\xe8\\xb4\\xa8\\xe6\\x8a\\xbc\\xe4\\xbb\\xa3\\xe5\\xb8\\x81/StakingReward.sol\":2428:2429  0 */\n      0x00\n        /* \"contracts/\\xe8\\xb4\\xa8\\xe6\\x8a\\xbc\\xe4\\xbb\\xa3\\xe5\\xb8\\x81/StakingReward.sol\":2408:2430  _account != address(0) */\n      0xffffffffffffffffffffffffffffffffffffffff\n      and\n        /* \"contracts/\\xe8\\xb4\\xa8\\xe6\\x8a\\xbc\\xe4\\xbb\\xa3\\xe5\\xb8\\x81/StakingReward.sol\":2408:2416  _account */\n      dup2\n        /* \"contracts/\\xe8\\xb4\\xa8\\xe6\\x8a\\xbc\\xe4\\xbb\\xa3\\xe5\\xb8\\x81/StakingReward.sol\":2408:2430  _account != address(0) */\n      0xffffffffffffffffffffffffffffffffffffffff\n      and\n      eq\n        /* \"contracts/\\xe8\\xb4\\xa8\\xe6\\x8a\\xbc\\xe4\\xbb\\xa3\\xe5\\xb8\\x81/StakingReward.sol\":2404:2562  if (_account != address(0)) {... */\n      tag_107\n      jumpi\n        /* \"contracts/\\xe8\\xb4\\xa8\\xe6\\x8a\\xbc\\xe4\\xbb\\xa3\\xe5\\xb8\\x81/StakingReward.sol\":2466:2482  earned(_account) */\n      tag_108\n        /* \"contracts/\\xe8\\xb4\\xa8\\xe6\\x8a\\xbc\\xe4\\xbb\\xa3\\xe5\\xb8\\x81/StakingReward.sol\":2473:2481  _account */\n      dup2\n        /* \"contracts/\\xe8\\xb4\\xa8\\xe6\\x8a\\xbc\\xe4\\xbb\\xa3\\xe5\\xb8\\x81/StakingReward.sol\":2466:2472  earned */\n      tag_29\n        /* \"contracts/\\xe8\\xb4\\xa8\\xe6\\x8a\\xbc\\xe4\\xbb\\xa3\\xe5\\xb8\\x81/StakingReward.sol\":2466:2482  earned(_account) */\n      jump\t// in\n    tag_108:\n        /* \"contracts/\\xe8\\xb4\\xa8\\xe6\\x8a\\xbc\\xe4\\xbb\\xa3\\xe5\\xb8\\x81/StakingReward.sol\":2446:2453  rewards */\n      0x07\n        /* \"contracts/\\xe8\\xb4\\xa8\\xe6\\x8a\\xbc\\xe4\\xbb\\xa3\\xe5\\xb8\\x81/StakingReward.sol\":2446:2463  rewards[_account] */\n      0x00\n        /* \"contracts/\\xe8\\xb4\\xa8\\xe6\\x8a\\xbc\\xe4\\xbb\\xa3\\xe5\\xb8\\x81/StakingReward.sol\":2454:2462  _account */\n      dup4\n        /* \"contracts/\\xe8\\xb4\\xa8\\xe6\\x8a\\xbc\\xe4\\xbb\\xa3\\xe5\\xb8\\x81/StakingReward.sol\":2446:2463  rewards[_account] */\n      0xffffffffffffffffffffffffffffffffffffffff\n      and\n      0xffffffffffffffffffffffffffffffffffffffff\n      and\n      dup2\n      mstore\n      0x20\n      add\n      swap1\n      dup2\n      mstore\n      0x20\n      add\n      0x00\n      keccak256\n        /* \"contracts/\\xe8\\xb4\\xa8\\xe6\\x8a\\xbc\\xe4\\xbb\\xa3\\xe5\\xb8\\x81/StakingReward.sol\":2446:2482  rewards[_account] = earned(_account) */\n      dup2\n      swap1\n      sstore\n      pop\n        /* \"contracts/\\xe8\\xb4\\xa8\\xe6\\x8a\\xbc\\xe4\\xbb\\xa3\\xe5\\xb8\\x81/StakingReward.sol\":2531:2551  rewardPerTokenStored */\n      sload(0x05)\n        /* \"contracts/\\xe8\\xb4\\xa8\\xe6\\x8a\\xbc\\xe4\\xbb\\xa3\\xe5\\xb8\\x81/StakingReward.sol\":2496:2518  userRewardPerTokenPaid */\n      0x06\n        /* \"contracts/\\xe8\\xb4\\xa8\\xe6\\x8a\\xbc\\xe4\\xbb\\xa3\\xe5\\xb8\\x81/StakingReward.sol\":2496:2528  userRewardPerTokenPaid[_account] */\n      0x00\n        /* \"contracts/\\xe8\\xb4\\xa8\\xe6\\x8a\\xbc\\xe4\\xbb\\xa3\\xe5\\xb8\\x81/StakingReward.sol\":2519:2527  _account */\n      dup4\n        /* \"contracts/\\xe8\\xb4\\xa8\\xe6\\x8a\\xbc\\xe4\\xbb\\xa3\\xe5\\xb8\\x81/StakingReward.sol\":2496:2528  userRewardPerTokenPaid[_account] */\n      0xffffffffffffffffffffffffffffffffffffffff\n      and\n      0xffffffffffffffffffffffffffffffffffffffff\n      and\n      dup2\n      mstore\n      0x20\n      add\n      swap1\n      dup2\n      mstore\n      0x20\n      add\n      0x00\n      keccak256\n        /* \"contracts/\\xe8\\xb4\\xa8\\xe6\\x8a\\xbc\\xe4\\xbb\\xa3\\xe5\\xb8\\x81/StakingReward.sol\":2496:2551  userRewardPerTokenPaid[_account] = rewardPerTokenStored */\n      dup2\n      swap1\n      sstore\n      pop\n        /* \"contracts/\\xe8\\xb4\\xa8\\xe6\\x8a\\xbc\\xe4\\xbb\\xa3\\xe5\\xb8\\x81/StakingReward.sol\":2404:2562  if (_account != address(0)) {... */\n    tag_107:\n        /* \"contracts/\\xe8\\xb4\\xa8\\xe6\\x8a\\xbc\\xe4\\xbb\\xa3\\xe5\\xb8\\x81/StakingReward.sol\":6110:6111  0 */\n      0x00\n        /* \"contracts/\\xe8\\xb4\\xa8\\xe6\\x8a\\xbc\\xe4\\xbb\\xa3\\xe5\\xb8\\x81/StakingReward.sol\":6100:6107  _amount */\n      dup3\n        /* \"contracts/\\xe8\\xb4\\xa8\\xe6\\x8a\\xbc\\xe4\\xbb\\xa3\\xe5\\xb8\\x81/StakingReward.sol\":6100:6111  _amount > 0 */\n      gt\n        /* \"contracts/\\xe8\\xb4\\xa8\\xe6\\x8a\\xbc\\xe4\\xbb\\xa3\\xe5\\xb8\\x81/StakingReward.sol\":6092:6126  require(_amount > 0, \"amount = 0\") */\n      tag_110\n      jumpi\n      mload(0x40)\n      0x08c379a000000000000000000000000000000000000000000000000000000000\n      dup2\n      mstore\n      0x04\n      add\n      tag_111\n      swap1\n      tag_112\n      jump\t// in\n    tag_111:\n      mload(0x40)\n      dup1\n      swap2\n      sub\n      swap1\n      revert\n    tag_110:\n        /* \"contracts/\\xe8\\xb4\\xa8\\xe6\\x8a\\xbc\\xe4\\xbb\\xa3\\xe5\\xb8\\x81/StakingReward.sol\":6238:6245  _amount */\n      dup2\n        /* \"contracts/\\xe8\\xb4\\xa8\\xe6\\x8a\\xbc\\xe4\\xbb\\xa3\\xe5\\xb8\\x81/StakingReward.sol\":6213:6222  balanceOf */\n      0x08\n        /* \"contracts/\\xe8\\xb4\\xa8\\xe6\\x8a\\xbc\\xe4\\xbb\\xa3\\xe5\\xb8\\x81/StakingReward.sol\":6213:6234  balanceOf[msg.sender] */\n      0x00\n        /* \"contracts/\\xe8\\xb4\\xa8\\xe6\\x8a\\xbc\\xe4\\xbb\\xa3\\xe5\\xb8\\x81/StakingReward.sol\":6223:6233  msg.sender */\n      caller\n        /* \"contracts/\\xe8\\xb4\\xa8\\xe6\\x8a\\xbc\\xe4\\xbb\\xa3\\xe5\\xb8\\x81/StakingReward.sol\":6213:6234  balanceOf[msg.sender] */\n      0xffffffffffffffffffffffffffffffffffffffff\n      and\n      0xffffffffffffffffffffffffffffffffffffffff\n      and\n      dup2\n      mstore\n      0x20\n      add\n      swap1\n      dup2\n      mstore\n      0x20\n      add\n      0x00\n      keccak256\n      0x00\n        /* \"contracts/\\xe8\\xb4\\xa8\\xe6\\x8a\\xbc\\xe4\\xbb\\xa3\\xe5\\xb8\\x81/StakingReward.sol\":6213:6245  balanceOf[msg.sender] -= _amount */\n      dup3\n      dup3\n      sload\n      tag_113\n      swap2\n      swap1\n      tag_97\n      jump\t// in\n    tag_113:\n      swap3\n      pop\n      pop\n      dup2\n      swap1\n      sstore\n      pop\n        /* \"contracts/\\xe8\\xb4\\xa8\\xe6\\x8a\\xbc\\xe4\\xbb\\xa3\\xe5\\xb8\\x81/StakingReward.sol\":6303:6310  _amount */\n      dup2\n        /* \"contracts/\\xe8\\xb4\\xa8\\xe6\\x8a\\xbc\\xe4\\xbb\\xa3\\xe5\\xb8\\x81/StakingReward.sol\":6288:6299  totalSupply */\n      0x09\n      0x00\n        /* \"contracts/\\xe8\\xb4\\xa8\\xe6\\x8a\\xbc\\xe4\\xbb\\xa3\\xe5\\xb8\\x81/StakingReward.sol\":6288:6310  totalSupply -= _amount */\n      dup3\n      dup3\n      sload\n      tag_114\n      swap2\n      swap1\n      tag_97\n      jump\t// in\n    tag_114:\n      swap3\n      pop\n      pop\n      dup2\n      swap1\n      sstore\n      pop\n        /* \"contracts/\\xe8\\xb4\\xa8\\xe6\\x8a\\xbc\\xe4\\xbb\\xa3\\xe5\\xb8\\x81/StakingReward.sol\":6321:6333  stakingToken */\n      immutable(\"0x845e9c18ca148a712f01bf14c91c3e2fe352eabe86c44817e3f33b63f585a343\")\n        /* \"contracts/\\xe8\\xb4\\xa8\\xe6\\x8a\\xbc\\xe4\\xbb\\xa3\\xe5\\xb8\\x81/StakingReward.sol\":6321:6342  stakingToken.transfer */\n      0xffffffffffffffffffffffffffffffffffffffff\n      and\n      0xa9059cbb\n        /* \"contracts/\\xe8\\xb4\\xa8\\xe6\\x8a\\xbc\\xe4\\xbb\\xa3\\xe5\\xb8\\x81/StakingReward.sol\":6343:6353  msg.sender */\n      caller\n        /* \"contracts/\\xe8\\xb4\\xa8\\xe6\\x8a\\xbc\\xe4\\xbb\\xa3\\xe5\\xb8\\x81/StakingReward.sol\":6355:6362  _amount */\n      dup5\n        /* \"contracts/\\xe8\\xb4\\xa8\\xe6\\x8a\\xbc\\xe4\\xbb\\xa3\\xe5\\xb8\\x81/StakingReward.sol\":6321:6363  stakingToken.transfer(msg.sender, _amount) */\n      mload(0x40)\n      dup4\n      0xffffffff\n      and\n      0xe0\n      shl\n      dup2\n      mstore\n      0x04\n      add\n      tag_115\n      swap3\n      swap2\n      swap1\n      tag_116\n      jump\t// in\n    tag_115:\n      0x20\n      mload(0x40)\n      dup1\n      dup4\n      sub\n      dup2\n      0x00\n      dup8\n      gas\n      call\n      iszero\n      dup1\n      iszero\n      tag_118\n      jumpi\n      returndatasize\n      0x00\n      dup1\n      returndatacopy\n      revert(0x00, returndatasize)\n    tag_118:\n      pop\n      pop\n      pop\n      pop\n      mload(0x40)\n      returndatasize\n      not(0x1f)\n      0x1f\n      dup3\n      add\n      and\n      dup3\n      add\n      dup1\n      0x40\n      mstore\n      pop\n      dup2\n      add\n      swap1\n      tag_119\n      swap2\n      swap1\n      tag_120\n      jump\t// in\n    tag_119:\n      pop\n        /* \"contracts/\\xe8\\xb4\\xa8\\xe6\\x8a\\xbc\\xe4\\xbb\\xa3\\xe5\\xb8\\x81/StakingReward.sol\":6013:6370  function withdraw(uint256 _amount) external updateReward(msg.sender) {... */\n      pop\n      pop\n      jump\t// out\n        /* \"contracts/\\xe8\\xb4\\xa8\\xe6\\x8a\\xbc\\xe4\\xbb\\xa3\\xe5\\xb8\\x81/StakingReward.sol\":4040:5435  function notifyRewardAmount(uint256 _amount)... */\n    tag_48:\n        /* \"contracts/\\xe8\\xb4\\xa8\\xe6\\x8a\\xbc\\xe4\\xbb\\xa3\\xe5\\xb8\\x81/StakingReward.sol\":1830:1835  owner */\n      0x00\n      dup1\n      sload\n      swap1\n      0x0100\n      exp\n      swap1\n      div\n      0xffffffffffffffffffffffffffffffffffffffff\n      and\n        /* \"contracts/\\xe8\\xb4\\xa8\\xe6\\x8a\\xbc\\xe4\\xbb\\xa3\\xe5\\xb8\\x81/StakingReward.sol\":1816:1835  msg.sender == owner */\n      0xffffffffffffffffffffffffffffffffffffffff\n      and\n        /* \"contracts/\\xe8\\xb4\\xa8\\xe6\\x8a\\xbc\\xe4\\xbb\\xa3\\xe5\\xb8\\x81/StakingReward.sol\":1816:1826  msg.sender */\n      caller\n        /* \"contracts/\\xe8\\xb4\\xa8\\xe6\\x8a\\xbc\\xe4\\xbb\\xa3\\xe5\\xb8\\x81/StakingReward.sol\":1816:1835  msg.sender == owner */\n      0xffffffffffffffffffffffffffffffffffffffff\n      and\n      eq\n        /* \"contracts/\\xe8\\xb4\\xa8\\xe6\\x8a\\xbc\\xe4\\xbb\\xa3\\xe5\\xb8\\x81/StakingReward.sol\":1808:1849  require(msg.sender == owner, \"Not Owner\") */\n      tag_122\n      jumpi\n      mload(0x40)\n      0x08c379a000000000000000000000000000000000000000000000000000000000\n      dup2\n      mstore\n      0x04\n      add\n      tag_123\n      swap1\n      tag_124\n      jump\t// in\n    tag_123:\n      mload(0x40)\n      dup1\n      swap2\n      sub\n      swap1\n      revert\n    tag_122:\n        /* \"contracts/\\xe8\\xb4\\xa8\\xe6\\x8a\\xbc\\xe4\\xbb\\xa3\\xe5\\xb8\\x81/StakingReward.sol\":4149:4150  0 */\n      0x00\n        /* \"contracts/\\xe8\\xb4\\xa8\\xe6\\x8a\\xbc\\xe4\\xbb\\xa3\\xe5\\xb8\\x81/StakingReward.sol\":2330:2346  rewardPerToken() */\n      tag_126\n        /* \"contracts/\\xe8\\xb4\\xa8\\xe6\\x8a\\xbc\\xe4\\xbb\\xa3\\xe5\\xb8\\x81/StakingReward.sol\":2330:2344  rewardPerToken */\n      tag_86\n        /* \"contracts/\\xe8\\xb4\\xa8\\xe6\\x8a\\xbc\\xe4\\xbb\\xa3\\xe5\\xb8\\x81/StakingReward.sol\":2330:2346  rewardPerToken() */\n      jump\t// in\n    tag_126:\n        /* \"contracts/\\xe8\\xb4\\xa8\\xe6\\x8a\\xbc\\xe4\\xbb\\xa3\\xe5\\xb8\\x81/StakingReward.sol\":2307:2327  rewardPerTokenStored */\n      0x05\n        /* \"contracts/\\xe8\\xb4\\xa8\\xe6\\x8a\\xbc\\xe4\\xbb\\xa3\\xe5\\xb8\\x81/StakingReward.sol\":2307:2346  rewardPerTokenStored = rewardPerToken() */\n      dup2\n      swap1\n      sstore\n      pop\n        /* \"contracts/\\xe8\\xb4\\xa8\\xe6\\x8a\\xbc\\xe4\\xbb\\xa3\\xe5\\xb8\\x81/StakingReward.sol\":2368:2394  lastTimeRewardApplicable() */\n      tag_127\n        /* \"contracts/\\xe8\\xb4\\xa8\\xe6\\x8a\\xbc\\xe4\\xbb\\xa3\\xe5\\xb8\\x81/StakingReward.sol\":2368:2392  lastTimeRewardApplicable */\n      tag_69\n        /* \"contracts/\\xe8\\xb4\\xa8\\xe6\\x8a\\xbc\\xe4\\xbb\\xa3\\xe5\\xb8\\x81/StakingReward.sol\":2368:2394  lastTimeRewardApplicable() */\n      jump\t// in\n    tag_127:\n        /* \"contracts/\\xe8\\xb4\\xa8\\xe6\\x8a\\xbc\\xe4\\xbb\\xa3\\xe5\\xb8\\x81/StakingReward.sol\":2356:2365  updatedAt */\n      0x03\n        /* \"contracts/\\xe8\\xb4\\xa8\\xe6\\x8a\\xbc\\xe4\\xbb\\xa3\\xe5\\xb8\\x81/StakingReward.sol\":2356:2394  updatedAt = lastTimeRewardApplicable() */\n      dup2\n      swap1\n      sstore\n      pop\n        /* \"contracts/\\xe8\\xb4\\xa8\\xe6\\x8a\\xbc\\xe4\\xbb\\xa3\\xe5\\xb8\\x81/StakingReward.sol\":2428:2429  0 */\n      0x00\n        /* \"contracts/\\xe8\\xb4\\xa8\\xe6\\x8a\\xbc\\xe4\\xbb\\xa3\\xe5\\xb8\\x81/StakingReward.sol\":2408:2430  _account != address(0) */\n      0xffffffffffffffffffffffffffffffffffffffff\n      and\n        /* \"contracts/\\xe8\\xb4\\xa8\\xe6\\x8a\\xbc\\xe4\\xbb\\xa3\\xe5\\xb8\\x81/StakingReward.sol\":2408:2416  _account */\n      dup2\n        /* \"contracts/\\xe8\\xb4\\xa8\\xe6\\x8a\\xbc\\xe4\\xbb\\xa3\\xe5\\xb8\\x81/StakingReward.sol\":2408:2430  _account != address(0) */\n      0xffffffffffffffffffffffffffffffffffffffff\n      and\n      eq\n        /* \"contracts/\\xe8\\xb4\\xa8\\xe6\\x8a\\xbc\\xe4\\xbb\\xa3\\xe5\\xb8\\x81/StakingReward.sol\":2404:2562  if (_account != address(0)) {... */\n      tag_128\n      jumpi\n        /* \"contracts/\\xe8\\xb4\\xa8\\xe6\\x8a\\xbc\\xe4\\xbb\\xa3\\xe5\\xb8\\x81/StakingReward.sol\":2466:2482  earned(_account) */\n      tag_129\n        /* \"contracts/\\xe8\\xb4\\xa8\\xe6\\x8a\\xbc\\xe4\\xbb\\xa3\\xe5\\xb8\\x81/StakingReward.sol\":2473:2481  _account */\n      dup2\n        /* \"contracts/\\xe8\\xb4\\xa8\\xe6\\x8a\\xbc\\xe4\\xbb\\xa3\\xe5\\xb8\\x81/StakingReward.sol\":2466:2472  earned */\n      tag_29\n        /* \"contracts/\\xe8\\xb4\\xa8\\xe6\\x8a\\xbc\\xe4\\xbb\\xa3\\xe5\\xb8\\x81/StakingReward.sol\":2466:2482  earned(_account) */\n      jump\t// in\n    tag_129:\n        /* \"contracts/\\xe8\\xb4\\xa8\\xe6\\x8a\\xbc\\xe4\\xbb\\xa3\\xe5\\xb8\\x81/StakingReward.sol\":2446:2453  rewards */\n      0x07\n        /* \"contracts/\\xe8\\xb4\\xa8\\xe6\\x8a\\xbc\\xe4\\xbb\\xa3\\xe5\\xb8\\x81/StakingReward.sol\":2446:2463  rewards[_account] */\n      0x00\n        /* \"contracts/\\xe8\\xb4\\xa8\\xe6\\x8a\\xbc\\xe4\\xbb\\xa3\\xe5\\xb8\\x81/StakingReward.sol\":2454:2462  _account */\n      dup4\n        /* \"contracts/\\xe8\\xb4\\xa8\\xe6\\x8a\\xbc\\xe4\\xbb\\xa3\\xe5\\xb8\\x81/StakingReward.sol\":2446:2463  rewards[_account] */\n      0xffffffffffffffffffffffffffffffffffffffff\n      and\n      0xffffffffffffffffffffffffffffffffffffffff\n      and\n      dup2\n      mstore\n      0x20\n      add\n      swap1\n      dup2\n      mstore\n      0x20\n      add\n      0x00\n      keccak256\n        /* \"contracts/\\xe8\\xb4\\xa8\\xe6\\x8a\\xbc\\xe4\\xbb\\xa3\\xe5\\xb8\\x81/StakingReward.sol\":2446:2482  rewards[_account] = earned(_account) */\n      dup2\n      swap1\n      sstore\n      pop\n        /* \"contracts/\\xe8\\xb4\\xa8\\xe6\\x8a\\xbc\\xe4\\xbb\\xa3\\xe5\\xb8\\x81/StakingReward.sol\":2531:2551  rewardPerTokenStored */\n      sload(0x05)\n        /* \"contracts/\\xe8\\xb4\\xa8\\xe6\\x8a\\xbc\\xe4\\xbb\\xa3\\xe5\\xb8\\x81/StakingReward.sol\":2496:2518  userRewardPerTokenPaid */\n      0x06\n        /* \"contracts/\\xe8\\xb4\\xa8\\xe6\\x8a\\xbc\\xe4\\xbb\\xa3\\xe5\\xb8\\x81/StakingReward.sol\":2496:2528  userRewardPerTokenPaid[_account] */\n      0x00\n        /* \"contracts/\\xe8\\xb4\\xa8\\xe6\\x8a\\xbc\\xe4\\xbb\\xa3\\xe5\\xb8\\x81/StakingReward.sol\":2519:2527  _account */\n      dup4\n        /* \"contracts/\\xe8\\xb4\\xa8\\xe6\\x8a\\xbc\\xe4\\xbb\\xa3\\xe5\\xb8\\x81/StakingReward.sol\":2496:2528  userRewardPerTokenPaid[_account] */\n      0xffffffffffffffffffffffffffffffffffffffff\n      and\n      0xffffffffffffffffffffffffffffffffffffffff\n      and\n      dup2\n      mstore\n      0x20\n      add\n      swap1\n      dup2\n      mstore\n      0x20\n      add\n      0x00\n      keccak256\n        /* \"contracts/\\xe8\\xb4\\xa8\\xe6\\x8a\\xbc\\xe4\\xbb\\xa3\\xe5\\xb8\\x81/StakingReward.sol\":2496:2551  userRewardPerTokenPaid[_account] = rewardPerTokenStored */\n      dup2\n      swap1\n      sstore\n      pop\n        /* \"contracts/\\xe8\\xb4\\xa8\\xe6\\x8a\\xbc\\xe4\\xbb\\xa3\\xe5\\xb8\\x81/StakingReward.sol\":2404:2562  if (_account != address(0)) {... */\n    tag_128:\n        /* \"contracts/\\xe8\\xb4\\xa8\\xe6\\x8a\\xbc\\xe4\\xbb\\xa3\\xe5\\xb8\\x81/StakingReward.sol\":4902:4910  finishAt */\n      sload(0x02)\n        /* \"contracts/\\xe8\\xb4\\xa8\\xe6\\x8a\\xbc\\xe4\\xbb\\xa3\\xe5\\xb8\\x81/StakingReward.sol\":4884:4899  block.timestamp */\n      timestamp\n        /* \"contracts/\\xe8\\xb4\\xa8\\xe6\\x8a\\xbc\\xe4\\xbb\\xa3\\xe5\\xb8\\x81/StakingReward.sol\":4884:4910  block.timestamp > finishAt */\n      gt\n        /* \"contracts/\\xe8\\xb4\\xa8\\xe6\\x8a\\xbc\\xe4\\xbb\\xa3\\xe5\\xb8\\x81/StakingReward.sol\":4880:5149  if (block.timestamp > finishAt) {... */\n      iszero\n      tag_131\n      jumpi\n        /* \"contracts/\\xe8\\xb4\\xa8\\xe6\\x8a\\xbc\\xe4\\xbb\\xa3\\xe5\\xb8\\x81/StakingReward.sol\":4949:4957  duration */\n      sload(0x01)\n        /* \"contracts/\\xe8\\xb4\\xa8\\xe6\\x8a\\xbc\\xe4\\xbb\\xa3\\xe5\\xb8\\x81/StakingReward.sol\":4939:4946  _amount */\n      dup3\n        /* \"contracts/\\xe8\\xb4\\xa8\\xe6\\x8a\\xbc\\xe4\\xbb\\xa3\\xe5\\xb8\\x81/StakingReward.sol\":4939:4957  _amount / duration */\n      tag_132\n      swap2\n      swap1\n      tag_101\n      jump\t// in\n    tag_132:\n        /* \"contracts/\\xe8\\xb4\\xa8\\xe6\\x8a\\xbc\\xe4\\xbb\\xa3\\xe5\\xb8\\x81/StakingReward.sol\":4926:4936  rewardRate */\n      0x04\n        /* \"contracts/\\xe8\\xb4\\xa8\\xe6\\x8a\\xbc\\xe4\\xbb\\xa3\\xe5\\xb8\\x81/StakingReward.sol\":4926:4957  rewardRate = _amount / duration */\n      dup2\n      swap1\n      sstore\n      pop\n        /* \"contracts/\\xe8\\xb4\\xa8\\xe6\\x8a\\xbc\\xe4\\xbb\\xa3\\xe5\\xb8\\x81/StakingReward.sol\":4880:5149  if (block.timestamp > finishAt) {... */\n      jump(tag_133)\n    tag_131:\n        /* \"contracts/\\xe8\\xb4\\xa8\\xe6\\x8a\\xbc\\xe4\\xbb\\xa3\\xe5\\xb8\\x81/StakingReward.sol\":4988:5012  uint256 remainingRewards */\n      0x00\n        /* \"contracts/\\xe8\\xb4\\xa8\\xe6\\x8a\\xbc\\xe4\\xbb\\xa3\\xe5\\xb8\\x81/StakingReward.sol\":5056:5071  block.timestamp */\n      timestamp\n        /* \"contracts/\\xe8\\xb4\\xa8\\xe6\\x8a\\xbc\\xe4\\xbb\\xa3\\xe5\\xb8\\x81/StakingReward.sol\":5045:5053  finishAt */\n      sload(0x02)\n        /* \"contracts/\\xe8\\xb4\\xa8\\xe6\\x8a\\xbc\\xe4\\xbb\\xa3\\xe5\\xb8\\x81/StakingReward.sol\":5045:5071  finishAt - block.timestamp */\n      tag_134\n      swap2\n      swap1\n      tag_97\n      jump\t// in\n    tag_134:\n        /* \"contracts/\\xe8\\xb4\\xa8\\xe6\\x8a\\xbc\\xe4\\xbb\\xa3\\xe5\\xb8\\x81/StakingReward.sol\":5015:5025  rewardRate */\n      sload(0x04)\n        /* \"contracts/\\xe8\\xb4\\xa8\\xe6\\x8a\\xbc\\xe4\\xbb\\xa3\\xe5\\xb8\\x81/StakingReward.sol\":5015:5072  rewardRate *... */\n      tag_135\n      swap2\n      swap1\n      tag_99\n      jump\t// in\n    tag_135:\n        /* \"contracts/\\xe8\\xb4\\xa8\\xe6\\x8a\\xbc\\xe4\\xbb\\xa3\\xe5\\xb8\\x81/StakingReward.sol\":4988:5072  uint256 remainingRewards = rewardRate *... */\n      swap1\n      pop\n        /* \"contracts/\\xe8\\xb4\\xa8\\xe6\\x8a\\xbc\\xe4\\xbb\\xa3\\xe5\\xb8\\x81/StakingReward.sol\":5130:5138  duration */\n      sload(0x01)\n        /* \"contracts/\\xe8\\xb4\\xa8\\xe6\\x8a\\xbc\\xe4\\xbb\\xa3\\xe5\\xb8\\x81/StakingReward.sol\":5119:5126  _amount */\n      dup4\n        /* \"contracts/\\xe8\\xb4\\xa8\\xe6\\x8a\\xbc\\xe4\\xbb\\xa3\\xe5\\xb8\\x81/StakingReward.sol\":5100:5116  remainingRewards */\n      dup3\n        /* \"contracts/\\xe8\\xb4\\xa8\\xe6\\x8a\\xbc\\xe4\\xbb\\xa3\\xe5\\xb8\\x81/StakingReward.sol\":5100:5126  remainingRewards + _amount */\n      tag_136\n      swap2\n      swap1\n      tag_103\n      jump\t// in\n    tag_136:\n        /* \"contracts/\\xe8\\xb4\\xa8\\xe6\\x8a\\xbc\\xe4\\xbb\\xa3\\xe5\\xb8\\x81/StakingReward.sol\":5099:5138  (remainingRewards + _amount) / duration */\n      tag_137\n      swap2\n      swap1\n      tag_101\n      jump\t// in\n    tag_137:\n        /* \"contracts/\\xe8\\xb4\\xa8\\xe6\\x8a\\xbc\\xe4\\xbb\\xa3\\xe5\\xb8\\x81/StakingReward.sol\":5086:5096  rewardRate */\n      0x04\n        /* \"contracts/\\xe8\\xb4\\xa8\\xe6\\x8a\\xbc\\xe4\\xbb\\xa3\\xe5\\xb8\\x81/StakingReward.sol\":5086:5138  rewardRate = (remainingRewards + _amount) / duration */\n      dup2\n      swap1\n      sstore\n      pop\n        /* \"contracts/\\xe8\\xb4\\xa8\\xe6\\x8a\\xbc\\xe4\\xbb\\xa3\\xe5\\xb8\\x81/StakingReward.sol\":4974:5149  {... */\n      pop\n        /* \"contracts/\\xe8\\xb4\\xa8\\xe6\\x8a\\xbc\\xe4\\xbb\\xa3\\xe5\\xb8\\x81/StakingReward.sol\":4880:5149  if (block.timestamp > finishAt) {... */\n    tag_133:\n        /* \"contracts/\\xe8\\xb4\\xa8\\xe6\\x8a\\xbc\\xe4\\xbb\\xa3\\xe5\\xb8\\x81/StakingReward.sol\":5180:5181  0 */\n      0x00\n        /* \"contracts/\\xe8\\xb4\\xa8\\xe6\\x8a\\xbc\\xe4\\xbb\\xa3\\xe5\\xb8\\x81/StakingReward.sol\":5167:5177  rewardRate */\n      sload(0x04)\n        /* \"contracts/\\xe8\\xb4\\xa8\\xe6\\x8a\\xbc\\xe4\\xbb\\xa3\\xe5\\xb8\\x81/StakingReward.sol\":5167:5181  rewardRate > 0 */\n      gt\n        /* \"contracts/\\xe8\\xb4\\xa8\\xe6\\x8a\\xbc\\xe4\\xbb\\xa3\\xe5\\xb8\\x81/StakingReward.sol\":5159:5201  require(rewardRate > 0, \"reward rate = 0\") */\n      tag_138\n      jumpi\n      mload(0x40)\n      0x08c379a000000000000000000000000000000000000000000000000000000000\n      dup2\n      mstore\n      0x04\n      add\n      tag_139\n      swap1\n      tag_140\n      jump\t// in\n    tag_139:\n      mload(0x40)\n      dup1\n      swap2\n      sub\n      swap1\n      revert\n    tag_138:\n        /* \"contracts/\\xe8\\xb4\\xa8\\xe6\\x8a\\xbc\\xe4\\xbb\\xa3\\xe5\\xb8\\x81/StakingReward.sol\":5257:5269  rewardsToken */\n      immutable(\"0x04e57633024368235fc5219bfb9802814291d3a7b9a68d0aeb7bd3d297ac474e\")\n        /* \"contracts/\\xe8\\xb4\\xa8\\xe6\\x8a\\xbc\\xe4\\xbb\\xa3\\xe5\\xb8\\x81/StakingReward.sol\":5257:5279  rewardsToken.balanceOf */\n      0xffffffffffffffffffffffffffffffffffffffff\n      and\n      0x70a08231\n        /* \"contracts/\\xe8\\xb4\\xa8\\xe6\\x8a\\xbc\\xe4\\xbb\\xa3\\xe5\\xb8\\x81/StakingReward.sol\":5288:5292  this */\n      address\n        /* \"contracts/\\xe8\\xb4\\xa8\\xe6\\x8a\\xbc\\xe4\\xbb\\xa3\\xe5\\xb8\\x81/StakingReward.sol\":5257:5294  rewardsToken.balanceOf(address(this)) */\n      mload(0x40)\n      dup3\n      0xffffffff\n      and\n      0xe0\n      shl\n      dup2\n      mstore\n      0x04\n      add\n      tag_141\n      swap2\n      swap1\n      tag_78\n      jump\t// in\n    tag_141:\n      0x20\n      mload(0x40)\n      dup1\n      dup4\n      sub\n      dup2\n      dup7\n      gas\n      staticcall\n      iszero\n      dup1\n      iszero\n      tag_143\n      jumpi\n      returndatasize\n      0x00\n      dup1\n      returndatacopy\n      revert(0x00, returndatasize)\n    tag_143:\n      pop\n      pop\n      pop\n      pop\n      mload(0x40)\n      returndatasize\n      not(0x1f)\n      0x1f\n      dup3\n      add\n      and\n      dup3\n      add\n      dup1\n      0x40\n      mstore\n      pop\n      dup2\n      add\n      swap1\n      tag_144\n      swap2\n      swap1\n      tag_145\n      jump\t// in\n    tag_144:\n        /* \"contracts/\\xe8\\xb4\\xa8\\xe6\\x8a\\xbc\\xe4\\xbb\\xa3\\xe5\\xb8\\x81/StakingReward.sol\":5245:5253  duration */\n      sload(0x01)\n        /* \"contracts/\\xe8\\xb4\\xa8\\xe6\\x8a\\xbc\\xe4\\xbb\\xa3\\xe5\\xb8\\x81/StakingReward.sol\":5232:5242  rewardRate */\n      sload(0x04)\n        /* \"contracts/\\xe8\\xb4\\xa8\\xe6\\x8a\\xbc\\xe4\\xbb\\xa3\\xe5\\xb8\\x81/StakingReward.sol\":5232:5253  rewardRate * duration */\n      tag_146\n      swap2\n      swap1\n      tag_99\n      jump\t// in\n    tag_146:\n        /* \"contracts/\\xe8\\xb4\\xa8\\xe6\\x8a\\xbc\\xe4\\xbb\\xa3\\xe5\\xb8\\x81/StakingReward.sol\":5232:5294  rewardRate * duration <= rewardsToken.balanceOf(address(this)) */\n      gt\n      iszero\n        /* \"contracts/\\xe8\\xb4\\xa8\\xe6\\x8a\\xbc\\xe4\\xbb\\xa3\\xe5\\xb8\\x81/StakingReward.sol\":5211:5343  require(... */\n      tag_147\n      jumpi\n      mload(0x40)\n      0x08c379a000000000000000000000000000000000000000000000000000000000\n      dup2\n      mstore\n      0x04\n      add\n      tag_148\n      swap1\n      tag_149\n      jump\t// in\n    tag_148:\n      mload(0x40)\n      dup1\n      swap2\n      sub\n      swap1\n      revert\n    tag_147:\n        /* \"contracts/\\xe8\\xb4\\xa8\\xe6\\x8a\\xbc\\xe4\\xbb\\xa3\\xe5\\xb8\\x81/StakingReward.sol\":5383:5391  duration */\n      sload(0x01)\n        /* \"contracts/\\xe8\\xb4\\xa8\\xe6\\x8a\\xbc\\xe4\\xbb\\xa3\\xe5\\xb8\\x81/StakingReward.sol\":5365:5380  block.timestamp */\n      timestamp\n        /* \"contracts/\\xe8\\xb4\\xa8\\xe6\\x8a\\xbc\\xe4\\xbb\\xa3\\xe5\\xb8\\x81/StakingReward.sol\":5365:5391  block.timestamp + duration */\n      tag_150\n      swap2\n      swap1\n      tag_103\n      jump\t// in\n    tag_150:\n        /* \"contracts/\\xe8\\xb4\\xa8\\xe6\\x8a\\xbc\\xe4\\xbb\\xa3\\xe5\\xb8\\x81/StakingReward.sol\":5354:5362  finishAt */\n      0x02\n        /* \"contracts/\\xe8\\xb4\\xa8\\xe6\\x8a\\xbc\\xe4\\xbb\\xa3\\xe5\\xb8\\x81/StakingReward.sol\":5354:5391  finishAt = block.timestamp + duration */\n      dup2\n      swap1\n      sstore\n      pop\n        /* \"contracts/\\xe8\\xb4\\xa8\\xe6\\x8a\\xbc\\xe4\\xbb\\xa3\\xe5\\xb8\\x81/StakingReward.sol\":5413:5428  block.timestamp */\n      timestamp\n        /* \"contracts/\\xe8\\xb4\\xa8\\xe6\\x8a\\xbc\\xe4\\xbb\\xa3\\xe5\\xb8\\x81/StakingReward.sol\":5401:5410  updatedAt */\n      0x03\n        /* \"contracts/\\xe8\\xb4\\xa8\\xe6\\x8a\\xbc\\xe4\\xbb\\xa3\\xe5\\xb8\\x81/StakingReward.sol\":5401:5428  updatedAt = block.timestamp */\n      dup2\n      swap1\n      sstore\n      pop\n        /* \"contracts/\\xe8\\xb4\\xa8\\xe6\\x8a\\xbc\\xe4\\xbb\\xa3\\xe5\\xb8\\x81/StakingReward.sol\":1913:1914  _ */\n      pop\n        /* \"contracts/\\xe8\\xb4\\xa8\\xe6\\x8a\\xbc\\xe4\\xbb\\xa3\\xe5\\xb8\\x81/StakingReward.sol\":4040:5435  function notifyRewardAmount(uint256 _amount)... */\n      pop\n      jump\t// out\n        /* \"contracts/\\xe8\\xb4\\xa8\\xe6\\x8a\\xbc\\xe4\\xbb\\xa3\\xe5\\xb8\\x81/StakingReward.sol\":6405:6724  function getReward() external updateReward(msg.sender) {... */\n    tag_50:\n        /* \"contracts/\\xe8\\xb4\\xa8\\xe6\\x8a\\xbc\\xe4\\xbb\\xa3\\xe5\\xb8\\x81/StakingReward.sol\":6448:6458  msg.sender */\n      caller\n        /* \"contracts/\\xe8\\xb4\\xa8\\xe6\\x8a\\xbc\\xe4\\xbb\\xa3\\xe5\\xb8\\x81/StakingReward.sol\":2330:2346  rewardPerToken() */\n      tag_152\n        /* \"contracts/\\xe8\\xb4\\xa8\\xe6\\x8a\\xbc\\xe4\\xbb\\xa3\\xe5\\xb8\\x81/StakingReward.sol\":2330:2344  rewardPerToken */\n      tag_86\n        /* \"contracts/\\xe8\\xb4\\xa8\\xe6\\x8a\\xbc\\xe4\\xbb\\xa3\\xe5\\xb8\\x81/StakingReward.sol\":2330:2346  rewardPerToken() */\n      jump\t// in\n    tag_152:\n        /* \"contracts/\\xe8\\xb4\\xa8\\xe6\\x8a\\xbc\\xe4\\xbb\\xa3\\xe5\\xb8\\x81/StakingReward.sol\":2307:2327  rewardPerTokenStored */\n      0x05\n        /* \"contracts/\\xe8\\xb4\\xa8\\xe6\\x8a\\xbc\\xe4\\xbb\\xa3\\xe5\\xb8\\x81/StakingReward.sol\":2307:2346  rewardPerTokenStored = rewardPerToken() */\n      dup2\n      swap1\n      sstore\n      pop\n        /* \"contracts/\\xe8\\xb4\\xa8\\xe6\\x8a\\xbc\\xe4\\xbb\\xa3\\xe5\\xb8\\x81/StakingReward.sol\":2368:2394  lastTimeRewardApplicable() */\n      tag_153\n        /* \"contracts/\\xe8\\xb4\\xa8\\xe6\\x8a\\xbc\\xe4\\xbb\\xa3\\xe5\\xb8\\x81/StakingReward.sol\":2368:2392  lastTimeRewardApplicable */\n      tag_69\n        /* \"contracts/\\xe8\\xb4\\xa8\\xe6\\x8a\\xbc\\xe4\\xbb\\xa3\\xe5\\xb8\\x81/StakingReward.sol\":2368:2394  lastTimeRewardApplicable() */\n      jump\t// in\n    tag_153:\n        /* \"contracts/\\xe8\\xb4\\xa8\\xe6\\x8a\\xbc\\xe4\\xbb\\xa3\\xe5\\xb8\\x81/StakingReward.sol\":2356:2365  updatedAt */\n      0x03\n        /* \"contracts/\\xe8\\xb4\\xa8\\xe6\\x8a\\xbc\\xe4\\xbb\\xa3\\xe5\\xb8\\x81/StakingReward.sol\":2356:2394  updatedAt = lastTimeRewardApplicable() */\n      dup2\n      swap1\n      sstore\n      pop\n        /* \"contracts/\\xe8\\xb4\\xa8\\xe6\\x8a\\xbc\\xe4\\xbb\\xa3\\xe5\\xb8\\x81/StakingReward.sol\":2428:2429  0 */\n      0x00\n        /* \"contracts/\\xe8\\xb4\\xa8\\xe6\\x8a\\xbc\\xe4\\xbb\\xa3\\xe5\\xb8\\x81/StakingReward.sol\":2408:2430  _account != address(0) */\n      0xffffffffffffffffffffffffffffffffffffffff\n      and\n        /* \"contracts/\\xe8\\xb4\\xa8\\xe6\\x8a\\xbc\\xe4\\xbb\\xa3\\xe5\\xb8\\x81/StakingReward.sol\":2408:2416  _account */\n      dup2\n        /* \"contracts/\\xe8\\xb4\\xa8\\xe6\\x8a\\xbc\\xe4\\xbb\\xa3\\xe5\\xb8\\x81/StakingReward.sol\":2408:2430  _account != address(0) */\n      0xffffffffffffffffffffffffffffffffffffffff\n      and\n      eq\n        /* \"contracts/\\xe8\\xb4\\xa8\\xe6\\x8a\\xbc\\xe4\\xbb\\xa3\\xe5\\xb8\\x81/StakingReward.sol\":2404:2562  if (_account != address(0)) {... */\n      tag_154\n      jumpi\n        /* \"contracts/\\xe8\\xb4\\xa8\\xe6\\x8a\\xbc\\xe4\\xbb\\xa3\\xe5\\xb8\\x81/StakingReward.sol\":2466:2482  earned(_account) */\n      tag_155\n        /* \"contracts/\\xe8\\xb4\\xa8\\xe6\\x8a\\xbc\\xe4\\xbb\\xa3\\xe5\\xb8\\x81/StakingReward.sol\":2473:2481  _account */\n      dup2\n        /* \"contracts/\\xe8\\xb4\\xa8\\xe6\\x8a\\xbc\\xe4\\xbb\\xa3\\xe5\\xb8\\x81/StakingReward.sol\":2466:2472  earned */\n      tag_29\n        /* \"contracts/\\xe8\\xb4\\xa8\\xe6\\x8a\\xbc\\xe4\\xbb\\xa3\\xe5\\xb8\\x81/StakingReward.sol\":2466:2482  earned(_account) */\n      jump\t// in\n    tag_155:\n        /* \"contracts/\\xe8\\xb4\\xa8\\xe6\\x8a\\xbc\\xe4\\xbb\\xa3\\xe5\\xb8\\x81/StakingReward.sol\":2446:2453  rewards */\n      0x07\n        /* \"contracts/\\xe8\\xb4\\xa8\\xe6\\x8a\\xbc\\xe4\\xbb\\xa3\\xe5\\xb8\\x81/StakingReward.sol\":2446:2463  rewards[_account] */\n      0x00\n        /* \"contracts/\\xe8\\xb4\\xa8\\xe6\\x8a\\xbc\\xe4\\xbb\\xa3\\xe5\\xb8\\x81/StakingReward.sol\":2454:2462  _account */\n      dup4\n        /* \"contracts/\\xe8\\xb4\\xa8\\xe6\\x8a\\xbc\\xe4\\xbb\\xa3\\xe5\\xb8\\x81/StakingReward.sol\":2446:2463  rewards[_account] */\n      0xffffffffffffffffffffffffffffffffffffffff\n      and\n      0xffffffffffffffffffffffffffffffffffffffff\n      and\n      dup2\n      mstore\n      0x20\n      add\n      swap1\n      dup2\n      mstore\n      0x20\n      add\n      0x00\n      keccak256\n        /* \"contracts/\\xe8\\xb4\\xa8\\xe6\\x8a\\xbc\\xe4\\xbb\\xa3\\xe5\\xb8\\x81/StakingReward.sol\":2446:2482  rewards[_account] = earned(_account) */\n      dup2\n      swap1\n      sstore\n      pop\n        /* \"contracts/\\xe8\\xb4\\xa8\\xe6\\x8a\\xbc\\xe4\\xbb\\xa3\\xe5\\xb8\\x81/StakingReward.sol\":2531:2551  rewardPerTokenStored */\n      sload(0x05)\n        /* \"contracts/\\xe8\\xb4\\xa8\\xe6\\x8a\\xbc\\xe4\\xbb\\xa3\\xe5\\xb8\\x81/StakingReward.sol\":2496:2518  userRewardPerTokenPaid */\n      0x06\n        /* \"contracts/\\xe8\\xb4\\xa8\\xe6\\x8a\\xbc\\xe4\\xbb\\xa3\\xe5\\xb8\\x81/StakingReward.sol\":2496:2528  userRewardPerTokenPaid[_account] */\n      0x00\n        /* \"contracts/\\xe8\\xb4\\xa8\\xe6\\x8a\\xbc\\xe4\\xbb\\xa3\\xe5\\xb8\\x81/StakingReward.sol\":2519:2527  _account */\n      dup4\n        /* \"contracts/\\xe8\\xb4\\xa8\\xe6\\x8a\\xbc\\xe4\\xbb\\xa3\\xe5\\xb8\\x81/StakingReward.sol\":2496:2528  userRewardPerTokenPaid[_account] */\n      0xffffffffffffffffffffffffffffffffffffffff\n      and\n      0xffffffffffffffffffffffffffffffffffffffff\n      and\n      dup2\n      mstore\n      0x20\n      add\n      swap1\n      dup2\n      mstore\n      0x20\n      add\n      0x00\n      keccak256\n        /* \"contracts/\\xe8\\xb4\\xa8\\xe6\\x8a\\xbc\\xe4\\xbb\\xa3\\xe5\\xb8\\x81/StakingReward.sol\":2496:2551  userRewardPerTokenPaid[_account] = rewardPerTokenStored */\n      dup2\n      swap1\n      sstore\n      pop\n        /* \"contracts/\\xe8\\xb4\\xa8\\xe6\\x8a\\xbc\\xe4\\xbb\\xa3\\xe5\\xb8\\x81/StakingReward.sol\":2404:2562  if (_account != address(0)) {... */\n    tag_154:\n        /* \"contracts/\\xe8\\xb4\\xa8\\xe6\\x8a\\xbc\\xe4\\xbb\\xa3\\xe5\\xb8\\x81/StakingReward.sol\":6515:6529  uint256 reward */\n      0x00\n        /* \"contracts/\\xe8\\xb4\\xa8\\xe6\\x8a\\xbc\\xe4\\xbb\\xa3\\xe5\\xb8\\x81/StakingReward.sol\":6532:6539  rewards */\n      0x07\n        /* \"contracts/\\xe8\\xb4\\xa8\\xe6\\x8a\\xbc\\xe4\\xbb\\xa3\\xe5\\xb8\\x81/StakingReward.sol\":6532:6551  rewards[msg.sender] */\n      0x00\n        /* \"contracts/\\xe8\\xb4\\xa8\\xe6\\x8a\\xbc\\xe4\\xbb\\xa3\\xe5\\xb8\\x81/StakingReward.sol\":6540:6550  msg.sender */\n      caller\n        /* \"contracts/\\xe8\\xb4\\xa8\\xe6\\x8a\\xbc\\xe4\\xbb\\xa3\\xe5\\xb8\\x81/StakingReward.sol\":6532:6551  rewards[msg.sender] */\n      0xffffffffffffffffffffffffffffffffffffffff\n      and\n      0xffffffffffffffffffffffffffffffffffffffff\n      and\n      dup2\n      mstore\n      0x20\n      add\n      swap1\n      dup2\n      mstore\n      0x20\n      add\n      0x00\n      keccak256\n      sload\n        /* \"contracts/\\xe8\\xb4\\xa8\\xe6\\x8a\\xbc\\xe4\\xbb\\xa3\\xe5\\xb8\\x81/StakingReward.sol\":6515:6551  uint256 reward = rewards[msg.sender] */\n      swap1\n      pop\n        /* \"contracts/\\xe8\\xb4\\xa8\\xe6\\x8a\\xbc\\xe4\\xbb\\xa3\\xe5\\xb8\\x81/StakingReward.sol\":6611:6612  0 */\n      0x00\n        /* \"contracts/\\xe8\\xb4\\xa8\\xe6\\x8a\\xbc\\xe4\\xbb\\xa3\\xe5\\xb8\\x81/StakingReward.sol\":6602:6608  reward */\n      dup2\n        /* \"contracts/\\xe8\\xb4\\xa8\\xe6\\x8a\\xbc\\xe4\\xbb\\xa3\\xe5\\xb8\\x81/StakingReward.sol\":6602:6612  reward > 0 */\n      gt\n        /* \"contracts/\\xe8\\xb4\\xa8\\xe6\\x8a\\xbc\\xe4\\xbb\\xa3\\xe5\\xb8\\x81/StakingReward.sol\":6598:6718  if (reward > 0) {... */\n      iszero\n      tag_157\n      jumpi\n        /* \"contracts/\\xe8\\xb4\\xa8\\xe6\\x8a\\xbc\\xe4\\xbb\\xa3\\xe5\\xb8\\x81/StakingReward.sol\":6650:6651  0 */\n      0x00\n        /* \"contracts/\\xe8\\xb4\\xa8\\xe6\\x8a\\xbc\\xe4\\xbb\\xa3\\xe5\\xb8\\x81/StakingReward.sol\":6628:6635  rewards */\n      0x07\n        /* \"contracts/\\xe8\\xb4\\xa8\\xe6\\x8a\\xbc\\xe4\\xbb\\xa3\\xe5\\xb8\\x81/StakingReward.sol\":6628:6647  rewards[msg.sender] */\n      0x00\n        /* \"contracts/\\xe8\\xb4\\xa8\\xe6\\x8a\\xbc\\xe4\\xbb\\xa3\\xe5\\xb8\\x81/StakingReward.sol\":6636:6646  msg.sender */\n      caller\n        /* \"contracts/\\xe8\\xb4\\xa8\\xe6\\x8a\\xbc\\xe4\\xbb\\xa3\\xe5\\xb8\\x81/StakingReward.sol\":6628:6647  rewards[msg.sender] */\n      0xffffffffffffffffffffffffffffffffffffffff\n      and\n      0xffffffffffffffffffffffffffffffffffffffff\n      and\n      dup2\n      mstore\n      0x20\n      add\n      swap1\n      dup2\n      mstore\n      0x20\n      add\n      0x00\n      keccak256\n        /* \"contracts/\\xe8\\xb4\\xa8\\xe6\\x8a\\xbc\\xe4\\xbb\\xa3\\xe5\\xb8\\x81/StakingReward.sol\":6628:6651  rewards[msg.sender] = 0 */\n      dup2\n      swap1\n      sstore\n      pop\n        /* \"contracts/\\xe8\\xb4\\xa8\\xe6\\x8a\\xbc\\xe4\\xbb\\xa3\\xe5\\xb8\\x81/StakingReward.sol\":6666:6678  rewardsToken */\n      immutable(\"0x04e57633024368235fc5219bfb9802814291d3a7b9a68d0aeb7bd3d297ac474e\")\n        /* \"contracts/\\xe8\\xb4\\xa8\\xe6\\x8a\\xbc\\xe4\\xbb\\xa3\\xe5\\xb8\\x81/StakingReward.sol\":6666:6687  rewardsToken.transfer */\n      0xffffffffffffffffffffffffffffffffffffffff\n      and\n      0xa9059cbb\n        /* \"contracts/\\xe8\\xb4\\xa8\\xe6\\x8a\\xbc\\xe4\\xbb\\xa3\\xe5\\xb8\\x81/StakingReward.sol\":6688:6698  msg.sender */\n      caller\n        /* \"contracts/\\xe8\\xb4\\xa8\\xe6\\x8a\\xbc\\xe4\\xbb\\xa3\\xe5\\xb8\\x81/StakingReward.sol\":6700:6706  reward */\n      dup4\n        /* \"contracts/\\xe8\\xb4\\xa8\\xe6\\x8a\\xbc\\xe4\\xbb\\xa3\\xe5\\xb8\\x81/StakingReward.sol\":6666:6707  rewardsToken.transfer(msg.sender, reward) */\n      mload(0x40)\n      dup4\n      0xffffffff\n      and\n      0xe0\n      shl\n      dup2\n      mstore\n      0x04\n      add\n      tag_158\n      swap3\n      swap2\n      swap1\n      tag_116\n      jump\t// in\n    tag_158:\n      0x20\n      mload(0x40)\n      dup1\n      dup4\n      sub\n      dup2\n      0x00\n      dup8\n      gas\n      call\n      iszero\n      dup1\n      iszero\n      tag_160\n      jumpi\n      returndatasize\n      0x00\n      dup1\n      returndatacopy\n      revert(0x00, returndatasize)\n    tag_160:\n      pop\n      pop\n      pop\n      pop\n      mload(0x40)\n      returndatasize\n      not(0x1f)\n      0x1f\n      dup3\n      add\n      and\n      dup3\n      add\n      dup1\n      0x40\n      mstore\n      pop\n      dup2\n      add\n      swap1\n      tag_161\n      swap2\n      swap1\n      tag_120\n      jump\t// in\n    tag_161:\n      pop\n        /* \"contracts/\\xe8\\xb4\\xa8\\xe6\\x8a\\xbc\\xe4\\xbb\\xa3\\xe5\\xb8\\x81/StakingReward.sol\":6598:6718  if (reward > 0) {... */\n    tag_157:\n        /* \"contracts/\\xe8\\xb4\\xa8\\xe6\\x8a\\xbc\\xe4\\xbb\\xa3\\xe5\\xb8\\x81/StakingReward.sol\":6460:6724  {... */\n      pop\n        /* \"contracts/\\xe8\\xb4\\xa8\\xe6\\x8a\\xbc\\xe4\\xbb\\xa3\\xe5\\xb8\\x81/StakingReward.sol\":6405:6724  function getReward() external updateReward(msg.sender) {... */\n      pop\n      jump\t// out\n        /* \"contracts/\\xe8\\xb4\\xa8\\xe6\\x8a\\xbc\\xe4\\xbb\\xa3\\xe5\\xb8\\x81/StakingReward.sol\":458:481  uint256 public finishAt */\n    tag_52:\n      sload(0x02)\n      dup2\n      jump\t// out\n        /* \"contracts/\\xe8\\xb4\\xa8\\xe6\\x8a\\xbc\\xe4\\xbb\\xa3\\xe5\\xb8\\x81/StakingReward.sol\":928:972  mapping(address => uint256) public balanceOf */\n    tag_56:\n      mstore(0x20, 0x08)\n      dup1\n      0x00\n      mstore\n      keccak256(0x00, 0x40)\n      0x00\n      swap2\n      pop\n      swap1\n      pop\n      sload\n      dup2\n      jump\t// out\n        /* \"contracts/\\xe8\\xb4\\xa8\\xe6\\x8a\\xbc\\xe4\\xbb\\xa3\\xe5\\xb8\\x81/StakingReward.sol\":219:255  IERC20 public immutable stakingToken */\n    tag_59:\n      immutable(\"0x845e9c18ca148a712f01bf14c91c3e2fe352eabe86c44817e3f33b63f585a343\")\n      dup2\n      jump\t// out\n        /* \"contracts/\\xe8\\xb4\\xa8\\xe6\\x8a\\xbc\\xe4\\xbb\\xa3\\xe5\\xb8\\x81/StakingReward.sol\":488:512  uint256 public updatedAt */\n    tag_63:\n      sload(0x03)\n      dup2\n      jump\t// out\n        /* \"contracts/\\xe8\\xb4\\xa8\\xe6\\x8a\\xbc\\xe4\\xbb\\xa3\\xe5\\xb8\\x81/StakingReward.sol\":538:563  uint256 public rewardRate */\n    tag_66:\n      sload(0x04)\n      dup2\n      jump\t// out\n        /* \"contracts/\\xe8\\xb4\\xa8\\xe6\\x8a\\xbc\\xe4\\xbb\\xa3\\xe5\\xb8\\x81/StakingReward.sol\":3204:3325  function lastTimeRewardApplicable() public view returns (uint256) {... */\n    tag_69:\n        /* \"contracts/\\xe8\\xb4\\xa8\\xe6\\x8a\\xbc\\xe4\\xbb\\xa3\\xe5\\xb8\\x81/StakingReward.sol\":3261:3268  uint256 */\n      0x00\n        /* \"contracts/\\xe8\\xb4\\xa8\\xe6\\x8a\\xbc\\xe4\\xbb\\xa3\\xe5\\xb8\\x81/StakingReward.sol\":3287:3318  _min(block.timestamp, finishAt) */\n      tag_163\n        /* \"contracts/\\xe8\\xb4\\xa8\\xe6\\x8a\\xbc\\xe4\\xbb\\xa3\\xe5\\xb8\\x81/StakingReward.sol\":3292:3307  block.timestamp */\n      timestamp\n        /* \"contracts/\\xe8\\xb4\\xa8\\xe6\\x8a\\xbc\\xe4\\xbb\\xa3\\xe5\\xb8\\x81/StakingReward.sol\":3309:3317  finishAt */\n      sload(0x02)\n        /* \"contracts/\\xe8\\xb4\\xa8\\xe6\\x8a\\xbc\\xe4\\xbb\\xa3\\xe5\\xb8\\x81/StakingReward.sol\":3287:3291  _min */\n      tag_164\n        /* \"contracts/\\xe8\\xb4\\xa8\\xe6\\x8a\\xbc\\xe4\\xbb\\xa3\\xe5\\xb8\\x81/StakingReward.sol\":3287:3318  _min(block.timestamp, finishAt) */\n      jump\t// in\n    tag_163:\n        /* \"contracts/\\xe8\\xb4\\xa8\\xe6\\x8a\\xbc\\xe4\\xbb\\xa3\\xe5\\xb8\\x81/StakingReward.sol\":3280:3318  return _min(block.timestamp, finishAt) */\n      swap1\n      pop\n        /* \"contracts/\\xe8\\xb4\\xa8\\xe6\\x8a\\xbc\\xe4\\xbb\\xa3\\xe5\\xb8\\x81/StakingReward.sol\":3204:3325  function lastTimeRewardApplicable() public view returns (uint256) {... */\n      swap1\n      jump\t// out\n        /* \"contracts/\\xe8\\xb4\\xa8\\xe6\\x8a\\xbc\\xe4\\xbb\\xa3\\xe5\\xb8\\x81/StakingReward.sol\":750:807  mapping(address => uint256) public userRewardPerTokenPaid */\n    tag_73:\n      mstore(0x20, 0x06)\n      dup1\n      0x00\n      mstore\n      keccak256(0x00, 0x40)\n      0x00\n      swap2\n      pop\n      swap1\n      pop\n      sload\n      dup2\n      jump\t// out\n        /* \"contracts/\\xe8\\xb4\\xa8\\xe6\\x8a\\xbc\\xe4\\xbb\\xa3\\xe5\\xb8\\x81/StakingReward.sol\":340:360  address public owner */\n    tag_76:\n      0x00\n      dup1\n      sload\n      swap1\n      0x0100\n      exp\n      swap1\n      div\n      0xffffffffffffffffffffffffffffffffffffffff\n      and\n      dup2\n      jump\t// out\n        /* \"contracts/\\xe8\\xb4\\xa8\\xe6\\x8a\\xbc\\xe4\\xbb\\xa3\\xe5\\xb8\\x81/StakingReward.sol\":5567:5987  function stake(uint256 _amount) external updateReward(msg.sender) {... */\n    tag_81:\n        /* \"contracts/\\xe8\\xb4\\xa8\\xe6\\x8a\\xbc\\xe4\\xbb\\xa3\\xe5\\xb8\\x81/StakingReward.sol\":5621:5631  msg.sender */\n      caller\n        /* \"contracts/\\xe8\\xb4\\xa8\\xe6\\x8a\\xbc\\xe4\\xbb\\xa3\\xe5\\xb8\\x81/StakingReward.sol\":2330:2346  rewardPerToken() */\n      tag_166\n        /* \"contracts/\\xe8\\xb4\\xa8\\xe6\\x8a\\xbc\\xe4\\xbb\\xa3\\xe5\\xb8\\x81/StakingReward.sol\":2330:2344  rewardPerToken */\n      tag_86\n        /* \"contracts/\\xe8\\xb4\\xa8\\xe6\\x8a\\xbc\\xe4\\xbb\\xa3\\xe5\\xb8\\x81/StakingReward.sol\":2330:2346  rewardPerToken() */\n      jump\t// in\n    tag_166:\n        /* \"contracts/\\xe8\\xb4\\xa8\\xe6\\x8a\\xbc\\xe4\\xbb\\xa3\\xe5\\xb8\\x81/StakingReward.sol\":2307:2327  rewardPerTokenStored */\n      0x05\n        /* \"contracts/\\xe8\\xb4\\xa8\\xe6\\x8a\\xbc\\xe4\\xbb\\xa3\\xe5\\xb8\\x81/StakingReward.sol\":2307:2346  rewardPerTokenStored = rewardPerToken() */\n      dup2\n      swap1\n      sstore\n      pop\n        /* \"contracts/\\xe8\\xb4\\xa8\\xe6\\x8a\\xbc\\xe4\\xbb\\xa3\\xe5\\xb8\\x81/StakingReward.sol\":2368:2394  lastTimeRewardApplicable() */\n      tag_167\n        /* \"contracts/\\xe8\\xb4\\xa8\\xe6\\x8a\\xbc\\xe4\\xbb\\xa3\\xe5\\xb8\\x81/StakingReward.sol\":2368:2392  lastTimeRewardApplicable */\n      tag_69\n        /* \"contracts/\\xe8\\xb4\\xa8\\xe6\\x8a\\xbc\\xe4\\xbb\\xa3\\xe5\\xb8\\x81/StakingReward.sol\":2368:2394  lastTimeRewardApplicable() */\n      jump\t// in\n    tag_167:\n        /* \"contracts/\\xe8\\xb4\\xa8\\xe6\\x8a\\xbc\\xe4\\xbb\\xa3\\xe5\\xb8\\x81/StakingReward.sol\":2356:2365  updatedAt */\n      0x03\n        /* \"contracts/\\xe8\\xb4\\xa8\\xe6\\x8a\\xbc\\xe4\\xbb\\xa3\\xe5\\xb8\\x81/StakingReward.sol\":2356:2394  updatedAt = lastTimeRewardApplicable() */\n      dup2\n      swap1\n      sstore\n      pop\n        /* \"contracts/\\xe8\\xb4\\xa8\\xe6\\x8a\\xbc\\xe4\\xbb\\xa3\\xe5\\xb8\\x81/StakingReward.sol\":2428:2429  0 */\n      0x00\n        /* \"contracts/\\xe8\\xb4\\xa8\\xe6\\x8a\\xbc\\xe4\\xbb\\xa3\\xe5\\xb8\\x81/StakingReward.sol\":2408:2430  _account != address(0) */\n      0xffffffffffffffffffffffffffffffffffffffff\n      and\n        /* \"contracts/\\xe8\\xb4\\xa8\\xe6\\x8a\\xbc\\xe4\\xbb\\xa3\\xe5\\xb8\\x81/StakingReward.sol\":2408:2416  _account */\n      dup2\n        /* \"contracts/\\xe8\\xb4\\xa8\\xe6\\x8a\\xbc\\xe4\\xbb\\xa3\\xe5\\xb8\\x81/StakingReward.sol\":2408:2430  _account != address(0) */\n      0xffffffffffffffffffffffffffffffffffffffff\n      and\n      eq\n        /* \"contracts/\\xe8\\xb4\\xa8\\xe6\\x8a\\xbc\\xe4\\xbb\\xa3\\xe5\\xb8\\x81/StakingReward.sol\":2404:2562  if (_account != address(0)) {... */\n      tag_168\n      jumpi\n        /* \"contracts/\\xe8\\xb4\\xa8\\xe6\\x8a\\xbc\\xe4\\xbb\\xa3\\xe5\\xb8\\x81/StakingReward.sol\":2466:2482  earned(_account) */\n      tag_169\n        /* \"contracts/\\xe8\\xb4\\xa8\\xe6\\x8a\\xbc\\xe4\\xbb\\xa3\\xe5\\xb8\\x81/StakingReward.sol\":2473:2481  _account */\n      dup2\n        /* \"contracts/\\xe8\\xb4\\xa8\\xe6\\x8a\\xbc\\xe4\\xbb\\xa3\\xe5\\xb8\\x81/StakingReward.sol\":2466:2472  earned */\n      tag_29\n        /* \"contracts/\\xe8\\xb4\\xa8\\xe6\\x8a\\xbc\\xe4\\xbb\\xa3\\xe5\\xb8\\x81/StakingReward.sol\":2466:2482  earned(_account) */\n      jump\t// in\n    tag_169:\n        /* \"contracts/\\xe8\\xb4\\xa8\\xe6\\x8a\\xbc\\xe4\\xbb\\xa3\\xe5\\xb8\\x81/StakingReward.sol\":2446:2453  rewards */\n      0x07\n        /* \"contracts/\\xe8\\xb4\\xa8\\xe6\\x8a\\xbc\\xe4\\xbb\\xa3\\xe5\\xb8\\x81/StakingReward.sol\":2446:2463  rewards[_account] */\n      0x00\n        /* \"contracts/\\xe8\\xb4\\xa8\\xe6\\x8a\\xbc\\xe4\\xbb\\xa3\\xe5\\xb8\\x81/StakingReward.sol\":2454:2462  _account */\n      dup4\n        /* \"contracts/\\xe8\\xb4\\xa8\\xe6\\x8a\\xbc\\xe4\\xbb\\xa3\\xe5\\xb8\\x81/StakingReward.sol\":2446:2463  rewards[_account] */\n      0xffffffffffffffffffffffffffffffffffffffff\n      and\n      0xffffffffffffffffffffffffffffffffffffffff\n      and\n      dup2\n      mstore\n      0x20\n      add\n      swap1\n      dup2\n      mstore\n      0x20\n      add\n      0x00\n      keccak256\n        /* \"contracts/\\xe8\\xb4\\xa8\\xe6\\x8a\\xbc\\xe4\\xbb\\xa3\\xe5\\xb8\\x81/StakingReward.sol\":2446:2482  rewards[_account] = earned(_account) */\n      dup2\n      swap1\n      sstore\n      pop\n        /* \"contracts/\\xe8\\xb4\\xa8\\xe6\\x8a\\xbc\\xe4\\xbb\\xa3\\xe5\\xb8\\x81/StakingReward.sol\":2531:2551  rewardPerTokenStored */\n      sload(0x05)\n        /* \"contracts/\\xe8\\xb4\\xa8\\xe6\\x8a\\xbc\\xe4\\xbb\\xa3\\xe5\\xb8\\x81/StakingReward.sol\":2496:2518  userRewardPerTokenPaid */\n      0x06\n        /* \"contracts/\\xe8\\xb4\\xa8\\xe6\\x8a\\xbc\\xe4\\xbb\\xa3\\xe5\\xb8\\x81/StakingReward.sol\":2496:2528  userRewardPerTokenPaid[_account] */\n      0x00\n        /* \"contracts/\\xe8\\xb4\\xa8\\xe6\\x8a\\xbc\\xe4\\xbb\\xa3\\xe5\\xb8\\x81/StakingReward.sol\":2519:2527  _account */\n      dup4\n        /* \"contracts/\\xe8\\xb4\\xa8\\xe6\\x8a\\xbc\\xe4\\xbb\\xa3\\xe5\\xb8\\x81/StakingReward.sol\":2496:2528  userRewardPerTokenPaid[_account] */\n      0xffffffffffffffffffffffffffffffffffffffff\n      and\n      0xffffffffffffffffffffffffffffffffffffffff\n      and\n      dup2\n      mstore\n      0x20\n      add\n      swap1\n      dup2\n      mstore\n      0x20\n      add\n      0x00\n      keccak256\n        /* \"contracts/\\xe8\\xb4\\xa8\\xe6\\x8a\\xbc\\xe4\\xbb\\xa3\\xe5\\xb8\\x81/StakingReward.sol\":2496:2551  userRewardPerTokenPaid[_account] = rewardPerTokenStored */\n      dup2\n      swap1\n      sstore\n      pop\n        /* \"contracts/\\xe8\\xb4\\xa8\\xe6\\x8a\\xbc\\xe4\\xbb\\xa3\\xe5\\xb8\\x81/StakingReward.sol\":2404:2562  if (_account != address(0)) {... */\n    tag_168:\n        /* \"contracts/\\xe8\\xb4\\xa8\\xe6\\x8a\\xbc\\xe4\\xbb\\xa3\\xe5\\xb8\\x81/StakingReward.sol\":5661:5662  0 */\n      0x00\n        /* \"contracts/\\xe8\\xb4\\xa8\\xe6\\x8a\\xbc\\xe4\\xbb\\xa3\\xe5\\xb8\\x81/StakingReward.sol\":5651:5658  _amount */\n      dup3\n        /* \"contracts/\\xe8\\xb4\\xa8\\xe6\\x8a\\xbc\\xe4\\xbb\\xa3\\xe5\\xb8\\x81/StakingReward.sol\":5651:5662  _amount > 0 */\n      gt\n        /* \"contracts/\\xe8\\xb4\\xa8\\xe6\\x8a\\xbc\\xe4\\xbb\\xa3\\xe5\\xb8\\x81/StakingReward.sol\":5643:5677  require(_amount > 0, \"amount = 0\") */\n      tag_171\n      jumpi\n      mload(0x40)\n      0x08c379a000000000000000000000000000000000000000000000000000000000\n      dup2\n      mstore\n      0x04\n      add\n      tag_172\n      swap1\n      tag_112\n      jump\t// in\n    tag_172:\n      mload(0x40)\n      dup1\n      swap2\n      sub\n      swap1\n      revert\n    tag_171:\n        /* \"contracts/\\xe8\\xb4\\xa8\\xe6\\x8a\\xbc\\xe4\\xbb\\xa3\\xe5\\xb8\\x81/StakingReward.sol\":5735:5747  stakingToken */\n      immutable(\"0x845e9c18ca148a712f01bf14c91c3e2fe352eabe86c44817e3f33b63f585a343\")\n        /* \"contracts/\\xe8\\xb4\\xa8\\xe6\\x8a\\xbc\\xe4\\xbb\\xa3\\xe5\\xb8\\x81/StakingReward.sol\":5735:5760  stakingToken.transferFrom */\n      0xffffffffffffffffffffffffffffffffffffffff\n      and\n      0x23b872dd\n        /* \"contracts/\\xe8\\xb4\\xa8\\xe6\\x8a\\xbc\\xe4\\xbb\\xa3\\xe5\\xb8\\x81/StakingReward.sol\":5761:5771  msg.sender */\n      caller\n        /* \"contracts/\\xe8\\xb4\\xa8\\xe6\\x8a\\xbc\\xe4\\xbb\\xa3\\xe5\\xb8\\x81/StakingReward.sol\":5781:5785  this */\n      address\n        /* \"contracts/\\xe8\\xb4\\xa8\\xe6\\x8a\\xbc\\xe4\\xbb\\xa3\\xe5\\xb8\\x81/StakingReward.sol\":5788:5795  _amount */\n      dup6\n        /* \"contracts/\\xe8\\xb4\\xa8\\xe6\\x8a\\xbc\\xe4\\xbb\\xa3\\xe5\\xb8\\x81/StakingReward.sol\":5735:5796  stakingToken.transferFrom(msg.sender, address(this), _amount) */\n      mload(0x40)\n      dup5\n      0xffffffff\n      and\n      0xe0\n      shl\n      dup2\n      mstore\n      0x04\n      add\n      tag_173\n      swap4\n      swap3\n      swap2\n      swap1\n      tag_174\n      jump\t// in\n    tag_173:\n      0x20\n      mload(0x40)\n      dup1\n      dup4\n      sub\n      dup2\n      0x00\n      dup8\n      gas\n      call\n      iszero\n      dup1\n      iszero\n      tag_176\n      jumpi\n      returndatasize\n      0x00\n      dup1\n      returndatacopy\n      revert(0x00, returndatasize)\n    tag_176:\n      pop\n      pop\n      pop\n      pop\n      mload(0x40)\n      returndatasize\n      not(0x1f)\n      0x1f\n      dup3\n      add\n      and\n      dup3\n      add\n      dup1\n      0x40\n      mstore\n      pop\n      dup2\n      add\n      swap1\n      tag_177\n      swap2\n      swap1\n      tag_120\n      jump\t// in\n    tag_177:\n      pop\n        /* \"contracts/\\xe8\\xb4\\xa8\\xe6\\x8a\\xbc\\xe4\\xbb\\xa3\\xe5\\xb8\\x81/StakingReward.sol\":5908:5915  _amount */\n      dup2\n        /* \"contracts/\\xe8\\xb4\\xa8\\xe6\\x8a\\xbc\\xe4\\xbb\\xa3\\xe5\\xb8\\x81/StakingReward.sol\":5883:5892  balanceOf */\n      0x08\n        /* \"contracts/\\xe8\\xb4\\xa8\\xe6\\x8a\\xbc\\xe4\\xbb\\xa3\\xe5\\xb8\\x81/StakingReward.sol\":5883:5904  balanceOf[msg.sender] */\n      0x00\n        /* \"contracts/\\xe8\\xb4\\xa8\\xe6\\x8a\\xbc\\xe4\\xbb\\xa3\\xe5\\xb8\\x81/StakingReward.sol\":5893:5903  msg.sender */\n      caller\n        /* \"contracts/\\xe8\\xb4\\xa8\\xe6\\x8a\\xbc\\xe4\\xbb\\xa3\\xe5\\xb8\\x81/StakingReward.sol\":5883:5904  balanceOf[msg.sender] */\n      0xffffffffffffffffffffffffffffffffffffffff\n      and\n      0xffffffffffffffffffffffffffffffffffffffff\n      and\n      dup2\n      mstore\n      0x20\n      add\n      swap1\n      dup2\n      mstore\n      0x20\n      add\n      0x00\n      keccak256\n      0x00\n        /* \"contracts/\\xe8\\xb4\\xa8\\xe6\\x8a\\xbc\\xe4\\xbb\\xa3\\xe5\\xb8\\x81/StakingReward.sol\":5883:5915  balanceOf[msg.sender] += _amount */\n      dup3\n      dup3\n      sload\n      tag_178\n      swap2\n      swap1\n      tag_103\n      jump\t// in\n    tag_178:\n      swap3\n      pop\n      pop\n      dup2\n      swap1\n      sstore\n      pop\n        /* \"contracts/\\xe8\\xb4\\xa8\\xe6\\x8a\\xbc\\xe4\\xbb\\xa3\\xe5\\xb8\\x81/StakingReward.sol\":5973:5980  _amount */\n      dup2\n        /* \"contracts/\\xe8\\xb4\\xa8\\xe6\\x8a\\xbc\\xe4\\xbb\\xa3\\xe5\\xb8\\x81/StakingReward.sol\":5958:5969  totalSupply */\n      0x09\n      0x00\n        /* \"contracts/\\xe8\\xb4\\xa8\\xe6\\x8a\\xbc\\xe4\\xbb\\xa3\\xe5\\xb8\\x81/StakingReward.sol\":5958:5980  totalSupply += _amount */\n      dup3\n      dup3\n      sload\n      tag_179\n      swap2\n      swap1\n      tag_103\n      jump\t// in\n    tag_179:\n      swap3\n      pop\n      pop\n      dup2\n      swap1\n      sstore\n      pop\n        /* \"contracts/\\xe8\\xb4\\xa8\\xe6\\x8a\\xbc\\xe4\\xbb\\xa3\\xe5\\xb8\\x81/StakingReward.sol\":5567:5987  function stake(uint256 _amount) external updateReward(msg.sender) {... */\n      pop\n      pop\n      jump\t// out\n        /* \"contracts/\\xe8\\xb4\\xa8\\xe6\\x8a\\xbc\\xe4\\xbb\\xa3\\xe5\\xb8\\x81/StakingReward.sol\":3649:3958  function setRewardDuration(uint256 _duration) external onlyOwner {... */\n    tag_84:\n        /* \"contracts/\\xe8\\xb4\\xa8\\xe6\\x8a\\xbc\\xe4\\xbb\\xa3\\xe5\\xb8\\x81/StakingReward.sol\":1830:1835  owner */\n      0x00\n      dup1\n      sload\n      swap1\n      0x0100\n      exp\n      swap1\n      div\n      0xffffffffffffffffffffffffffffffffffffffff\n      and\n        /* \"contracts/\\xe8\\xb4\\xa8\\xe6\\x8a\\xbc\\xe4\\xbb\\xa3\\xe5\\xb8\\x81/StakingReward.sol\":1816:1835  msg.sender == owner */\n      0xffffffffffffffffffffffffffffffffffffffff\n      and\n        /* \"contracts/\\xe8\\xb4\\xa8\\xe6\\x8a\\xbc\\xe4\\xbb\\xa3\\xe5\\xb8\\x81/StakingReward.sol\":1816:1826  msg.sender */\n      caller\n        /* \"contracts/\\xe8\\xb4\\xa8\\xe6\\x8a\\xbc\\xe4\\xbb\\xa3\\xe5\\xb8\\x81/StakingReward.sol\":1816:1835  msg.sender == owner */\n      0xffffffffffffffffffffffffffffffffffffffff\n      and\n      eq\n        /* \"contracts/\\xe8\\xb4\\xa8\\xe6\\x8a\\xbc\\xe4\\xbb\\xa3\\xe5\\xb8\\x81/StakingReward.sol\":1808:1849  require(msg.sender == owner, \"Not Owner\") */\n      tag_181\n      jumpi\n      mload(0x40)\n      0x08c379a000000000000000000000000000000000000000000000000000000000\n      dup2\n      mstore\n      0x04\n      add\n      tag_182\n      swap1\n      tag_124\n      jump\t// in\n    tag_182:\n      mload(0x40)\n      dup1\n      swap2\n      sub\n      swap1\n      revert\n    tag_181:\n        /* \"contracts/\\xe8\\xb4\\xa8\\xe6\\x8a\\xbc\\xe4\\xbb\\xa3\\xe5\\xb8\\x81/StakingReward.sol\":3873:3888  block.timestamp */\n      timestamp\n        /* \"contracts/\\xe8\\xb4\\xa8\\xe6\\x8a\\xbc\\xe4\\xbb\\xa3\\xe5\\xb8\\x81/StakingReward.sol\":3862:3870  finishAt */\n      sload(0x02)\n        /* \"contracts/\\xe8\\xb4\\xa8\\xe6\\x8a\\xbc\\xe4\\xbb\\xa3\\xe5\\xb8\\x81/StakingReward.sol\":3862:3888  finishAt < block.timestamp */\n      lt\n        /* \"contracts/\\xe8\\xb4\\xa8\\xe6\\x8a\\xbc\\xe4\\xbb\\xa3\\xe5\\xb8\\x81/StakingReward.sol\":3854:3921  require(finishAt < block.timestamp, \"reward duration not finished\") */\n      tag_184\n      jumpi\n      mload(0x40)\n      0x08c379a000000000000000000000000000000000000000000000000000000000\n      dup2\n      mstore\n      0x04\n      add\n      tag_185\n      swap1\n      tag_186\n      jump\t// in\n    tag_185:\n      mload(0x40)\n      dup1\n      swap2\n      sub\n      swap1\n      revert\n    tag_184:\n        /* \"contracts/\\xe8\\xb4\\xa8\\xe6\\x8a\\xbc\\xe4\\xbb\\xa3\\xe5\\xb8\\x81/StakingReward.sol\":3942:3951  _duration */\n      dup1\n        /* \"contracts/\\xe8\\xb4\\xa8\\xe6\\x8a\\xbc\\xe4\\xbb\\xa3\\xe5\\xb8\\x81/StakingReward.sol\":3931:3939  duration */\n      0x01\n        /* \"contracts/\\xe8\\xb4\\xa8\\xe6\\x8a\\xbc\\xe4\\xbb\\xa3\\xe5\\xb8\\x81/StakingReward.sol\":3931:3951  duration = _duration */\n      dup2\n      swap1\n      sstore\n      pop\n        /* \"contracts/\\xe8\\xb4\\xa8\\xe6\\x8a\\xbc\\xe4\\xbb\\xa3\\xe5\\xb8\\x81/StakingReward.sol\":3649:3958  function setRewardDuration(uint256 _duration) external onlyOwner {... */\n      pop\n      jump\t// out\n        /* \"contracts/\\xe8\\xb4\\xa8\\xe6\\x8a\\xbc\\xe4\\xbb\\xa3\\xe5\\xb8\\x81/StakingReward.sol\":2809:3086  function rewardPerToken() public view returns (uint256) {... */\n    tag_86:\n        /* \"contracts/\\xe8\\xb4\\xa8\\xe6\\x8a\\xbc\\xe4\\xbb\\xa3\\xe5\\xb8\\x81/StakingReward.sol\":2856:2863  uint256 */\n      0x00\n        /* \"contracts/\\xe8\\xb4\\xa8\\xe6\\x8a\\xbc\\xe4\\xbb\\xa3\\xe5\\xb8\\x81/StakingReward.sol\":2894:2895  0 */\n      dup1\n        /* \"contracts/\\xe8\\xb4\\xa8\\xe6\\x8a\\xbc\\xe4\\xbb\\xa3\\xe5\\xb8\\x81/StakingReward.sol\":2879:2890  totalSupply */\n      sload(0x09)\n        /* \"contracts/\\xe8\\xb4\\xa8\\xe6\\x8a\\xbc\\xe4\\xbb\\xa3\\xe5\\xb8\\x81/StakingReward.sol\":2879:2895  totalSupply == 0 */\n      sub\n        /* \"contracts/\\xe8\\xb4\\xa8\\xe6\\x8a\\xbc\\xe4\\xbb\\xa3\\xe5\\xb8\\x81/StakingReward.sol\":2875:2924  if (totalSupply == 0) return rewardPerTokenStored */\n      tag_188\n      jumpi\n        /* \"contracts/\\xe8\\xb4\\xa8\\xe6\\x8a\\xbc\\xe4\\xbb\\xa3\\xe5\\xb8\\x81/StakingReward.sol\":2904:2924  rewardPerTokenStored */\n      sload(0x05)\n        /* \"contracts/\\xe8\\xb4\\xa8\\xe6\\x8a\\xbc\\xe4\\xbb\\xa3\\xe5\\xb8\\x81/StakingReward.sol\":2897:2924  return rewardPerTokenStored */\n      swap1\n      pop\n      jump(tag_187)\n        /* \"contracts/\\xe8\\xb4\\xa8\\xe6\\x8a\\xbc\\xe4\\xbb\\xa3\\xe5\\xb8\\x81/StakingReward.sol\":2875:2924  if (totalSupply == 0) return rewardPerTokenStored */\n    tag_188:\n        /* \"contracts/\\xe8\\xb4\\xa8\\xe6\\x8a\\xbc\\xe4\\xbb\\xa3\\xe5\\xb8\\x81/StakingReward.sol\":3068:3079  totalSupply */\n      sload(0x09)\n        /* \"contracts/\\xe8\\xb4\\xa8\\xe6\\x8a\\xbc\\xe4\\xbb\\xa3\\xe5\\xb8\\x81/StakingReward.sol\":3048:3052  1e18 */\n      0x0de0b6b3a7640000\n        /* \"contracts/\\xe8\\xb4\\xa8\\xe6\\x8a\\xbc\\xe4\\xbb\\xa3\\xe5\\xb8\\x81/StakingReward.sol\":3034:3043  updatedAt */\n      sload(0x03)\n        /* \"contracts/\\xe8\\xb4\\xa8\\xe6\\x8a\\xbc\\xe4\\xbb\\xa3\\xe5\\xb8\\x81/StakingReward.sol\":3005:3031  lastTimeRewardApplicable() */\n      tag_189\n        /* \"contracts/\\xe8\\xb4\\xa8\\xe6\\x8a\\xbc\\xe4\\xbb\\xa3\\xe5\\xb8\\x81/StakingReward.sol\":3005:3029  lastTimeRewardApplicable */\n      tag_69\n        /* \"contracts/\\xe8\\xb4\\xa8\\xe6\\x8a\\xbc\\xe4\\xbb\\xa3\\xe5\\xb8\\x81/StakingReward.sol\":3005:3031  lastTimeRewardApplicable() */\n      jump\t// in\n    tag_189:\n        /* \"contracts/\\xe8\\xb4\\xa8\\xe6\\x8a\\xbc\\xe4\\xbb\\xa3\\xe5\\xb8\\x81/StakingReward.sol\":3005:3043  lastTimeRewardApplicable() - updatedAt */\n      tag_190\n      swap2\n      swap1\n      tag_97\n      jump\t// in\n    tag_190:\n        /* \"contracts/\\xe8\\xb4\\xa8\\xe6\\x8a\\xbc\\xe4\\xbb\\xa3\\xe5\\xb8\\x81/StakingReward.sol\":2991:3001  rewardRate */\n      sload(0x04)\n        /* \"contracts/\\xe8\\xb4\\xa8\\xe6\\x8a\\xbc\\xe4\\xbb\\xa3\\xe5\\xb8\\x81/StakingReward.sol\":2991:3044  rewardRate * (lastTimeRewardApplicable() - updatedAt) */\n      tag_191\n      swap2\n      swap1\n      tag_99\n      jump\t// in\n    tag_191:\n        /* \"contracts/\\xe8\\xb4\\xa8\\xe6\\x8a\\xbc\\xe4\\xbb\\xa3\\xe5\\xb8\\x81/StakingReward.sol\":2990:3052  (rewardRate * (lastTimeRewardApplicable() - updatedAt)) * 1e18 */\n      tag_192\n      swap2\n      swap1\n      tag_99\n      jump\t// in\n    tag_192:\n        /* \"contracts/\\xe8\\xb4\\xa8\\xe6\\x8a\\xbc\\xe4\\xbb\\xa3\\xe5\\xb8\\x81/StakingReward.sol\":2989:3079  ((rewardRate * (lastTimeRewardApplicable() - updatedAt)) * 1e18) /... */\n      tag_193\n      swap2\n      swap1\n      tag_101\n      jump\t// in\n    tag_193:\n        /* \"contracts/\\xe8\\xb4\\xa8\\xe6\\x8a\\xbc\\xe4\\xbb\\xa3\\xe5\\xb8\\x81/StakingReward.sol\":2954:2974  rewardPerTokenStored */\n      sload(0x05)\n        /* \"contracts/\\xe8\\xb4\\xa8\\xe6\\x8a\\xbc\\xe4\\xbb\\xa3\\xe5\\xb8\\x81/StakingReward.sol\":2954:3079  rewardPerTokenStored +... */\n      tag_194\n      swap2\n      swap1\n      tag_103\n      jump\t// in\n    tag_194:\n        /* \"contracts/\\xe8\\xb4\\xa8\\xe6\\x8a\\xbc\\xe4\\xbb\\xa3\\xe5\\xb8\\x81/StakingReward.sol\":2935:3079  return... */\n      swap1\n      pop\n        /* \"contracts/\\xe8\\xb4\\xa8\\xe6\\x8a\\xbc\\xe4\\xbb\\xa3\\xe5\\xb8\\x81/StakingReward.sol\":2809:3086  function rewardPerToken() public view returns (uint256) {... */\n    tag_187:\n      swap1\n      jump\t// out\n        /* \"contracts/\\xe8\\xb4\\xa8\\xe6\\x8a\\xbc\\xe4\\xbb\\xa3\\xe5\\xb8\\x81/StakingReward.sol\":280:316  IERC20 public immutable rewardsToken */\n    tag_89:\n      immutable(\"0x04e57633024368235fc5219bfb9802814291d3a7b9a68d0aeb7bd3d297ac474e\")\n      dup2\n      jump\t// out\n        /* \"contracts/\\xe8\\xb4\\xa8\\xe6\\x8a\\xbc\\xe4\\xbb\\xa3\\xe5\\xb8\\x81/StakingReward.sol\":570:605  uint256 public rewardPerTokenStored */\n    tag_92:\n      sload(0x05)\n      dup2\n      jump\t// out\n        /* \"contracts/\\xe8\\xb4\\xa8\\xe6\\x8a\\xbc\\xe4\\xbb\\xa3\\xe5\\xb8\\x81/StakingReward.sol\":3092:3198  function  _min(uint256 x, uint256 y) private pure returns (uint256) {... */\n    tag_164:\n        /* \"contracts/\\xe8\\xb4\\xa8\\xe6\\x8a\\xbc\\xe4\\xbb\\xa3\\xe5\\xb8\\x81/StakingReward.sol\":3151:3158  uint256 */\n      0x00\n        /* \"contracts/\\xe8\\xb4\\xa8\\xe6\\x8a\\xbc\\xe4\\xbb\\xa3\\xe5\\xb8\\x81/StakingReward.sol\":3182:3183  y */\n      dup2\n        /* \"contracts/\\xe8\\xb4\\xa8\\xe6\\x8a\\xbc\\xe4\\xbb\\xa3\\xe5\\xb8\\x81/StakingReward.sol\":3177:3178  x */\n      dup4\n        /* \"contracts/\\xe8\\xb4\\xa8\\xe6\\x8a\\xbc\\xe4\\xbb\\xa3\\xe5\\xb8\\x81/StakingReward.sol\":3177:3183  x <= y */\n      gt\n      iszero\n        /* \"contracts/\\xe8\\xb4\\xa8\\xe6\\x8a\\xbc\\xe4\\xbb\\xa3\\xe5\\xb8\\x81/StakingReward.sol\":3177:3191  x <= y ? x : y */\n      tag_196\n      jumpi\n        /* \"contracts/\\xe8\\xb4\\xa8\\xe6\\x8a\\xbc\\xe4\\xbb\\xa3\\xe5\\xb8\\x81/StakingReward.sol\":3190:3191  y */\n      dup2\n        /* \"contracts/\\xe8\\xb4\\xa8\\xe6\\x8a\\xbc\\xe4\\xbb\\xa3\\xe5\\xb8\\x81/StakingReward.sol\":3177:3191  x <= y ? x : y */\n      jump(tag_197)\n    tag_196:\n        /* \"contracts/\\xe8\\xb4\\xa8\\xe6\\x8a\\xbc\\xe4\\xbb\\xa3\\xe5\\xb8\\x81/StakingReward.sol\":3186:3187  x */\n      dup3\n        /* \"contracts/\\xe8\\xb4\\xa8\\xe6\\x8a\\xbc\\xe4\\xbb\\xa3\\xe5\\xb8\\x81/StakingReward.sol\":3177:3191  x <= y ? x : y */\n    tag_197:\n        /* \"contracts/\\xe8\\xb4\\xa8\\xe6\\x8a\\xbc\\xe4\\xbb\\xa3\\xe5\\xb8\\x81/StakingReward.sol\":3170:3191  return x <= y ? x : y */\n      swap1\n      pop\n        /* \"contracts/\\xe8\\xb4\\xa8\\xe6\\x8a\\xbc\\xe4\\xbb\\xa3\\xe5\\xb8\\x81/StakingReward.sol\":3092:3198  function  _min(uint256 x, uint256 y) private pure returns (uint256) {... */\n      swap3\n      swap2\n      pop\n      pop\n      jump\t// out\n        /* \"#utility.yul\":88:205   */\n    tag_199:\n        /* \"#utility.yul\":197:198   */\n      0x00\n        /* \"#utility.yul\":194:195   */\n      dup1\n        /* \"#utility.yul\":187:199   */\n      revert\n        /* \"#utility.yul\":334:460   */\n    tag_201:\n        /* \"#utility.yul\":371:378   */\n      0x00\n        /* \"#utility.yul\":411:453   */\n      0xffffffffffffffffffffffffffffffffffffffff\n        /* \"#utility.yul\":404:409   */\n      dup3\n        /* \"#utility.yul\":400:454   */\n      and\n        /* \"#utility.yul\":389:454   */\n      swap1\n      pop\n        /* \"#utility.yul\":334:460   */\n      swap2\n      swap1\n      pop\n      jump\t// out\n        /* \"#utility.yul\":466:562   */\n    tag_202:\n        /* \"#utility.yul\":503:510   */\n      0x00\n        /* \"#utility.yul\":532:556   */\n      tag_238\n        /* \"#utility.yul\":550:555   */\n      dup3\n        /* \"#utility.yul\":532:556   */\n      tag_201\n      jump\t// in\n    tag_238:\n        /* \"#utility.yul\":521:556   */\n      swap1\n      pop\n        /* \"#utility.yul\":466:562   */\n      swap2\n      swap1\n      pop\n      jump\t// out\n        /* \"#utility.yul\":568:690   */\n    tag_203:\n        /* \"#utility.yul\":641:665   */\n      tag_240\n        /* \"#utility.yul\":659:664   */\n      dup2\n        /* \"#utility.yul\":641:665   */\n      tag_202\n      jump\t// in\n    tag_240:\n        /* \"#utility.yul\":634:639   */\n      dup2\n        /* \"#utility.yul\":631:666   */\n      eq\n        /* \"#utility.yul\":621:684   */\n      tag_241\n      jumpi\n        /* \"#utility.yul\":680:681   */\n      0x00\n        /* \"#utility.yul\":677:678   */\n      dup1\n        /* \"#utility.yul\":670:682   */\n      revert\n        /* \"#utility.yul\":621:684   */\n    tag_241:\n        /* \"#utility.yul\":568:690   */\n      pop\n      jump\t// out\n        /* \"#utility.yul\":696:835   */\n    tag_204:\n        /* \"#utility.yul\":742:747   */\n      0x00\n        /* \"#utility.yul\":780:786   */\n      dup2\n        /* \"#utility.yul\":767:787   */\n      calldataload\n        /* \"#utility.yul\":758:787   */\n      swap1\n      pop\n        /* \"#utility.yul\":796:829   */\n      tag_243\n        /* \"#utility.yul\":823:828   */\n      dup2\n        /* \"#utility.yul\":796:829   */\n      tag_203\n      jump\t// in\n    tag_243:\n        /* \"#utility.yul\":696:835   */\n      swap3\n      swap2\n      pop\n      pop\n      jump\t// out\n        /* \"#utility.yul\":841:1170   */\n    tag_28:\n        /* \"#utility.yul\":900:906   */\n      0x00\n        /* \"#utility.yul\":949:951   */\n      0x20\n        /* \"#utility.yul\":937:946   */\n      dup3\n        /* \"#utility.yul\":928:935   */\n      dup5\n        /* \"#utility.yul\":924:947   */\n      sub\n        /* \"#utility.yul\":920:952   */\n      slt\n        /* \"#utility.yul\":917:1036   */\n      iszero\n      tag_245\n      jumpi\n        /* \"#utility.yul\":955:1034   */\n      tag_246\n      tag_199\n      jump\t// in\n    tag_246:\n        /* \"#utility.yul\":917:1036   */\n    tag_245:\n        /* \"#utility.yul\":1075:1076   */\n      0x00\n        /* \"#utility.yul\":1100:1153   */\n      tag_247\n        /* \"#utility.yul\":1145:1152   */\n      dup5\n        /* \"#utility.yul\":1136:1142   */\n      dup3\n        /* \"#utility.yul\":1125:1134   */\n      dup6\n        /* \"#utility.yul\":1121:1143   */\n      add\n        /* \"#utility.yul\":1100:1153   */\n      tag_204\n      jump\t// in\n    tag_247:\n        /* \"#utility.yul\":1090:1153   */\n      swap2\n      pop\n        /* \"#utility.yul\":1046:1163   */\n      pop\n        /* \"#utility.yul\":841:1170   */\n      swap3\n      swap2\n      pop\n      pop\n      jump\t// out\n        /* \"#utility.yul\":1176:1253   */\n    tag_205:\n        /* \"#utility.yul\":1213:1220   */\n      0x00\n        /* \"#utility.yul\":1242:1247   */\n      dup2\n        /* \"#utility.yul\":1231:1247   */\n      swap1\n      pop\n        /* \"#utility.yul\":1176:1253   */\n      swap2\n      swap1\n      pop\n      jump\t// out\n        /* \"#utility.yul\":1259:1377   */\n    tag_206:\n        /* \"#utility.yul\":1346:1370   */\n      tag_250\n        /* \"#utility.yul\":1364:1369   */\n      dup2\n        /* \"#utility.yul\":1346:1370   */\n      tag_205\n      jump\t// in\n    tag_250:\n        /* \"#utility.yul\":1341:1344   */\n      dup3\n        /* \"#utility.yul\":1334:1371   */\n      mstore\n        /* \"#utility.yul\":1259:1377   */\n      pop\n      pop\n      jump\t// out\n        /* \"#utility.yul\":1383:1605   */\n    tag_31:\n        /* \"#utility.yul\":1476:1480   */\n      0x00\n        /* \"#utility.yul\":1514:1516   */\n      0x20\n        /* \"#utility.yul\":1503:1512   */\n      dup3\n        /* \"#utility.yul\":1499:1517   */\n      add\n        /* \"#utility.yul\":1491:1517   */\n      swap1\n      pop\n        /* \"#utility.yul\":1527:1598   */\n      tag_252\n        /* \"#utility.yul\":1595:1596   */\n      0x00\n        /* \"#utility.yul\":1584:1593   */\n      dup4\n        /* \"#utility.yul\":1580:1597   */\n      add\n        /* \"#utility.yul\":1571:1577   */\n      dup5\n        /* \"#utility.yul\":1527:1598   */\n      tag_206\n      jump\t// in\n    tag_252:\n        /* \"#utility.yul\":1383:1605   */\n      swap3\n      swap2\n      pop\n      pop\n      jump\t// out\n        /* \"#utility.yul\":1611:1733   */\n    tag_207:\n        /* \"#utility.yul\":1684:1708   */\n      tag_254\n        /* \"#utility.yul\":1702:1707   */\n      dup2\n        /* \"#utility.yul\":1684:1708   */\n      tag_205\n      jump\t// in\n    tag_254:\n        /* \"#utility.yul\":1677:1682   */\n      dup2\n        /* \"#utility.yul\":1674:1709   */\n      eq\n        /* \"#utility.yul\":1664:1727   */\n      tag_255\n      jumpi\n        /* \"#utility.yul\":1723:1724   */\n      0x00\n        /* \"#utility.yul\":1720:1721   */\n      dup1\n        /* \"#utility.yul\":1713:1725   */\n      revert\n        /* \"#utility.yul\":1664:1727   */\n    tag_255:\n        /* \"#utility.yul\":1611:1733   */\n      pop\n      jump\t// out\n        /* \"#utility.yul\":1739:1878   */\n    tag_208:\n        /* \"#utility.yul\":1785:1790   */\n      0x00\n        /* \"#utility.yul\":1823:1829   */\n      dup2\n        /* \"#utility.yul\":1810:1830   */\n      calldataload\n        /* \"#utility.yul\":1801:1830   */\n      swap1\n      pop\n        /* \"#utility.yul\":1839:1872   */\n      tag_257\n        /* \"#utility.yul\":1866:1871   */\n      dup2\n        /* \"#utility.yul\":1839:1872   */\n      tag_207\n      jump\t// in\n    tag_257:\n        /* \"#utility.yul\":1739:1878   */\n      swap3\n      swap2\n      pop\n      pop\n      jump\t// out\n        /* \"#utility.yul\":1884:2213   */\n    tag_44:\n        /* \"#utility.yul\":1943:1949   */\n      0x00\n        /* \"#utility.yul\":1992:1994   */\n      0x20\n        /* \"#utility.yul\":1980:1989   */\n      dup3\n        /* \"#utility.yul\":1971:1978   */\n      dup5\n        /* \"#utility.yul\":1967:1990   */\n      sub\n        /* \"#utility.yul\":1963:1995   */\n      slt\n        /* \"#utility.yul\":1960:2079   */\n      iszero\n      tag_259\n      jumpi\n        /* \"#utility.yul\":1998:2077   */\n      tag_260\n      tag_199\n      jump\t// in\n    tag_260:\n        /* \"#utility.yul\":1960:2079   */\n    tag_259:\n        /* \"#utility.yul\":2118:2119   */\n      0x00\n        /* \"#utility.yul\":2143:2196   */\n      tag_261\n        /* \"#utility.yul\":2188:2195   */\n      dup5\n        /* \"#utility.yul\":2179:2185   */\n      dup3\n        /* \"#utility.yul\":2168:2177   */\n      dup6\n        /* \"#utility.yul\":2164:2186   */\n      add\n        /* \"#utility.yul\":2143:2196   */\n      tag_208\n      jump\t// in\n    tag_261:\n        /* \"#utility.yul\":2133:2196   */\n      swap2\n      pop\n        /* \"#utility.yul\":2089:2206   */\n      pop\n        /* \"#utility.yul\":1884:2213   */\n      swap3\n      swap2\n      pop\n      pop\n      jump\t// out\n        /* \"#utility.yul\":2219:2279   */\n    tag_209:\n        /* \"#utility.yul\":2247:2250   */\n      0x00\n        /* \"#utility.yul\":2268:2273   */\n      dup2\n        /* \"#utility.yul\":2261:2273   */\n      swap1\n      pop\n        /* \"#utility.yul\":2219:2279   */\n      swap2\n      swap1\n      pop\n      jump\t// out\n        /* \"#utility.yul\":2285:2427   */\n    tag_210:\n        /* \"#utility.yul\":2335:2344   */\n      0x00\n        /* \"#utility.yul\":2368:2421   */\n      tag_264\n        /* \"#utility.yul\":2386:2420   */\n      tag_265\n        /* \"#utility.yul\":2395:2419   */\n      tag_266\n        /* \"#utility.yul\":2413:2418   */\n      dup5\n        /* \"#utility.yul\":2395:2419   */\n      tag_201\n      jump\t// in\n    tag_266:\n        /* \"#utility.yul\":2386:2420   */\n      tag_209\n      jump\t// in\n    tag_265:\n        /* \"#utility.yul\":2368:2421   */\n      tag_201\n      jump\t// in\n    tag_264:\n        /* \"#utility.yul\":2355:2421   */\n      swap1\n      pop\n        /* \"#utility.yul\":2285:2427   */\n      swap2\n      swap1\n      pop\n      jump\t// out\n        /* \"#utility.yul\":2433:2559   */\n    tag_211:\n        /* \"#utility.yul\":2483:2492   */\n      0x00\n        /* \"#utility.yul\":2516:2553   */\n      tag_268\n        /* \"#utility.yul\":2547:2552   */\n      dup3\n        /* \"#utility.yul\":2516:2553   */\n      tag_210\n      jump\t// in\n    tag_268:\n        /* \"#utility.yul\":2503:2553   */\n      swap1\n      pop\n        /* \"#utility.yul\":2433:2559   */\n      swap2\n      swap1\n      pop\n      jump\t// out\n        /* \"#utility.yul\":2565:2704   */\n    tag_212:\n        /* \"#utility.yul\":2628:2637   */\n      0x00\n        /* \"#utility.yul\":2661:2698   */\n      tag_270\n        /* \"#utility.yul\":2692:2697   */\n      dup3\n        /* \"#utility.yul\":2661:2698   */\n      tag_211\n      jump\t// in\n    tag_270:\n        /* \"#utility.yul\":2648:2698   */\n      swap1\n      pop\n        /* \"#utility.yul\":2565:2704   */\n      swap2\n      swap1\n      pop\n      jump\t// out\n        /* \"#utility.yul\":2710:2867   */\n    tag_213:\n        /* \"#utility.yul\":2810:2860   */\n      tag_272\n        /* \"#utility.yul\":2854:2859   */\n      dup2\n        /* \"#utility.yul\":2810:2860   */\n      tag_212\n      jump\t// in\n    tag_272:\n        /* \"#utility.yul\":2805:2808   */\n      dup3\n        /* \"#utility.yul\":2798:2861   */\n      mstore\n        /* \"#utility.yul\":2710:2867   */\n      pop\n      pop\n      jump\t// out\n        /* \"#utility.yul\":2873:3121   */\n    tag_61:\n        /* \"#utility.yul\":2979:2983   */\n      0x00\n        /* \"#utility.yul\":3017:3019   */\n      0x20\n        /* \"#utility.yul\":3006:3015   */\n      dup3\n        /* \"#utility.yul\":3002:3020   */\n      add\n        /* \"#utility.yul\":2994:3020   */\n      swap1\n      pop\n        /* \"#utility.yul\":3030:3114   */\n      tag_274\n        /* \"#utility.yul\":3111:3112   */\n      0x00\n        /* \"#utility.yul\":3100:3109   */\n      dup4\n        /* \"#utility.yul\":3096:3113   */\n      add\n        /* \"#utility.yul\":3087:3093   */\n      dup5\n        /* \"#utility.yul\":3030:3114   */\n      tag_213\n      jump\t// in\n    tag_274:\n        /* \"#utility.yul\":2873:3121   */\n      swap3\n      swap2\n      pop\n      pop\n      jump\t// out\n        /* \"#utility.yul\":3127:3245   */\n    tag_214:\n        /* \"#utility.yul\":3214:3238   */\n      tag_276\n        /* \"#utility.yul\":3232:3237   */\n      dup2\n        /* \"#utility.yul\":3214:3238   */\n      tag_202\n      jump\t// in\n    tag_276:\n        /* \"#utility.yul\":3209:3212   */\n      dup3\n        /* \"#utility.yul\":3202:3239   */\n      mstore\n        /* \"#utility.yul\":3127:3245   */\n      pop\n      pop\n      jump\t// out\n        /* \"#utility.yul\":3251:3473   */\n    tag_78:\n        /* \"#utility.yul\":3344:3348   */\n      0x00\n        /* \"#utility.yul\":3382:3384   */\n      0x20\n        /* \"#utility.yul\":3371:3380   */\n      dup3\n        /* \"#utility.yul\":3367:3385   */\n      add\n        /* \"#utility.yul\":3359:3385   */\n      swap1\n      pop\n        /* \"#utility.yul\":3395:3466   */\n      tag_278\n        /* \"#utility.yul\":3463:3464   */\n      0x00\n        /* \"#utility.yul\":3452:3461   */\n      dup4\n        /* \"#utility.yul\":3448:3465   */\n      add\n        /* \"#utility.yul\":3439:3445   */\n      dup5\n        /* \"#utility.yul\":3395:3466   */\n      tag_214\n      jump\t// in\n    tag_278:\n        /* \"#utility.yul\":3251:3473   */\n      swap3\n      swap2\n      pop\n      pop\n      jump\t// out\n        /* \"#utility.yul\":3479:3659   */\n    tag_215:\n        /* \"#utility.yul\":3527:3604   */\n      0x4e487b7100000000000000000000000000000000000000000000000000000000\n        /* \"#utility.yul\":3524:3525   */\n      0x00\n        /* \"#utility.yul\":3517:3605   */\n      mstore\n        /* \"#utility.yul\":3624:3628   */\n      0x11\n        /* \"#utility.yul\":3621:3622   */\n      0x04\n        /* \"#utility.yul\":3614:3629   */\n      mstore\n        /* \"#utility.yul\":3648:3652   */\n      0x24\n        /* \"#utility.yul\":3645:3646   */\n      0x00\n        /* \"#utility.yul\":3638:3653   */\n      revert\n        /* \"#utility.yul\":3665:3859   */\n    tag_97:\n        /* \"#utility.yul\":3705:3709   */\n      0x00\n        /* \"#utility.yul\":3725:3745   */\n      tag_281\n        /* \"#utility.yul\":3743:3744   */\n      dup3\n        /* \"#utility.yul\":3725:3745   */\n      tag_205\n      jump\t// in\n    tag_281:\n        /* \"#utility.yul\":3720:3745   */\n      swap2\n      pop\n        /* \"#utility.yul\":3759:3779   */\n      tag_282\n        /* \"#utility.yul\":3777:3778   */\n      dup4\n        /* \"#utility.yul\":3759:3779   */\n      tag_205\n      jump\t// in\n    tag_282:\n        /* \"#utility.yul\":3754:3779   */\n      swap3\n      pop\n        /* \"#utility.yul\":3803:3804   */\n      dup3\n        /* \"#utility.yul\":3800:3801   */\n      dup3\n        /* \"#utility.yul\":3796:3805   */\n      sub\n        /* \"#utility.yul\":3788:3805   */\n      swap1\n      pop\n        /* \"#utility.yul\":3827:3828   */\n      dup2\n        /* \"#utility.yul\":3821:3825   */\n      dup2\n        /* \"#utility.yul\":3818:3829   */\n      gt\n        /* \"#utility.yul\":3815:3852   */\n      iszero\n      tag_283\n      jumpi\n        /* \"#utility.yul\":3832:3850   */\n      tag_284\n      tag_215\n      jump\t// in\n    tag_284:\n        /* \"#utility.yul\":3815:3852   */\n    tag_283:\n        /* \"#utility.yul\":3665:3859   */\n      swap3\n      swap2\n      pop\n      pop\n      jump\t// out\n        /* \"#utility.yul\":3865:4275   */\n    tag_99:\n        /* \"#utility.yul\":3905:3912   */\n      0x00\n        /* \"#utility.yul\":3928:3948   */\n      tag_286\n        /* \"#utility.yul\":3946:3947   */\n      dup3\n        /* \"#utility.yul\":3928:3948   */\n      tag_205\n      jump\t// in\n    tag_286:\n        /* \"#utility.yul\":3923:3948   */\n      swap2\n      pop\n        /* \"#utility.yul\":3962:3982   */\n      tag_287\n        /* \"#utility.yul\":3980:3981   */\n      dup4\n        /* \"#utility.yul\":3962:3982   */\n      tag_205\n      jump\t// in\n    tag_287:\n        /* \"#utility.yul\":3957:3982   */\n      swap3\n      pop\n        /* \"#utility.yul\":4017:4018   */\n      dup3\n        /* \"#utility.yul\":4014:4015   */\n      dup3\n        /* \"#utility.yul\":4010:4019   */\n      mul\n        /* \"#utility.yul\":4039:4069   */\n      tag_288\n        /* \"#utility.yul\":4057:4068   */\n      dup2\n        /* \"#utility.yul\":4039:4069   */\n      tag_205\n      jump\t// in\n    tag_288:\n        /* \"#utility.yul\":4028:4069   */\n      swap2\n      pop\n        /* \"#utility.yul\":4218:4219   */\n      dup3\n        /* \"#utility.yul\":4209:4216   */\n      dup3\n        /* \"#utility.yul\":4205:4220   */\n      div\n        /* \"#utility.yul\":4202:4203   */\n      dup5\n        /* \"#utility.yul\":4199:4221   */\n      eq\n        /* \"#utility.yul\":4179:4180   */\n      dup4\n        /* \"#utility.yul\":4172:4181   */\n      iszero\n        /* \"#utility.yul\":4152:4235   */\n      or\n        /* \"#utility.yul\":4129:4268   */\n      tag_289\n      jumpi\n        /* \"#utility.yul\":4248:4266   */\n      tag_290\n      tag_215\n      jump\t// in\n    tag_290:\n        /* \"#utility.yul\":4129:4268   */\n    tag_289:\n        /* \"#utility.yul\":3913:4275   */\n      pop\n        /* \"#utility.yul\":3865:4275   */\n      swap3\n      swap2\n      pop\n      pop\n      jump\t// out\n        /* \"#utility.yul\":4281:4461   */\n    tag_216:\n        /* \"#utility.yul\":4329:4406   */\n      0x4e487b7100000000000000000000000000000000000000000000000000000000\n        /* \"#utility.yul\":4326:4327   */\n      0x00\n        /* \"#utility.yul\":4319:4407   */\n      mstore\n        /* \"#utility.yul\":4426:4430   */\n      0x12\n        /* \"#utility.yul\":4423:4424   */\n      0x04\n        /* \"#utility.yul\":4416:4431   */\n      mstore\n        /* \"#utility.yul\":4450:4454   */\n      0x24\n        /* \"#utility.yul\":4447:4448   */\n      0x00\n        /* \"#utility.yul\":4440:4455   */\n      revert\n        /* \"#utility.yul\":4467:4652   */\n    tag_101:\n        /* \"#utility.yul\":4507:4508   */\n      0x00\n        /* \"#utility.yul\":4524:4544   */\n      tag_293\n        /* \"#utility.yul\":4542:4543   */\n      dup3\n        /* \"#utility.yul\":4524:4544   */\n      tag_205\n      jump\t// in\n    tag_293:\n        /* \"#utility.yul\":4519:4544   */\n      swap2\n      pop\n        /* \"#utility.yul\":4558:4578   */\n      tag_294\n        /* \"#utility.yul\":4576:4577   */\n      dup4\n        /* \"#utility.yul\":4558:4578   */\n      tag_205\n      jump\t// in\n    tag_294:\n        /* \"#utility.yul\":4553:4578   */\n      swap3\n      pop\n        /* \"#utility.yul\":4597:4598   */\n      dup3\n        /* \"#utility.yul\":4587:4622   */\n      tag_295\n      jumpi\n        /* \"#utility.yul\":4602:4620   */\n      tag_296\n      tag_216\n      jump\t// in\n    tag_296:\n        /* \"#utility.yul\":4587:4622   */\n    tag_295:\n        /* \"#utility.yul\":4644:4645   */\n      dup3\n        /* \"#utility.yul\":4641:4642   */\n      dup3\n        /* \"#utility.yul\":4637:4646   */\n      div\n        /* \"#utility.yul\":4632:4646   */\n      swap1\n      pop\n        /* \"#utility.yul\":4467:4652   */\n      swap3\n      swap2\n      pop\n      pop\n      jump\t// out\n        /* \"#utility.yul\":4658:4849   */\n    tag_103:\n        /* \"#utility.yul\":4698:4701   */\n      0x00\n        /* \"#utility.yul\":4717:4737   */\n      tag_298\n        /* \"#utility.yul\":4735:4736   */\n      dup3\n        /* \"#utility.yul\":4717:4737   */\n      tag_205\n      jump\t// in\n    tag_298:\n        /* \"#utility.yul\":4712:4737   */\n      swap2\n      pop\n        /* \"#utility.yul\":4751:4771   */\n      tag_299\n        /* \"#utility.yul\":4769:4770   */\n      dup4\n        /* \"#utility.yul\":4751:4771   */\n      tag_205\n      jump\t// in\n    tag_299:\n        /* \"#utility.yul\":4746:4771   */\n      swap3\n      pop\n        /* \"#utility.yul\":4794:4795   */\n      dup3\n        /* \"#utility.yul\":4791:4792   */\n      dup3\n        /* \"#utility.yul\":4787:4796   */\n      add\n        /* \"#utility.yul\":4780:4796   */\n      swap1\n      pop\n        /* \"#utility.yul\":4815:4818   */\n      dup1\n        /* \"#utility.yul\":4812:4813   */\n      dup3\n        /* \"#utility.yul\":4809:4819   */\n      gt\n        /* \"#utility.yul\":4806:4842   */\n      iszero\n      tag_300\n      jumpi\n        /* \"#utility.yul\":4822:4840   */\n      tag_301\n      tag_215\n      jump\t// in\n    tag_301:\n        /* \"#utility.yul\":4806:4842   */\n    tag_300:\n        /* \"#utility.yul\":4658:4849   */\n      swap3\n      swap2\n      pop\n      pop\n      jump\t// out\n        /* \"#utility.yul\":4855:5024   */\n    tag_217:\n        /* \"#utility.yul\":4939:4950   */\n      0x00\n        /* \"#utility.yul\":4973:4979   */\n      dup3\n        /* \"#utility.yul\":4968:4971   */\n      dup3\n        /* \"#utility.yul\":4961:4980   */\n      mstore\n        /* \"#utility.yul\":5013:5017   */\n      0x20\n        /* \"#utility.yul\":5008:5011   */\n      dup3\n        /* \"#utility.yul\":5004:5018   */\n      add\n        /* \"#utility.yul\":4989:5018   */\n      swap1\n      pop\n        /* \"#utility.yul\":4855:5024   */\n      swap3\n      swap2\n      pop\n      pop\n      jump\t// out\n        /* \"#utility.yul\":5030:5190   */\n    tag_218:\n        /* \"#utility.yul\":5170:5182   */\n      0x616d6f756e74203d203000000000000000000000000000000000000000000000\n        /* \"#utility.yul\":5166:5167   */\n      0x00\n        /* \"#utility.yul\":5158:5164   */\n      dup3\n        /* \"#utility.yul\":5154:5168   */\n      add\n        /* \"#utility.yul\":5147:5183   */\n      mstore\n        /* \"#utility.yul\":5030:5190   */\n      pop\n      jump\t// out\n        /* \"#utility.yul\":5196:5562   */\n    tag_219:\n        /* \"#utility.yul\":5338:5341   */\n      0x00\n        /* \"#utility.yul\":5359:5426   */\n      tag_305\n        /* \"#utility.yul\":5423:5425   */\n      0x0a\n        /* \"#utility.yul\":5418:5421   */\n      dup4\n        /* \"#utility.yul\":5359:5426   */\n      tag_217\n      jump\t// in\n    tag_305:\n        /* \"#utility.yul\":5352:5426   */\n      swap2\n      pop\n        /* \"#utility.yul\":5435:5528   */\n      tag_306\n        /* \"#utility.yul\":5524:5527   */\n      dup3\n        /* \"#utility.yul\":5435:5528   */\n      tag_218\n      jump\t// in\n    tag_306:\n        /* \"#utility.yul\":5553:5555   */\n      0x20\n        /* \"#utility.yul\":5548:5551   */\n      dup3\n        /* \"#utility.yul\":5544:5556   */\n      add\n        /* \"#utility.yul\":5537:5556   */\n      swap1\n      pop\n        /* \"#utility.yul\":5196:5562   */\n      swap2\n      swap1\n      pop\n      jump\t// out\n        /* \"#utility.yul\":5568:5987   */\n    tag_112:\n        /* \"#utility.yul\":5734:5738   */\n      0x00\n        /* \"#utility.yul\":5772:5774   */\n      0x20\n        /* \"#utility.yul\":5761:5770   */\n      dup3\n        /* \"#utility.yul\":5757:5775   */\n      add\n        /* \"#utility.yul\":5749:5775   */\n      swap1\n      pop\n        /* \"#utility.yul\":5821:5830   */\n      dup2\n        /* \"#utility.yul\":5815:5819   */\n      dup2\n        /* \"#utility.yul\":5811:5831   */\n      sub\n        /* \"#utility.yul\":5807:5808   */\n      0x00\n        /* \"#utility.yul\":5796:5805   */\n      dup4\n        /* \"#utility.yul\":5792:5809   */\n      add\n        /* \"#utility.yul\":5785:5832   */\n      mstore\n        /* \"#utility.yul\":5849:5980   */\n      tag_308\n        /* \"#utility.yul\":5975:5979   */\n      dup2\n        /* \"#utility.yul\":5849:5980   */\n      tag_219\n      jump\t// in\n    tag_308:\n        /* \"#utility.yul\":5841:5980   */\n      swap1\n      pop\n        /* \"#utility.yul\":5568:5987   */\n      swap2\n      swap1\n      pop\n      jump\t// out\n        /* \"#utility.yul\":5993:6325   */\n    tag_116:\n        /* \"#utility.yul\":6114:6118   */\n      0x00\n        /* \"#utility.yul\":6152:6154   */\n      0x40\n        /* \"#utility.yul\":6141:6150   */\n      dup3\n        /* \"#utility.yul\":6137:6155   */\n      add\n        /* \"#utility.yul\":6129:6155   */\n      swap1\n      pop\n        /* \"#utility.yul\":6165:6236   */\n      tag_310\n        /* \"#utility.yul\":6233:6234   */\n      0x00\n        /* \"#utility.yul\":6222:6231   */\n      dup4\n        /* \"#utility.yul\":6218:6235   */\n      add\n        /* \"#utility.yul\":6209:6215   */\n      dup6\n        /* \"#utility.yul\":6165:6236   */\n      tag_214\n      jump\t// in\n    tag_310:\n        /* \"#utility.yul\":6246:6318   */\n      tag_311\n        /* \"#utility.yul\":6314:6316   */\n      0x20\n        /* \"#utility.yul\":6303:6312   */\n      dup4\n        /* \"#utility.yul\":6299:6317   */\n      add\n        /* \"#utility.yul\":6290:6296   */\n      dup5\n        /* \"#utility.yul\":6246:6318   */\n      tag_206\n      jump\t// in\n    tag_311:\n        /* \"#utility.yul\":5993:6325   */\n      swap4\n      swap3\n      pop\n      pop\n      pop\n      jump\t// out\n        /* \"#utility.yul\":6331:6421   */\n    tag_220:\n        /* \"#utility.yul\":6365:6372   */\n      0x00\n        /* \"#utility.yul\":6408:6413   */\n      dup2\n        /* \"#utility.yul\":6401:6414   */\n      iszero\n        /* \"#utility.yul\":6394:6415   */\n      iszero\n        /* \"#utility.yul\":6383:6415   */\n      swap1\n      pop\n        /* \"#utility.yul\":6331:6421   */\n      swap2\n      swap1\n      pop\n      jump\t// out\n        /* \"#utility.yul\":6427:6543   */\n    tag_221:\n        /* \"#utility.yul\":6497:6518   */\n      tag_314\n        /* \"#utility.yul\":6512:6517   */\n      dup2\n        /* \"#utility.yul\":6497:6518   */\n      tag_220\n      jump\t// in\n    tag_314:\n        /* \"#utility.yul\":6490:6495   */\n      dup2\n        /* \"#utility.yul\":6487:6519   */\n      eq\n        /* \"#utility.yul\":6477:6537   */\n      tag_315\n      jumpi\n        /* \"#utility.yul\":6533:6534   */\n      0x00\n        /* \"#utility.yul\":6530:6531   */\n      dup1\n        /* \"#utility.yul\":6523:6535   */\n      revert\n        /* \"#utility.yul\":6477:6537   */\n    tag_315:\n        /* \"#utility.yul\":6427:6543   */\n      pop\n      jump\t// out\n        /* \"#utility.yul\":6549:6686   */\n    tag_222:\n        /* \"#utility.yul\":6603:6608   */\n      0x00\n        /* \"#utility.yul\":6634:6640   */\n      dup2\n        /* \"#utility.yul\":6628:6641   */\n      mload\n        /* \"#utility.yul\":6619:6641   */\n      swap1\n      pop\n        /* \"#utility.yul\":6650:6680   */\n      tag_317\n        /* \"#utility.yul\":6674:6679   */\n      dup2\n        /* \"#utility.yul\":6650:6680   */\n      tag_221\n      jump\t// in\n    tag_317:\n        /* \"#utility.yul\":6549:6686   */\n      swap3\n      swap2\n      pop\n      pop\n      jump\t// out\n        /* \"#utility.yul\":6692:7037   */\n    tag_120:\n        /* \"#utility.yul\":6759:6765   */\n      0x00\n        /* \"#utility.yul\":6808:6810   */\n      0x20\n        /* \"#utility.yul\":6796:6805   */\n      dup3\n        /* \"#utility.yul\":6787:6794   */\n      dup5\n        /* \"#utility.yul\":6783:6806   */\n      sub\n        /* \"#utility.yul\":6779:6811   */\n      slt\n        /* \"#utility.yul\":6776:6895   */\n      iszero\n      tag_319\n      jumpi\n        /* \"#utility.yul\":6814:6893   */\n      tag_320\n      tag_199\n      jump\t// in\n    tag_320:\n        /* \"#utility.yul\":6776:6895   */\n    tag_319:\n        /* \"#utility.yul\":6934:6935   */\n      0x00\n        /* \"#utility.yul\":6959:7020   */\n      tag_321\n        /* \"#utility.yul\":7012:7019   */\n      dup5\n        /* \"#utility.yul\":7003:7009   */\n      dup3\n        /* \"#utility.yul\":6992:7001   */\n      dup6\n        /* \"#utility.yul\":6988:7010   */\n      add\n        /* \"#utility.yul\":6959:7020   */\n      tag_222\n      jump\t// in\n    tag_321:\n        /* \"#utility.yul\":6949:7020   */\n      swap2\n      pop\n        /* \"#utility.yul\":6905:7030   */\n      pop\n        /* \"#utility.yul\":6692:7037   */\n      swap3\n      swap2\n      pop\n      pop\n      jump\t// out\n        /* \"#utility.yul\":7043:7202   */\n    tag_223:\n        /* \"#utility.yul\":7183:7194   */\n      0x4e6f74204f776e65720000000000000000000000000000000000000000000000\n        /* \"#utility.yul\":7179:7180   */\n      0x00\n        /* \"#utility.yul\":7171:7177   */\n      dup3\n        /* \"#utility.yul\":7167:7181   */\n      add\n        /* \"#utility.yul\":7160:7195   */\n      mstore\n        /* \"#utility.yul\":7043:7202   */\n      pop\n      jump\t// out\n        /* \"#utility.yul\":7208:7573   */\n    tag_224:\n        /* \"#utility.yul\":7350:7353   */\n      0x00\n        /* \"#utility.yul\":7371:7437   */\n      tag_324\n        /* \"#utility.yul\":7435:7436   */\n      0x09\n        /* \"#utility.yul\":7430:7433   */\n      dup4\n        /* \"#utility.yul\":7371:7437   */\n      tag_217\n      jump\t// in\n    tag_324:\n        /* \"#utility.yul\":7364:7437   */\n      swap2\n      pop\n        /* \"#utility.yul\":7446:7539   */\n      tag_325\n        /* \"#utility.yul\":7535:7538   */\n      dup3\n        /* \"#utility.yul\":7446:7539   */\n      tag_223\n      jump\t// in\n    tag_325:\n        /* \"#utility.yul\":7564:7566   */\n      0x20\n        /* \"#utility.yul\":7559:7562   */\n      dup3\n        /* \"#utility.yul\":7555:7567   */\n      add\n        /* \"#utility.yul\":7548:7567   */\n      swap1\n      pop\n        /* \"#utility.yul\":7208:7573   */\n      swap2\n      swap1\n      pop\n      jump\t// out\n        /* \"#utility.yul\":7579:7998   */\n    tag_124:\n        /* \"#utility.yul\":7745:7749   */\n      0x00\n        /* \"#utility.yul\":7783:7785   */\n      0x20\n        /* \"#utility.yul\":7772:7781   */\n      dup3\n        /* \"#utility.yul\":7768:7786   */\n      add\n        /* \"#utility.yul\":7760:7786   */\n      swap1\n      pop\n        /* \"#utility.yul\":7832:7841   */\n      dup2\n        /* \"#utility.yul\":7826:7830   */\n      dup2\n        /* \"#utility.yul\":7822:7842   */\n      sub\n        /* \"#utility.yul\":7818:7819   */\n      0x00\n        /* \"#utility.yul\":7807:7816   */\n      dup4\n        /* \"#utility.yul\":7803:7820   */\n      add\n        /* \"#utility.yul\":7796:7843   */\n      mstore\n        /* \"#utility.yul\":7860:7991   */\n      tag_327\n        /* \"#utility.yul\":7986:7990   */\n      dup2\n        /* \"#utility.yul\":7860:7991   */\n      tag_224\n      jump\t// in\n    tag_327:\n        /* \"#utility.yul\":7852:7991   */\n      swap1\n      pop\n        /* \"#utility.yul\":7579:7998   */\n      swap2\n      swap1\n      pop\n      jump\t// out\n        /* \"#utility.yul\":8004:8169   */\n    tag_225:\n        /* \"#utility.yul\":8144:8161   */\n      0x7265776172642072617465203d20300000000000000000000000000000000000\n        /* \"#utility.yul\":8140:8141   */\n      0x00\n        /* \"#utility.yul\":8132:8138   */\n      dup3\n        /* \"#utility.yul\":8128:8142   */\n      add\n        /* \"#utility.yul\":8121:8162   */\n      mstore\n        /* \"#utility.yul\":8004:8169   */\n      pop\n      jump\t// out\n        /* \"#utility.yul\":8175:8541   */\n    tag_226:\n        /* \"#utility.yul\":8317:8320   */\n      0x00\n        /* \"#utility.yul\":8338:8405   */\n      tag_330\n        /* \"#utility.yul\":8402:8404   */\n      0x0f\n        /* \"#utility.yul\":8397:8400   */\n      dup4\n        /* \"#utility.yul\":8338:8405   */\n      tag_217\n      jump\t// in\n    tag_330:\n        /* \"#utility.yul\":8331:8405   */\n      swap2\n      pop\n        /* \"#utility.yul\":8414:8507   */\n      tag_331\n        /* \"#utility.yul\":8503:8506   */\n      dup3\n        /* \"#utility.yul\":8414:8507   */\n      tag_225\n      jump\t// in\n    tag_331:\n        /* \"#utility.yul\":8532:8534   */\n      0x20\n        /* \"#utility.yul\":8527:8530   */\n      dup3\n        /* \"#utility.yul\":8523:8535   */\n      add\n        /* \"#utility.yul\":8516:8535   */\n      swap1\n      pop\n        /* \"#utility.yul\":8175:8541   */\n      swap2\n      swap1\n      pop\n      jump\t// out\n        /* \"#utility.yul\":8547:8966   */\n    tag_140:\n        /* \"#utility.yul\":8713:8717   */\n      0x00\n        /* \"#utility.yul\":8751:8753   */\n      0x20\n        /* \"#utility.yul\":8740:8749   */\n      dup3\n        /* \"#utility.yul\":8736:8754   */\n      add\n        /* \"#utility.yul\":8728:8754   */\n      swap1\n      pop\n        /* \"#utility.yul\":8800:8809   */\n      dup2\n        /* \"#utility.yul\":8794:8798   */\n      dup2\n        /* \"#utility.yul\":8790:8810   */\n      sub\n        /* \"#utility.yul\":8786:8787   */\n      0x00\n        /* \"#utility.yul\":8775:8784   */\n      dup4\n        /* \"#utility.yul\":8771:8788   */\n      add\n        /* \"#utility.yul\":8764:8811   */\n      mstore\n        /* \"#utility.yul\":8828:8959   */\n      tag_333\n        /* \"#utility.yul\":8954:8958   */\n      dup2\n        /* \"#utility.yul\":8828:8959   */\n      tag_226\n      jump\t// in\n    tag_333:\n        /* \"#utility.yul\":8820:8959   */\n      swap1\n      pop\n        /* \"#utility.yul\":8547:8966   */\n      swap2\n      swap1\n      pop\n      jump\t// out\n        /* \"#utility.yul\":8972:9115   */\n    tag_227:\n        /* \"#utility.yul\":9029:9034   */\n      0x00\n        /* \"#utility.yul\":9060:9066   */\n      dup2\n        /* \"#utility.yul\":9054:9067   */\n      mload\n        /* \"#utility.yul\":9045:9067   */\n      swap1\n      pop\n        /* \"#utility.yul\":9076:9109   */\n      tag_335\n        /* \"#utility.yul\":9103:9108   */\n      dup2\n        /* \"#utility.yul\":9076:9109   */\n      tag_207\n      jump\t// in\n    tag_335:\n        /* \"#utility.yul\":8972:9115   */\n      swap3\n      swap2\n      pop\n      pop\n      jump\t// out\n        /* \"#utility.yul\":9121:9472   */\n    tag_145:\n        /* \"#utility.yul\":9191:9197   */\n      0x00\n        /* \"#utility.yul\":9240:9242   */\n      0x20\n        /* \"#utility.yul\":9228:9237   */\n      dup3\n        /* \"#utility.yul\":9219:9226   */\n      dup5\n        /* \"#utility.yul\":9215:9238   */\n      sub\n        /* \"#utility.yul\":9211:9243   */\n      slt\n        /* \"#utility.yul\":9208:9327   */\n      iszero\n      tag_337\n      jumpi\n        /* \"#utility.yul\":9246:9325   */\n      tag_338\n      tag_199\n      jump\t// in\n    tag_338:\n        /* \"#utility.yul\":9208:9327   */\n    tag_337:\n        /* \"#utility.yul\":9366:9367   */\n      0x00\n        /* \"#utility.yul\":9391:9455   */\n      tag_339\n        /* \"#utility.yul\":9447:9454   */\n      dup5\n        /* \"#utility.yul\":9438:9444   */\n      dup3\n        /* \"#utility.yul\":9427:9436   */\n      dup6\n        /* \"#utility.yul\":9423:9445   */\n      add\n        /* \"#utility.yul\":9391:9455   */\n      tag_227\n      jump\t// in\n    tag_339:\n        /* \"#utility.yul\":9381:9455   */\n      swap2\n      pop\n        /* \"#utility.yul\":9337:9465   */\n      pop\n        /* \"#utility.yul\":9121:9472   */\n      swap3\n      swap2\n      pop\n      pop\n      jump\t// out\n        /* \"#utility.yul\":9478:9651   */\n    tag_228:\n        /* \"#utility.yul\":9618:9643   */\n      0x72657761726420616d6f756e74203e2062616c616e6365000000000000000000\n        /* \"#utility.yul\":9614:9615   */\n      0x00\n        /* \"#utility.yul\":9606:9612   */\n      dup3\n        /* \"#utility.yul\":9602:9616   */\n      add\n        /* \"#utility.yul\":9595:9644   */\n      mstore\n        /* \"#utility.yul\":9478:9651   */\n      pop\n      jump\t// out\n        /* \"#utility.yul\":9657:10023   */\n    tag_229:\n        /* \"#utility.yul\":9799:9802   */\n      0x00\n        /* \"#utility.yul\":9820:9887   */\n      tag_342\n        /* \"#utility.yul\":9884:9886   */\n      0x17\n        /* \"#utility.yul\":9879:9882   */\n      dup4\n        /* \"#utility.yul\":9820:9887   */\n      tag_217\n      jump\t// in\n    tag_342:\n        /* \"#utility.yul\":9813:9887   */\n      swap2\n      pop\n        /* \"#utility.yul\":9896:9989   */\n      tag_343\n        /* \"#utility.yul\":9985:9988   */\n      dup3\n        /* \"#utility.yul\":9896:9989   */\n      tag_228\n      jump\t// in\n    tag_343:\n        /* \"#utility.yul\":10014:10016   */\n      0x20\n        /* \"#utility.yul\":10009:10012   */\n      dup3\n        /* \"#utility.yul\":10005:10017   */\n      add\n        /* \"#utility.yul\":9998:10017   */\n      swap1\n      pop\n        /* \"#utility.yul\":9657:10023   */\n      swap2\n      swap1\n      pop\n      jump\t// out\n        /* \"#utility.yul\":10029:10448   */\n    tag_149:\n        /* \"#utility.yul\":10195:10199   */\n      0x00\n        /* \"#utility.yul\":10233:10235   */\n      0x20\n        /* \"#utility.yul\":10222:10231   */\n      dup3\n        /* \"#utility.yul\":10218:10236   */\n      add\n        /* \"#utility.yul\":10210:10236   */\n      swap1\n      pop\n        /* \"#utility.yul\":10282:10291   */\n      dup2\n        /* \"#utility.yul\":10276:10280   */\n      dup2\n        /* \"#utility.yul\":10272:10292   */\n      sub\n        /* \"#utility.yul\":10268:10269   */\n      0x00\n        /* \"#utility.yul\":10257:10266   */\n      dup4\n        /* \"#utility.yul\":10253:10270   */\n      add\n        /* \"#utility.yul\":10246:10293   */\n      mstore\n        /* \"#utility.yul\":10310:10441   */\n      tag_345\n        /* \"#utility.yul\":10436:10440   */\n      dup2\n        /* \"#utility.yul\":10310:10441   */\n      tag_229\n      jump\t// in\n    tag_345:\n        /* \"#utility.yul\":10302:10441   */\n      swap1\n      pop\n        /* \"#utility.yul\":10029:10448   */\n      swap2\n      swap1\n      pop\n      jump\t// out\n        /* \"#utility.yul\":10454:10896   */\n    tag_174:\n        /* \"#utility.yul\":10603:10607   */\n      0x00\n        /* \"#utility.yul\":10641:10643   */\n      0x60\n        /* \"#utility.yul\":10630:10639   */\n      dup3\n        /* \"#utility.yul\":10626:10644   */\n      add\n        /* \"#utility.yul\":10618:10644   */\n      swap1\n      pop\n        /* \"#utility.yul\":10654:10725   */\n      tag_347\n        /* \"#utility.yul\":10722:10723   */\n      0x00\n        /* \"#utility.yul\":10711:10720   */\n      dup4\n        /* \"#utility.yul\":10707:10724   */\n      add\n        /* \"#utility.yul\":10698:10704   */\n      dup7\n        /* \"#utility.yul\":10654:10725   */\n      tag_214\n      jump\t// in\n    tag_347:\n        /* \"#utility.yul\":10735:10807   */\n      tag_348\n        /* \"#utility.yul\":10803:10805   */\n      0x20\n        /* \"#utility.yul\":10792:10801   */\n      dup4\n        /* \"#utility.yul\":10788:10806   */\n      add\n        /* \"#utility.yul\":10779:10785   */\n      dup6\n        /* \"#utility.yul\":10735:10807   */\n      tag_214\n      jump\t// in\n    tag_348:\n        /* \"#utility.yul\":10817:10889   */\n      tag_349\n        /* \"#utility.yul\":10885:10887   */\n      0x40\n        /* \"#utility.yul\":10874:10883   */\n      dup4\n        /* \"#utility.yul\":10870:10888   */\n      add\n        /* \"#utility.yul\":10861:10867   */\n      dup5\n        /* \"#utility.yul\":10817:10889   */\n      tag_206\n      jump\t// in\n    tag_349:\n        /* \"#utility.yul\":10454:10896   */\n      swap5\n      swap4\n      pop\n      pop\n      pop\n      pop\n      jump\t// out\n        /* \"#utility.yul\":10902:11080   */\n    tag_230:\n        /* \"#utility.yul\":11042:11072   */\n      0x726577617264206475726174696f6e206e6f742066696e697368656400000000\n        /* \"#utility.yul\":11038:11039   */\n      0x00\n        /* \"#utility.yul\":11030:11036   */\n      dup3\n        /* \"#utility.yul\":11026:11040   */\n      add\n        /* \"#utility.yul\":11019:11073   */\n      mstore\n        /* \"#utility.yul\":10902:11080   */\n      pop\n      jump\t// out\n        /* \"#utility.yul\":11086:11452   */\n    tag_231:\n        /* \"#utility.yul\":11228:11231   */\n      0x00\n        /* \"#utility.yul\":11249:11316   */\n      tag_352\n        /* \"#utility.yul\":11313:11315   */\n      0x1c\n        /* \"#utility.yul\":11308:11311   */\n      dup4\n        /* \"#utility.yul\":11249:11316   */\n      tag_217\n      jump\t// in\n    tag_352:\n        /* \"#utility.yul\":11242:11316   */\n      swap2\n      pop\n        /* \"#utility.yul\":11325:11418   */\n      tag_353\n        /* \"#utility.yul\":11414:11417   */\n      dup3\n        /* \"#utility.yul\":11325:11418   */\n      tag_230\n      jump\t// in\n    tag_353:\n        /* \"#utility.yul\":11443:11445   */\n      0x20\n        /* \"#utility.yul\":11438:11441   */\n      dup3\n        /* \"#utility.yul\":11434:11446   */\n      add\n        /* \"#utility.yul\":11427:11446   */\n      swap1\n      pop\n        /* \"#utility.yul\":11086:11452   */\n      swap2\n      swap1\n      pop\n      jump\t// out\n        /* \"#utility.yul\":11458:11877   */\n    tag_186:\n        /* \"#utility.yul\":11624:11628   */\n      0x00\n        /* \"#utility.yul\":11662:11664   */\n      0x20\n        /* \"#utility.yul\":11651:11660   */\n      dup3\n        /* \"#utility.yul\":11647:11665   */\n      add\n        /* \"#utility.yul\":11639:11665   */\n      swap1\n      pop\n        /* \"#utility.yul\":11711:11720   */\n      dup2\n        /* \"#utility.yul\":11705:11709   */\n      dup2\n        /* \"#utility.yul\":11701:11721   */\n      sub\n        /* \"#utility.yul\":11697:11698   */\n      0x00\n        /* \"#utility.yul\":11686:11695   */\n      dup4\n        /* \"#utility.yul\":11682:11699   */\n      add\n        /* \"#utility.yul\":11675:11722   */\n      mstore\n        /* \"#utility.yul\":11739:11870   */\n      tag_355\n        /* \"#utility.yul\":11865:11869   */\n      dup2\n        /* \"#utility.yul\":11739:11870   */\n      tag_231\n      jump\t// in\n    tag_355:\n        /* \"#utility.yul\":11731:11870   */\n      swap1\n      pop\n        /* \"#utility.yul\":11458:11877   */\n      swap2\n      swap1\n      pop\n      jump\t// out\n\n    auxdata: 0xa2646970667358221220727bf654b33fb07b496379e228b584d44bdd3f3c352aa4b496193d9e4274469264736f6c634300081a0033\n}\n",
				"bytecode": {
					"linkReferences": {},
					"object": "60c060405234801561000f575f80fd5b506040516118453803806118458339818101604052810190610031919061013d565b335f806101000a81548173ffffffffffffffffffffffffffffffffffffffff021916908373ffffffffffffffffffffffffffffffffffffffff1602179055508173ffffffffffffffffffffffffffffffffffffffff1660808173ffffffffffffffffffffffffffffffffffffffff16815250508073ffffffffffffffffffffffffffffffffffffffff1660a08173ffffffffffffffffffffffffffffffffffffffff1681525050505061017b565b5f80fd5b5f73ffffffffffffffffffffffffffffffffffffffff82169050919050565b5f61010c826100e3565b9050919050565b61011c81610102565b8114610126575f80fd5b50565b5f8151905061013781610113565b92915050565b5f8060408385031215610153576101526100df565b5b5f61016085828601610129565b925050602061017185828601610129565b9150509250929050565b60805160a05161168d6101b85f395f818161090d01528181610b7f015261102701525f818161065b01528181610c3b0152610dd6015261168d5ff3fe608060405234801561000f575f80fd5b5060043610610129575f3560e01c80637519ab50116100ab578063a694fc3a1161006f578063a694fc3a1461031f578063c0ed00c91461033b578063cd3daf9d14610357578063d1af0c7d14610375578063df136d651461039357610129565b80637519ab50146102775780637b0a47ee1461029557806380faa57d146102b35780638b876347146102d15780638da5cb5b1461030157610129565b80633c6b16ab116100f25780633c6b16ab146101e55780633d18b9121461020157806367d3b4881461020b57806370a082311461022957806372f702f31461025957610129565b80628cc2621461012d5780630700037d1461015d5780630fb5a6b41461018d57806318160ddd146101ab5780632e1a7d4d146101c9575b5f80fd5b610147600480360381019061014291906110c6565b6103b1565b6040516101549190611109565b60405180910390f35b610177600480360381019061017291906110c6565b6104ac565b6040516101849190611109565b60405180910390f35b6101956104c1565b6040516101a29190611109565b60405180910390f35b6101b36104c7565b6040516101c09190611109565b60405180910390f35b6101e360048036038101906101de919061114c565b6104cd565b005b6101ff60048036038101906101fa919061114c565b6106f9565b005b610209610a13565b005b610213610c1e565b6040516102209190611109565b60405180910390f35b610243600480360381019061023e91906110c6565b610c24565b6040516102509190611109565b60405180910390f35b610261610c39565b60405161026e91906111d2565b60405180910390f35b61027f610c5d565b60405161028c9190611109565b60405180910390f35b61029d610c63565b6040516102aa9190611109565b60405180910390f35b6102bb610c69565b6040516102c89190611109565b60405180910390f35b6102eb60048036038101906102e691906110c6565b610c7b565b6040516102f89190611109565b60405180910390f35b610309610c90565b60405161031691906111fa565b60405180910390f35b6103396004803603810190610334919061114c565b610cb3565b005b6103556004803603810190610350919061114c565b610ee1565b005b61035f610fbc565b60405161036c9190611109565b60405180910390f35b61037d611025565b60405161038a91906111d2565b60405180910390f35b61039b611049565b6040516103a89190611109565b60405180910390f35b5f60075f8373ffffffffffffffffffffffffffffffffffffffff1673ffffffffffffffffffffffffffffffffffffffff1681526020019081526020015f2054670de0b6b3a764000060065f8573ffffffffffffffffffffffffffffffffffffffff1673ffffffffffffffffffffffffffffffffffffffff1681526020019081526020015f205461043f610fbc565b6104499190611240565b60085f8673ffffffffffffffffffffffffffffffffffffffff1673ffffffffffffffffffffffffffffffffffffffff1681526020019081526020015f20546104919190611273565b61049b91906112e1565b6104a59190611311565b9050919050565b6007602052805f5260405f205f915090505481565b60015481565b60095481565b336104d6610fbc565b6005819055506104e4610c69565b6003819055505f73ffffffffffffffffffffffffffffffffffffffff168173ffffffffffffffffffffffffffffffffffffffff16146105ac57610526816103b1565b60075f8373ffffffffffffffffffffffffffffffffffffffff1673ffffffffffffffffffffffffffffffffffffffff1681526020019081526020015f208190555060055460065f8373ffffffffffffffffffffffffffffffffffffffff1673ffffffffffffffffffffffffffffffffffffffff1681526020019081526020015f20819055505b5f82116105ee576040517f08c379a00000000000000000000000000000000000000000000000000000000081526004016105e59061139e565b60405180910390fd5b8160085f3373ffffffffffffffffffffffffffffffffffffffff1673ffffffffffffffffffffffffffffffffffffffff1681526020019081526020015f205f82825461063a9190611240565b925050819055508160095f8282546106529190611240565b925050819055507f000000000000000000000000000000000000000000000000000000000000000073ffffffffffffffffffffffffffffffffffffffff1663a9059cbb33846040518363ffffffff1660e01b81526004016106b49291906113bc565b6020604051808303815f875af11580156106d0573d5f803e3d5ffd5b505050506040513d601f19601f820116820180604052508101906106f49190611418565b505050565b5f8054906101000a900473ffffffffffffffffffffffffffffffffffffffff1673ffffffffffffffffffffffffffffffffffffffff163373ffffffffffffffffffffffffffffffffffffffff1614610786576040517f08c379a000000000000000000000000000000000000000000000000000000000815260040161077d9061148d565b60405180910390fd5b5f61078f610fbc565b60058190555061079d610c69565b6003819055505f73ffffffffffffffffffffffffffffffffffffffff168173ffffffffffffffffffffffffffffffffffffffff1614610865576107df816103b1565b60075f8373ffffffffffffffffffffffffffffffffffffffff1673ffffffffffffffffffffffffffffffffffffffff1681526020019081526020015f208190555060055460065f8373ffffffffffffffffffffffffffffffffffffffff1673ffffffffffffffffffffffffffffffffffffffff1681526020019081526020015f20819055505b600254421115610888576001548261087d91906112e1565b6004819055506108c7565b5f426002546108979190611240565b6004546108a49190611273565b905060015483826108b59190611311565b6108bf91906112e1565b600481905550505b5f6004541161090b576040517f08c379a0000000000000000000000000000000000000000000000000000000008152600401610902906114f5565b60405180910390fd5b7f000000000000000000000000000000000000000000000000000000000000000073ffffffffffffffffffffffffffffffffffffffff166370a08231306040518263ffffffff1660e01b815260040161096491906111fa565b602060405180830381865afa15801561097f573d5f803e3d5ffd5b505050506040513d601f19601f820116820180604052508101906109a39190611527565b6001546004546109b39190611273565b11156109f4576040517f08c379a00000000000000000000000000000000000000000000000000000000081526004016109eb9061159c565b60405180910390fd5b60015442610a029190611311565b600281905550426003819055505050565b33610a1c610fbc565b600581905550610a2a610c69565b6003819055505f73ffffffffffffffffffffffffffffffffffffffff168173ffffffffffffffffffffffffffffffffffffffff1614610af257610a6c816103b1565b60075f8373ffffffffffffffffffffffffffffffffffffffff1673ffffffffffffffffffffffffffffffffffffffff1681526020019081526020015f208190555060055460065f8373ffffffffffffffffffffffffffffffffffffffff1673ffffffffffffffffffffffffffffffffffffffff1681526020019081526020015f20819055505b5f60075f3373ffffffffffffffffffffffffffffffffffffffff1673ffffffffffffffffffffffffffffffffffffffff1681526020019081526020015f205490505f811115610c1a575f60075f3373ffffffffffffffffffffffffffffffffffffffff1673ffffffffffffffffffffffffffffffffffffffff1681526020019081526020015f20819055507f000000000000000000000000000000000000000000000000000000000000000073ffffffffffffffffffffffffffffffffffffffff1663a9059cbb33836040518363ffffffff1660e01b8152600401610bd89291906113bc565b6020604051808303815f875af1158015610bf4573d5f803e3d5ffd5b505050506040513d601f19601f82011682018060405250810190610c189190611418565b505b5050565b60025481565b6008602052805f5260405f205f915090505481565b7f000000000000000000000000000000000000000000000000000000000000000081565b60035481565b60045481565b5f610c764260025461104f565b905090565b6006602052805f5260405f205f915090505481565b5f8054906101000a900473ffffffffffffffffffffffffffffffffffffffff1681565b33610cbc610fbc565b600581905550610cca610c69565b6003819055505f73ffffffffffffffffffffffffffffffffffffffff168173ffffffffffffffffffffffffffffffffffffffff1614610d9257610d0c816103b1565b60075f8373ffffffffffffffffffffffffffffffffffffffff1673ffffffffffffffffffffffffffffffffffffffff1681526020019081526020015f208190555060055460065f8373ffffffffffffffffffffffffffffffffffffffff1673ffffffffffffffffffffffffffffffffffffffff1681526020019081526020015f20819055505b5f8211610dd4576040517f08c379a0000000000000000000000000000000000000000000000000000000008152600401610dcb9061139e565b60405180910390fd5b7f000000000000000000000000000000000000000000000000000000000000000073ffffffffffffffffffffffffffffffffffffffff166323b872dd3330856040518463ffffffff1660e01b8152600401610e31939291906115ba565b6020604051808303815f875af1158015610e4d573d5f803e3d5ffd5b505050506040513d601f19601f82011682018060405250810190610e719190611418565b508160085f3373ffffffffffffffffffffffffffffffffffffffff1673ffffffffffffffffffffffffffffffffffffffff1681526020019081526020015f205f828254610ebe9190611311565b925050819055508160095f828254610ed69190611311565b925050819055505050565b5f8054906101000a900473ffffffffffffffffffffffffffffffffffffffff1673ffffffffffffffffffffffffffffffffffffffff163373ffffffffffffffffffffffffffffffffffffffff1614610f6e576040517f08c379a0000000000000000000000000000000000000000000000000000000008152600401610f659061148d565b60405180910390fd5b4260025410610fb2576040517f08c379a0000000000000000000000000000000000000000000000000000000008152600401610fa990611639565b60405180910390fd5b8060018190555050565b5f8060095403610fd0576005549050611022565b600954670de0b6b3a7640000600354610fe7610c69565b610ff19190611240565b600454610ffe9190611273565b6110089190611273565b61101291906112e1565b60055461101f9190611311565b90505b90565b7f000000000000000000000000000000000000000000000000000000000000000081565b60055481565b5f8183111561105e5781611060565b825b905092915050565b5f80fd5b5f73ffffffffffffffffffffffffffffffffffffffff82169050919050565b5f6110958261106c565b9050919050565b6110a58161108b565b81146110af575f80fd5b50565b5f813590506110c08161109c565b92915050565b5f602082840312156110db576110da611068565b5b5f6110e8848285016110b2565b91505092915050565b5f819050919050565b611103816110f1565b82525050565b5f60208201905061111c5f8301846110fa565b92915050565b61112b816110f1565b8114611135575f80fd5b50565b5f8135905061114681611122565b92915050565b5f6020828403121561116157611160611068565b5b5f61116e84828501611138565b91505092915050565b5f819050919050565b5f61119a6111956111908461106c565b611177565b61106c565b9050919050565b5f6111ab82611180565b9050919050565b5f6111bc826111a1565b9050919050565b6111cc816111b2565b82525050565b5f6020820190506111e55f8301846111c3565b92915050565b6111f48161108b565b82525050565b5f60208201905061120d5f8301846111eb565b92915050565b7f4e487b71000000000000000000000000000000000000000000000000000000005f52601160045260245ffd5b5f61124a826110f1565b9150611255836110f1565b925082820390508181111561126d5761126c611213565b5b92915050565b5f61127d826110f1565b9150611288836110f1565b9250828202611296816110f1565b915082820484148315176112ad576112ac611213565b5b5092915050565b7f4e487b71000000000000000000000000000000000000000000000000000000005f52601260045260245ffd5b5f6112eb826110f1565b91506112f6836110f1565b925082611306576113056112b4565b5b828204905092915050565b5f61131b826110f1565b9150611326836110f1565b925082820190508082111561133e5761133d611213565b5b92915050565b5f82825260208201905092915050565b7f616d6f756e74203d2030000000000000000000000000000000000000000000005f82015250565b5f611388600a83611344565b915061139382611354565b602082019050919050565b5f6020820190508181035f8301526113b58161137c565b9050919050565b5f6040820190506113cf5f8301856111eb565b6113dc60208301846110fa565b9392505050565b5f8115159050919050565b6113f7816113e3565b8114611401575f80fd5b50565b5f81519050611412816113ee565b92915050565b5f6020828403121561142d5761142c611068565b5b5f61143a84828501611404565b91505092915050565b7f4e6f74204f776e657200000000000000000000000000000000000000000000005f82015250565b5f611477600983611344565b915061148282611443565b602082019050919050565b5f6020820190508181035f8301526114a48161146b565b9050919050565b7f7265776172642072617465203d203000000000000000000000000000000000005f82015250565b5f6114df600f83611344565b91506114ea826114ab565b602082019050919050565b5f6020820190508181035f83015261150c816114d3565b9050919050565b5f8151905061152181611122565b92915050565b5f6020828403121561153c5761153b611068565b5b5f61154984828501611513565b91505092915050565b7f72657761726420616d6f756e74203e2062616c616e63650000000000000000005f82015250565b5f611586601783611344565b915061159182611552565b602082019050919050565b5f6020820190508181035f8301526115b38161157a565b9050919050565b5f6060820190506115cd5f8301866111eb565b6115da60208301856111eb565b6115e760408301846110fa565b949350505050565b7f726577617264206475726174696f6e206e6f742066696e6973686564000000005f82015250565b5f611623601c83611344565b915061162e826115ef565b602082019050919050565b5f6020820190508181035f83015261165081611617565b905091905056fea2646970667358221220727bf654b33fb07b496379e228b584d44bdd3f3c352aa4b496193d9e4274469264736f6c634300081a0033",
					"opcodes": "PUSH1 0xC0 PUSH1 0x40 MSTORE CALLVALUE DUP1 ISZERO PUSH2 0xF JUMPI PUSH0 DUP1 REVERT JUMPDEST POP PUSH1 0x40 MLOAD PUSH2 0x1845 CODESIZE SUB DUP1 PUSH2 0x1845 DUP4 CODECOPY DUP2 DUP2 ADD PUSH1 0x40 MSTORE DUP2 ADD SWAP1 PUSH2 0x31 SWAP2 SWAP1 PUSH2 0x13D JUMP JUMPDEST CALLER PUSH0 DUP1 PUSH2 0x100 EXP DUP2 SLOAD DUP2 PUSH20 0xFFFFFFFFFFFFFFFFFFFFFFFFFFFFFFFFFFFFFFFF MUL NOT AND SWAP1 DUP4 PUSH20 0xFFFFFFFFFFFFFFFFFFFFFFFFFFFFFFFFFFFFFFFF AND MUL OR SWAP1 SSTORE POP DUP2 PUSH20 0xFFFFFFFFFFFFFFFFFFFFFFFFFFFFFFFFFFFFFFFF AND PUSH1 0x80 DUP2 PUSH20 0xFFFFFFFFFFFFFFFFFFFFFFFFFFFFFFFFFFFFFFFF AND DUP2 MSTORE POP POP DUP1 PUSH20 0xFFFFFFFFFFFFFFFFFFFFFFFFFFFFFFFFFFFFFFFF AND PUSH1 0xA0 DUP2 PUSH20 0xFFFFFFFFFFFFFFFFFFFFFFFFFFFFFFFFFFFFFFFF AND DUP2 MSTORE POP POP POP POP PUSH2 0x17B JUMP JUMPDEST PUSH0 DUP1 REVERT JUMPDEST PUSH0 PUSH20 0xFFFFFFFFFFFFFFFFFFFFFFFFFFFFFFFFFFFFFFFF DUP3 AND SWAP1 POP SWAP2 SWAP1 POP JUMP JUMPDEST PUSH0 PUSH2 0x10C DUP3 PUSH2 0xE3 JUMP JUMPDEST SWAP1 POP SWAP2 SWAP1 POP JUMP JUMPDEST PUSH2 0x11C DUP2 PUSH2 0x102 JUMP JUMPDEST DUP2 EQ PUSH2 0x126 JUMPI PUSH0 DUP1 REVERT JUMPDEST POP JUMP JUMPDEST PUSH0 DUP2 MLOAD SWAP1 POP PUSH2 0x137 DUP2 PUSH2 0x113 JUMP JUMPDEST SWAP3 SWAP2 POP POP JUMP JUMPDEST PUSH0 DUP1 PUSH1 0x40 DUP4 DUP6 SUB SLT ISZERO PUSH2 0x153 JUMPI PUSH2 0x152 PUSH2 0xDF JUMP JUMPDEST JUMPDEST PUSH0 PUSH2 0x160 DUP6 DUP3 DUP7 ADD PUSH2 0x129 JUMP JUMPDEST SWAP3 POP POP PUSH1 0x20 PUSH2 0x171 DUP6 DUP3 DUP7 ADD PUSH2 0x129 JUMP JUMPDEST SWAP2 POP POP SWAP3 POP SWAP3 SWAP1 POP JUMP JUMPDEST PUSH1 0x80 MLOAD PUSH1 0xA0 MLOAD PUSH2 0x168D PUSH2 0x1B8 PUSH0 CODECOPY PUSH0 DUP2 DUP2 PUSH2 0x90D ADD MSTORE DUP2 DUP2 PUSH2 0xB7F ADD MSTORE PUSH2 0x1027 ADD MSTORE PUSH0 DUP2 DUP2 PUSH2 0x65B ADD MSTORE DUP2 DUP2 PUSH2 0xC3B ADD MSTORE PUSH2 0xDD6 ADD MSTORE PUSH2 0x168D PUSH0 RETURN INVALID PUSH1 0x80 PUSH1 0x40 MSTORE CALLVALUE DUP1 ISZERO PUSH2 0xF JUMPI PUSH0 DUP1 REVERT JUMPDEST POP PUSH1 0x4 CALLDATASIZE LT PUSH2 0x129 JUMPI PUSH0 CALLDATALOAD PUSH1 0xE0 SHR DUP1 PUSH4 0x7519AB50 GT PUSH2 0xAB JUMPI DUP1 PUSH4 0xA694FC3A GT PUSH2 0x6F JUMPI DUP1 PUSH4 0xA694FC3A EQ PUSH2 0x31F JUMPI DUP1 PUSH4 0xC0ED00C9 EQ PUSH2 0x33B JUMPI DUP1 PUSH4 0xCD3DAF9D EQ PUSH2 0x357 JUMPI DUP1 PUSH4 0xD1AF0C7D EQ PUSH2 0x375 JUMPI DUP1 PUSH4 0xDF136D65 EQ PUSH2 0x393 JUMPI PUSH2 0x129 JUMP JUMPDEST DUP1 PUSH4 0x7519AB50 EQ PUSH2 0x277 JUMPI DUP1 PUSH4 0x7B0A47EE EQ PUSH2 0x295 JUMPI DUP1 PUSH4 0x80FAA57D EQ PUSH2 0x2B3 JUMPI DUP1 PUSH4 0x8B876347 EQ PUSH2 0x2D1 JUMPI DUP1 PUSH4 0x8DA5CB5B EQ PUSH2 0x301 JUMPI PUSH2 0x129 JUMP JUMPDEST DUP1 PUSH4 0x3C6B16AB GT PUSH2 0xF2 JUMPI DUP1 PUSH4 0x3C6B16AB EQ PUSH2 0x1E5 JUMPI DUP1 PUSH4 0x3D18B912 EQ PUSH2 0x201 JUMPI DUP1 PUSH4 0x67D3B488 EQ PUSH2 0x20B JUMPI DUP1 PUSH4 0x70A08231 EQ PUSH2 0x229 JUMPI DUP1 PUSH4 0x72F702F3 EQ PUSH2 0x259 JUMPI PUSH2 0x129 JUMP JUMPDEST DUP1 PUSH3 0x8CC262 EQ PUSH2 0x12D JUMPI DUP1 PUSH4 0x700037D EQ PUSH2 0x15D JUMPI DUP1 PUSH4 0xFB5A6B4 EQ PUSH2 0x18D JUMPI DUP1 PUSH4 0x18160DDD EQ PUSH2 0x1AB JUMPI DUP1 PUSH4 0x2E1A7D4D EQ PUSH2 0x1C9 JUMPI JUMPDEST PUSH0 DUP1 REVERT JUMPDEST PUSH2 0x147 PUSH1 0x4 DUP1 CALLDATASIZE SUB DUP2 ADD SWAP1 PUSH2 0x142 SWAP2 SWAP1 PUSH2 0x10C6 JUMP JUMPDEST PUSH2 0x3B1 JUMP JUMPDEST PUSH1 0x40 MLOAD PUSH2 0x154 SWAP2 SWAP1 PUSH2 0x1109 JUMP JUMPDEST PUSH1 0x40 MLOAD DUP1 SWAP2 SUB SWAP1 RETURN JUMPDEST PUSH2 0x177 PUSH1 0x4 DUP1 CALLDATASIZE SUB DUP2 ADD SWAP1 PUSH2 0x172 SWAP2 SWAP1 PUSH2 0x10C6 JUMP JUMPDEST PUSH2 0x4AC JUMP JUMPDEST PUSH1 0x40 MLOAD PUSH2 0x184 SWAP2 SWAP1 PUSH2 0x1109 JUMP JUMPDEST PUSH1 0x40 MLOAD DUP1 SWAP2 SUB SWAP1 RETURN JUMPDEST PUSH2 0x195 PUSH2 0x4C1 JUMP JUMPDEST PUSH1 0x40 MLOAD PUSH2 0x1A2 SWAP2 SWAP1 PUSH2 0x1109 JUMP JUMPDEST PUSH1 0x40 MLOAD DUP1 SWAP2 SUB SWAP1 RETURN JUMPDEST PUSH2 0x1B3 PUSH2 0x4C7 JUMP JUMPDEST PUSH1 0x40 MLOAD PUSH2 0x1C0 SWAP2 SWAP1 PUSH2 0x1109 JUMP JUMPDEST PUSH1 0x40 MLOAD DUP1 SWAP2 SUB SWAP1 RETURN JUMPDEST PUSH2 0x1E3 PUSH1 0x4 DUP1 CALLDATASIZE SUB DUP2 ADD SWAP1 PUSH2 0x1DE SWAP2 SWAP1 PUSH2 0x114C JUMP JUMPDEST PUSH2 0x4CD JUMP JUMPDEST STOP JUMPDEST PUSH2 0x1FF PUSH1 0x4 DUP1 CALLDATASIZE SUB DUP2 ADD SWAP1 PUSH2 0x1FA SWAP2 SWAP1 PUSH2 0x114C JUMP JUMPDEST PUSH2 0x6F9 JUMP JUMPDEST STOP JUMPDEST PUSH2 0x209 PUSH2 0xA13 JUMP JUMPDEST STOP JUMPDEST PUSH2 0x213 PUSH2 0xC1E JUMP JUMPDEST PUSH1 0x40 MLOAD PUSH2 0x220 SWAP2 SWAP1 PUSH2 0x1109 JUMP JUMPDEST PUSH1 0x40 MLOAD DUP1 SWAP2 SUB SWAP1 RETURN JUMPDEST PUSH2 0x243 PUSH1 0x4 DUP1 CALLDATASIZE SUB DUP2 ADD SWAP1 PUSH2 0x23E SWAP2 SWAP1 PUSH2 0x10C6 JUMP JUMPDEST PUSH2 0xC24 JUMP JUMPDEST PUSH1 0x40 MLOAD PUSH2 0x250 SWAP2 SWAP1 PUSH2 0x1109 JUMP JUMPDEST PUSH1 0x40 MLOAD DUP1 SWAP2 SUB SWAP1 RETURN JUMPDEST PUSH2 0x261 PUSH2 0xC39 JUMP JUMPDEST PUSH1 0x40 MLOAD PUSH2 0x26E SWAP2 SWAP1 PUSH2 0x11D2 JUMP JUMPDEST PUSH1 0x40 MLOAD DUP1 SWAP2 SUB SWAP1 RETURN JUMPDEST PUSH2 0x27F PUSH2 0xC5D JUMP JUMPDEST PUSH1 0x40 MLOAD PUSH2 0x28C SWAP2 SWAP1 PUSH2 0x1109 JUMP JUMPDEST PUSH1 0x40 MLOAD DUP1 SWAP2 SUB SWAP1 RETURN JUMPDEST PUSH2 0x29D PUSH2 0xC63 JUMP JUMPDEST PUSH1 0x40 MLOAD PUSH2 0x2AA SWAP2 SWAP1 PUSH2 0x1109 JUMP JUMPDEST PUSH1 0x40 MLOAD DUP1 SWAP2 SUB SWAP1 RETURN JUMPDEST PUSH2 0x2BB PUSH2 0xC69 JUMP JUMPDEST PUSH1 0x40 MLOAD PUSH2 0x2C8 SWAP2 SWAP1 PUSH2 0x1109 JUMP JUMPDEST PUSH1 0x40 MLOAD DUP1 SWAP2 SUB SWAP1 RETURN JUMPDEST PUSH2 0x2EB PUSH1 0x4 DUP1 CALLDATASIZE SUB DUP2 ADD SWAP1 PUSH2 0x2E6 SWAP2 SWAP1 PUSH2 0x10C6 JUMP JUMPDEST PUSH2 0xC7B JUMP JUMPDEST PUSH1 0x40 MLOAD PUSH2 0x2F8 SWAP2 SWAP1 PUSH2 0x1109 JUMP JUMPDEST PUSH1 0x40 MLOAD DUP1 SWAP2 SUB SWAP1 RETURN JUMPDEST PUSH2 0x309 PUSH2 0xC90 JUMP JUMPDEST PUSH1 0x40 MLOAD PUSH2 0x316 SWAP2 SWAP1 PUSH2 0x11FA JUMP JUMPDEST PUSH1 0x40 MLOAD DUP1 SWAP2 SUB SWAP1 RETURN JUMPDEST PUSH2 0x339 PUSH1 0x4 DUP1 CALLDATASIZE SUB DUP2 ADD SWAP1 PUSH2 0x334 SWAP2 SWAP1 PUSH2 0x114C JUMP JUMPDEST PUSH2 0xCB3 JUMP JUMPDEST STOP JUMPDEST PUSH2 0x355 PUSH1 0x4 DUP1 CALLDATASIZE SUB DUP2 ADD SWAP1 PUSH2 0x350 SWAP2 SWAP1 PUSH2 0x114C JUMP JUMPDEST PUSH2 0xEE1 JUMP JUMPDEST STOP JUMPDEST PUSH2 0x35F PUSH2 0xFBC JUMP JUMPDEST PUSH1 0x40 MLOAD PUSH2 0x36C SWAP2 SWAP1 PUSH2 0x1109 JUMP JUMPDEST PUSH1 0x40 MLOAD DUP1 SWAP2 SUB SWAP1 RETURN JUMPDEST PUSH2 0x37D PUSH2 0x1025 JUMP JUMPDEST PUSH1 0x40 MLOAD PUSH2 0x38A SWAP2 SWAP1 PUSH2 0x11D2 JUMP JUMPDEST PUSH1 0x40 MLOAD DUP1 SWAP2 SUB SWAP1 RETURN JUMPDEST PUSH2 0x39B PUSH2 0x1049 JUMP JUMPDEST PUSH1 0x40 MLOAD PUSH2 0x3A8 SWAP2 SWAP1 PUSH2 0x1109 JUMP JUMPDEST PUSH1 0x40 MLOAD DUP1 SWAP2 SUB SWAP1 RETURN JUMPDEST PUSH0 PUSH1 0x7 PUSH0 DUP4 PUSH20 0xFFFFFFFFFFFFFFFFFFFFFFFFFFFFFFFFFFFFFFFF AND PUSH20 0xFFFFFFFFFFFFFFFFFFFFFFFFFFFFFFFFFFFFFFFF AND DUP2 MSTORE PUSH1 0x20 ADD SWAP1 DUP2 MSTORE PUSH1 0x20 ADD PUSH0 KECCAK256 SLOAD PUSH8 0xDE0B6B3A7640000 PUSH1 0x6 PUSH0 DUP6 PUSH20 0xFFFFFFFFFFFFFFFFFFFFFFFFFFFFFFFFFFFFFFFF AND PUSH20 0xFFFFFFFFFFFFFFFFFFFFFFFFFFFFFFFFFFFFFFFF AND DUP2 MSTORE PUSH1 0x20 ADD SWAP1 DUP2 MSTORE PUSH1 0x20 ADD PUSH0 KECCAK256 SLOAD PUSH2 0x43F PUSH2 0xFBC JUMP JUMPDEST PUSH2 0x449 SWAP2 SWAP1 PUSH2 0x1240 JUMP JUMPDEST PUSH1 0x8 PUSH0 DUP7 PUSH20 0xFFFFFFFFFFFFFFFFFFFFFFFFFFFFFFFFFFFFFFFF AND PUSH20 0xFFFFFFFFFFFFFFFFFFFFFFFFFFFFFFFFFFFFFFFF AND DUP2 MSTORE PUSH1 0x20 ADD SWAP1 DUP2 MSTORE PUSH1 0x20 ADD PUSH0 KECCAK256 SLOAD PUSH2 0x491 SWAP2 SWAP1 PUSH2 0x1273 JUMP JUMPDEST PUSH2 0x49B SWAP2 SWAP1 PUSH2 0x12E1 JUMP JUMPDEST PUSH2 0x4A5 SWAP2 SWAP1 PUSH2 0x1311 JUMP JUMPDEST SWAP1 POP SWAP2 SWAP1 POP JUMP JUMPDEST PUSH1 0x7 PUSH1 0x20 MSTORE DUP1 PUSH0 MSTORE PUSH1 0x40 PUSH0 KECCAK256 PUSH0 SWAP2 POP SWAP1 POP SLOAD DUP2 JUMP JUMPDEST PUSH1 0x1 SLOAD DUP2 JUMP JUMPDEST PUSH1 0x9 SLOAD DUP2 JUMP JUMPDEST CALLER PUSH2 0x4D6 PUSH2 0xFBC JUMP JUMPDEST PUSH1 0x5 DUP2 SWAP1 SSTORE POP PUSH2 0x4E4 PUSH2 0xC69 JUMP JUMPDEST PUSH1 0x3 DUP2 SWAP1 SSTORE POP PUSH0 PUSH20 0xFFFFFFFFFFFFFFFFFFFFFFFFFFFFFFFFFFFFFFFF AND DUP2 PUSH20 0xFFFFFFFFFFFFFFFFFFFFFFFFFFFFFFFFFFFFFFFF AND EQ PUSH2 0x5AC JUMPI PUSH2 0x526 DUP2 PUSH2 0x3B1 JUMP JUMPDEST PUSH1 0x7 PUSH0 DUP4 PUSH20 0xFFFFFFFFFFFFFFFFFFFFFFFFFFFFFFFFFFFFFFFF AND PUSH20 0xFFFFFFFFFFFFFFFFFFFFFFFFFFFFFFFFFFFFFFFF AND DUP2 MSTORE PUSH1 0x20 ADD SWAP1 DUP2 MSTORE PUSH1 0x20 ADD PUSH0 KECCAK256 DUP2 SWAP1 SSTORE POP PUSH1 0x5 SLOAD PUSH1 0x6 PUSH0 DUP4 PUSH20 0xFFFFFFFFFFFFFFFFFFFFFFFFFFFFFFFFFFFFFFFF AND PUSH20 0xFFFFFFFFFFFFFFFFFFFFFFFFFFFFFFFFFFFFFFFF AND DUP2 MSTORE PUSH1 0x20 ADD SWAP1 DUP2 MSTORE PUSH1 0x20 ADD PUSH0 KECCAK256 DUP2 SWAP1 SSTORE POP JUMPDEST PUSH0 DUP3 GT PUSH2 0x5EE JUMPI PUSH1 0x40 MLOAD PUSH32 0x8C379A000000000000000000000000000000000000000000000000000000000 DUP2 MSTORE PUSH1 0x4 ADD PUSH2 0x5E5 SWAP1 PUSH2 0x139E JUMP JUMPDEST PUSH1 0x40 MLOAD DUP1 SWAP2 SUB SWAP1 REVERT JUMPDEST DUP2 PUSH1 0x8 PUSH0 CALLER PUSH20 0xFFFFFFFFFFFFFFFFFFFFFFFFFFFFFFFFFFFFFFFF AND PUSH20 0xFFFFFFFFFFFFFFFFFFFFFFFFFFFFFFFFFFFFFFFF AND DUP2 MSTORE PUSH1 0x20 ADD SWAP1 DUP2 MSTORE PUSH1 0x20 ADD PUSH0 KECCAK256 PUSH0 DUP3 DUP3 SLOAD PUSH2 0x63A SWAP2 SWAP1 PUSH2 0x1240 JUMP JUMPDEST SWAP3 POP POP DUP2 SWAP1 SSTORE POP DUP2 PUSH1 0x9 PUSH0 DUP3 DUP3 SLOAD PUSH2 0x652 SWAP2 SWAP1 PUSH2 0x1240 JUMP JUMPDEST SWAP3 POP POP DUP2 SWAP1 SSTORE POP PUSH32 0x0 PUSH20 0xFFFFFFFFFFFFFFFFFFFFFFFFFFFFFFFFFFFFFFFF AND PUSH4 0xA9059CBB CALLER DUP5 PUSH1 0x40 MLOAD DUP4 PUSH4 0xFFFFFFFF AND PUSH1 0xE0 SHL DUP2 MSTORE PUSH1 0x4 ADD PUSH2 0x6B4 SWAP3 SWAP2 SWAP1 PUSH2 0x13BC JUMP JUMPDEST PUSH1 0x20 PUSH1 0x40 MLOAD DUP1 DUP4 SUB DUP2 PUSH0 DUP8 GAS CALL ISZERO DUP1 ISZERO PUSH2 0x6D0 JUMPI RETURNDATASIZE PUSH0 DUP1 RETURNDATACOPY RETURNDATASIZE PUSH0 REVERT JUMPDEST POP POP POP POP PUSH1 0x40 MLOAD RETURNDATASIZE PUSH1 0x1F NOT PUSH1 0x1F DUP3 ADD AND DUP3 ADD DUP1 PUSH1 0x40 MSTORE POP DUP2 ADD SWAP1 PUSH2 0x6F4 SWAP2 SWAP1 PUSH2 0x1418 JUMP JUMPDEST POP POP POP JUMP JUMPDEST PUSH0 DUP1 SLOAD SWAP1 PUSH2 0x100 EXP SWAP1 DIV PUSH20 0xFFFFFFFFFFFFFFFFFFFFFFFFFFFFFFFFFFFFFFFF AND PUSH20 0xFFFFFFFFFFFFFFFFFFFFFFFFFFFFFFFFFFFFFFFF AND CALLER PUSH20 0xFFFFFFFFFFFFFFFFFFFFFFFFFFFFFFFFFFFFFFFF AND EQ PUSH2 0x786 JUMPI PUSH1 0x40 MLOAD PUSH32 0x8C379A000000000000000000000000000000000000000000000000000000000 DUP2 MSTORE PUSH1 0x4 ADD PUSH2 0x77D SWAP1 PUSH2 0x148D JUMP JUMPDEST PUSH1 0x40 MLOAD DUP1 SWAP2 SUB SWAP1 REVERT JUMPDEST PUSH0 PUSH2 0x78F PUSH2 0xFBC JUMP JUMPDEST PUSH1 0x5 DUP2 SWAP1 SSTORE POP PUSH2 0x79D PUSH2 0xC69 JUMP JUMPDEST PUSH1 0x3 DUP2 SWAP1 SSTORE POP PUSH0 PUSH20 0xFFFFFFFFFFFFFFFFFFFFFFFFFFFFFFFFFFFFFFFF AND DUP2 PUSH20 0xFFFFFFFFFFFFFFFFFFFFFFFFFFFFFFFFFFFFFFFF AND EQ PUSH2 0x865 JUMPI PUSH2 0x7DF DUP2 PUSH2 0x3B1 JUMP JUMPDEST PUSH1 0x7 PUSH0 DUP4 PUSH20 0xFFFFFFFFFFFFFFFFFFFFFFFFFFFFFFFFFFFFFFFF AND PUSH20 0xFFFFFFFFFFFFFFFFFFFFFFFFFFFFFFFFFFFFFFFF AND DUP2 MSTORE PUSH1 0x20 ADD SWAP1 DUP2 MSTORE PUSH1 0x20 ADD PUSH0 KECCAK256 DUP2 SWAP1 SSTORE POP PUSH1 0x5 SLOAD PUSH1 0x6 PUSH0 DUP4 PUSH20 0xFFFFFFFFFFFFFFFFFFFFFFFFFFFFFFFFFFFFFFFF AND PUSH20 0xFFFFFFFFFFFFFFFFFFFFFFFFFFFFFFFFFFFFFFFF AND DUP2 MSTORE PUSH1 0x20 ADD SWAP1 DUP2 MSTORE PUSH1 0x20 ADD PUSH0 KECCAK256 DUP2 SWAP1 SSTORE POP JUMPDEST PUSH1 0x2 SLOAD TIMESTAMP GT ISZERO PUSH2 0x888 JUMPI PUSH1 0x1 SLOAD DUP3 PUSH2 0x87D SWAP2 SWAP1 PUSH2 0x12E1 JUMP JUMPDEST PUSH1 0x4 DUP2 SWAP1 SSTORE POP PUSH2 0x8C7 JUMP JUMPDEST PUSH0 TIMESTAMP PUSH1 0x2 SLOAD PUSH2 0x897 SWAP2 SWAP1 PUSH2 0x1240 JUMP JUMPDEST PUSH1 0x4 SLOAD PUSH2 0x8A4 SWAP2 SWAP1 PUSH2 0x1273 JUMP JUMPDEST SWAP1 POP PUSH1 0x1 SLOAD DUP4 DUP3 PUSH2 0x8B5 SWAP2 SWAP1 PUSH2 0x1311 JUMP JUMPDEST PUSH2 0x8BF SWAP2 SWAP1 PUSH2 0x12E1 JUMP JUMPDEST PUSH1 0x4 DUP2 SWAP1 SSTORE POP POP JUMPDEST PUSH0 PUSH1 0x4 SLOAD GT PUSH2 0x90B JUMPI PUSH1 0x40 MLOAD PUSH32 0x8C379A000000000000000000000000000000000000000000000000000000000 DUP2 MSTORE PUSH1 0x4 ADD PUSH2 0x902 SWAP1 PUSH2 0x14F5 JUMP JUMPDEST PUSH1 0x40 MLOAD DUP1 SWAP2 SUB SWAP1 REVERT JUMPDEST PUSH32 0x0 PUSH20 0xFFFFFFFFFFFFFFFFFFFFFFFFFFFFFFFFFFFFFFFF AND PUSH4 0x70A08231 ADDRESS PUSH1 0x40 MLOAD DUP3 PUSH4 0xFFFFFFFF AND PUSH1 0xE0 SHL DUP2 MSTORE PUSH1 0x4 ADD PUSH2 0x964 SWAP2 SWAP1 PUSH2 0x11FA JUMP JUMPDEST PUSH1 0x20 PUSH1 0x40 MLOAD DUP1 DUP4 SUB DUP2 DUP7 GAS STATICCALL ISZERO DUP1 ISZERO PUSH2 0x97F JUMPI RETURNDATASIZE PUSH0 DUP1 RETURNDATACOPY RETURNDATASIZE PUSH0 REVERT JUMPDEST POP POP POP POP PUSH1 0x40 MLOAD RETURNDATASIZE PUSH1 0x1F NOT PUSH1 0x1F DUP3 ADD AND DUP3 ADD DUP1 PUSH1 0x40 MSTORE POP DUP2 ADD SWAP1 PUSH2 0x9A3 SWAP2 SWAP1 PUSH2 0x1527 JUMP JUMPDEST PUSH1 0x1 SLOAD PUSH1 0x4 SLOAD PUSH2 0x9B3 SWAP2 SWAP1 PUSH2 0x1273 JUMP JUMPDEST GT ISZERO PUSH2 0x9F4 JUMPI PUSH1 0x40 MLOAD PUSH32 0x8C379A000000000000000000000000000000000000000000000000000000000 DUP2 MSTORE PUSH1 0x4 ADD PUSH2 0x9EB SWAP1 PUSH2 0x159C JUMP JUMPDEST PUSH1 0x40 MLOAD DUP1 SWAP2 SUB SWAP1 REVERT JUMPDEST PUSH1 0x1 SLOAD TIMESTAMP PUSH2 0xA02 SWAP2 SWAP1 PUSH2 0x1311 JUMP JUMPDEST PUSH1 0x2 DUP2 SWAP1 SSTORE POP TIMESTAMP PUSH1 0x3 DUP2 SWAP1 SSTORE POP POP POP JUMP JUMPDEST CALLER PUSH2 0xA1C PUSH2 0xFBC JUMP JUMPDEST PUSH1 0x5 DUP2 SWAP1 SSTORE POP PUSH2 0xA2A PUSH2 0xC69 JUMP JUMPDEST PUSH1 0x3 DUP2 SWAP1 SSTORE POP PUSH0 PUSH20 0xFFFFFFFFFFFFFFFFFFFFFFFFFFFFFFFFFFFFFFFF AND DUP2 PUSH20 0xFFFFFFFFFFFFFFFFFFFFFFFFFFFFFFFFFFFFFFFF AND EQ PUSH2 0xAF2 JUMPI PUSH2 0xA6C DUP2 PUSH2 0x3B1 JUMP JUMPDEST PUSH1 0x7 PUSH0 DUP4 PUSH20 0xFFFFFFFFFFFFFFFFFFFFFFFFFFFFFFFFFFFFFFFF AND PUSH20 0xFFFFFFFFFFFFFFFFFFFFFFFFFFFFFFFFFFFFFFFF AND DUP2 MSTORE PUSH1 0x20 ADD SWAP1 DUP2 MSTORE PUSH1 0x20 ADD PUSH0 KECCAK256 DUP2 SWAP1 SSTORE POP PUSH1 0x5 SLOAD PUSH1 0x6 PUSH0 DUP4 PUSH20 0xFFFFFFFFFFFFFFFFFFFFFFFFFFFFFFFFFFFFFFFF AND PUSH20 0xFFFFFFFFFFFFFFFFFFFFFFFFFFFFFFFFFFFFFFFF AND DUP2 MSTORE PUSH1 0x20 ADD SWAP1 DUP2 MSTORE PUSH1 0x20 ADD PUSH0 KECCAK256 DUP2 SWAP1 SSTORE POP JUMPDEST PUSH0 PUSH1 0x7 PUSH0 CALLER PUSH20 0xFFFFFFFFFFFFFFFFFFFFFFFFFFFFFFFFFFFFFFFF AND PUSH20 0xFFFFFFFFFFFFFFFFFFFFFFFFFFFFFFFFFFFFFFFF AND DUP2 MSTORE PUSH1 0x20 ADD SWAP1 DUP2 MSTORE PUSH1 0x20 ADD PUSH0 KECCAK256 SLOAD SWAP1 POP PUSH0 DUP2 GT ISZERO PUSH2 0xC1A JUMPI PUSH0 PUSH1 0x7 PUSH0 CALLER PUSH20 0xFFFFFFFFFFFFFFFFFFFFFFFFFFFFFFFFFFFFFFFF AND PUSH20 0xFFFFFFFFFFFFFFFFFFFFFFFFFFFFFFFFFFFFFFFF AND DUP2 MSTORE PUSH1 0x20 ADD SWAP1 DUP2 MSTORE PUSH1 0x20 ADD PUSH0 KECCAK256 DUP2 SWAP1 SSTORE POP PUSH32 0x0 PUSH20 0xFFFFFFFFFFFFFFFFFFFFFFFFFFFFFFFFFFFFFFFF AND PUSH4 0xA9059CBB CALLER DUP4 PUSH1 0x40 MLOAD DUP4 PUSH4 0xFFFFFFFF AND PUSH1 0xE0 SHL DUP2 MSTORE PUSH1 0x4 ADD PUSH2 0xBD8 SWAP3 SWAP2 SWAP1 PUSH2 0x13BC JUMP JUMPDEST PUSH1 0x20 PUSH1 0x40 MLOAD DUP1 DUP4 SUB DUP2 PUSH0 DUP8 GAS CALL ISZERO DUP1 ISZERO PUSH2 0xBF4 JUMPI RETURNDATASIZE PUSH0 DUP1 RETURNDATACOPY RETURNDATASIZE PUSH0 REVERT JUMPDEST POP POP POP POP PUSH1 0x40 MLOAD RETURNDATASIZE PUSH1 0x1F NOT PUSH1 0x1F DUP3 ADD AND DUP3 ADD DUP1 PUSH1 0x40 MSTORE POP DUP2 ADD SWAP1 PUSH2 0xC18 SWAP2 SWAP1 PUSH2 0x1418 JUMP JUMPDEST POP JUMPDEST POP POP JUMP JUMPDEST PUSH1 0x2 SLOAD DUP2 JUMP JUMPDEST PUSH1 0x8 PUSH1 0x20 MSTORE DUP1 PUSH0 MSTORE PUSH1 0x40 PUSH0 KECCAK256 PUSH0 SWAP2 POP SWAP1 POP SLOAD DUP2 JUMP JUMPDEST PUSH32 0x0 DUP2 JUMP JUMPDEST PUSH1 0x3 SLOAD DUP2 JUMP JUMPDEST PUSH1 0x4 SLOAD DUP2 JUMP JUMPDEST PUSH0 PUSH2 0xC76 TIMESTAMP PUSH1 0x2 SLOAD PUSH2 0x104F JUMP JUMPDEST SWAP1 POP SWAP1 JUMP JUMPDEST PUSH1 0x6 PUSH1 0x20 MSTORE DUP1 PUSH0 MSTORE PUSH1 0x40 PUSH0 KECCAK256 PUSH0 SWAP2 POP SWAP1 POP SLOAD DUP2 JUMP JUMPDEST PUSH0 DUP1 SLOAD SWAP1 PUSH2 0x100 EXP SWAP1 DIV PUSH20 0xFFFFFFFFFFFFFFFFFFFFFFFFFFFFFFFFFFFFFFFF AND DUP2 JUMP JUMPDEST CALLER PUSH2 0xCBC PUSH2 0xFBC JUMP JUMPDEST PUSH1 0x5 DUP2 SWAP1 SSTORE POP PUSH2 0xCCA PUSH2 0xC69 JUMP JUMPDEST PUSH1 0x3 DUP2 SWAP1 SSTORE POP PUSH0 PUSH20 0xFFFFFFFFFFFFFFFFFFFFFFFFFFFFFFFFFFFFFFFF AND DUP2 PUSH20 0xFFFFFFFFFFFFFFFFFFFFFFFFFFFFFFFFFFFFFFFF AND EQ PUSH2 0xD92 JUMPI PUSH2 0xD0C DUP2 PUSH2 0x3B1 JUMP JUMPDEST PUSH1 0x7 PUSH0 DUP4 PUSH20 0xFFFFFFFFFFFFFFFFFFFFFFFFFFFFFFFFFFFFFFFF AND PUSH20 0xFFFFFFFFFFFFFFFFFFFFFFFFFFFFFFFFFFFFFFFF AND DUP2 MSTORE PUSH1 0x20 ADD SWAP1 DUP2 MSTORE PUSH1 0x20 ADD PUSH0 KECCAK256 DUP2 SWAP1 SSTORE POP PUSH1 0x5 SLOAD PUSH1 0x6 PUSH0 DUP4 PUSH20 0xFFFFFFFFFFFFFFFFFFFFFFFFFFFFFFFFFFFFFFFF AND PUSH20 0xFFFFFFFFFFFFFFFFFFFFFFFFFFFFFFFFFFFFFFFF AND DUP2 MSTORE PUSH1 0x20 ADD SWAP1 DUP2 MSTORE PUSH1 0x20 ADD PUSH0 KECCAK256 DUP2 SWAP1 SSTORE POP JUMPDEST PUSH0 DUP3 GT PUSH2 0xDD4 JUMPI PUSH1 0x40 MLOAD PUSH32 0x8C379A000000000000000000000000000000000000000000000000000000000 DUP2 MSTORE PUSH1 0x4 ADD PUSH2 0xDCB SWAP1 PUSH2 0x139E JUMP JUMPDEST PUSH1 0x40 MLOAD DUP1 SWAP2 SUB SWAP1 REVERT JUMPDEST PUSH32 0x0 PUSH20 0xFFFFFFFFFFFFFFFFFFFFFFFFFFFFFFFFFFFFFFFF AND PUSH4 0x23B872DD CALLER ADDRESS DUP6 PUSH1 0x40 MLOAD DUP5 PUSH4 0xFFFFFFFF AND PUSH1 0xE0 SHL DUP2 MSTORE PUSH1 0x4 ADD PUSH2 0xE31 SWAP4 SWAP3 SWAP2 SWAP1 PUSH2 0x15BA JUMP JUMPDEST PUSH1 0x20 PUSH1 0x40 MLOAD DUP1 DUP4 SUB DUP2 PUSH0 DUP8 GAS CALL ISZERO DUP1 ISZERO PUSH2 0xE4D JUMPI RETURNDATASIZE PUSH0 DUP1 RETURNDATACOPY RETURNDATASIZE PUSH0 REVERT JUMPDEST POP POP POP POP PUSH1 0x40 MLOAD RETURNDATASIZE PUSH1 0x1F NOT PUSH1 0x1F DUP3 ADD AND DUP3 ADD DUP1 PUSH1 0x40 MSTORE POP DUP2 ADD SWAP1 PUSH2 0xE71 SWAP2 SWAP1 PUSH2 0x1418 JUMP JUMPDEST POP DUP2 PUSH1 0x8 PUSH0 CALLER PUSH20 0xFFFFFFFFFFFFFFFFFFFFFFFFFFFFFFFFFFFFFFFF AND PUSH20 0xFFFFFFFFFFFFFFFFFFFFFFFFFFFFFFFFFFFFFFFF AND DUP2 MSTORE PUSH1 0x20 ADD SWAP1 DUP2 MSTORE PUSH1 0x20 ADD PUSH0 KECCAK256 PUSH0 DUP3 DUP3 SLOAD PUSH2 0xEBE SWAP2 SWAP1 PUSH2 0x1311 JUMP JUMPDEST SWAP3 POP POP DUP2 SWAP1 SSTORE POP DUP2 PUSH1 0x9 PUSH0 DUP3 DUP3 SLOAD PUSH2 0xED6 SWAP2 SWAP1 PUSH2 0x1311 JUMP JUMPDEST SWAP3 POP POP DUP2 SWAP1 SSTORE POP POP POP JUMP JUMPDEST PUSH0 DUP1 SLOAD SWAP1 PUSH2 0x100 EXP SWAP1 DIV PUSH20 0xFFFFFFFFFFFFFFFFFFFFFFFFFFFFFFFFFFFFFFFF AND PUSH20 0xFFFFFFFFFFFFFFFFFFFFFFFFFFFFFFFFFFFFFFFF AND CALLER PUSH20 0xFFFFFFFFFFFFFFFFFFFFFFFFFFFFFFFFFFFFFFFF AND EQ PUSH2 0xF6E JUMPI PUSH1 0x40 MLOAD PUSH32 0x8C379A000000000000000000000000000000000000000000000000000000000 DUP2 MSTORE PUSH1 0x4 ADD PUSH2 0xF65 SWAP1 PUSH2 0x148D JUMP JUMPDEST PUSH1 0x40 MLOAD DUP1 SWAP2 SUB SWAP1 REVERT JUMPDEST TIMESTAMP PUSH1 0x2 SLOAD LT PUSH2 0xFB2 JUMPI PUSH1 0x40 MLOAD PUSH32 0x8C379A000000000000000000000000000000000000000000000000000000000 DUP2 MSTORE PUSH1 0x4 ADD PUSH2 0xFA9 SWAP1 PUSH2 0x1639 JUMP JUMPDEST PUSH1 0x40 MLOAD DUP1 SWAP2 SUB SWAP1 REVERT JUMPDEST DUP1 PUSH1 0x1 DUP2 SWAP1 SSTORE POP POP JUMP JUMPDEST PUSH0 DUP1 PUSH1 0x9 SLOAD SUB PUSH2 0xFD0 JUMPI PUSH1 0x5 SLOAD SWAP1 POP PUSH2 0x1022 JUMP JUMPDEST PUSH1 0x9 SLOAD PUSH8 0xDE0B6B3A7640000 PUSH1 0x3 SLOAD PUSH2 0xFE7 PUSH2 0xC69 JUMP JUMPDEST PUSH2 0xFF1 SWAP2 SWAP1 PUSH2 0x1240 JUMP JUMPDEST PUSH1 0x4 SLOAD PUSH2 0xFFE SWAP2 SWAP1 PUSH2 0x1273 JUMP JUMPDEST PUSH2 0x1008 SWAP2 SWAP1 PUSH2 0x1273 JUMP JUMPDEST PUSH2 0x1012 SWAP2 SWAP1 PUSH2 0x12E1 JUMP JUMPDEST PUSH1 0x5 SLOAD PUSH2 0x101F SWAP2 SWAP1 PUSH2 0x1311 JUMP JUMPDEST SWAP1 POP JUMPDEST SWAP1 JUMP JUMPDEST PUSH32 0x0 DUP2 JUMP JUMPDEST PUSH1 0x5 SLOAD DUP2 JUMP JUMPDEST PUSH0 DUP2 DUP4 GT ISZERO PUSH2 0x105E JUMPI DUP2 PUSH2 0x1060 JUMP JUMPDEST DUP3 JUMPDEST SWAP1 POP SWAP3 SWAP2 POP POP JUMP JUMPDEST PUSH0 DUP1 REVERT JUMPDEST PUSH0 PUSH20 0xFFFFFFFFFFFFFFFFFFFFFFFFFFFFFFFFFFFFFFFF DUP3 AND SWAP1 POP SWAP2 SWAP1 POP JUMP JUMPDEST PUSH0 PUSH2 0x1095 DUP3 PUSH2 0x106C JUMP JUMPDEST SWAP1 POP SWAP2 SWAP1 POP JUMP JUMPDEST PUSH2 0x10A5 DUP2 PUSH2 0x108B JUMP JUMPDEST DUP2 EQ PUSH2 0x10AF JUMPI PUSH0 DUP1 REVERT JUMPDEST POP JUMP JUMPDEST PUSH0 DUP2 CALLDATALOAD SWAP1 POP PUSH2 0x10C0 DUP2 PUSH2 0x109C JUMP JUMPDEST SWAP3 SWAP2 POP POP JUMP JUMPDEST PUSH0 PUSH1 0x20 DUP3 DUP5 SUB SLT ISZERO PUSH2 0x10DB JUMPI PUSH2 0x10DA PUSH2 0x1068 JUMP JUMPDEST JUMPDEST PUSH0 PUSH2 0x10E8 DUP5 DUP3 DUP6 ADD PUSH2 0x10B2 JUMP JUMPDEST SWAP2 POP POP SWAP3 SWAP2 POP POP JUMP JUMPDEST PUSH0 DUP2 SWAP1 POP SWAP2 SWAP1 POP JUMP JUMPDEST PUSH2 0x1103 DUP2 PUSH2 0x10F1 JUMP JUMPDEST DUP3 MSTORE POP POP JUMP JUMPDEST PUSH0 PUSH1 0x20 DUP3 ADD SWAP1 POP PUSH2 0x111C PUSH0 DUP4 ADD DUP5 PUSH2 0x10FA JUMP JUMPDEST SWAP3 SWAP2 POP POP JUMP JUMPDEST PUSH2 0x112B DUP2 PUSH2 0x10F1 JUMP JUMPDEST DUP2 EQ PUSH2 0x1135 JUMPI PUSH0 DUP1 REVERT JUMPDEST POP JUMP JUMPDEST PUSH0 DUP2 CALLDATALOAD SWAP1 POP PUSH2 0x1146 DUP2 PUSH2 0x1122 JUMP JUMPDEST SWAP3 SWAP2 POP POP JUMP JUMPDEST PUSH0 PUSH1 0x20 DUP3 DUP5 SUB SLT ISZERO PUSH2 0x1161 JUMPI PUSH2 0x1160 PUSH2 0x1068 JUMP JUMPDEST JUMPDEST PUSH0 PUSH2 0x116E DUP5 DUP3 DUP6 ADD PUSH2 0x1138 JUMP JUMPDEST SWAP2 POP POP SWAP3 SWAP2 POP POP JUMP JUMPDEST PUSH0 DUP2 SWAP1 POP SWAP2 SWAP1 POP JUMP JUMPDEST PUSH0 PUSH2 0x119A PUSH2 0x1195 PUSH2 0x1190 DUP5 PUSH2 0x106C JUMP JUMPDEST PUSH2 0x1177 JUMP JUMPDEST PUSH2 0x106C JUMP JUMPDEST SWAP1 POP SWAP2 SWAP1 POP JUMP JUMPDEST PUSH0 PUSH2 0x11AB DUP3 PUSH2 0x1180 JUMP JUMPDEST SWAP1 POP SWAP2 SWAP1 POP JUMP JUMPDEST PUSH0 PUSH2 0x11BC DUP3 PUSH2 0x11A1 JUMP JUMPDEST SWAP1 POP SWAP2 SWAP1 POP JUMP JUMPDEST PUSH2 0x11CC DUP2 PUSH2 0x11B2 JUMP JUMPDEST DUP3 MSTORE POP POP JUMP JUMPDEST PUSH0 PUSH1 0x20 DUP3 ADD SWAP1 POP PUSH2 0x11E5 PUSH0 DUP4 ADD DUP5 PUSH2 0x11C3 JUMP JUMPDEST SWAP3 SWAP2 POP POP JUMP JUMPDEST PUSH2 0x11F4 DUP2 PUSH2 0x108B JUMP JUMPDEST DUP3 MSTORE POP POP JUMP JUMPDEST PUSH0 PUSH1 0x20 DUP3 ADD SWAP1 POP PUSH2 0x120D PUSH0 DUP4 ADD DUP5 PUSH2 0x11EB JUMP JUMPDEST SWAP3 SWAP2 POP POP JUMP JUMPDEST PUSH32 0x4E487B7100000000000000000000000000000000000000000000000000000000 PUSH0 MSTORE PUSH1 0x11 PUSH1 0x4 MSTORE PUSH1 0x24 PUSH0 REVERT JUMPDEST PUSH0 PUSH2 0x124A DUP3 PUSH2 0x10F1 JUMP JUMPDEST SWAP2 POP PUSH2 0x1255 DUP4 PUSH2 0x10F1 JUMP JUMPDEST SWAP3 POP DUP3 DUP3 SUB SWAP1 POP DUP2 DUP2 GT ISZERO PUSH2 0x126D JUMPI PUSH2 0x126C PUSH2 0x1213 JUMP JUMPDEST JUMPDEST SWAP3 SWAP2 POP POP JUMP JUMPDEST PUSH0 PUSH2 0x127D DUP3 PUSH2 0x10F1 JUMP JUMPDEST SWAP2 POP PUSH2 0x1288 DUP4 PUSH2 0x10F1 JUMP JUMPDEST SWAP3 POP DUP3 DUP3 MUL PUSH2 0x1296 DUP2 PUSH2 0x10F1 JUMP JUMPDEST SWAP2 POP DUP3 DUP3 DIV DUP5 EQ DUP4 ISZERO OR PUSH2 0x12AD JUMPI PUSH2 0x12AC PUSH2 0x1213 JUMP JUMPDEST JUMPDEST POP SWAP3 SWAP2 POP POP JUMP JUMPDEST PUSH32 0x4E487B7100000000000000000000000000000000000000000000000000000000 PUSH0 MSTORE PUSH1 0x12 PUSH1 0x4 MSTORE PUSH1 0x24 PUSH0 REVERT JUMPDEST PUSH0 PUSH2 0x12EB DUP3 PUSH2 0x10F1 JUMP JUMPDEST SWAP2 POP PUSH2 0x12F6 DUP4 PUSH2 0x10F1 JUMP JUMPDEST SWAP3 POP DUP3 PUSH2 0x1306 JUMPI PUSH2 0x1305 PUSH2 0x12B4 JUMP JUMPDEST JUMPDEST DUP3 DUP3 DIV SWAP1 POP SWAP3 SWAP2 POP POP JUMP JUMPDEST PUSH0 PUSH2 0x131B DUP3 PUSH2 0x10F1 JUMP JUMPDEST SWAP2 POP PUSH2 0x1326 DUP4 PUSH2 0x10F1 JUMP JUMPDEST SWAP3 POP DUP3 DUP3 ADD SWAP1 POP DUP1 DUP3 GT ISZERO PUSH2 0x133E JUMPI PUSH2 0x133D PUSH2 0x1213 JUMP JUMPDEST JUMPDEST SWAP3 SWAP2 POP POP JUMP JUMPDEST PUSH0 DUP3 DUP3 MSTORE PUSH1 0x20 DUP3 ADD SWAP1 POP SWAP3 SWAP2 POP POP JUMP JUMPDEST PUSH32 0x616D6F756E74203D203000000000000000000000000000000000000000000000 PUSH0 DUP3 ADD MSTORE POP JUMP JUMPDEST PUSH0 PUSH2 0x1388 PUSH1 0xA DUP4 PUSH2 0x1344 JUMP JUMPDEST SWAP2 POP PUSH2 0x1393 DUP3 PUSH2 0x1354 JUMP JUMPDEST PUSH1 0x20 DUP3 ADD SWAP1 POP SWAP2 SWAP1 POP JUMP JUMPDEST PUSH0 PUSH1 0x20 DUP3 ADD SWAP1 POP DUP2 DUP2 SUB PUSH0 DUP4 ADD MSTORE PUSH2 0x13B5 DUP2 PUSH2 0x137C JUMP JUMPDEST SWAP1 POP SWAP2 SWAP1 POP JUMP JUMPDEST PUSH0 PUSH1 0x40 DUP3 ADD SWAP1 POP PUSH2 0x13CF PUSH0 DUP4 ADD DUP6 PUSH2 0x11EB JUMP JUMPDEST PUSH2 0x13DC PUSH1 0x20 DUP4 ADD DUP5 PUSH2 0x10FA JUMP JUMPDEST SWAP4 SWAP3 POP POP POP JUMP JUMPDEST PUSH0 DUP2 ISZERO ISZERO SWAP1 POP SWAP2 SWAP1 POP JUMP JUMPDEST PUSH2 0x13F7 DUP2 PUSH2 0x13E3 JUMP JUMPDEST DUP2 EQ PUSH2 0x1401 JUMPI PUSH0 DUP1 REVERT JUMPDEST POP JUMP JUMPDEST PUSH0 DUP2 MLOAD SWAP1 POP PUSH2 0x1412 DUP2 PUSH2 0x13EE JUMP JUMPDEST SWAP3 SWAP2 POP POP JUMP JUMPDEST PUSH0 PUSH1 0x20 DUP3 DUP5 SUB SLT ISZERO PUSH2 0x142D JUMPI PUSH2 0x142C PUSH2 0x1068 JUMP JUMPDEST JUMPDEST PUSH0 PUSH2 0x143A DUP5 DUP3 DUP6 ADD PUSH2 0x1404 JUMP JUMPDEST SWAP2 POP POP SWAP3 SWAP2 POP POP JUMP JUMPDEST PUSH32 0x4E6F74204F776E65720000000000000000000000000000000000000000000000 PUSH0 DUP3 ADD MSTORE POP JUMP JUMPDEST PUSH0 PUSH2 0x1477 PUSH1 0x9 DUP4 PUSH2 0x1344 JUMP JUMPDEST SWAP2 POP PUSH2 0x1482 DUP3 PUSH2 0x1443 JUMP JUMPDEST PUSH1 0x20 DUP3 ADD SWAP1 POP SWAP2 SWAP1 POP JUMP JUMPDEST PUSH0 PUSH1 0x20 DUP3 ADD SWAP1 POP DUP2 DUP2 SUB PUSH0 DUP4 ADD MSTORE PUSH2 0x14A4 DUP2 PUSH2 0x146B JUMP JUMPDEST SWAP1 POP SWAP2 SWAP1 POP JUMP JUMPDEST PUSH32 0x7265776172642072617465203D20300000000000000000000000000000000000 PUSH0 DUP3 ADD MSTORE POP JUMP JUMPDEST PUSH0 PUSH2 0x14DF PUSH1 0xF DUP4 PUSH2 0x1344 JUMP JUMPDEST SWAP2 POP PUSH2 0x14EA DUP3 PUSH2 0x14AB JUMP JUMPDEST PUSH1 0x20 DUP3 ADD SWAP1 POP SWAP2 SWAP1 POP JUMP JUMPDEST PUSH0 PUSH1 0x20 DUP3 ADD SWAP1 POP DUP2 DUP2 SUB PUSH0 DUP4 ADD MSTORE PUSH2 0x150C DUP2 PUSH2 0x14D3 JUMP JUMPDEST SWAP1 POP SWAP2 SWAP1 POP JUMP JUMPDEST PUSH0 DUP2 MLOAD SWAP1 POP PUSH2 0x1521 DUP2 PUSH2 0x1122 JUMP JUMPDEST SWAP3 SWAP2 POP POP JUMP JUMPDEST PUSH0 PUSH1 0x20 DUP3 DUP5 SUB SLT ISZERO PUSH2 0x153C JUMPI PUSH2 0x153B PUSH2 0x1068 JUMP JUMPDEST JUMPDEST PUSH0 PUSH2 0x1549 DUP5 DUP3 DUP6 ADD PUSH2 0x1513 JUMP JUMPDEST SWAP2 POP POP SWAP3 SWAP2 POP POP JUMP JUMPDEST PUSH32 0x72657761726420616D6F756E74203E2062616C616E6365000000000000000000 PUSH0 DUP3 ADD MSTORE POP JUMP JUMPDEST PUSH0 PUSH2 0x1586 PUSH1 0x17 DUP4 PUSH2 0x1344 JUMP JUMPDEST SWAP2 POP PUSH2 0x1591 DUP3 PUSH2 0x1552 JUMP JUMPDEST PUSH1 0x20 DUP3 ADD SWAP1 POP SWAP2 SWAP1 POP JUMP JUMPDEST PUSH0 PUSH1 0x20 DUP3 ADD SWAP1 POP DUP2 DUP2 SUB PUSH0 DUP4 ADD MSTORE PUSH2 0x15B3 DUP2 PUSH2 0x157A JUMP JUMPDEST SWAP1 POP SWAP2 SWAP1 POP JUMP JUMPDEST PUSH0 PUSH1 0x60 DUP3 ADD SWAP1 POP PUSH2 0x15CD PUSH0 DUP4 ADD DUP7 PUSH2 0x11EB JUMP JUMPDEST PUSH2 0x15DA PUSH1 0x20 DUP4 ADD DUP6 PUSH2 0x11EB JUMP JUMPDEST PUSH2 0x15E7 PUSH1 0x40 DUP4 ADD DUP5 PUSH2 0x10FA JUMP JUMPDEST SWAP5 SWAP4 POP POP POP POP JUMP JUMPDEST PUSH32 0x726577617264206475726174696F6E206E6F742066696E697368656400000000 PUSH0 DUP3 ADD MSTORE POP JUMP JUMPDEST PUSH0 PUSH2 0x1623 PUSH1 0x1C DUP4 PUSH2 0x1344 JUMP JUMPDEST SWAP2 POP PUSH2 0x162E DUP3 PUSH2 0x15EF JUMP JUMPDEST PUSH1 0x20 DUP3 ADD SWAP1 POP SWAP2 SWAP1 POP JUMP JUMPDEST PUSH0 PUSH1 0x20 DUP3 ADD SWAP1 POP DUP2 DUP2 SUB PUSH0 DUP4 ADD MSTORE PUSH2 0x1650 DUP2 PUSH2 0x1617 JUMP JUMPDEST SWAP1 POP SWAP2 SWAP1 POP JUMP INVALID LOG2 PUSH5 0x6970667358 0x22 SLT KECCAK256 PUSH19 0x7BF654B33FB07B496379E228B584D44BDD3F3C CALLDATALOAD 0x2A LOG4 0xB4 SWAP7 NOT RETURNDATASIZE SWAP15 TIMESTAMP PUSH21 0x469264736F6C634300081A00330000000000000000 "
				},
				"gasEstimates": {
					"creation": {
						"codeDepositCost": "1154600",
						"executionCost": "infinite",
						"totalCost": "infinite"
					},
					"external": {
						"balanceOf(address)": "2891",
						"duration()": "2493",
						"earned(address)": "infinite",
						"finishAt()": "2492",
						"getReward()": "infinite",
						"lastTimeRewardApplicable()": "2582",
						"notifyRewardAmount(uint256)": "infinite",
						"owner()": "2616",
						"rewardPerToken()": "infinite",
						"rewardPerTokenStored()": "2535",
						"rewardRate()": "2470",
						"rewards(address)": "2848",
						"rewardsToken()": "infinite",
						"setRewardDuration(uint256)": "26847",
						"stake(uint256)": "infinite",
						"stakingToken()": "infinite",
						"totalSupply()": "2515",
						"updatedAt()": "2448",
						"userRewardPerTokenPaid(address)": "2891",
						"withdraw(uint256)": "infinite"
					},
					"internal": {
						"_min(uint256,uint256)": "66"
					}
				},
				"methodIdentifiers": {
					"balanceOf(address)": "70a08231",
					"duration()": "0fb5a6b4",
					"earned(address)": "008cc262",
					"finishAt()": "67d3b488",
					"getReward()": "3d18b912",
					"lastTimeRewardApplicable()": "80faa57d",
					"notifyRewardAmount(uint256)": "3c6b16ab",
					"owner()": "8da5cb5b",
					"rewardPerToken()": "cd3daf9d",
					"rewardPerTokenStored()": "df136d65",
					"rewardRate()": "7b0a47ee",
					"rewards(address)": "0700037d",
					"rewardsToken()": "d1af0c7d",
					"setRewardDuration(uint256)": "c0ed00c9",
					"stake(uint256)": "a694fc3a",
					"stakingToken()": "72f702f3",
					"totalSupply()": "18160ddd",
					"updatedAt()": "7519ab50",
					"userRewardPerTokenPaid(address)": "8b876347",
					"withdraw(uint256)": "2e1a7d4d"
				}
			},
			"storageLayout": {
				"storage": [
					{
						"astId": 92,
						"contract": "contracts/质押代币/StakingReward.sol:StakingRewards",
						"label": "owner",
						"offset": 0,
						"slot": "0",
						"type": "t_address"
					},
					{
						"astId": 94,
						"contract": "contracts/质押代币/StakingReward.sol:StakingRewards",
						"label": "duration",
						"offset": 0,
						"slot": "1",
						"type": "t_uint256"
					},
					{
						"astId": 96,
						"contract": "contracts/质押代币/StakingReward.sol:StakingRewards",
						"label": "finishAt",
						"offset": 0,
						"slot": "2",
						"type": "t_uint256"
					},
					{
						"astId": 98,
						"contract": "contracts/质押代币/StakingReward.sol:StakingRewards",
						"label": "updatedAt",
						"offset": 0,
						"slot": "3",
						"type": "t_uint256"
					},
					{
						"astId": 100,
						"contract": "contracts/质押代币/StakingReward.sol:StakingRewards",
						"label": "rewardRate",
						"offset": 0,
						"slot": "4",
						"type": "t_uint256"
					},
					{
						"astId": 102,
						"contract": "contracts/质押代币/StakingReward.sol:StakingRewards",
						"label": "rewardPerTokenStored",
						"offset": 0,
						"slot": "5",
						"type": "t_uint256"
					},
					{
						"astId": 106,
						"contract": "contracts/质押代币/StakingReward.sol:StakingRewards",
						"label": "userRewardPerTokenPaid",
						"offset": 0,
						"slot": "6",
						"type": "t_mapping(t_address,t_uint256)"
					},
					{
						"astId": 110,
						"contract": "contracts/质押代币/StakingReward.sol:StakingRewards",
						"label": "rewards",
						"offset": 0,
						"slot": "7",
						"type": "t_mapping(t_address,t_uint256)"
					},
					{
						"astId": 114,
						"contract": "contracts/质押代币/StakingReward.sol:StakingRewards",
						"label": "balanceOf",
						"offset": 0,
						"slot": "8",
						"type": "t_mapping(t_address,t_uint256)"
					},
					{
						"astId": 116,
						"contract": "contracts/质押代币/StakingReward.sol:StakingRewards",
						"label": "totalSupply",
						"offset": 0,
						"slot": "9",
						"type": "t_uint256"
					}
				],
				"types": {
					"t_address": {
						"encoding": "inplace",
						"label": "address",
						"numberOfBytes": "20"
					},
					"t_mapping(t_address,t_uint256)": {
						"encoding": "mapping",
						"key": "t_address",
						"label": "mapping(address => uint256)",
						"numberOfBytes": "32",
						"value": "t_uint256"
					},
					"t_uint256": {
						"encoding": "inplace",
						"label": "uint256",
						"numberOfBytes": "32"
					}
				}
			},
			"userdoc": {
				"kind": "user",
				"methods": {},
				"version": 1
			}
		}
	}
}