{
	"data": {
		"bytecode": {
			"linkReferences": {},
			"object": "6080604052348015600e575f80fd5b506105b08061001c5f395ff3fe608060405260043610610049575f3560e01c8063209652551461004d5780636079bab114610077578063b0ac4060146100b3578063bdcae8ab146100c9578063df4c9e15146100d3575b5f80fd5b348015610058575f80fd5b5061006161010f565b60405161006e91906103c9565b60405180910390f35b348015610082575f80fd5b5061009d60048036038101906100989190610410565b610117565b6040516100aa91906103c9565b60405180910390f35b3480156100be575f80fd5b506100c761014e565b005b6100d1610166565b005b3480156100de575f80fd5b506100f960048036038101906100f49190610410565b610183565b60405161010691906103c9565b60405180910390f35b5f8054905090565b5f3373ffffffffffffffffffffffffffffffffffffffff1631828461013c919061047b565b610146919061047b565b905092915050565b5f8081548092919061015f906104ae565b9190505550565b61016f33610198565b61017842610231565b610181346102ca565b565b5f8183610190919061047b565b905092915050565b61022e816040516024016101ac9190610534565b6040516020818303038152906040527f2c2ecbc2000000000000000000000000000000000000000000000000000000007bffffffffffffffffffffffffffffffffffffffffffffffffffffffff19166020820180517bffffffffffffffffffffffffffffffffffffffffffffffffffffffff8381831617835250505050610363565b50565b6102c78160405160240161024591906103c9565b6040516020818303038152906040527ff82c50f1000000000000000000000000000000000000000000000000000000007bffffffffffffffffffffffffffffffffffffffffffffffffffffffff19166020820180517bffffffffffffffffffffffffffffffffffffffffffffffffffffffff8381831617835250505050610363565b50565b610360816040516024016102de91906103c9565b6040516020818303038152906040527ff82c50f1000000000000000000000000000000000000000000000000000000007bffffffffffffffffffffffffffffffffffffffffffffffffffffffff19166020820180517bffffffffffffffffffffffffffffffffffffffffffffffffffffffff8381831617835250505050610363565b50565b61037a8161037261037d61039c565b63ffffffff16565b50565b5f6a636f6e736f6c652e6c6f6790505f80835160208501845afa505050565b6103a7819050919050565b6103af61054d565b565b5f819050919050565b6103c3816103b1565b82525050565b5f6020820190506103dc5f8301846103ba565b92915050565b5f80fd5b6103ef816103b1565b81146103f9575f80fd5b50565b5f8135905061040a816103e6565b92915050565b5f8060408385031215610426576104256103e2565b5b5f610433858286016103fc565b9250506020610444858286016103fc565b9150509250929050565b7f4e487b71000000000000000000000000000000000000000000000000000000005f52601160045260245ffd5b5f610485826103b1565b9150610490836103b1565b92508282019050808211156104a8576104a761044e565b5b92915050565b5f6104b8826103b1565b91507fffffffffffffffffffffffffffffffffffffffffffffffffffffffffffffffff82036104ea576104e961044e565b5b600182019050919050565b5f73ffffffffffffffffffffffffffffffffffffffff82169050919050565b5f61051e826104f5565b9050919050565b61052e81610514565b82525050565b5f6020820190506105475f830184610525565b92915050565b7f4e487b71000000000000000000000000000000000000000000000000000000005f52605160045260245ffdfea2646970667358221220650eafcfd41b37c1104ac23bd2cceca3fa0c775f9912ab9291abb226b07f639964736f6c634300081a0033",
			"opcodes": "PUSH1 0x80 PUSH1 0x40 MSTORE CALLVALUE DUP1 ISZERO PUSH1 0xE JUMPI PUSH0 DUP1 REVERT JUMPDEST POP PUSH2 0x5B0 DUP1 PUSH2 0x1C PUSH0 CODECOPY PUSH0 RETURN INVALID PUSH1 0x80 PUSH1 0x40 MSTORE PUSH1 0x4 CALLDATASIZE LT PUSH2 0x49 JUMPI PUSH0 CALLDATALOAD PUSH1 0xE0 SHR DUP1 PUSH4 0x20965255 EQ PUSH2 0x4D JUMPI DUP1 PUSH4 0x6079BAB1 EQ PUSH2 0x77 JUMPI DUP1 PUSH4 0xB0AC4060 EQ PUSH2 0xB3 JUMPI DUP1 PUSH4 0xBDCAE8AB EQ PUSH2 0xC9 JUMPI DUP1 PUSH4 0xDF4C9E15 EQ PUSH2 0xD3 JUMPI JUMPDEST PUSH0 DUP1 REVERT JUMPDEST CALLVALUE DUP1 ISZERO PUSH2 0x58 JUMPI PUSH0 DUP1 REVERT JUMPDEST POP PUSH2 0x61 PUSH2 0x10F JUMP JUMPDEST PUSH1 0x40 MLOAD PUSH2 0x6E SWAP2 SWAP1 PUSH2 0x3C9 JUMP JUMPDEST PUSH1 0x40 MLOAD DUP1 SWAP2 SUB SWAP1 RETURN JUMPDEST CALLVALUE DUP1 ISZERO PUSH2 0x82 JUMPI PUSH0 DUP1 REVERT JUMPDEST POP PUSH2 0x9D PUSH1 0x4 DUP1 CALLDATASIZE SUB DUP2 ADD SWAP1 PUSH2 0x98 SWAP2 SWAP1 PUSH2 0x410 JUMP JUMPDEST PUSH2 0x117 JUMP JUMPDEST PUSH1 0x40 MLOAD PUSH2 0xAA SWAP2 SWAP1 PUSH2 0x3C9 JUMP JUMPDEST PUSH1 0x40 MLOAD DUP1 SWAP2 SUB SWAP1 RETURN JUMPDEST CALLVALUE DUP1 ISZERO PUSH2 0xBE JUMPI PUSH0 DUP1 REVERT JUMPDEST POP PUSH2 0xC7 PUSH2 0x14E JUMP JUMPDEST STOP JUMPDEST PUSH2 0xD1 PUSH2 0x166 JUMP JUMPDEST STOP JUMPDEST CALLVALUE DUP1 ISZERO PUSH2 0xDE JUMPI PUSH0 DUP1 REVERT JUMPDEST POP PUSH2 0xF9 PUSH1 0x4 DUP1 CALLDATASIZE SUB DUP2 ADD SWAP1 PUSH2 0xF4 SWAP2 SWAP1 PUSH2 0x410 JUMP JUMPDEST PUSH2 0x183 JUMP JUMPDEST PUSH1 0x40 MLOAD PUSH2 0x106 SWAP2 SWAP1 PUSH2 0x3C9 JUMP JUMPDEST PUSH1 0x40 MLOAD DUP1 SWAP2 SUB SWAP1 RETURN JUMPDEST PUSH0 DUP1 SLOAD SWAP1 POP SWAP1 JUMP JUMPDEST PUSH0 CALLER PUSH20 0xFFFFFFFFFFFFFFFFFFFFFFFFFFFFFFFFFFFFFFFF AND BALANCE DUP3 DUP5 PUSH2 0x13C SWAP2 SWAP1 PUSH2 0x47B JUMP JUMPDEST PUSH2 0x146 SWAP2 SWAP1 PUSH2 0x47B JUMP JUMPDEST SWAP1 POP SWAP3 SWAP2 POP POP JUMP JUMPDEST PUSH0 DUP1 DUP2 SLOAD DUP1 SWAP3 SWAP2 SWAP1 PUSH2 0x15F SWAP1 PUSH2 0x4AE JUMP JUMPDEST SWAP2 SWAP1 POP SSTORE POP JUMP JUMPDEST PUSH2 0x16F CALLER PUSH2 0x198 JUMP JUMPDEST PUSH2 0x178 TIMESTAMP PUSH2 0x231 JUMP JUMPDEST PUSH2 0x181 CALLVALUE PUSH2 0x2CA JUMP JUMPDEST JUMP JUMPDEST PUSH0 DUP2 DUP4 PUSH2 0x190 SWAP2 SWAP1 PUSH2 0x47B JUMP JUMPDEST SWAP1 POP SWAP3 SWAP2 POP POP JUMP JUMPDEST PUSH2 0x22E DUP2 PUSH1 0x40 MLOAD PUSH1 0x24 ADD PUSH2 0x1AC SWAP2 SWAP1 PUSH2 0x534 JUMP JUMPDEST PUSH1 0x40 MLOAD PUSH1 0x20 DUP2 DUP4 SUB SUB DUP2 MSTORE SWAP1 PUSH1 0x40 MSTORE PUSH32 0x2C2ECBC200000000000000000000000000000000000000000000000000000000 PUSH28 0xFFFFFFFFFFFFFFFFFFFFFFFFFFFFFFFFFFFFFFFFFFFFFFFFFFFFFFFF NOT AND PUSH1 0x20 DUP3 ADD DUP1 MLOAD PUSH28 0xFFFFFFFFFFFFFFFFFFFFFFFFFFFFFFFFFFFFFFFFFFFFFFFFFFFFFFFF DUP4 DUP2 DUP4 AND OR DUP4 MSTORE POP POP POP POP PUSH2 0x363 JUMP JUMPDEST POP JUMP JUMPDEST PUSH2 0x2C7 DUP2 PUSH1 0x40 MLOAD PUSH1 0x24 ADD PUSH2 0x245 SWAP2 SWAP1 PUSH2 0x3C9 JUMP JUMPDEST PUSH1 0x40 MLOAD PUSH1 0x20 DUP2 DUP4 SUB SUB DUP2 MSTORE SWAP1 PUSH1 0x40 MSTORE PUSH32 0xF82C50F100000000000000000000000000000000000000000000000000000000 PUSH28 0xFFFFFFFFFFFFFFFFFFFFFFFFFFFFFFFFFFFFFFFFFFFFFFFFFFFFFFFF NOT AND PUSH1 0x20 DUP3 ADD DUP1 MLOAD PUSH28 0xFFFFFFFFFFFFFFFFFFFFFFFFFFFFFFFFFFFFFFFFFFFFFFFFFFFFFFFF DUP4 DUP2 DUP4 AND OR DUP4 MSTORE POP POP POP POP PUSH2 0x363 JUMP JUMPDEST POP JUMP JUMPDEST PUSH2 0x360 DUP2 PUSH1 0x40 MLOAD PUSH1 0x24 ADD PUSH2 0x2DE SWAP2 SWAP1 PUSH2 0x3C9 JUMP JUMPDEST PUSH1 0x40 MLOAD PUSH1 0x20 DUP2 DUP4 SUB SUB DUP2 MSTORE SWAP1 PUSH1 0x40 MSTORE PUSH32 0xF82C50F100000000000000000000000000000000000000000000000000000000 PUSH28 0xFFFFFFFFFFFFFFFFFFFFFFFFFFFFFFFFFFFFFFFFFFFFFFFFFFFFFFFF NOT AND PUSH1 0x20 DUP3 ADD DUP1 MLOAD PUSH28 0xFFFFFFFFFFFFFFFFFFFFFFFFFFFFFFFFFFFFFFFFFFFFFFFFFFFFFFFF DUP4 DUP2 DUP4 AND OR DUP4 MSTORE POP POP POP POP PUSH2 0x363 JUMP JUMPDEST POP JUMP JUMPDEST PUSH2 0x37A DUP2 PUSH2 0x372 PUSH2 0x37D PUSH2 0x39C JUMP JUMPDEST PUSH4 0xFFFFFFFF AND JUMP JUMPDEST POP JUMP JUMPDEST PUSH0 PUSH11 0x636F6E736F6C652E6C6F67 SWAP1 POP PUSH0 DUP1 DUP4 MLOAD PUSH1 0x20 DUP6 ADD DUP5 GAS STATICCALL POP POP POP JUMP JUMPDEST PUSH2 0x3A7 DUP2 SWAP1 POP SWAP2 SWAP1 POP JUMP JUMPDEST PUSH2 0x3AF PUSH2 0x54D JUMP JUMPDEST JUMP JUMPDEST PUSH0 DUP2 SWAP1 POP SWAP2 SWAP1 POP JUMP JUMPDEST PUSH2 0x3C3 DUP2 PUSH2 0x3B1 JUMP JUMPDEST DUP3 MSTORE POP POP JUMP JUMPDEST PUSH0 PUSH1 0x20 DUP3 ADD SWAP1 POP PUSH2 0x3DC PUSH0 DUP4 ADD DUP5 PUSH2 0x3BA JUMP JUMPDEST SWAP3 SWAP2 POP POP JUMP JUMPDEST PUSH0 DUP1 REVERT JUMPDEST PUSH2 0x3EF DUP2 PUSH2 0x3B1 JUMP JUMPDEST DUP2 EQ PUSH2 0x3F9 JUMPI PUSH0 DUP1 REVERT JUMPDEST POP JUMP JUMPDEST PUSH0 DUP2 CALLDATALOAD SWAP1 POP PUSH2 0x40A DUP2 PUSH2 0x3E6 JUMP JUMPDEST SWAP3 SWAP2 POP POP JUMP JUMPDEST PUSH0 DUP1 PUSH1 0x40 DUP4 DUP6 SUB SLT ISZERO PUSH2 0x426 JUMPI PUSH2 0x425 PUSH2 0x3E2 JUMP JUMPDEST JUMPDEST PUSH0 PUSH2 0x433 DUP6 DUP3 DUP7 ADD PUSH2 0x3FC JUMP JUMPDEST SWAP3 POP POP PUSH1 0x20 PUSH2 0x444 DUP6 DUP3 DUP7 ADD PUSH2 0x3FC JUMP JUMPDEST SWAP2 POP POP SWAP3 POP SWAP3 SWAP1 POP JUMP JUMPDEST PUSH32 0x4E487B7100000000000000000000000000000000000000000000000000000000 PUSH0 MSTORE PUSH1 0x11 PUSH1 0x4 MSTORE PUSH1 0x24 PUSH0 REVERT JUMPDEST PUSH0 PUSH2 0x485 DUP3 PUSH2 0x3B1 JUMP JUMPDEST SWAP2 POP PUSH2 0x490 DUP4 PUSH2 0x3B1 JUMP JUMPDEST SWAP3 POP DUP3 DUP3 ADD SWAP1 POP DUP1 DUP3 GT ISZERO PUSH2 0x4A8 JUMPI PUSH2 0x4A7 PUSH2 0x44E JUMP JUMPDEST JUMPDEST SWAP3 SWAP2 POP POP JUMP JUMPDEST PUSH0 PUSH2 0x4B8 DUP3 PUSH2 0x3B1 JUMP JUMPDEST SWAP2 POP PUSH32 0xFFFFFFFFFFFFFFFFFFFFFFFFFFFFFFFFFFFFFFFFFFFFFFFFFFFFFFFFFFFFFFFF DUP3 SUB PUSH2 0x4EA JUMPI PUSH2 0x4E9 PUSH2 0x44E JUMP JUMPDEST JUMPDEST PUSH1 0x1 DUP3 ADD SWAP1 POP SWAP2 SWAP1 POP JUMP JUMPDEST PUSH0 PUSH20 0xFFFFFFFFFFFFFFFFFFFFFFFFFFFFFFFFFFFFFFFF DUP3 AND SWAP1 POP SWAP2 SWAP1 POP JUMP JUMPDEST PUSH0 PUSH2 0x51E DUP3 PUSH2 0x4F5 JUMP JUMPDEST SWAP1 POP SWAP2 SWAP1 POP JUMP JUMPDEST PUSH2 0x52E DUP2 PUSH2 0x514 JUMP JUMPDEST DUP3 MSTORE POP POP JUMP JUMPDEST PUSH0 PUSH1 0x20 DUP3 ADD SWAP1 POP PUSH2 0x547 PUSH0 DUP4 ADD DUP5 PUSH2 0x525 JUMP JUMPDEST SWAP3 SWAP2 POP POP JUMP JUMPDEST PUSH32 0x4E487B7100000000000000000000000000000000000000000000000000000000 PUSH0 MSTORE PUSH1 0x51 PUSH1 0x4 MSTORE PUSH1 0x24 PUSH0 REVERT INVALID LOG2 PUSH5 0x6970667358 0x22 SLT KECCAK256 PUSH6 0xEAFCFD41B37 0xC1 LT BLOBBASEFEE 0xC2 EXTCODESIZE 0xD2 0xCC 0xEC LOG3 STATICCALL 0xC PUSH24 0x5F9912AB9291ABB226B07F639964736F6C634300081A0033 "
		},
		"gasEstimates": {
			"creation": {
				"codeDepositCost": "291200",
				"executionCost": "329",
				"totalCost": "291529"
			},
			"external": {
				"getValue()": "2410",
				"modifiyState()": "24519",
				"notAccess(uint256,uint256)": "infinite",
				"notModifiy(uint256,uint256)": "infinite",
				"showGlobalVar()": "infinite"
			}
		},
		"methodIdentifiers": {
			"getValue()": "20965255",
			"modifiyState()": "b0ac4060",
			"notAccess(uint256,uint256)": "df4c9e15",
			"notModifiy(uint256,uint256)": "6079bab1",
			"showGlobalVar()": "bdcae8ab"
		}
	},
	"abi": [
		{
			"inputs": [],
			"name": "getValue",
			"outputs": [
				{
					"internalType": "uint256",
					"name": "",
					"type": "uint256"
				}
			],
			"stateMutability": "view",
			"type": "function"
		},
		{
			"inputs": [],
			"name": "modifiyState",
			"outputs": [],
			"stateMutability": "nonpayable",
			"type": "function"
		},
		{
			"inputs": [
				{
					"internalType": "uint256",
					"name": "a",
					"type": "uint256"
				},
				{
					"internalType": "uint256",
					"name": "b",
					"type": "uint256"
				}
			],
			"name": "notAccess",
			"outputs": [
				{
					"internalType": "uint256",
					"name": "",
					"type": "uint256"
				}
			],
			"stateMutability": "pure",
			"type": "function"
		},
		{
			"inputs": [
				{
					"internalType": "uint256",
					"name": "a",
					"type": "uint256"
				},
				{
					"internalType": "uint256",
					"name": "b",
					"type": "uint256"
				}
			],
			"name": "notModifiy",
			"outputs": [
				{
					"internalType": "uint256",
					"name": "",
					"type": "uint256"
				}
			],
			"stateMutability": "view",
			"type": "function"
		},
		{
			"inputs": [],
			"name": "showGlobalVar",
			"outputs": [],
			"stateMutability": "payable",
			"type": "function"
		}
	]
}