{
	"data": {
		"bytecode": {
			"linkReferences": {},
			"object": "608060405260845f553480156012575f80fd5b50610119806100205f395ff3fe6080604052348015600e575f80fd5b50600436106026575f3560e01c8063e710e21014602a575b5f80fd5b60406004803603810190603c91906090565b6054565b604051604b919060cc565b60405180910390f35b5f81549050919050565b5f80fd5b5f819050919050565b6072816062565b8114607b575f80fd5b50565b5f81359050608a81606b565b92915050565b5f6020828403121560a25760a1605e565b5b5f60ad84828501607e565b91505092915050565b5f819050919050565b60c68160b6565b82525050565b5f60208201905060dd5f83018460bf565b9291505056fea26469706673582212200e787753b2d9ba69387cb65157d4a8ae673eacceb9b0915f03c41fbfeb7ea33364736f6c634300081a0033",
			"opcodes": "PUSH1 0x80 PUSH1 0x40 MSTORE PUSH1 0x84 PUSH0 SSTORE CALLVALUE DUP1 ISZERO PUSH1 0x12 JUMPI PUSH0 DUP1 REVERT JUMPDEST POP PUSH2 0x119 DUP1 PUSH2 0x20 PUSH0 CODECOPY PUSH0 RETURN INVALID PUSH1 0x80 PUSH1 0x40 MSTORE CALLVALUE DUP1 ISZERO PUSH1 0xE JUMPI PUSH0 DUP1 REVERT JUMPDEST POP PUSH1 0x4 CALLDATASIZE LT PUSH1 0x26 JUMPI PUSH0 CALLDATALOAD PUSH1 0xE0 SHR DUP1 PUSH4 0xE710E210 EQ PUSH1 0x2A JUMPI JUMPDEST PUSH0 DUP1 REVERT JUMPDEST PUSH1 0x40 PUSH1 0x4 DUP1 CALLDATASIZE SUB DUP2 ADD SWAP1 PUSH1 0x3C SWAP2 SWAP1 PUSH1 0x90 JUMP JUMPDEST PUSH1 0x54 JUMP JUMPDEST PUSH1 0x40 MLOAD PUSH1 0x4B SWAP2 SWAP1 PUSH1 0xCC JUMP JUMPDEST PUSH1 0x40 MLOAD DUP1 SWAP2 SUB SWAP1 RETURN JUMPDEST PUSH0 DUP2 SLOAD SWAP1 POP SWAP2 SWAP1 POP JUMP JUMPDEST PUSH0 DUP1 REVERT JUMPDEST PUSH0 DUP2 SWAP1 POP SWAP2 SWAP1 POP JUMP JUMPDEST PUSH1 0x72 DUP2 PUSH1 0x62 JUMP JUMPDEST DUP2 EQ PUSH1 0x7B JUMPI PUSH0 DUP1 REVERT JUMPDEST POP JUMP JUMPDEST PUSH0 DUP2 CALLDATALOAD SWAP1 POP PUSH1 0x8A DUP2 PUSH1 0x6B JUMP JUMPDEST SWAP3 SWAP2 POP POP JUMP JUMPDEST PUSH0 PUSH1 0x20 DUP3 DUP5 SUB SLT ISZERO PUSH1 0xA2 JUMPI PUSH1 0xA1 PUSH1 0x5E JUMP JUMPDEST JUMPDEST PUSH0 PUSH1 0xAD DUP5 DUP3 DUP6 ADD PUSH1 0x7E JUMP JUMPDEST SWAP2 POP POP SWAP3 SWAP2 POP POP JUMP JUMPDEST PUSH0 DUP2 SWAP1 POP SWAP2 SWAP1 POP JUMP JUMPDEST PUSH1 0xC6 DUP2 PUSH1 0xB6 JUMP JUMPDEST DUP3 MSTORE POP POP JUMP JUMPDEST PUSH0 PUSH1 0x20 DUP3 ADD SWAP1 POP PUSH1 0xDD PUSH0 DUP4 ADD DUP5 PUSH1 0xBF JUMP JUMPDEST SWAP3 SWAP2 POP POP JUMP INVALID LOG2 PUSH5 0x6970667358 0x22 SLT KECCAK256 0xE PUSH25 0x7753B2D9BA69387CB65157D4A8AE673EACCEB9B0915F03C41F 0xBF 0xEB PUSH31 0xA33364736F6C634300081A0033000000000000000000000000000000000000 "
		},
		"gasEstimates": {
			"creation": {
				"codeDepositCost": "56200",
				"executionCost": "22208",
				"totalCost": "78408"
			},
			"external": {
				"retreiveSlotContent(uint256)": "2671"
			}
		},
		"methodIdentifiers": {
			"retreiveSlotContent(uint256)": "e710e210"
		}
	},
	"abi": [
		{
			"inputs": [
				{
					"internalType": "uint256",
					"name": "index",
					"type": "uint256"
				}
			],
			"name": "retreiveSlotContent",
			"outputs": [
				{
					"internalType": "bytes32",
					"name": "content",
					"type": "bytes32"
				}
			],
			"stateMutability": "view",
			"type": "function"
		}
	]
}