{
	"data": {
		"bytecode": {
			"linkReferences": {},
			"object": "6080604052348015600e575f80fd5b50610e9b8061001c5f395ff3fe608060405234801561000f575f80fd5b5060043610610086575f3560e01c8063595c380e11610059578063595c380e146100c457806363a3d4b6146100ce578063aed11580146100d8578063b0d07c21146100e257610086565b8063019dcdb91461008a57806304d0f4e9146100945780630df60b1e146100b057806338f14e0f146100ba575b5f80fd5b6100926100ec565b005b6100ae60048036038101906100a9919061074c565b610151565b005b6100b8610155565b005b6100c26101ab565b005b6100cc61022a565b005b6100d66102a6565b005b6100e0610346565b005b6100ea61039c565b005b61014f6001614567604051602401610105929190610811565b6040516020818303038152906040526304d0f4e960e01b6020820180517bffffffffffffffffffffffffffffffffffffffffffffffffffffffff838183161783525050505061049a565b565b5050565b61017f6111d760405160200161016b91906108d8565b60405160208183030381529060405261049a565b6101a96111d76040516020016101959190610958565b60405160208183030381529060405261049a565b565b6101d56111d76040516020016101c1919061097d565b60405160208183030381529060405261049a565b61020261456760f01b6040516020016101ee91906109b7565b60405160208183030381529060405261049a565b610228604051602001610214906109d1565b60405160208183030381529060405261049a565b565b6102546111d760405160200161024091906109f4565b60405160208183030381529060405261049a565b61027e61456760405160200161026a9190610a3d565b60405160208183030381529060405261049a565b6102a460405160200161029090610a56565b60405160208183030381529060405261049a565b565b610344600161456760f01b6040516024016102c2929190610abf565b6040516020818303038152906040527f04d0f4e9000000000000000000000000000000000000000000000000000000007bffffffffffffffffffffffffffffffffffffffffffffffffffffffff19166020820180517bffffffffffffffffffffffffffffffffffffffffffffffffffffffff838183161783525050505061049a565b565b5f6111d760405160200161035a91906108d8565b60405160208183030381529060405290505f80828060200190518101906103819190610c36565b9150915061038e82610533565b610397816105cc565b505050565b6104226304d0f4e960e01b600161456760f01b6040516024016103c0929190610abf565b604051602081830303815290604052907bffffffffffffffffffffffffffffffffffffffffffffffffffffffff19166020820180517bffffffffffffffffffffffffffffffffffffffffffffffffffffffff838183161783525050505061049a565b5f7f04d0f4e964613477c10be911c5d0b6bcf8baa1a767b85cdbb6783ae5c46239c0905061049781600161456760f01b604051602001610463929190610abf565b604051602081830303815290604052604051602001610483929190610d1f565b60405160208183030381529060405261049a565b50565b610530816040516024016104ae9190610d8e565b6040516020818303038152906040527f0be77f56000000000000000000000000000000000000000000000000000000007bffffffffffffffffffffffffffffffffffffffffffffffffffffffff19166020820180517bffffffffffffffffffffffffffffffffffffffffffffffffffffffff8381831617835250505050610665565b50565b6105c9816040516024016105479190610dbd565b6040516020818303038152906040527ff82c50f1000000000000000000000000000000000000000000000000000000007bffffffffffffffffffffffffffffffffffffffffffffffffffffffff19166020820180517bffffffffffffffffffffffffffffffffffffffffffffffffffffffff8381831617835250505050610665565b50565b610662816040516024016105e09190610e18565b6040516020818303038152906040527f41304fac000000000000000000000000000000000000000000000000000000007bffffffffffffffffffffffffffffffffffffffffffffffffffffffff19166020820180517bffffffffffffffffffffffffffffffffffffffffffffffffffffffff8381831617835250505050610665565b50565b61067c8161067461067f61069e565b63ffffffff16565b50565b5f6a636f6e736f6c652e6c6f6790505f80835160208501845afa505050565b6106a9819050919050565b6106b1610e38565b565b5f604051905090565b5f80fd5b5f80fd5b5f819050919050565b6106d6816106c4565b81146106e0575f80fd5b50565b5f813590506106f1816106cd565b92915050565b5f7fffff00000000000000000000000000000000000000000000000000000000000082169050919050565b61072b816106f7565b8114610735575f80fd5b50565b5f8135905061074681610722565b92915050565b5f8060408385031215610762576107616106bc565b5b5f61076f858286016106e3565b925050602061078085828601610738565b9150509250929050565b5f819050919050565b5f819050919050565b5f6107b66107b16107ac8461078a565b610793565b6106c4565b9050919050565b6107c68161079c565b82525050565b5f819050919050565b5f8160f01b9050919050565b5f6107fb6107f66107f1846107cc565b6107d5565b6106f7565b9050919050565b61080b816107e1565b82525050565b5f6040820190506108245f8301856107bd565b6108316020830184610802565b9392505050565b5f819050919050565b5f61ffff82169050919050565b5f61086861086361085e84610838565b610793565b610841565b9050919050565b6108788161084e565b82525050565b5f82825260208201905092915050565b7f34353637000000000000000000000000000000000000000000000000000000005f82015250565b5f6108c260048361087e565b91506108cd8261088e565b602082019050919050565b5f6040820190506108eb5f83018461086f565b81810360208301526108fc816108b6565b905092915050565b5f61090e826107d5565b9050919050565b61092661092182610841565b610904565b82525050565b5f81905092915050565b5f61094260048361092c565b915061094d8261088e565b600482019050919050565b5f6109638284610915565b60028201915061097282610936565b915081905092915050565b5f6109888284610915565b60028201915081905092915050565b5f819050919050565b6109b16109ac826106f7565b610997565b82525050565b5f6109c282846109a0565b60028201915081905092915050565b5f6109db82610936565b9150819050919050565b6109ee81610841565b82525050565b5f602082019050610a075f8301846109e5565b92915050565b5f610a27610a22610a1d846107cc565b610793565b610841565b9050919050565b610a3781610a0d565b82525050565b5f602082019050610a505f830184610a2e565b92915050565b5f6020820190508181035f830152610a6d816108b6565b9050919050565b5f60ff82169050919050565b5f610a9a610a95610a908461078a565b610793565b610a74565b9050919050565b610aaa81610a80565b82525050565b610ab9816106f7565b82525050565b5f604082019050610ad25f830185610aa1565b610adf6020830184610ab0565b9392505050565b5f81519050610af4816106cd565b92915050565b5f80fd5b5f80fd5b5f601f19601f8301169050919050565b7f4e487b71000000000000000000000000000000000000000000000000000000005f52604160045260245ffd5b610b4882610b02565b810181811067ffffffffffffffff82111715610b6757610b66610b12565b5b80604052505050565b5f610b796106b3565b9050610b858282610b3f565b919050565b5f67ffffffffffffffff821115610ba457610ba3610b12565b5b610bad82610b02565b9050602081019050919050565b8281835e5f83830152505050565b5f610bda610bd584610b8a565b610b70565b905082815260208101848484011115610bf657610bf5610afe565b5b610c01848285610bba565b509392505050565b5f82601f830112610c1d57610c1c610afa565b5b8151610c2d848260208601610bc8565b91505092915050565b5f8060408385031215610c4c57610c4b6106bc565b5b5f610c5985828601610ae6565b925050602083015167ffffffffffffffff811115610c7a57610c796106c0565b5b610c8685828601610c09565b9150509250929050565b5f7fffffffff0000000000000000000000000000000000000000000000000000000082169050919050565b5f819050919050565b610cd5610cd082610c90565b610cbb565b82525050565b5f81519050919050565b5f81905092915050565b5f610cf982610cdb565b610d038185610ce5565b9350610d13818560208601610bba565b80840191505092915050565b5f610d2a8285610cc4565b600482019150610d3a8284610cef565b91508190509392505050565b5f82825260208201905092915050565b5f610d6082610cdb565b610d6a8185610d46565b9350610d7a818560208601610bba565b610d8381610b02565b840191505092915050565b5f6020820190508181035f830152610da68184610d56565b905092915050565b610db7816106c4565b82525050565b5f602082019050610dd05f830184610dae565b92915050565b5f81519050919050565b5f610dea82610dd6565b610df4818561087e565b9350610e04818560208601610bba565b610e0d81610b02565b840191505092915050565b5f6020820190508181035f830152610e308184610de0565b905092915050565b7f4e487b71000000000000000000000000000000000000000000000000000000005f52605160045260245ffdfea264697066735822122047544d179938d4e547504f465c525e3ff72f8a6408bc170d532e5a9a2edefe4264736f6c634300081a0033",
			"opcodes": "PUSH1 0x80 PUSH1 0x40 MSTORE CALLVALUE DUP1 ISZERO PUSH1 0xE JUMPI PUSH0 DUP1 REVERT JUMPDEST POP PUSH2 0xE9B DUP1 PUSH2 0x1C PUSH0 CODECOPY PUSH0 RETURN INVALID PUSH1 0x80 PUSH1 0x40 MSTORE CALLVALUE DUP1 ISZERO PUSH2 0xF JUMPI PUSH0 DUP1 REVERT JUMPDEST POP PUSH1 0x4 CALLDATASIZE LT PUSH2 0x86 JUMPI PUSH0 CALLDATALOAD PUSH1 0xE0 SHR DUP1 PUSH4 0x595C380E GT PUSH2 0x59 JUMPI DUP1 PUSH4 0x595C380E EQ PUSH2 0xC4 JUMPI DUP1 PUSH4 0x63A3D4B6 EQ PUSH2 0xCE JUMPI DUP1 PUSH4 0xAED11580 EQ PUSH2 0xD8 JUMPI DUP1 PUSH4 0xB0D07C21 EQ PUSH2 0xE2 JUMPI PUSH2 0x86 JUMP JUMPDEST DUP1 PUSH4 0x19DCDB9 EQ PUSH2 0x8A JUMPI DUP1 PUSH4 0x4D0F4E9 EQ PUSH2 0x94 JUMPI DUP1 PUSH4 0xDF60B1E EQ PUSH2 0xB0 JUMPI DUP1 PUSH4 0x38F14E0F EQ PUSH2 0xBA JUMPI JUMPDEST PUSH0 DUP1 REVERT JUMPDEST PUSH2 0x92 PUSH2 0xEC JUMP JUMPDEST STOP JUMPDEST PUSH2 0xAE PUSH1 0x4 DUP1 CALLDATASIZE SUB DUP2 ADD SWAP1 PUSH2 0xA9 SWAP2 SWAP1 PUSH2 0x74C JUMP JUMPDEST PUSH2 0x151 JUMP JUMPDEST STOP JUMPDEST PUSH2 0xB8 PUSH2 0x155 JUMP JUMPDEST STOP JUMPDEST PUSH2 0xC2 PUSH2 0x1AB JUMP JUMPDEST STOP JUMPDEST PUSH2 0xCC PUSH2 0x22A JUMP JUMPDEST STOP JUMPDEST PUSH2 0xD6 PUSH2 0x2A6 JUMP JUMPDEST STOP JUMPDEST PUSH2 0xE0 PUSH2 0x346 JUMP JUMPDEST STOP JUMPDEST PUSH2 0xEA PUSH2 0x39C JUMP JUMPDEST STOP JUMPDEST PUSH2 0x14F PUSH1 0x1 PUSH2 0x4567 PUSH1 0x40 MLOAD PUSH1 0x24 ADD PUSH2 0x105 SWAP3 SWAP2 SWAP1 PUSH2 0x811 JUMP JUMPDEST PUSH1 0x40 MLOAD PUSH1 0x20 DUP2 DUP4 SUB SUB DUP2 MSTORE SWAP1 PUSH1 0x40 MSTORE PUSH4 0x4D0F4E9 PUSH1 0xE0 SHL PUSH1 0x20 DUP3 ADD DUP1 MLOAD PUSH28 0xFFFFFFFFFFFFFFFFFFFFFFFFFFFFFFFFFFFFFFFFFFFFFFFFFFFFFFFF DUP4 DUP2 DUP4 AND OR DUP4 MSTORE POP POP POP POP PUSH2 0x49A JUMP JUMPDEST JUMP JUMPDEST POP POP JUMP JUMPDEST PUSH2 0x17F PUSH2 0x11D7 PUSH1 0x40 MLOAD PUSH1 0x20 ADD PUSH2 0x16B SWAP2 SWAP1 PUSH2 0x8D8 JUMP JUMPDEST PUSH1 0x40 MLOAD PUSH1 0x20 DUP2 DUP4 SUB SUB DUP2 MSTORE SWAP1 PUSH1 0x40 MSTORE PUSH2 0x49A JUMP JUMPDEST PUSH2 0x1A9 PUSH2 0x11D7 PUSH1 0x40 MLOAD PUSH1 0x20 ADD PUSH2 0x195 SWAP2 SWAP1 PUSH2 0x958 JUMP JUMPDEST PUSH1 0x40 MLOAD PUSH1 0x20 DUP2 DUP4 SUB SUB DUP2 MSTORE SWAP1 PUSH1 0x40 MSTORE PUSH2 0x49A JUMP JUMPDEST JUMP JUMPDEST PUSH2 0x1D5 PUSH2 0x11D7 PUSH1 0x40 MLOAD PUSH1 0x20 ADD PUSH2 0x1C1 SWAP2 SWAP1 PUSH2 0x97D JUMP JUMPDEST PUSH1 0x40 MLOAD PUSH1 0x20 DUP2 DUP4 SUB SUB DUP2 MSTORE SWAP1 PUSH1 0x40 MSTORE PUSH2 0x49A JUMP JUMPDEST PUSH2 0x202 PUSH2 0x4567 PUSH1 0xF0 SHL PUSH1 0x40 MLOAD PUSH1 0x20 ADD PUSH2 0x1EE SWAP2 SWAP1 PUSH2 0x9B7 JUMP JUMPDEST PUSH1 0x40 MLOAD PUSH1 0x20 DUP2 DUP4 SUB SUB DUP2 MSTORE SWAP1 PUSH1 0x40 MSTORE PUSH2 0x49A JUMP JUMPDEST PUSH2 0x228 PUSH1 0x40 MLOAD PUSH1 0x20 ADD PUSH2 0x214 SWAP1 PUSH2 0x9D1 JUMP JUMPDEST PUSH1 0x40 MLOAD PUSH1 0x20 DUP2 DUP4 SUB SUB DUP2 MSTORE SWAP1 PUSH1 0x40 MSTORE PUSH2 0x49A JUMP JUMPDEST JUMP JUMPDEST PUSH2 0x254 PUSH2 0x11D7 PUSH1 0x40 MLOAD PUSH1 0x20 ADD PUSH2 0x240 SWAP2 SWAP1 PUSH2 0x9F4 JUMP JUMPDEST PUSH1 0x40 MLOAD PUSH1 0x20 DUP2 DUP4 SUB SUB DUP2 MSTORE SWAP1 PUSH1 0x40 MSTORE PUSH2 0x49A JUMP JUMPDEST PUSH2 0x27E PUSH2 0x4567 PUSH1 0x40 MLOAD PUSH1 0x20 ADD PUSH2 0x26A SWAP2 SWAP1 PUSH2 0xA3D JUMP JUMPDEST PUSH1 0x40 MLOAD PUSH1 0x20 DUP2 DUP4 SUB SUB DUP2 MSTORE SWAP1 PUSH1 0x40 MSTORE PUSH2 0x49A JUMP JUMPDEST PUSH2 0x2A4 PUSH1 0x40 MLOAD PUSH1 0x20 ADD PUSH2 0x290 SWAP1 PUSH2 0xA56 JUMP JUMPDEST PUSH1 0x40 MLOAD PUSH1 0x20 DUP2 DUP4 SUB SUB DUP2 MSTORE SWAP1 PUSH1 0x40 MSTORE PUSH2 0x49A JUMP JUMPDEST JUMP JUMPDEST PUSH2 0x344 PUSH1 0x1 PUSH2 0x4567 PUSH1 0xF0 SHL PUSH1 0x40 MLOAD PUSH1 0x24 ADD PUSH2 0x2C2 SWAP3 SWAP2 SWAP1 PUSH2 0xABF JUMP JUMPDEST PUSH1 0x40 MLOAD PUSH1 0x20 DUP2 DUP4 SUB SUB DUP2 MSTORE SWAP1 PUSH1 0x40 MSTORE PUSH32 0x4D0F4E900000000000000000000000000000000000000000000000000000000 PUSH28 0xFFFFFFFFFFFFFFFFFFFFFFFFFFFFFFFFFFFFFFFFFFFFFFFFFFFFFFFF NOT AND PUSH1 0x20 DUP3 ADD DUP1 MLOAD PUSH28 0xFFFFFFFFFFFFFFFFFFFFFFFFFFFFFFFFFFFFFFFFFFFFFFFFFFFFFFFF DUP4 DUP2 DUP4 AND OR DUP4 MSTORE POP POP POP POP PUSH2 0x49A JUMP JUMPDEST JUMP JUMPDEST PUSH0 PUSH2 0x11D7 PUSH1 0x40 MLOAD PUSH1 0x20 ADD PUSH2 0x35A SWAP2 SWAP1 PUSH2 0x8D8 JUMP JUMPDEST PUSH1 0x40 MLOAD PUSH1 0x20 DUP2 DUP4 SUB SUB DUP2 MSTORE SWAP1 PUSH1 0x40 MSTORE SWAP1 POP PUSH0 DUP1 DUP3 DUP1 PUSH1 0x20 ADD SWAP1 MLOAD DUP2 ADD SWAP1 PUSH2 0x381 SWAP2 SWAP1 PUSH2 0xC36 JUMP JUMPDEST SWAP2 POP SWAP2 POP PUSH2 0x38E DUP3 PUSH2 0x533 JUMP JUMPDEST PUSH2 0x397 DUP2 PUSH2 0x5CC JUMP JUMPDEST POP POP POP JUMP JUMPDEST PUSH2 0x422 PUSH4 0x4D0F4E9 PUSH1 0xE0 SHL PUSH1 0x1 PUSH2 0x4567 PUSH1 0xF0 SHL PUSH1 0x40 MLOAD PUSH1 0x24 ADD PUSH2 0x3C0 SWAP3 SWAP2 SWAP1 PUSH2 0xABF JUMP JUMPDEST PUSH1 0x40 MLOAD PUSH1 0x20 DUP2 DUP4 SUB SUB DUP2 MSTORE SWAP1 PUSH1 0x40 MSTORE SWAP1 PUSH28 0xFFFFFFFFFFFFFFFFFFFFFFFFFFFFFFFFFFFFFFFFFFFFFFFFFFFFFFFF NOT AND PUSH1 0x20 DUP3 ADD DUP1 MLOAD PUSH28 0xFFFFFFFFFFFFFFFFFFFFFFFFFFFFFFFFFFFFFFFFFFFFFFFFFFFFFFFF DUP4 DUP2 DUP4 AND OR DUP4 MSTORE POP POP POP POP PUSH2 0x49A JUMP JUMPDEST PUSH0 PUSH32 0x4D0F4E964613477C10BE911C5D0B6BCF8BAA1A767B85CDBB6783AE5C46239C0 SWAP1 POP PUSH2 0x497 DUP2 PUSH1 0x1 PUSH2 0x4567 PUSH1 0xF0 SHL PUSH1 0x40 MLOAD PUSH1 0x20 ADD PUSH2 0x463 SWAP3 SWAP2 SWAP1 PUSH2 0xABF JUMP JUMPDEST PUSH1 0x40 MLOAD PUSH1 0x20 DUP2 DUP4 SUB SUB DUP2 MSTORE SWAP1 PUSH1 0x40 MSTORE PUSH1 0x40 MLOAD PUSH1 0x20 ADD PUSH2 0x483 SWAP3 SWAP2 SWAP1 PUSH2 0xD1F JUMP JUMPDEST PUSH1 0x40 MLOAD PUSH1 0x20 DUP2 DUP4 SUB SUB DUP2 MSTORE SWAP1 PUSH1 0x40 MSTORE PUSH2 0x49A JUMP JUMPDEST POP JUMP JUMPDEST PUSH2 0x530 DUP2 PUSH1 0x40 MLOAD PUSH1 0x24 ADD PUSH2 0x4AE SWAP2 SWAP1 PUSH2 0xD8E JUMP JUMPDEST PUSH1 0x40 MLOAD PUSH1 0x20 DUP2 DUP4 SUB SUB DUP2 MSTORE SWAP1 PUSH1 0x40 MSTORE PUSH32 0xBE77F5600000000000000000000000000000000000000000000000000000000 PUSH28 0xFFFFFFFFFFFFFFFFFFFFFFFFFFFFFFFFFFFFFFFFFFFFFFFFFFFFFFFF NOT AND PUSH1 0x20 DUP3 ADD DUP1 MLOAD PUSH28 0xFFFFFFFFFFFFFFFFFFFFFFFFFFFFFFFFFFFFFFFFFFFFFFFFFFFFFFFF DUP4 DUP2 DUP4 AND OR DUP4 MSTORE POP POP POP POP PUSH2 0x665 JUMP JUMPDEST POP JUMP JUMPDEST PUSH2 0x5C9 DUP2 PUSH1 0x40 MLOAD PUSH1 0x24 ADD PUSH2 0x547 SWAP2 SWAP1 PUSH2 0xDBD JUMP JUMPDEST PUSH1 0x40 MLOAD PUSH1 0x20 DUP2 DUP4 SUB SUB DUP2 MSTORE SWAP1 PUSH1 0x40 MSTORE PUSH32 0xF82C50F100000000000000000000000000000000000000000000000000000000 PUSH28 0xFFFFFFFFFFFFFFFFFFFFFFFFFFFFFFFFFFFFFFFFFFFFFFFFFFFFFFFF NOT AND PUSH1 0x20 DUP3 ADD DUP1 MLOAD PUSH28 0xFFFFFFFFFFFFFFFFFFFFFFFFFFFFFFFFFFFFFFFFFFFFFFFFFFFFFFFF DUP4 DUP2 DUP4 AND OR DUP4 MSTORE POP POP POP POP PUSH2 0x665 JUMP JUMPDEST POP JUMP JUMPDEST PUSH2 0x662 DUP2 PUSH1 0x40 MLOAD PUSH1 0x24 ADD PUSH2 0x5E0 SWAP2 SWAP1 PUSH2 0xE18 JUMP JUMPDEST PUSH1 0x40 MLOAD PUSH1 0x20 DUP2 DUP4 SUB SUB DUP2 MSTORE SWAP1 PUSH1 0x40 MSTORE PUSH32 0x41304FAC00000000000000000000000000000000000000000000000000000000 PUSH28 0xFFFFFFFFFFFFFFFFFFFFFFFFFFFFFFFFFFFFFFFFFFFFFFFFFFFFFFFF NOT AND PUSH1 0x20 DUP3 ADD DUP1 MLOAD PUSH28 0xFFFFFFFFFFFFFFFFFFFFFFFFFFFFFFFFFFFFFFFFFFFFFFFFFFFFFFFF DUP4 DUP2 DUP4 AND OR DUP4 MSTORE POP POP POP POP PUSH2 0x665 JUMP JUMPDEST POP JUMP JUMPDEST PUSH2 0x67C DUP2 PUSH2 0x674 PUSH2 0x67F PUSH2 0x69E JUMP JUMPDEST PUSH4 0xFFFFFFFF AND JUMP JUMPDEST POP JUMP JUMPDEST PUSH0 PUSH11 0x636F6E736F6C652E6C6F67 SWAP1 POP PUSH0 DUP1 DUP4 MLOAD PUSH1 0x20 DUP6 ADD DUP5 GAS STATICCALL POP POP POP JUMP JUMPDEST PUSH2 0x6A9 DUP2 SWAP1 POP SWAP2 SWAP1 POP JUMP JUMPDEST PUSH2 0x6B1 PUSH2 0xE38 JUMP JUMPDEST JUMP JUMPDEST PUSH0 PUSH1 0x40 MLOAD SWAP1 POP SWAP1 JUMP JUMPDEST PUSH0 DUP1 REVERT JUMPDEST PUSH0 DUP1 REVERT JUMPDEST PUSH0 DUP2 SWAP1 POP SWAP2 SWAP1 POP JUMP JUMPDEST PUSH2 0x6D6 DUP2 PUSH2 0x6C4 JUMP JUMPDEST DUP2 EQ PUSH2 0x6E0 JUMPI PUSH0 DUP1 REVERT JUMPDEST POP JUMP JUMPDEST PUSH0 DUP2 CALLDATALOAD SWAP1 POP PUSH2 0x6F1 DUP2 PUSH2 0x6CD JUMP JUMPDEST SWAP3 SWAP2 POP POP JUMP JUMPDEST PUSH0 PUSH32 0xFFFF000000000000000000000000000000000000000000000000000000000000 DUP3 AND SWAP1 POP SWAP2 SWAP1 POP JUMP JUMPDEST PUSH2 0x72B DUP2 PUSH2 0x6F7 JUMP JUMPDEST DUP2 EQ PUSH2 0x735 JUMPI PUSH0 DUP1 REVERT JUMPDEST POP JUMP JUMPDEST PUSH0 DUP2 CALLDATALOAD SWAP1 POP PUSH2 0x746 DUP2 PUSH2 0x722 JUMP JUMPDEST SWAP3 SWAP2 POP POP JUMP JUMPDEST PUSH0 DUP1 PUSH1 0x40 DUP4 DUP6 SUB SLT ISZERO PUSH2 0x762 JUMPI PUSH2 0x761 PUSH2 0x6BC JUMP JUMPDEST JUMPDEST PUSH0 PUSH2 0x76F DUP6 DUP3 DUP7 ADD PUSH2 0x6E3 JUMP JUMPDEST SWAP3 POP POP PUSH1 0x20 PUSH2 0x780 DUP6 DUP3 DUP7 ADD PUSH2 0x738 JUMP JUMPDEST SWAP2 POP POP SWAP3 POP SWAP3 SWAP1 POP JUMP JUMPDEST PUSH0 DUP2 SWAP1 POP SWAP2 SWAP1 POP JUMP JUMPDEST PUSH0 DUP2 SWAP1 POP SWAP2 SWAP1 POP JUMP JUMPDEST PUSH0 PUSH2 0x7B6 PUSH2 0x7B1 PUSH2 0x7AC DUP5 PUSH2 0x78A JUMP JUMPDEST PUSH2 0x793 JUMP JUMPDEST PUSH2 0x6C4 JUMP JUMPDEST SWAP1 POP SWAP2 SWAP1 POP JUMP JUMPDEST PUSH2 0x7C6 DUP2 PUSH2 0x79C JUMP JUMPDEST DUP3 MSTORE POP POP JUMP JUMPDEST PUSH0 DUP2 SWAP1 POP SWAP2 SWAP1 POP JUMP JUMPDEST PUSH0 DUP2 PUSH1 0xF0 SHL SWAP1 POP SWAP2 SWAP1 POP JUMP JUMPDEST PUSH0 PUSH2 0x7FB PUSH2 0x7F6 PUSH2 0x7F1 DUP5 PUSH2 0x7CC JUMP JUMPDEST PUSH2 0x7D5 JUMP JUMPDEST PUSH2 0x6F7 JUMP JUMPDEST SWAP1 POP SWAP2 SWAP1 POP JUMP JUMPDEST PUSH2 0x80B DUP2 PUSH2 0x7E1 JUMP JUMPDEST DUP3 MSTORE POP POP JUMP JUMPDEST PUSH0 PUSH1 0x40 DUP3 ADD SWAP1 POP PUSH2 0x824 PUSH0 DUP4 ADD DUP6 PUSH2 0x7BD JUMP JUMPDEST PUSH2 0x831 PUSH1 0x20 DUP4 ADD DUP5 PUSH2 0x802 JUMP JUMPDEST SWAP4 SWAP3 POP POP POP JUMP JUMPDEST PUSH0 DUP2 SWAP1 POP SWAP2 SWAP1 POP JUMP JUMPDEST PUSH0 PUSH2 0xFFFF DUP3 AND SWAP1 POP SWAP2 SWAP1 POP JUMP JUMPDEST PUSH0 PUSH2 0x868 PUSH2 0x863 PUSH2 0x85E DUP5 PUSH2 0x838 JUMP JUMPDEST PUSH2 0x793 JUMP JUMPDEST PUSH2 0x841 JUMP JUMPDEST SWAP1 POP SWAP2 SWAP1 POP JUMP JUMPDEST PUSH2 0x878 DUP2 PUSH2 0x84E JUMP JUMPDEST DUP3 MSTORE POP POP JUMP JUMPDEST PUSH0 DUP3 DUP3 MSTORE PUSH1 0x20 DUP3 ADD SWAP1 POP SWAP3 SWAP2 POP POP JUMP JUMPDEST PUSH32 0x3435363700000000000000000000000000000000000000000000000000000000 PUSH0 DUP3 ADD MSTORE POP JUMP JUMPDEST PUSH0 PUSH2 0x8C2 PUSH1 0x4 DUP4 PUSH2 0x87E JUMP JUMPDEST SWAP2 POP PUSH2 0x8CD DUP3 PUSH2 0x88E JUMP JUMPDEST PUSH1 0x20 DUP3 ADD SWAP1 POP SWAP2 SWAP1 POP JUMP JUMPDEST PUSH0 PUSH1 0x40 DUP3 ADD SWAP1 POP PUSH2 0x8EB PUSH0 DUP4 ADD DUP5 PUSH2 0x86F JUMP JUMPDEST DUP2 DUP2 SUB PUSH1 0x20 DUP4 ADD MSTORE PUSH2 0x8FC DUP2 PUSH2 0x8B6 JUMP JUMPDEST SWAP1 POP SWAP3 SWAP2 POP POP JUMP JUMPDEST PUSH0 PUSH2 0x90E DUP3 PUSH2 0x7D5 JUMP JUMPDEST SWAP1 POP SWAP2 SWAP1 POP JUMP JUMPDEST PUSH2 0x926 PUSH2 0x921 DUP3 PUSH2 0x841 JUMP JUMPDEST PUSH2 0x904 JUMP JUMPDEST DUP3 MSTORE POP POP JUMP JUMPDEST PUSH0 DUP2 SWAP1 POP SWAP3 SWAP2 POP POP JUMP JUMPDEST PUSH0 PUSH2 0x942 PUSH1 0x4 DUP4 PUSH2 0x92C JUMP JUMPDEST SWAP2 POP PUSH2 0x94D DUP3 PUSH2 0x88E JUMP JUMPDEST PUSH1 0x4 DUP3 ADD SWAP1 POP SWAP2 SWAP1 POP JUMP JUMPDEST PUSH0 PUSH2 0x963 DUP3 DUP5 PUSH2 0x915 JUMP JUMPDEST PUSH1 0x2 DUP3 ADD SWAP2 POP PUSH2 0x972 DUP3 PUSH2 0x936 JUMP JUMPDEST SWAP2 POP DUP2 SWAP1 POP SWAP3 SWAP2 POP POP JUMP JUMPDEST PUSH0 PUSH2 0x988 DUP3 DUP5 PUSH2 0x915 JUMP JUMPDEST PUSH1 0x2 DUP3 ADD SWAP2 POP DUP2 SWAP1 POP SWAP3 SWAP2 POP POP JUMP JUMPDEST PUSH0 DUP2 SWAP1 POP SWAP2 SWAP1 POP JUMP JUMPDEST PUSH2 0x9B1 PUSH2 0x9AC DUP3 PUSH2 0x6F7 JUMP JUMPDEST PUSH2 0x997 JUMP JUMPDEST DUP3 MSTORE POP POP JUMP JUMPDEST PUSH0 PUSH2 0x9C2 DUP3 DUP5 PUSH2 0x9A0 JUMP JUMPDEST PUSH1 0x2 DUP3 ADD SWAP2 POP DUP2 SWAP1 POP SWAP3 SWAP2 POP POP JUMP JUMPDEST PUSH0 PUSH2 0x9DB DUP3 PUSH2 0x936 JUMP JUMPDEST SWAP2 POP DUP2 SWAP1 POP SWAP2 SWAP1 POP JUMP JUMPDEST PUSH2 0x9EE DUP2 PUSH2 0x841 JUMP JUMPDEST DUP3 MSTORE POP POP JUMP JUMPDEST PUSH0 PUSH1 0x20 DUP3 ADD SWAP1 POP PUSH2 0xA07 PUSH0 DUP4 ADD DUP5 PUSH2 0x9E5 JUMP JUMPDEST SWAP3 SWAP2 POP POP JUMP JUMPDEST PUSH0 PUSH2 0xA27 PUSH2 0xA22 PUSH2 0xA1D DUP5 PUSH2 0x7CC JUMP JUMPDEST PUSH2 0x793 JUMP JUMPDEST PUSH2 0x841 JUMP JUMPDEST SWAP1 POP SWAP2 SWAP1 POP JUMP JUMPDEST PUSH2 0xA37 DUP2 PUSH2 0xA0D JUMP JUMPDEST DUP3 MSTORE POP POP JUMP JUMPDEST PUSH0 PUSH1 0x20 DUP3 ADD SWAP1 POP PUSH2 0xA50 PUSH0 DUP4 ADD DUP5 PUSH2 0xA2E JUMP JUMPDEST SWAP3 SWAP2 POP POP JUMP JUMPDEST PUSH0 PUSH1 0x20 DUP3 ADD SWAP1 POP DUP2 DUP2 SUB PUSH0 DUP4 ADD MSTORE PUSH2 0xA6D DUP2 PUSH2 0x8B6 JUMP JUMPDEST SWAP1 POP SWAP2 SWAP1 POP JUMP JUMPDEST PUSH0 PUSH1 0xFF DUP3 AND SWAP1 POP SWAP2 SWAP1 POP JUMP JUMPDEST PUSH0 PUSH2 0xA9A PUSH2 0xA95 PUSH2 0xA90 DUP5 PUSH2 0x78A JUMP JUMPDEST PUSH2 0x793 JUMP JUMPDEST PUSH2 0xA74 JUMP JUMPDEST SWAP1 POP SWAP2 SWAP1 POP JUMP JUMPDEST PUSH2 0xAAA DUP2 PUSH2 0xA80 JUMP JUMPDEST DUP3 MSTORE POP POP JUMP JUMPDEST PUSH2 0xAB9 DUP2 PUSH2 0x6F7 JUMP JUMPDEST DUP3 MSTORE POP POP JUMP JUMPDEST PUSH0 PUSH1 0x40 DUP3 ADD SWAP1 POP PUSH2 0xAD2 PUSH0 DUP4 ADD DUP6 PUSH2 0xAA1 JUMP JUMPDEST PUSH2 0xADF PUSH1 0x20 DUP4 ADD DUP5 PUSH2 0xAB0 JUMP JUMPDEST SWAP4 SWAP3 POP POP POP JUMP JUMPDEST PUSH0 DUP2 MLOAD SWAP1 POP PUSH2 0xAF4 DUP2 PUSH2 0x6CD JUMP JUMPDEST SWAP3 SWAP2 POP POP JUMP JUMPDEST PUSH0 DUP1 REVERT JUMPDEST PUSH0 DUP1 REVERT JUMPDEST PUSH0 PUSH1 0x1F NOT PUSH1 0x1F DUP4 ADD AND SWAP1 POP SWAP2 SWAP1 POP JUMP JUMPDEST PUSH32 0x4E487B7100000000000000000000000000000000000000000000000000000000 PUSH0 MSTORE PUSH1 0x41 PUSH1 0x4 MSTORE PUSH1 0x24 PUSH0 REVERT JUMPDEST PUSH2 0xB48 DUP3 PUSH2 0xB02 JUMP JUMPDEST DUP2 ADD DUP2 DUP2 LT PUSH8 0xFFFFFFFFFFFFFFFF DUP3 GT OR ISZERO PUSH2 0xB67 JUMPI PUSH2 0xB66 PUSH2 0xB12 JUMP JUMPDEST JUMPDEST DUP1 PUSH1 0x40 MSTORE POP POP POP JUMP JUMPDEST PUSH0 PUSH2 0xB79 PUSH2 0x6B3 JUMP JUMPDEST SWAP1 POP PUSH2 0xB85 DUP3 DUP3 PUSH2 0xB3F JUMP JUMPDEST SWAP2 SWAP1 POP JUMP JUMPDEST PUSH0 PUSH8 0xFFFFFFFFFFFFFFFF DUP3 GT ISZERO PUSH2 0xBA4 JUMPI PUSH2 0xBA3 PUSH2 0xB12 JUMP JUMPDEST JUMPDEST PUSH2 0xBAD DUP3 PUSH2 0xB02 JUMP JUMPDEST SWAP1 POP PUSH1 0x20 DUP2 ADD SWAP1 POP SWAP2 SWAP1 POP JUMP JUMPDEST DUP3 DUP2 DUP4 MCOPY PUSH0 DUP4 DUP4 ADD MSTORE POP POP POP JUMP JUMPDEST PUSH0 PUSH2 0xBDA PUSH2 0xBD5 DUP5 PUSH2 0xB8A JUMP JUMPDEST PUSH2 0xB70 JUMP JUMPDEST SWAP1 POP DUP3 DUP2 MSTORE PUSH1 0x20 DUP2 ADD DUP5 DUP5 DUP5 ADD GT ISZERO PUSH2 0xBF6 JUMPI PUSH2 0xBF5 PUSH2 0xAFE JUMP JUMPDEST JUMPDEST PUSH2 0xC01 DUP5 DUP3 DUP6 PUSH2 0xBBA JUMP JUMPDEST POP SWAP4 SWAP3 POP POP POP JUMP JUMPDEST PUSH0 DUP3 PUSH1 0x1F DUP4 ADD SLT PUSH2 0xC1D JUMPI PUSH2 0xC1C PUSH2 0xAFA JUMP JUMPDEST JUMPDEST DUP2 MLOAD PUSH2 0xC2D DUP5 DUP3 PUSH1 0x20 DUP7 ADD PUSH2 0xBC8 JUMP JUMPDEST SWAP2 POP POP SWAP3 SWAP2 POP POP JUMP JUMPDEST PUSH0 DUP1 PUSH1 0x40 DUP4 DUP6 SUB SLT ISZERO PUSH2 0xC4C JUMPI PUSH2 0xC4B PUSH2 0x6BC JUMP JUMPDEST JUMPDEST PUSH0 PUSH2 0xC59 DUP6 DUP3 DUP7 ADD PUSH2 0xAE6 JUMP JUMPDEST SWAP3 POP POP PUSH1 0x20 DUP4 ADD MLOAD PUSH8 0xFFFFFFFFFFFFFFFF DUP2 GT ISZERO PUSH2 0xC7A JUMPI PUSH2 0xC79 PUSH2 0x6C0 JUMP JUMPDEST JUMPDEST PUSH2 0xC86 DUP6 DUP3 DUP7 ADD PUSH2 0xC09 JUMP JUMPDEST SWAP2 POP POP SWAP3 POP SWAP3 SWAP1 POP JUMP JUMPDEST PUSH0 PUSH32 0xFFFFFFFF00000000000000000000000000000000000000000000000000000000 DUP3 AND SWAP1 POP SWAP2 SWAP1 POP JUMP JUMPDEST PUSH0 DUP2 SWAP1 POP SWAP2 SWAP1 POP JUMP JUMPDEST PUSH2 0xCD5 PUSH2 0xCD0 DUP3 PUSH2 0xC90 JUMP JUMPDEST PUSH2 0xCBB JUMP JUMPDEST DUP3 MSTORE POP POP JUMP JUMPDEST PUSH0 DUP2 MLOAD SWAP1 POP SWAP2 SWAP1 POP JUMP JUMPDEST PUSH0 DUP2 SWAP1 POP SWAP3 SWAP2 POP POP JUMP JUMPDEST PUSH0 PUSH2 0xCF9 DUP3 PUSH2 0xCDB JUMP JUMPDEST PUSH2 0xD03 DUP2 DUP6 PUSH2 0xCE5 JUMP JUMPDEST SWAP4 POP PUSH2 0xD13 DUP2 DUP6 PUSH1 0x20 DUP7 ADD PUSH2 0xBBA JUMP JUMPDEST DUP1 DUP5 ADD SWAP2 POP POP SWAP3 SWAP2 POP POP JUMP JUMPDEST PUSH0 PUSH2 0xD2A DUP3 DUP6 PUSH2 0xCC4 JUMP JUMPDEST PUSH1 0x4 DUP3 ADD SWAP2 POP PUSH2 0xD3A DUP3 DUP5 PUSH2 0xCEF JUMP JUMPDEST SWAP2 POP DUP2 SWAP1 POP SWAP4 SWAP3 POP POP POP JUMP JUMPDEST PUSH0 DUP3 DUP3 MSTORE PUSH1 0x20 DUP3 ADD SWAP1 POP SWAP3 SWAP2 POP POP JUMP JUMPDEST PUSH0 PUSH2 0xD60 DUP3 PUSH2 0xCDB JUMP JUMPDEST PUSH2 0xD6A DUP2 DUP6 PUSH2 0xD46 JUMP JUMPDEST SWAP4 POP PUSH2 0xD7A DUP2 DUP6 PUSH1 0x20 DUP7 ADD PUSH2 0xBBA JUMP JUMPDEST PUSH2 0xD83 DUP2 PUSH2 0xB02 JUMP JUMPDEST DUP5 ADD SWAP2 POP POP SWAP3 SWAP2 POP POP JUMP JUMPDEST PUSH0 PUSH1 0x20 DUP3 ADD SWAP1 POP DUP2 DUP2 SUB PUSH0 DUP4 ADD MSTORE PUSH2 0xDA6 DUP2 DUP5 PUSH2 0xD56 JUMP JUMPDEST SWAP1 POP SWAP3 SWAP2 POP POP JUMP JUMPDEST PUSH2 0xDB7 DUP2 PUSH2 0x6C4 JUMP JUMPDEST DUP3 MSTORE POP POP JUMP JUMPDEST PUSH0 PUSH1 0x20 DUP3 ADD SWAP1 POP PUSH2 0xDD0 PUSH0 DUP4 ADD DUP5 PUSH2 0xDAE JUMP JUMPDEST SWAP3 SWAP2 POP POP JUMP JUMPDEST PUSH0 DUP2 MLOAD SWAP1 POP SWAP2 SWAP1 POP JUMP JUMPDEST PUSH0 PUSH2 0xDEA DUP3 PUSH2 0xDD6 JUMP JUMPDEST PUSH2 0xDF4 DUP2 DUP6 PUSH2 0x87E JUMP JUMPDEST SWAP4 POP PUSH2 0xE04 DUP2 DUP6 PUSH1 0x20 DUP7 ADD PUSH2 0xBBA JUMP JUMPDEST PUSH2 0xE0D DUP2 PUSH2 0xB02 JUMP JUMPDEST DUP5 ADD SWAP2 POP POP SWAP3 SWAP2 POP POP JUMP JUMPDEST PUSH0 PUSH1 0x20 DUP3 ADD SWAP1 POP DUP2 DUP2 SUB PUSH0 DUP4 ADD MSTORE PUSH2 0xE30 DUP2 DUP5 PUSH2 0xDE0 JUMP JUMPDEST SWAP1 POP SWAP3 SWAP2 POP POP JUMP JUMPDEST PUSH32 0x4E487B7100000000000000000000000000000000000000000000000000000000 PUSH0 MSTORE PUSH1 0x51 PUSH1 0x4 MSTORE PUSH1 0x24 PUSH0 REVERT INVALID LOG2 PUSH5 0x6970667358 0x22 SLT KECCAK256 SELFBALANCE SLOAD 0x4D OR SWAP10 CODESIZE 0xD4 0xE5 SELFBALANCE POP 0x4F CHAINID TLOAD MSTORE MCOPY EXTCODEHASH 0xF7 0x2F DUP11 PUSH5 0x8BC170D53 0x2E GAS SWAP11 0x2E 0xDE INVALID TIMESTAMP PUSH5 0x736F6C6343 STOP ADDMOD BYTE STOP CALLER "
		},
		"gasEstimates": {
			"creation": {
				"codeDepositCost": "747800",
				"executionCost": "777",
				"totalCost": "748577"
			},
			"external": {
				"TestAbiEncodeCombined()": "infinite",
				"testABiSeletor()": "infinite",
				"testAbiCall()": "infinite",
				"testAbiDecode()": "infinite",
				"testAbiEncode()": "infinite",
				"testAbiEncodePacked()": "infinite",
				"testAbiMethod(uint256,bytes2)": "601",
				"testAbiSignature()": "infinite"
			}
		},
		"methodIdentifiers": {
			"TestAbiEncodeCombined()": "0df60b1e",
			"testABiSeletor()": "b0d07c21",
			"testAbiCall()": "019dcdb9",
			"testAbiDecode()": "aed11580",
			"testAbiEncode()": "595c380e",
			"testAbiEncodePacked()": "38f14e0f",
			"testAbiMethod(uint256,bytes2)": "04d0f4e9",
			"testAbiSignature()": "63a3d4b6"
		}
	},
	"abi": [
		{
			"inputs": [],
			"name": "TestAbiEncodeCombined",
			"outputs": [],
			"stateMutability": "pure",
			"type": "function"
		},
		{
			"inputs": [],
			"name": "testABiSeletor",
			"outputs": [],
			"stateMutability": "pure",
			"type": "function"
		},
		{
			"inputs": [],
			"name": "testAbiCall",
			"outputs": [],
			"stateMutability": "pure",
			"type": "function"
		},
		{
			"inputs": [],
			"name": "testAbiDecode",
			"outputs": [],
			"stateMutability": "pure",
			"type": "function"
		},
		{
			"inputs": [],
			"name": "testAbiEncode",
			"outputs": [],
			"stateMutability": "pure",
			"type": "function"
		},
		{
			"inputs": [],
			"name": "testAbiEncodePacked",
			"outputs": [],
			"stateMutability": "pure",
			"type": "function"
		},
		{
			"inputs": [
				{
					"internalType": "uint256",
					"name": "a",
					"type": "uint256"
				},
				{
					"internalType": "bytes2",
					"name": "b",
					"type": "bytes2"
				}
			],
			"name": "testAbiMethod",
			"outputs": [],
			"stateMutability": "nonpayable",
			"type": "function"
		},
		{
			"inputs": [],
			"name": "testAbiSignature",
			"outputs": [],
			"stateMutability": "pure",
			"type": "function"
		}
	]
}